{
  "contractName": "CCNft",
  "abi": [
    {
      "inputs": [],
      "stateMutability": "nonpayable",
      "type": "constructor"
    },
    {
      "anonymous": false,
      "inputs": [
        {
          "indexed": true,
          "internalType": "address",
          "name": "owner",
          "type": "address"
        },
        {
          "indexed": true,
          "internalType": "address",
          "name": "approved",
          "type": "address"
        },
        {
          "indexed": true,
          "internalType": "uint256",
          "name": "tokenId",
          "type": "uint256"
        }
      ],
      "name": "Approval",
      "type": "event"
    },
    {
      "anonymous": false,
      "inputs": [
        {
          "indexed": true,
          "internalType": "address",
          "name": "owner",
          "type": "address"
        },
        {
          "indexed": true,
          "internalType": "address",
          "name": "operator",
          "type": "address"
        },
        {
          "indexed": false,
          "internalType": "bool",
          "name": "approved",
          "type": "bool"
        }
      ],
      "name": "ApprovalForAll",
      "type": "event"
    },
    {
      "anonymous": false,
      "inputs": [
        {
          "indexed": false,
          "internalType": "address",
          "name": "owner",
          "type": "address"
        },
        {
          "indexed": false,
          "internalType": "uint256",
          "name": "tokenId",
          "type": "uint256"
        },
        {
          "indexed": false,
          "internalType": "string",
          "name": "tokenURI",
          "type": "string"
        }
      ],
      "name": "Mint",
      "type": "event"
    },
    {
      "anonymous": false,
      "inputs": [
        {
          "indexed": false,
          "internalType": "uint256",
          "name": "tokenId",
          "type": "uint256"
        },
        {
          "indexed": false,
          "internalType": "address",
          "name": "creator",
          "type": "address"
        }
      ],
      "name": "NftItemCreated",
      "type": "event"
    },
    {
      "anonymous": false,
      "inputs": [
        {
          "indexed": true,
          "internalType": "address",
          "name": "previousOwner",
          "type": "address"
        },
        {
          "indexed": true,
          "internalType": "address",
          "name": "newOwner",
          "type": "address"
        }
      ],
      "name": "OwnershipTransferred",
      "type": "event"
    },
    {
      "anonymous": false,
      "inputs": [
        {
          "indexed": true,
          "internalType": "address",
          "name": "from",
          "type": "address"
        },
        {
          "indexed": true,
          "internalType": "address",
          "name": "to",
          "type": "address"
        },
        {
          "indexed": true,
          "internalType": "uint256",
          "name": "tokenId",
          "type": "uint256"
        }
      ],
      "name": "Transfer",
      "type": "event"
    },
    {
      "inputs": [],
      "name": "_minimumFee",
      "outputs": [
        {
          "internalType": "uint256",
          "name": "",
          "type": "uint256"
        }
      ],
      "stateMutability": "view",
      "type": "function",
      "constant": true
    },
    {
      "inputs": [
        {
          "internalType": "address",
          "name": "to",
          "type": "address"
        },
        {
          "internalType": "uint256",
          "name": "tokenId",
          "type": "uint256"
        }
      ],
      "name": "approve",
      "outputs": [],
      "stateMutability": "nonpayable",
      "type": "function"
    },
    {
      "inputs": [
        {
          "internalType": "address",
          "name": "owner",
          "type": "address"
        }
      ],
      "name": "balanceOf",
      "outputs": [
        {
          "internalType": "uint256",
          "name": "",
          "type": "uint256"
        }
      ],
      "stateMutability": "view",
      "type": "function",
      "constant": true
    },
    {
      "inputs": [],
      "name": "bottlePrice",
      "outputs": [
        {
          "internalType": "uint256",
          "name": "",
          "type": "uint256"
        }
      ],
      "stateMutability": "view",
      "type": "function",
      "constant": true
    },
    {
      "inputs": [
        {
          "internalType": "uint256",
          "name": "tokenId",
          "type": "uint256"
        }
      ],
      "name": "getApproved",
      "outputs": [
        {
          "internalType": "address",
          "name": "",
          "type": "address"
        }
      ],
      "stateMutability": "view",
      "type": "function",
      "constant": true
    },
    {
      "inputs": [
        {
          "internalType": "address",
          "name": "owner",
          "type": "address"
        },
        {
          "internalType": "address",
          "name": "operator",
          "type": "address"
        }
      ],
      "name": "isApprovedForAll",
      "outputs": [
        {
          "internalType": "bool",
          "name": "",
          "type": "bool"
        }
      ],
      "stateMutability": "view",
      "type": "function",
      "constant": true
    },
    {
      "inputs": [],
      "name": "name",
      "outputs": [
        {
          "internalType": "string",
          "name": "",
          "type": "string"
        }
      ],
      "stateMutability": "view",
      "type": "function",
      "constant": true
    },
    {
      "inputs": [],
      "name": "owner",
      "outputs": [
        {
          "internalType": "address",
          "name": "",
          "type": "address"
        }
      ],
      "stateMutability": "view",
      "type": "function",
      "constant": true
    },
    {
      "inputs": [
        {
          "internalType": "uint256",
          "name": "tokenId",
          "type": "uint256"
        }
      ],
      "name": "ownerOf",
      "outputs": [
        {
          "internalType": "address",
          "name": "",
          "type": "address"
        }
      ],
      "stateMutability": "view",
      "type": "function",
      "constant": true
    },
    {
      "inputs": [],
      "name": "paused",
      "outputs": [
        {
          "internalType": "bool",
          "name": "",
          "type": "bool"
        }
      ],
      "stateMutability": "view",
      "type": "function",
      "constant": true
    },
    {
      "inputs": [],
      "name": "renounceOwnership",
      "outputs": [],
      "stateMutability": "nonpayable",
      "type": "function"
    },
    {
      "inputs": [
        {
          "internalType": "uint256",
          "name": "_tokenId",
          "type": "uint256"
        },
        {
          "internalType": "uint256",
          "name": "_salePrice",
          "type": "uint256"
        }
      ],
      "name": "royaltyInfo",
      "outputs": [
        {
          "internalType": "address",
          "name": "",
          "type": "address"
        },
        {
          "internalType": "uint256",
          "name": "",
          "type": "uint256"
        }
      ],
      "stateMutability": "view",
      "type": "function",
      "constant": true
    },
    {
      "inputs": [
        {
          "internalType": "address",
          "name": "from",
          "type": "address"
        },
        {
          "internalType": "address",
          "name": "to",
          "type": "address"
        },
        {
          "internalType": "uint256",
          "name": "tokenId",
          "type": "uint256"
        }
      ],
      "name": "safeTransferFrom",
      "outputs": [],
      "stateMutability": "nonpayable",
      "type": "function"
    },
    {
      "inputs": [
        {
          "internalType": "address",
          "name": "from",
          "type": "address"
        },
        {
          "internalType": "address",
          "name": "to",
          "type": "address"
        },
        {
          "internalType": "uint256",
          "name": "tokenId",
          "type": "uint256"
        },
        {
          "internalType": "bytes",
          "name": "data",
          "type": "bytes"
        }
      ],
      "name": "safeTransferFrom",
      "outputs": [],
      "stateMutability": "nonpayable",
      "type": "function"
    },
    {
      "inputs": [
        {
          "internalType": "address",
          "name": "operator",
          "type": "address"
        },
        {
          "internalType": "bool",
          "name": "approved",
          "type": "bool"
        }
      ],
      "name": "setApprovalForAll",
      "outputs": [],
      "stateMutability": "nonpayable",
      "type": "function"
    },
    {
      "inputs": [],
      "name": "symbol",
      "outputs": [
        {
          "internalType": "string",
          "name": "",
          "type": "string"
        }
      ],
      "stateMutability": "view",
      "type": "function",
      "constant": true
    },
    {
      "inputs": [
        {
          "internalType": "uint256",
          "name": "tokenId",
          "type": "uint256"
        }
      ],
      "name": "tokenURI",
      "outputs": [
        {
          "internalType": "string",
          "name": "",
          "type": "string"
        }
      ],
      "stateMutability": "view",
      "type": "function",
      "constant": true
    },
    {
      "inputs": [
        {
          "internalType": "address",
          "name": "from",
          "type": "address"
        },
        {
          "internalType": "address",
          "name": "to",
          "type": "address"
        },
        {
          "internalType": "uint256",
          "name": "tokenId",
          "type": "uint256"
        }
      ],
      "name": "transferFrom",
      "outputs": [],
      "stateMutability": "nonpayable",
      "type": "function"
    },
    {
      "inputs": [
        {
          "internalType": "address",
          "name": "newOwner",
          "type": "address"
        }
      ],
      "name": "transferOwnership",
      "outputs": [],
      "stateMutability": "nonpayable",
      "type": "function"
    },
    {
      "inputs": [],
      "name": "txFeeToken",
      "outputs": [
        {
          "internalType": "address",
          "name": "",
          "type": "address"
        }
      ],
      "stateMutability": "view",
      "type": "function",
      "constant": true
    },
    {
      "inputs": [
        {
          "internalType": "string",
          "name": "tokenURI",
          "type": "string"
        }
      ],
      "name": "mintNFT",
      "outputs": [
        {
          "internalType": "uint256",
          "name": "",
          "type": "uint256"
        }
      ],
      "stateMutability": "nonpayable",
      "type": "function"
    },
    {
      "inputs": [
        {
          "internalType": "uint256",
          "name": "tokenId",
          "type": "uint256"
        }
      ],
      "name": "burn",
      "outputs": [],
      "stateMutability": "nonpayable",
      "type": "function"
    },
    {
      "inputs": [
        {
          "internalType": "uint256",
          "name": "tokenId",
          "type": "uint256"
        }
      ],
      "name": "getNftInfo",
      "outputs": [
        {
          "components": [
            {
              "internalType": "uint256",
              "name": "tokenId",
              "type": "uint256"
            },
            {
              "internalType": "address",
              "name": "creator",
              "type": "address"
            }
          ],
          "internalType": "struct CCNft.NftItem",
          "name": "",
          "type": "tuple"
        }
      ],
      "stateMutability": "view",
      "type": "function",
      "constant": true
    },
    {
      "inputs": [],
      "name": "getAllNFTs",
      "outputs": [
        {
          "components": [
            {
              "internalType": "uint256",
              "name": "tokenId",
              "type": "uint256"
            },
            {
              "internalType": "address",
              "name": "creator",
              "type": "address"
            }
          ],
          "internalType": "struct CCNft.NftItem[]",
          "name": "",
          "type": "tuple[]"
        }
      ],
      "stateMutability": "view",
      "type": "function",
      "constant": true
    },
    {
      "inputs": [
        {
          "internalType": "uint256[]",
          "name": "_tokensIds",
          "type": "uint256[]"
        }
      ],
      "name": "getAllNftsOnSale",
      "outputs": [
        {
          "components": [
            {
              "internalType": "uint256",
              "name": "tokenId",
              "type": "uint256"
            },
            {
              "internalType": "address",
              "name": "creator",
              "type": "address"
            }
          ],
          "internalType": "struct CCNft.NftItem[]",
          "name": "",
          "type": "tuple[]"
        }
      ],
      "stateMutability": "view",
      "type": "function",
      "constant": true
    },
    {
      "inputs": [],
      "name": "getOwnedNfts",
      "outputs": [
        {
          "components": [
            {
              "internalType": "uint256",
              "name": "tokenId",
              "type": "uint256"
            },
            {
              "internalType": "address",
              "name": "creator",
              "type": "address"
            }
          ],
          "internalType": "struct CCNft.NftItem[]",
          "name": "",
          "type": "tuple[]"
        }
      ],
      "stateMutability": "view",
      "type": "function",
      "constant": true
    },
    {
      "inputs": [
        {
          "internalType": "bytes4",
          "name": "interfaceId",
          "type": "bytes4"
        }
      ],
      "name": "supportsInterface",
      "outputs": [
        {
          "internalType": "bool",
          "name": "",
          "type": "bool"
        }
      ],
      "stateMutability": "view",
      "type": "function",
      "constant": true
    },
    {
      "inputs": [],
      "name": "totalSupply",
      "outputs": [
        {
          "internalType": "uint256",
          "name": "",
          "type": "uint256"
        }
      ],
      "stateMutability": "view",
      "type": "function",
      "constant": true
    },
    {
      "inputs": [
        {
          "internalType": "uint256",
          "name": "index",
          "type": "uint256"
        }
      ],
      "name": "tokenByIndex",
      "outputs": [
        {
          "internalType": "uint256",
          "name": "",
          "type": "uint256"
        }
      ],
      "stateMutability": "view",
      "type": "function",
      "constant": true
    },
    {
      "inputs": [
        {
          "internalType": "address",
          "name": "owner",
          "type": "address"
        },
        {
          "internalType": "uint256",
          "name": "index",
          "type": "uint256"
        }
      ],
      "name": "tokenOfOwnerByIndex",
      "outputs": [
        {
          "internalType": "uint256",
          "name": "",
          "type": "uint256"
        }
      ],
      "stateMutability": "view",
      "type": "function",
      "constant": true
    }
  ],
  "bytecode": "0x6080604052662e2f6e5e148000600b5566470de4df820000600c55600d805460ff191690553480156200003157600080fd5b506040518060400160405280600881526020016710d85cdadcd3919560c21b8152506040518060400160405280600681526020016510d4d2d3919560d21b8152508160009081620000839190620001b0565b506001620000928282620001b0565b505050620000af620000a9620000b560201b60201c565b620000b9565b6200027c565b3390565b600980546001600160a01b038381166001600160a01b0319831681179093556040519116919082907f8be0079c531659141344cd1fd0a4f28419497f9722a3daafe3b4186f6b6457e090600090a35050565b634e487b7160e01b600052604160045260246000fd5b600181811c908216806200013657607f821691505b6020821081036200015757634e487b7160e01b600052602260045260246000fd5b50919050565b601f821115620001ab57600081815260208120601f850160051c81016020861015620001865750805b601f850160051c820191505b81811015620001a75782815560010162000192565b5050505b505050565b81516001600160401b03811115620001cc57620001cc6200010b565b620001e481620001dd845462000121565b846200015d565b602080601f8311600181146200021c5760008415620002035750858301515b600019600386901b1c1916600185901b178555620001a7565b600085815260208120601f198616915b828110156200024d578886015182559484019460019091019084016200022c565b50858210156200026c5787850151600019600388901b60f8161c191681555b5050505050600190811b01905550565b6127ce806200028c6000396000f3fe608060405234801561001057600080fd5b50600436106101da5760003560e01c806370a0823111610104578063b88d4fde116100a2578063e0391b0911610071578063e0391b091461043b578063e985e9c514610443578063f2fde38b1461047f578063fb37e8831461049257600080fd5b8063b88d4fde146103a0578063c87b56dd146103b3578063ca32232c146103c6578063d5ec2d83146103d957600080fd5b806377c567a7116100de57806377c567a7146103615780638da5cb5b1461037457806395d89b4114610385578063a22cb4651461038d57600080fd5b806370a082311461033157806370cbcb4314610344578063715018a61461035957600080fd5b80632a55205a1161017c57806342966c681161014b57806342966c68146102eb5780634f6ccce7146102fe5780635c975abb146103115780636352211e1461031e57600080fd5b80632a55205a1461028a5780632f745c59146102bc57806340fb561c146102cf57806342842e0e146102d857600080fd5b8063095ea7b3116101b8578063095ea7b31461024757806318160ddd1461025c578063203f12ce1461026e57806323b872dd1461027757600080fd5b806301ffc9a7146101df57806306fdde0314610207578063081812fc1461021c575b600080fd5b6101f26101ed366004611f7b565b6104a5565b60405190151581526020015b60405180910390f35b61020f6104b6565b6040516101fe9190611fe8565b61022f61022a366004611ffb565b610548565b6040516001600160a01b0390911681526020016101fe565b61025a61025536600461202b565b61056f565b005b6017545b6040519081526020016101fe565b610260600c5481565b61025a610285366004612055565b610689565b61029d610298366004612091565b6106ba565b604080516001600160a01b0390931683526020830191909152016101fe565b6102606102ca36600461202b565b610766565b610260600b5481565b61025a6102e6366004612055565b6107de565b61025a6102f9366004611ffb565b6107f9565b61026061030c366004611ffb565b61081e565b600d546101f29060ff1681565b61022f61032c366004611ffb565b610892565b61026061033f3660046120b3565b6108f2565b61034c610978565b6040516101fe91906120ce565b61025a610a73565b600a5461022f906001600160a01b031681565b6009546001600160a01b031661022f565b61020f610a87565b61025a61039b36600461212e565b610a96565b61025a6103ae366004612209565b610aa5565b61020f6103c1366004611ffb565b610add565b61034c6103d4366004612285565b610bed565b61042e6103e7366004611ffb565b604080518082019091526000808252602082015250600090815260106020908152604091829020825180840190935280548352600101546001600160a01b03169082015290565b6040516101fe919061232b565b61034c610d02565b6101f261045136600461234b565b6001600160a01b03918216600090815260056020908152604080832093909416825291909152205460ff1690565b61025a61048d3660046120b3565b610e0b565b6102606104a036600461237e565b610e81565b60006104b082610fb0565b92915050565b6060600080546104c5906123c7565b80601f01602080910402602001604051908101604052809291908181526020018280546104f1906123c7565b801561053e5780601f106105135761010080835404028352916020019161053e565b820191906000526020600020905b81548152906001019060200180831161052157829003601f168201915b5050505050905090565b600061055382610fd5565b506000908152600460205260409020546001600160a01b031690565b600061057a82610892565b9050806001600160a01b0316836001600160a01b0316036105ec5760405162461bcd60e51b815260206004820152602160248201527f4552433732313a20617070726f76616c20746f2063757272656e74206f776e656044820152603960f91b60648201526084015b60405180910390fd5b336001600160a01b038216148061060857506106088133610451565b61067a5760405162461bcd60e51b815260206004820152603d60248201527f4552433732313a20617070726f76652063616c6c6572206973206e6f7420746f60448201527f6b656e206f776e6572206f7220617070726f76656420666f7220616c6c00000060648201526084016105e3565b6106848383611034565b505050565b61069333826110a2565b6106af5760405162461bcd60e51b81526004016105e390612401565b610684838383611120565b60008281526008602090815260408083208151808301909252546001600160a01b038116808352600160a01b9091046001600160601b031692820192909252829161072f5750604080518082019091526007546001600160a01b0381168252600160a01b90046001600160601b031660208201525b60208101516000906127109061074e906001600160601b031687612464565b6107589190612491565b915196919550909350505050565b6000610771836108f2565b82106107b55760405162461bcd60e51b8152602060048201526013602482015272496e646578206f7574206f6620626f756e647360681b60448201526064016105e3565b506001600160a01b03919091166000908152601360209081526040808320938352929052205490565b61068483838360405180602001604052806000815250610aa5565b610801611291565b61080a816112eb565b600090815260086020526040812055565b50565b600061082960175490565b821061086d5760405162461bcd60e51b8152602060048201526013602482015272496e646578206f7574206f6620626f756e647360681b60448201526064016105e3565b60178281548110610880576108806124b3565b90600052602060002001549050919050565b6000818152600260205260408120546001600160a01b0316806104b05760405162461bcd60e51b8152602060048201526018602482015277115490cdcc8c4e881a5b9d985b1a59081d1bdad95b88125160421b60448201526064016105e3565b60006001600160a01b03821661095c5760405162461bcd60e51b815260206004820152602960248201527f4552433732313a2061646472657373207a65726f206973206e6f7420612076616044820152683634b21037bbb732b960b91b60648201526084016105e3565b506001600160a01b031660009081526003602052604090205490565b60606000610985336108f2565b905060008167ffffffffffffffff8111156109a2576109a261216a565b6040519080825280602002602001820160405280156109e757816020015b60408051808201909152600080825260208201528152602001906001900390816109c05790505b50905060005b82811015610a6c576000610a013383610766565b60008181526010602090815260409182902082518084019093528054835260018101546001600160a01b031691830191909152855192935091859085908110610a4c57610a4c6124b3565b602002602001018190525050508080610a64906124c9565b9150506109ed565b5092915050565b610a7b611291565b610a85600061132b565b565b6060600180546104c5906123c7565b610aa133838361137d565b5050565b610aaf33836110a2565b610acb5760405162461bcd60e51b81526004016105e390612401565b610ad78484848461144b565b50505050565b6060610ae882610fd5565b60008281526006602052604081208054610b01906123c7565b80601f0160208091040260200160405190810160405280929190818152602001828054610b2d906123c7565b8015610b7a5780601f10610b4f57610100808354040283529160200191610b7a565b820191906000526020600020905b815481529060010190602001808311610b5d57829003601f168201915b505050505090506000610b9860408051602081019091526000815290565b90508051600003610baa575092915050565b815115610bdc578082604051602001610bc49291906124e2565b60405160208183030381529060405292505050919050565b610be58461147e565b949350505050565b6060600080835167ffffffffffffffff811115610c0c57610c0c61216a565b604051908082528060200260200182016040528015610c5157816020015b6040805180820190915260008082526020820152815260200190600190039081610c2a5790505b50905060005b8451811015610cfa57600060106000878481518110610c7857610c786124b3565b602090810291909101810151825281810192909252604090810160002081518083019092528054825260018101546001600160a01b031692820192909252845191925090849086908110610cce57610cce6124b3565b6020908102919091010152610ce4600185612511565b9350508080610cf2906124c9565b915050610c57565b509392505050565b60606000610d0f60175490565b9050600080610d1d600e5490565b67ffffffffffffffff811115610d3557610d3561216a565b604051908082528060200260200182016040528015610d7a57816020015b6040805180820190915260008082526020820152815260200190600190039081610d535790505b50905060005b83811015610cfa576000610d938261081e565b60008181526010602090815260409182902082518084019093528054835260018101546001600160a01b031691830191909152855192935091859087908110610dde57610dde6124b3565b6020908102919091010152610df4600186612511565b945050508080610e03906124c9565b915050610d80565b610e13611291565b6001600160a01b038116610e785760405162461bcd60e51b815260206004820152602660248201527f4f776e61626c653a206e6577206f776e657220697320746865207a65726f206160448201526564647265737360d01b60648201526084016105e3565b61081b8161132b565b6000610e8b611291565b610e94826114f2565b15610ee15760405162461bcd60e51b815260206004820152601860248201527f546f6b656e2055524920616c726561647920657869737473000000000000000060448201526064016105e3565b610eef600e80546001019055565b6000610efa600e5490565b90506000610f0742611522565b9050610f133383611542565b610f1d828561155c565b610f26826115ef565b6001600f85604051610f389190612524565b9081526040805160209281900383018120805460ff1916941515949094179093556000858152601483528181208582529092528120557f85a66b9141978db9980f7e0ce3b468cebf4f7999f32b23091c5c03e798b1ba7a90610f9f90339085908890612540565b60405180910390a15090505b919050565b60006001600160e01b0319821663152a902d60e11b14806104b057506104b08261166f565b6000818152600260205260409020546001600160a01b031661081b5760405162461bcd60e51b8152602060048201526018602482015277115490cdcc8c4e881a5b9d985b1a59081d1bdad95b88125160421b60448201526064016105e3565b600081815260046020526040902080546001600160a01b0319166001600160a01b038416908117909155819061106982610892565b6001600160a01b03167f8c5be1e5ebec7d5bd14f71427d1e84f3dd0314c0f7b2291e5b200ac8c7c3b92560405160405180910390a45050565b6000806110ae83610892565b9050806001600160a01b0316846001600160a01b031614806110f557506001600160a01b0380821660009081526005602090815260408083209388168352929052205460ff165b80610be55750836001600160a01b031661110e84610548565b6001600160a01b031614949350505050565b826001600160a01b031661113382610892565b6001600160a01b0316146111595760405162461bcd60e51b81526004016105e390612570565b6001600160a01b0382166111bb5760405162461bcd60e51b8152602060048201526024808201527f4552433732313a207472616e7366657220746f20746865207a65726f206164646044820152637265737360e01b60648201526084016105e3565b6111c883838360016116bf565b826001600160a01b03166111db82610892565b6001600160a01b0316146112015760405162461bcd60e51b81526004016105e390612570565b600081815260046020908152604080832080546001600160a01b03199081169091556001600160a01b0387811680865260038552838620805460001901905590871680865283862080546001019055868652600290945282852080549092168417909155905184937fddf252ad1be2c89b69c2b068fc378daa952ba7f163c4a11628f55a4df523b3ef91a4505050565b6009546001600160a01b03163314610a855760405162461bcd60e51b815260206004820181905260248201527f4f776e61626c653a2063616c6c6572206973206e6f7420746865206f776e657260448201526064016105e3565b6112f481611788565b6000818152600660205260409020805461130d906123c7565b15905061081b57600081815260066020526040812061081b91611f17565b600980546001600160a01b038381166001600160a01b0319831681179093556040519116919082907f8be0079c531659141344cd1fd0a4f28419497f9722a3daafe3b4186f6b6457e090600090a35050565b816001600160a01b0316836001600160a01b0316036113de5760405162461bcd60e51b815260206004820152601960248201527f4552433732313a20617070726f766520746f2063616c6c65720000000000000060448201526064016105e3565b6001600160a01b03838116600081815260056020908152604080832094871680845294825291829020805460ff191686151590811790915591519182527f17307eab39ab6107e8899845ad3d59bd9653f200f220920489ca2b5937696c31910160405180910390a3505050565b611456848484611120565b6114628484848461182b565b610ad75760405162461bcd60e51b81526004016105e3906125b5565b606061148982610fd5565b60006114a060408051602081019091526000815290565b905060008151116114c057604051806020016040528060008152506114eb565b806114ca8461192c565b6040516020016114db9291906124e2565b6040516020818303038152906040525b9392505050565b6000600f826040516115049190612524565b9081526040519081900360200190205460ff16151560011492915050565b60006115396115346201518084612491565b6119bf565b50909392505050565b610aa1828260405180602001604052806000815250611a5b565b6000828152600260205260409020546001600160a01b03166115d75760405162461bcd60e51b815260206004820152602e60248201527f45524337323155524953746f726167653a2055524920736574206f66206e6f6e60448201526d32bc34b9ba32b73a103a37b5b2b760911b60648201526084016105e3565b60008281526006602052604090206106848282612655565b6040805180820182528281523360208083018281526000868152601083528590209351845551600190930180546001600160a01b0319166001600160a01b03909416939093179092558251848152918201527f93beb01ee4f5d2f89d0a0d55db47459601413c9ef0b552599f3ed68f27f82c79910160405180910390a150565b60006001600160e01b031982166380ac58cd60e01b14806116a057506001600160e01b03198216635b5e139f60e01b145b806104b057506301ffc9a760e01b6001600160e01b03198316146104b0565b6116cb84848484611a8e565b6001600160a01b0384166117265761172182601780546000838152601160205260408120829055600182018355919091527fc624b66cc0138b8fabc209247f72d758e1cf3343756d543badbf24212bed8c150155565b611749565b826001600160a01b0316846001600160a01b031614611749576117498483611b16565b6001600160a01b0383166117655761176082611bb3565b610ad7565b836001600160a01b0316836001600160a01b031614610ad757610ad78383611c62565b600061179382610892565b90506117a38160008460016116bf565b6117ac82610892565b600083815260046020908152604080832080546001600160a01b03199081169091556001600160a01b0385168085526003845282852080546000190190558785526002909352818420805490911690555192935084927fddf252ad1be2c89b69c2b068fc378daa952ba7f163c4a11628f55a4df523b3ef908390a45050565b60006001600160a01b0384163b1561192157604051630a85bd0160e11b81526001600160a01b0385169063150b7a029061186f903390899088908890600401612715565b6020604051808303816000875af19250505080156118aa575060408051601f3d908101601f191682019092526118a791810190612752565b60015b611907573d8080156118d8576040519150601f19603f3d011682016040523d82523d6000602084013e6118dd565b606091505b5080516000036118ff5760405162461bcd60e51b81526004016105e3906125b5565b805181602001fd5b6001600160e01b031916630a85bd0160e11b149050610be5565b506001949350505050565b6060600061193983611ca6565b600101905060008167ffffffffffffffff8111156119595761195961216a565b6040519080825280601f01601f191660200182016040528015611983576020820181803683370190505b5090508181016020015b600019016f181899199a1a9b1b9c1cb0b131b232b360811b600a86061a8153600a850494508461198d57509392505050565b60008080836226496581018262023ab1600483020590506004600362023ab18302010590910390600062164b09610fa0600185010205905060046105b58202058303601f019250600061098f8460500281611a1c57611a1c61247b565b0590506000605061098f83020585039050600b820560301994909401606402929092018301996002600c90940290910392909201975095509350505050565b611a658383611d7e565b611a72600084848461182b565b6106845760405162461bcd60e51b81526004016105e3906125b5565b6001811115610ad7576001600160a01b03841615611ad4576001600160a01b03841660009081526003602052604081208054839290611ace90849061276f565b90915550505b6001600160a01b03831615610ad7576001600160a01b03831660009081526003602052604081208054839290611b0b908490612511565b909155505050505050565b60006001611b23846108f2565b611b2d919061276f565b600083815260126020526040902054909150808214611b80576001600160a01b03841660009081526013602090815260408083208584528252808320548484528184208190558352601290915290208190555b5060009182526012602090815260408084208490556001600160a01b039094168352601381528383209183525290812055565b601754600090611bc59060019061276f565b60008381526011602052604081205460178054939450909284908110611bed57611bed6124b3565b906000526020600020015490508060178381548110611c0e57611c0e6124b3565b6000918252602080832090910192909255828152601190915260408082208490558582528120556017805480611c4657611c46612782565b6001900381819060005260206000200160009055905550505050565b6000611c6d836108f2565b6001600160a01b039093166000908152601360209081526040808320868452825280832085905593825260129052919091209190915550565b60008072184f03e93ff9f4daa797ed6e38ed64bf6a1f0160401b8310611ce55772184f03e93ff9f4daa797ed6e38ed64bf6a1f0160401b830492506040015b6d04ee2d6d415b85acef81000000008310611d11576d04ee2d6d415b85acef8100000000830492506020015b662386f26fc100008310611d2f57662386f26fc10000830492506010015b6305f5e1008310611d47576305f5e100830492506008015b6127108310611d5b57612710830492506004015b60648310611d6d576064830492506002015b600a83106104b05760010192915050565b6001600160a01b038216611dd45760405162461bcd60e51b815260206004820181905260248201527f4552433732313a206d696e7420746f20746865207a65726f206164647265737360448201526064016105e3565b6000818152600260205260409020546001600160a01b031615611e395760405162461bcd60e51b815260206004820152601c60248201527f4552433732313a20746f6b656e20616c7265616479206d696e7465640000000060448201526064016105e3565b611e476000838360016116bf565b6000818152600260205260409020546001600160a01b031615611eac5760405162461bcd60e51b815260206004820152601c60248201527f4552433732313a20746f6b656e20616c7265616479206d696e7465640000000060448201526064016105e3565b6001600160a01b038216600081815260036020908152604080832080546001019055848352600290915280822080546001600160a01b0319168417905551839291907fddf252ad1be2c89b69c2b068fc378daa952ba7f163c4a11628f55a4df523b3ef908290a45050565b508054611f23906123c7565b6000825580601f10611f33575050565b601f01602090049060005260206000209081019061081b91905b80821115611f615760008155600101611f4d565b5090565b6001600160e01b03198116811461081b57600080fd5b600060208284031215611f8d57600080fd5b81356114eb81611f65565b60005b83811015611fb3578181015183820152602001611f9b565b50506000910152565b60008151808452611fd4816020860160208601611f98565b601f01601f19169290920160200192915050565b6020815260006114eb6020830184611fbc565b60006020828403121561200d57600080fd5b5035919050565b80356001600160a01b0381168114610fab57600080fd5b6000806040838503121561203e57600080fd5b61204783612014565b946020939093013593505050565b60008060006060848603121561206a57600080fd5b61207384612014565b925061208160208501612014565b9150604084013590509250925092565b600080604083850312156120a457600080fd5b50508035926020909101359150565b6000602082840312156120c557600080fd5b6114eb82612014565b602080825282518282018190526000919060409081850190868401855b8281101561212157612111848351805182526020908101516001600160a01b0316910152565b92840192908501906001016120eb565b5091979650505050505050565b6000806040838503121561214157600080fd5b61214a83612014565b91506020830135801515811461215f57600080fd5b809150509250929050565b634e487b7160e01b600052604160045260246000fd5b604051601f8201601f1916810167ffffffffffffffff811182821017156121a9576121a961216a565b604052919050565b600067ffffffffffffffff8311156121cb576121cb61216a565b6121de601f8401601f1916602001612180565b90508281528383830111156121f257600080fd5b828260208301376000602084830101529392505050565b6000806000806080858703121561221f57600080fd5b61222885612014565b935061223660208601612014565b925060408501359150606085013567ffffffffffffffff81111561225957600080fd5b8501601f8101871361226a57600080fd5b612279878235602084016121b1565b91505092959194509250565b6000602080838503121561229857600080fd5b823567ffffffffffffffff808211156122b057600080fd5b818501915085601f8301126122c457600080fd5b8135818111156122d6576122d661216a565b8060051b91506122e7848301612180565b818152918301840191848101908884111561230157600080fd5b938501935b8385101561231f57843582529385019390850190612306565b98975050505050505050565b815181526020808301516001600160a01b031690820152604081016104b0565b6000806040838503121561235e57600080fd5b61236783612014565b915061237560208401612014565b90509250929050565b60006020828403121561239057600080fd5b813567ffffffffffffffff8111156123a757600080fd5b8201601f810184136123b857600080fd5b610be5848235602084016121b1565b600181811c908216806123db57607f821691505b6020821081036123fb57634e487b7160e01b600052602260045260246000fd5b50919050565b6020808252602d908201527f4552433732313a2063616c6c6572206973206e6f7420746f6b656e206f776e6560408201526c1c881bdc88185c1c1c9bdd9959609a1b606082015260800190565b634e487b7160e01b600052601160045260246000fd5b80820281158282048414176104b0576104b061244e565b634e487b7160e01b600052601260045260246000fd5b6000826124ae57634e487b7160e01b600052601260045260246000fd5b500490565b634e487b7160e01b600052603260045260246000fd5b6000600182016124db576124db61244e565b5060010190565b600083516124f4818460208801611f98565b835190830190612508818360208801611f98565b01949350505050565b808201808211156104b0576104b061244e565b60008251612536818460208701611f98565b9190910192915050565b60018060a01b03841681528260208201526060604082015260006125676060830184611fbc565b95945050505050565b60208082526025908201527f4552433732313a207472616e736665722066726f6d20696e636f72726563742060408201526437bbb732b960d91b606082015260800190565b60208082526032908201527f4552433732313a207472616e7366657220746f206e6f6e20455243373231526560408201527131b2b4bb32b91034b6b83632b6b2b73a32b960711b606082015260800190565b601f82111561068457600081815260208120601f850160051c8101602086101561262e5750805b601f850160051c820191505b8181101561264d5782815560010161263a565b505050505050565b815167ffffffffffffffff81111561266f5761266f61216a565b6126838161267d84546123c7565b84612607565b602080601f8311600181146126b857600084156126a05750858301515b600019600386901b1c1916600185901b17855561264d565b600085815260208120601f198616915b828110156126e7578886015182559484019460019091019084016126c8565b50858210156127055787850151600019600388901b60f8161c191681555b5050505050600190811b01905550565b6001600160a01b038581168252841660208201526040810183905260806060820181905260009061274890830184611fbc565b9695505050505050565b60006020828403121561276457600080fd5b81516114eb81611f65565b818103818111156104b0576104b061244e565b634e487b7160e01b600052603160045260246000fdfea2646970667358221220697bd74a54c2869f2017faeecfad4d31f3727e6c95a4d44accd7e99e064bdaf464736f6c63430008110033",
  "immutableReferences": {},
  "source": "// SPDX-License-Identifier: MIT\npragma solidity >=0.4.22 <0.9.0;\n\nimport '@openzeppelin/contracts/token/common/ERC2981.sol';\nimport '@openzeppelin/contracts/token/ERC721/extensions/ERC721URIStorage.sol';\nimport '@openzeppelin/contracts/access/Ownable.sol';\nimport '@openzeppelin/contracts/utils/Counters.sol';\nimport '@openzeppelin/contracts/token/ERC20/IERC20.sol';\nimport '@openzeppelin/contracts/utils/math/SafeMath.sol';\nimport '@openzeppelin/contracts/token/ERC20/ERC20.sol';\n\ncontract CCNft is ERC721URIStorage, ERC2981, Ownable {\n  using SafeMath for uint256;\n  using Counters for Counters.Counter;\n\n  struct ERC20Token {\n    address paytoken;\n    uint256 costvalue;\n  }\n\n  struct NftItem {\n    uint256 tokenId;\n    address creator;\n  }\n\n  address public txFeeToken;\n  uint public bottlePrice = 0.013 ether;\n  uint public _minimumFee = 0.02 ether;\n  uint256 constant SECONDS_PER_DAY = 24 * 60 * 60;\n  int256 constant OFFSET19700101 = 2440588;\n  bool public paused = false;\n\n  Counters.Counter private _tokenIds;\n\n  // TokenURI => Bool (Is used?)\n  mapping(string => bool) private _usedTokenURIs;\n  // NFT id => NftItem\n  mapping(uint256 => NftItem) private _idToNftItem;\n  // NFT id => Index\n  mapping(uint256 => uint256) private _idToNftIndex;\n  // NFT id => ERC20 share\n  mapping(uint256 => uint256) private _idToOwnedIndex;\n  // Account address => NFT Id => Index\n  mapping(address => mapping(uint256 => uint256)) private _ownedTokens;\n  // NFT id => Year => Extractions\n  mapping(uint256 => mapping(uint256 => uint256))\n    private _tokensExtractionsByYear;\n  // NFT id => Address[]\n  mapping(uint256 => address) _idToNftCreator;\n  // Address => Booelan\n  mapping(uint256 => address[]) addressesFromTokenId;\n\n  uint256[] private _allNfts;\n\n  event Mint(address owner, uint256 tokenId, string tokenURI);\n\n  event NftItemCreated(uint256 tokenId, address creator);\n\n  constructor() ERC721('CasksNFT', 'CSKNFT') {}\n\n  /////////////////////\n  // Main Functions //\n  /////////////////////\n\n  function mintNFT(string memory tokenURI) public onlyOwner returns (uint256) {\n    require(!_tokenURIExists(tokenURI), 'Token URI already exists');\n\n    _tokenIds.increment();\n\n    uint256 newItemId = _tokenIds.current();\n    uint256 year = getYear(block.timestamp);\n\n    _safeMint(msg.sender, newItemId);\n\n    _setTokenURI(newItemId, tokenURI);\n    _createNftItem(newItemId);\n    _usedTokenURIs[tokenURI] = true;\n    _tokensExtractionsByYear[newItemId][year] = 0;\n\n    // _createNftOffer(newItemId, price, msg.sender);\n\n    emit Mint(msg.sender, newItemId, tokenURI);\n\n    return newItemId;\n  }\n\n  function burn(uint256 tokenId) public onlyOwner {\n    super._burn(tokenId);\n    _resetTokenRoyalty(tokenId);\n  }\n\n  function getNftInfo(uint256 tokenId) external view returns (NftItem memory) {\n    NftItem storage item = _idToNftItem[tokenId];\n    return item;\n  }\n\n  function getAllNFTs() external view returns (NftItem[] memory) {\n    uint allItemsCounts = totalSupply();\n    uint currentIndex = 0;\n    NftItem[] memory items = new NftItem[](_tokenIds.current());\n\n    for (uint i = 0; i < allItemsCounts; i++) {\n      uint tokenId = tokenByIndex(i);\n      NftItem storage item = _idToNftItem[tokenId];\n      items[currentIndex] = item;\n      currentIndex += 1;\n    }\n\n    return items;\n  }\n\n  function getAllNftsOnSale(\n    uint256[] memory _tokensIds\n  ) external view returns (NftItem[] memory) {\n    uint currentIndex = 0;\n    NftItem[] memory items = new NftItem[](_tokensIds.length);\n\n    for (uint i = 0; i < _tokensIds.length; i++) {\n      NftItem storage item = _idToNftItem[_tokensIds[i]];\n      items[currentIndex] = item;\n      currentIndex += 1;\n    }\n\n    return items;\n  }\n\n  function getOwnedNfts() public view returns (NftItem[] memory) {\n    uint ownedItemsCount = ERC721.balanceOf(msg.sender);\n    NftItem[] memory items = new NftItem[](ownedItemsCount);\n\n    for (uint i = 0; i < ownedItemsCount; i++) {\n      uint tokenId = tokenOfOwnerByIndex(msg.sender, i);\n      NftItem storage item = _idToNftItem[tokenId];\n      items[i] = item;\n    }\n\n    return items;\n  }\n\n  function supportsInterface(\n    bytes4 interfaceId\n  ) public view virtual override(ERC721, ERC2981) returns (bool) {\n    return super.supportsInterface(interfaceId);\n  }\n\n  function totalSupply() public view returns (uint256) {\n    return _allNfts.length;\n  }\n\n  function tokenByIndex(uint index) public view returns (uint) {\n    require(index < totalSupply(), 'Index out of bounds');\n    return _allNfts[index];\n  }\n\n  function tokenOfOwnerByIndex(\n    address owner,\n    uint index\n  ) public view returns (uint) {\n    require(index < ERC721.balanceOf(owner), 'Index out of bounds');\n    return _ownedTokens[owner][index];\n  }\n\n  function getYear(uint256 timestamp) internal pure returns (uint256 year) {\n    (year, , ) = _daysToDate(timestamp / SECONDS_PER_DAY);\n  }\n\n  function _tokenURIExists(string memory tokenURI) private view returns (bool) {\n    return _usedTokenURIs[tokenURI] == true;\n  }\n\n  function _createNftItem(uint _tokenId) private {\n    _idToNftItem[_tokenId] = NftItem(_tokenId, msg.sender);\n\n    emit NftItemCreated(_tokenId, msg.sender);\n  }\n\n  function _beforeTokenTransfer(\n    address from,\n    address to,\n    uint tokenId,\n    uint256 batchSize\n  ) internal virtual override {\n    super._beforeTokenTransfer(from, to, tokenId, batchSize);\n\n    if (from == address(0)) {\n      // MINTING CASE\n      _addTokenToAllTokensEnumeration(tokenId);\n    } else if (from != to) {\n      // TRANSFER CASE\n      _removeTokenFromOwnerEnumeration(from, tokenId);\n    }\n\n    if (to == address(0)) {\n      // BURNING CASE\n      _removeTokenFromAllTokensEnumeration(tokenId);\n    } else if (to != from) {\n      // TRANSFER CASE\n      _addTokenToOwnerEnumeration(to, tokenId);\n    }\n  }\n\n  function _addTokenToOwnerEnumeration(address to, uint tokenId) private {\n    uint length = ERC721.balanceOf(to);\n    _ownedTokens[to][length] = tokenId;\n    _idToOwnedIndex[tokenId] = length;\n  }\n\n  function _removeTokenFromOwnerEnumeration(\n    address from,\n    uint tokenId\n  ) private {\n    uint lastTokenIndex = ERC721.balanceOf(from) - 1;\n    uint tokenIndex = _idToOwnedIndex[tokenId];\n\n    if (tokenIndex != lastTokenIndex) {\n      uint lastTokenId = _ownedTokens[from][lastTokenIndex];\n\n      _ownedTokens[from][tokenIndex] = lastTokenId;\n      _idToOwnedIndex[lastTokenId] = tokenIndex;\n    }\n\n    delete _idToOwnedIndex[tokenId];\n    delete _ownedTokens[from][lastTokenIndex];\n  }\n\n  function _addTokenToAllTokensEnumeration(uint tokenId) private {\n    _idToNftIndex[tokenId] = _allNfts.length;\n    _allNfts.push(tokenId);\n  }\n\n  function _removeTokenFromAllTokensEnumeration(uint tokenId) private {\n    uint lastTokenIndex = _allNfts.length - 1;\n    uint tokenIndex = _idToNftIndex[tokenId];\n    uint lastTokenId = _allNfts[lastTokenIndex];\n\n    _allNfts[tokenIndex] = lastTokenId;\n    _idToNftIndex[lastTokenId] = tokenIndex;\n\n    delete _idToNftIndex[tokenId];\n    _allNfts.pop();\n  }\n\n  function _daysToDate(\n    uint256 _days\n  ) internal pure returns (uint256 year, uint256 month, uint256 day) {\n    unchecked {\n      int256 __days = int256(_days);\n\n      int256 L = __days + 68569 + OFFSET19700101;\n      int256 N = (4 * L) / 146097;\n      L = L - (146097 * N + 3) / 4;\n      int256 _year = (4000 * (L + 1)) / 1461001;\n      L = L - (1461 * _year) / 4 + 31;\n      int256 _month = (80 * L) / 2447;\n      int256 _day = L - (2447 * _month) / 80;\n      L = _month / 11;\n      _month = _month + 2 - 12 * L;\n      _year = 100 * (N - 49) + _year + L;\n\n      year = uint256(_year);\n      month = uint256(_month);\n      day = uint256(_day);\n    }\n  }\n}\n",
  "sourcePath": "/Users/alberto/Desktop/Enalbis/myCask/nft-marketplace-frontend/contracts/CCNft.sol",
  "compiler": {
    "name": "solc",
    "version": "0.8.17+commit.8df45f5f.Emscripten.clang"
  },
  "schemaVersion": "3.4.11",
  "updatedAt": "2023-02-03T15:59:29.830Z",
  "networkType": "ethereum",
  "devdoc": {
    "kind": "dev",
    "methods": {
      "approve(address,uint256)": {
        "details": "See {IERC721-approve}."
      },
      "balanceOf(address)": {
        "details": "See {IERC721-balanceOf}."
      },
      "getApproved(uint256)": {
        "details": "See {IERC721-getApproved}."
      },
      "isApprovedForAll(address,address)": {
        "details": "See {IERC721-isApprovedForAll}."
      },
      "name()": {
        "details": "See {IERC721Metadata-name}."
      },
      "owner()": {
        "details": "Returns the address of the current owner."
      },
      "ownerOf(uint256)": {
        "details": "See {IERC721-ownerOf}."
      },
      "renounceOwnership()": {
        "details": "Leaves the contract without owner. It will not be possible to call `onlyOwner` functions anymore. Can only be called by the current owner. NOTE: Renouncing ownership will leave the contract without an owner, thereby removing any functionality that is only available to the owner."
      },
      "royaltyInfo(uint256,uint256)": {
        "details": "Returns how much royalty is owed and to whom, based on a sale price that may be denominated in any unit of exchange. The royalty amount is denominated and should be paid in that same unit of exchange."
      },
      "safeTransferFrom(address,address,uint256)": {
        "details": "See {IERC721-safeTransferFrom}."
      },
      "safeTransferFrom(address,address,uint256,bytes)": {
        "details": "See {IERC721-safeTransferFrom}."
      },
      "setApprovalForAll(address,bool)": {
        "details": "See {IERC721-setApprovalForAll}."
      },
      "symbol()": {
        "details": "See {IERC721Metadata-symbol}."
      },
      "tokenURI(uint256)": {
        "details": "See {IERC721Metadata-tokenURI}."
      },
      "transferFrom(address,address,uint256)": {
        "details": "See {IERC721-transferFrom}."
      },
      "transferOwnership(address)": {
        "details": "Transfers ownership of the contract to a new account (`newOwner`). Can only be called by the current owner."
      }
    },
    "version": 1
  },
  "userdoc": {
    "kind": "user",
    "methods": {},
    "version": 1
  }
}