{
  "contractName": "ERC721VaultFactory",
  "abi": [
    {
      "inputs": [
        {
          "internalType": "address",
          "name": "_settings",
          "type": "address"
        }
      ],
      "stateMutability": "nonpayable",
      "type": "constructor"
    },
    {
      "anonymous": false,
      "inputs": [
        {
          "indexed": true,
          "internalType": "address",
          "name": "token",
          "type": "address"
        },
        {
          "indexed": false,
          "internalType": "uint256",
          "name": "id",
          "type": "uint256"
        },
        {
          "indexed": false,
          "internalType": "uint256",
          "name": "price",
          "type": "uint256"
        },
        {
          "indexed": false,
          "internalType": "address",
          "name": "vault",
          "type": "address"
        },
        {
          "indexed": false,
          "internalType": "uint256",
          "name": "vaultId",
          "type": "uint256"
        }
      ],
      "name": "Mint",
      "type": "event"
    },
    {
      "anonymous": false,
      "inputs": [
        {
          "indexed": true,
          "internalType": "address",
          "name": "previousOwner",
          "type": "address"
        },
        {
          "indexed": true,
          "internalType": "address",
          "name": "newOwner",
          "type": "address"
        }
      ],
      "name": "OwnershipTransferred",
      "type": "event"
    },
    {
      "anonymous": false,
      "inputs": [
        {
          "indexed": false,
          "internalType": "address",
          "name": "account",
          "type": "address"
        }
      ],
      "name": "Paused",
      "type": "event"
    },
    {
      "anonymous": false,
      "inputs": [
        {
          "indexed": false,
          "internalType": "address",
          "name": "account",
          "type": "address"
        }
      ],
      "name": "Unpaused",
      "type": "event"
    },
    {
      "inputs": [],
      "name": "logic",
      "outputs": [
        {
          "internalType": "address",
          "name": "",
          "type": "address"
        }
      ],
      "stateMutability": "view",
      "type": "function",
      "constant": true
    },
    {
      "inputs": [],
      "name": "owner",
      "outputs": [
        {
          "internalType": "address",
          "name": "",
          "type": "address"
        }
      ],
      "stateMutability": "view",
      "type": "function",
      "constant": true
    },
    {
      "inputs": [],
      "name": "paused",
      "outputs": [
        {
          "internalType": "bool",
          "name": "",
          "type": "bool"
        }
      ],
      "stateMutability": "view",
      "type": "function",
      "constant": true
    },
    {
      "inputs": [],
      "name": "renounceOwnership",
      "outputs": [],
      "stateMutability": "nonpayable",
      "type": "function"
    },
    {
      "inputs": [],
      "name": "settings",
      "outputs": [
        {
          "internalType": "address",
          "name": "",
          "type": "address"
        }
      ],
      "stateMutability": "view",
      "type": "function",
      "constant": true
    },
    {
      "inputs": [
        {
          "internalType": "address",
          "name": "newOwner",
          "type": "address"
        }
      ],
      "name": "transferOwnership",
      "outputs": [],
      "stateMutability": "nonpayable",
      "type": "function"
    },
    {
      "inputs": [],
      "name": "vaultCount",
      "outputs": [
        {
          "internalType": "uint256",
          "name": "",
          "type": "uint256"
        }
      ],
      "stateMutability": "view",
      "type": "function",
      "constant": true
    },
    {
      "inputs": [
        {
          "internalType": "uint256",
          "name": "",
          "type": "uint256"
        }
      ],
      "name": "vaults",
      "outputs": [
        {
          "internalType": "address",
          "name": "",
          "type": "address"
        }
      ],
      "stateMutability": "view",
      "type": "function",
      "constant": true
    },
    {
      "inputs": [
        {
          "internalType": "string",
          "name": "_name",
          "type": "string"
        },
        {
          "internalType": "string",
          "name": "_symbol",
          "type": "string"
        },
        {
          "internalType": "address",
          "name": "_token",
          "type": "address"
        },
        {
          "internalType": "uint256",
          "name": "_id",
          "type": "uint256"
        },
        {
          "internalType": "uint256",
          "name": "_supply",
          "type": "uint256"
        },
        {
          "internalType": "uint256",
          "name": "_listPrice",
          "type": "uint256"
        },
        {
          "internalType": "uint256",
          "name": "_fee",
          "type": "uint256"
        }
      ],
      "name": "mint",
      "outputs": [
        {
          "internalType": "uint256",
          "name": "",
          "type": "uint256"
        }
      ],
      "stateMutability": "nonpayable",
      "type": "function"
    },
    {
      "inputs": [],
      "name": "pause",
      "outputs": [],
      "stateMutability": "nonpayable",
      "type": "function"
    },
    {
      "inputs": [],
      "name": "unpause",
      "outputs": [],
      "stateMutability": "nonpayable",
      "type": "function"
    }
  ],
  "bytecode": "0x60c060405234801561001057600080fd5b50604051613fe5380380613fe583398101604081905261002f916100fc565b6100383361009f565b6000805460ff60a01b191690556001600160a01b0381166080526040518190610060906100ef565b6001600160a01b039091168152602001604051809103906000f08015801561008c573d6000803e3d6000fd5b506001600160a01b031660a0525061012c565b600080546001600160a01b038381166001600160a01b0319831681178455604051919092169283917f8be0079c531659141344cd1fd0a4f28419497f9722a3daafe3b4186f6b6457e09190a35050565b6131be80610e2783390190565b60006020828403121561010e57600080fd5b81516001600160a01b038116811461012557600080fd5b9392505050565b60805160a051610ccf6101586000396000818161018b015261028e015260006101b30152610ccf6000f3fe60806040523480156200001157600080fd5b5060043610620000b75760003560e01c80638da5cb5b116200007a5780638da5cb5b1462000143578063a7c6a1001462000155578063bdc01110146200016e578063d7dfa0dd1462000185578063e06174e414620001ad578063f2fde38b14620001d557600080fd5b80633f4ba83a14620000bc5780635c975abb14620000c8578063715018a614620000ea5780638456cb5914620000f45780638c64ea4a14620000fe575b600080fd5b620000c6620001ec565b005b600054600160a01b900460ff1660405190151581526020015b60405180910390f35b620000c662000202565b620000c662000218565b6200012a6200010f36600462000694565b6002602052600090815260409020546001600160a01b031681565b6040516001600160a01b039091168152602001620000e1565b6000546001600160a01b03166200012a565b6200015f60015481565b604051908152602001620000e1565b6200015f6200017f36600462000776565b6200022c565b6200012a7f000000000000000000000000000000000000000000000000000000000000000081565b6200012a7f000000000000000000000000000000000000000000000000000000000000000081565b620000c6620001e636600462000818565b62000419565b620001f66200049c565b62000200620004f8565b565b6200020c6200049c565b6200020060006200054f565b620002226200049c565b620002006200059f565b600062000238620005e5565b60003387878787878e8e6040516024016200025b98979695949392919062000885565b60408051601f198184030181529181526020820180516001600160e01b0316630626fb2f60e41b179052519091506000907f0000000000000000000000000000000000000000000000000000000000000000908390620002bb9062000686565b620002c8929190620008f0565b604051809103906000f080158015620002e5573d6000803e3d6000fd5b509050876001600160a01b03167ff9c32fbc56ff04f32a233ebc26e388564223745e28abd8d0781dd906537f563e88878460015460405162000349949392919093845260208401929092526001600160a01b03166040830152606082015260800190565b60405180910390a2604051632142170760e11b81523360048201526001600160a01b038281166024830152604482018990528916906342842e0e90606401600060405180830381600087803b158015620003a257600080fd5b505af1158015620003b7573d6000803e3d6000fd5b505060018054600090815260026020526040812080546001600160a01b0319166001600160a01b03871617905581549350909150620003f68362000934565b9190505550600180546200040b919062000950565b9a9950505050505050505050565b620004236200049c565b6001600160a01b0381166200048e5760405162461bcd60e51b815260206004820152602660248201527f4f776e61626c653a206e6577206f776e657220697320746865207a65726f206160448201526564647265737360d01b60648201526084015b60405180910390fd5b62000499816200054f565b50565b6000546001600160a01b03163314620002005760405162461bcd60e51b815260206004820181905260248201527f4f776e61626c653a2063616c6c6572206973206e6f7420746865206f776e6572604482015260640162000485565b6200050262000634565b6000805460ff60a01b191690557f5db9ee0a495bf2e6ff9c91a7834c1ba4fdd244a5e8aa4e537bd38aeae4b073aa335b6040516001600160a01b03909116815260200160405180910390a1565b600080546001600160a01b038381166001600160a01b0319831681178455604051919092169283917f8be0079c531659141344cd1fd0a4f28419497f9722a3daafe3b4186f6b6457e09190a35050565b620005a9620005e5565b6000805460ff60a01b1916600160a01b1790557f62e78cea01bee320cd4e420270b5ea74000d11b0c9f74754ebdbfc544b05a258620005323390565b600054600160a01b900460ff1615620002005760405162461bcd60e51b815260206004820152601060248201526f14185d5cd8589b194e881c185d5cd95960821b604482015260640162000485565b600054600160a01b900460ff16620002005760405162461bcd60e51b815260206004820152601460248201527314185d5cd8589b194e881b9bdd081c185d5cd95960621b604482015260640162000485565b61032d806200096d83390190565b600060208284031215620006a757600080fd5b5035919050565b634e487b7160e01b600052604160045260246000fd5b600082601f830112620006d657600080fd5b813567ffffffffffffffff80821115620006f457620006f4620006ae565b604051601f8301601f19908116603f011681019082821181831017156200071f576200071f620006ae565b816040528381528660208588010111156200073957600080fd5b836020870160208301376000602085830101528094505050505092915050565b80356001600160a01b03811681146200077157600080fd5b919050565b600080600080600080600060e0888a0312156200079257600080fd5b873567ffffffffffffffff80821115620007ab57600080fd5b620007b98b838c01620006c4565b985060208a0135915080821115620007d057600080fd5b50620007df8a828b01620006c4565b965050620007f06040890162000759565b969995985095966060810135965060808101359560a0820135955060c0909101359350915050565b6000602082840312156200082b57600080fd5b620008368262000759565b9392505050565b6000815180845260005b81811015620008655760208185018101518683018201520162000847565b506000602082860101526020601f19601f83011685010191505092915050565b600061010060018060a01b03808c168452808b166020850152508860408401528760608401528660808401528560a08401528060c0840152620008cb818401866200083d565b905082810360e0840152620008e181856200083d565b9b9a5050505050505050505050565b6001600160a01b038316815260406020820181905260009062000916908301846200083d565b949350505050565b634e487b7160e01b600052601160045260246000fd5b6000600182016200094957620009496200091e565b5060010190565b818103818111156200096657620009666200091e565b9291505056fe60a060405234801561001057600080fd5b5060405161032d38038061032d83398101604081905261002f91610103565b6001600160a01b038216608081905260405160009182916100519085906101d1565b600060405180830381855af49150503d806000811461008c576040519150601f19603f3d011682016040523d82523d6000602084013e610091565b606091505b50915091508181906100bf5760405162461bcd60e51b81526004016100b691906101ed565b60405180910390fd5b5050505050610220565b634e487b7160e01b600052604160045260246000fd5b60005b838110156100fa5781810151838201526020016100e2565b50506000910152565b6000806040838503121561011657600080fd5b82516001600160a01b038116811461012d57600080fd5b60208401519092506001600160401b038082111561014a57600080fd5b818501915085601f83011261015e57600080fd5b815181811115610170576101706100c9565b604051601f8201601f19908116603f01168101908382118183101715610198576101986100c9565b816040528281528860208487010111156101b157600080fd5b6101c28360208301602088016100df565b80955050505050509250929050565b600082516101e38184602087016100df565b9190910192915050565b602081526000825180602084015261020c8160408501602087016100df565b601f01601f19169190910160400192915050565b60805160ef61023e60003960008181602a0152607b015260ef6000f3fe608060405260043610601f5760003560e01c8063d7dfa0dd14606b576025565b36602557005b6040517f00000000000000000000000000000000000000000000000000000000000000009036600082376000803683855af43d806000843e8180156067578184f35b8184fd5b348015607657600080fd5b50609d7f000000000000000000000000000000000000000000000000000000000000000081565b6040516001600160a01b03909116815260200160405180910390f3fea2646970667358221220721dba0b0f13e8126efca7f6b0e47ff18e162e7d4d64834a4dca4729eee7d6d464736f6c63430008110033a26469706673582212201ceaee4fb34e2b3fb4fe87231e9cc0c4d45d4f7cf1ad0f431572718bba98beef64736f6c6343000811003360a06040523480156200001157600080fd5b50604051620031be380380620031be833981016040819052620000349162000046565b6001600160a01b031660805262000078565b6000602082840312156200005957600080fd5b81516001600160a01b03811681146200007157600080fd5b9392505050565b6080516130cf620000ef600039600081816106f8015281816108e101528181610ad101528181610bcc01528181610c5a0152818161101801528181611107015281816112b00152818161139f0152818161150c0152818161174301528181611bdd015281816125b9015261264101526130cf6000f3fe6080604052600436106102515760003560e01c806380436fe011610139578063be040fb0116100b6578063dd62ed3e1161007a578063dd62ed3e146106b0578063ddca3f43146106d0578063e06174e4146106e6578063e66f53b71461071a578063efbe1c1c1461073a578063fc0c546a1461074f57600080fd5b8063be040fb01461063c578063be9a655514610651578063c91de64914610659578063d294f09314610686578063db2e1eed1461069b57600080fd5b80639a4e6d34116100fd5780639a4e6d34146105ba578063a457c2d7146105d0578063a9059cbb146105f0578063adc1b95614610610578063af640d0f1461062657600080fd5b806380436fe014610530578063853a1b90146105505780639012c4a81461057057806395d89b4114610590578063961be391146105a557600080fd5b8063313ce567116101d2578063626fb2f011610196578063626fb2f0146104605780636a775714146104805780636da84e6c146104a057806370a08231146104b65780637b5581ed146104ec5780637fb450991461050257600080fd5b8063313ce567146103b4578063325c25a2146103d057806339509351146103e65780633fc8cef3146104065780635c9920fc1461044657600080fd5b80631998aeef116102195780631998aeef1461033657806323b872dd1461033e5780632a24f46c1461035e5780632a44f120146103745780632bf33bd91461039457600080fd5b806306fdde0314610256578063095ea7b3146102815780630c6a62dd146102b1578063150b7a02146102d357806318160ddd14610317575b600080fd5b34801561026257600080fd5b5061026b61076f565b6040516102789190612a63565b60405180910390f35b34801561028d57600080fd5b506102a161029c366004612ac9565b610801565b6040519015158152602001610278565b3480156102bd57600080fd5b506102d16102cc366004612af5565b61081b565b005b3480156102df57600080fd5b506102fe6102ee366004612ba5565b630a85bd0160e11b949350505050565b6040516001600160e01b03199091168152602001610278565b34801561032357600080fd5b506035545b604051908152602001610278565b6102d1610870565b34801561034a57600080fd5b506102a1610359366004612c25565b610aab565b34801561036a57600080fd5b5061032860995481565b34801561038057600080fd5b506102d161038f366004612af5565b610acf565b3480156103a057600080fd5b506102d16103af366004612c66565b610ba0565b3480156103c057600080fd5b5060405160128152602001610278565b3480156103dc57600080fd5b50610328609a5481565b3480156103f257600080fd5b506102a1610401366004612ac9565b610d31565b34801561041257600080fd5b5061042e73c02aaa39b223fe8d0a0e5c4f27ead9083c756cc281565b6040516001600160a01b039091168152602001610278565b34801561045257600080fd5b5060a1546102a19060ff1681565b34801561046c57600080fd5b506102d161047b366004612c9f565b610d53565b34801561048c57600080fd5b506102d161049b366004612c66565b610f12565b3480156104ac57600080fd5b50610328609c5481565b3480156104c257600080fd5b506103286104d1366004612af5565b6001600160a01b031660009081526033602052604090205490565b3480156104f857600080fd5b50610328609b5481565b34801561050e57600080fd5b50609d5461052390600160a01b900460ff1681565b6040516102789190612d65565b34801561053c57600080fd5b506102d161054b366004612af5565b61150a565b34801561055c57600080fd5b50609d5461042e906001600160a01b031681565b34801561057c57600080fd5b506102d161058b366004612c66565b611717565b34801561059c57600080fd5b5061026b61182d565b3480156105b157600080fd5b506102d161183c565b3480156105c657600080fd5b5061032860a25481565b3480156105dc57600080fd5b506102a16105eb366004612ac9565b611974565b3480156105fc57600080fd5b506102a161060b366004612ac9565b6119ef565b34801561061c57600080fd5b5061032860a05481565b34801561063257600080fd5b5061032860985481565b34801561064857600080fd5b506102d16119fd565b6102d1611b20565b34801561066557600080fd5b50610328610674366004612af5565b60a36020526000908152604090205481565b34801561069257600080fd5b506102d1611d2f565b3480156106a757600080fd5b50610328611d39565b3480156106bc57600080fd5b506103286106cb366004612d8d565b611d60565b3480156106dc57600080fd5b50610328609f5481565b3480156106f257600080fd5b5061042e7f000000000000000000000000000000000000000000000000000000000000000081565b34801561072657600080fd5b50609e5461042e906001600160a01b031681565b34801561074657600080fd5b506102d1611d8b565b34801561075b57600080fd5b5060975461042e906001600160a01b031681565b60606036805461077e90612dc6565b80601f01602080910402602001604051908101604052809291908181526020018280546107aa90612dc6565b80156107f75780601f106107cc576101008083540402835291602001916107f7565b820191906000526020600020905b8154815290600101906020018083116107da57829003601f168201915b5050505050905090565b60003361080f818585611f0b565b60019150505b92915050565b609e546001600160a01b0316331461084e5760405162461bcd60e51b815260040161084590612e00565b60405180910390fd5b609e80546001600160a01b0319166001600160a01b0392909216919091179055565b6001609d54600160a01b900460ff16600381111561089057610890612d4f565b146108dd5760405162461bcd60e51b815260206004820152601760248201527f6269643a61756374696f6e206973206e6f74206c6976650000000000000000006044820152606401610845565b60007f00000000000000000000000000000000000000000000000000000000000000006001600160a01b0316637c513c0f6040518163ffffffff1660e01b81526004016020604051808303816000875af115801561093f573d6000803e3d6000fd5b505050506040513d601f19601f820116820180604052508101906109639190612e2c565b61096f906103e8612e5b565b905080609c5461097f9190612e6e565b61098b346103e8612e6e565b10156109cb5760405162461bcd60e51b815260206004820152600f60248201526e189a590e9d1bdbc81b1bddc8189a59608a1b6044820152606401610845565b6099544210610a105760405162461bcd60e51b8152602060048201526011602482015270189a590e985d58dd1a5bdb88195b991959607a1b6044820152606401610845565b61038442609954610a219190612e85565b11610a405761038460996000828254610a3a9190612e5b565b90915550505b609d54609c54610a59916001600160a01b03169061202f565b34609c819055609d80546001600160a01b03191633908117909155604051918252907fe684a55f31b79eca403df938249029212a5925ec6be8012e099b45bc1019e5d29060200160405180910390a250565b600033610ab9858285612188565b610ac4858585612202565b506001949350505050565b7f00000000000000000000000000000000000000000000000000000000000000006001600160a01b0316638da5cb5b6040518163ffffffff1660e01b8152600401602060405180830381865afa158015610b2d573d6000803e3d6000fd5b505050506040513d601f19601f82011682018060405250810190610b519190612e98565b6001600160a01b0316336001600160a01b03161461084e5760405162461bcd60e51b815260206004820152600c60248201526b35b4b1b59d3737ba1033b7bb60a11b6044820152606401610845565b609e546001600160a01b03163314610bca5760405162461bcd60e51b815260040161084590612e00565b7f00000000000000000000000000000000000000000000000000000000000000006001600160a01b031663a0b335e36040518163ffffffff1660e01b81526004016020604051808303816000875af1158015610c2a573d6000803e3d6000fd5b505050506040513d601f19601f82011682018060405250810190610c4e9190612e2c565b8110158015610ce057507f00000000000000000000000000000000000000000000000000000000000000006001600160a01b0316630e519ef96040518163ffffffff1660e01b81526004016020604051808303816000875af1158015610cb8573d6000803e3d6000fd5b505050506040513d601f19601f82011682018060405250810190610cdc9190612e2c565b8111155b610d2c5760405162461bcd60e51b815260206004820152601d60248201527f7570646174653a696e76616c69642061756374696f6e206c656e6774680000006044820152606401610845565b609a55565b60003361080f818585610d448383611d60565b610d4e9190612e5b565b611f0b565b600054610100900460ff1615808015610d735750600054600160ff909116105b80610d8d5750303b158015610d8d575060005460ff166001145b610df05760405162461bcd60e51b815260206004820152602e60248201527f496e697469616c697a61626c653a20636f6e747261637420697320616c72656160448201526d191e481a5b9a5d1a585b1a5e995960921b6064820152608401610845565b6000805460ff191660011790558015610e13576000805461ff0019166101001790555b610e1d83836123b8565b610e256123ed565b609780546001600160a01b0319166001600160a01b038a161790556098879055610e4f8686612e6e565b609b5562093a80609a55609e80546001600160a01b0319166001600160a01b038b16179055609f8490554260a0558415610e895785610e8c565b60005b60a255609d805460ff60a01b19169055610ea68987612414565b6001600160a01b038916600090815260a3602052604090208590558015610f07576000805461ff0019169055604051600181527f7f26b83ff96e1f2b6a682f133852f6798a09c465da95921460cefb38474024989060200160405180910390a15b505050505050505050565b6000609d54600160a01b900460ff166003811115610f3257610f32612d4f565b14610f4f5760405162461bcd60e51b815260040161084590612eb5565b33600090815260a36020526040902054808203610fa55760405162461bcd60e51b81526020600482015260146024820152737570646174653a6e6f7420616e2075706461746560601b6044820152606401610845565b3360009081526033602052604081205460a254909103610fd65760a2819055610fce8382612e6e565b609b556114b9565b60a25481148015610fe657508115155b15610ff557610fce8382612e6e565b8160000361123057600060a254609b5461100f9190612efc565b905060006103e87f00000000000000000000000000000000000000000000000000000000000000006001600160a01b03166309990a966040518163ffffffff1660e01b81526004016020604051808303816000875af1158015611076573d6000803e3d6000fd5b505050506040513d601f19601f8201168201806040525081019061109a9190612e2c565b6110a49084612e6e565b6110ae9190612efc565b9050808510156111005760405162461bcd60e51b815260206004820152601c60248201527f7570646174653a7265736572766520707269636520746f6f206c6f77000000006044820152606401610845565b60006103e87f00000000000000000000000000000000000000000000000000000000000000006001600160a01b0316635410bfc96040518163ffffffff1660e01b81526004016020604051808303816000875af1158015611165573d6000803e3d6000fd5b505050506040513d601f19601f820116820180604052508101906111899190612e2c565b6111939085612e6e565b61119d9190612efc565b9050808611156111ef5760405162461bcd60e51b815260206004820152601d60248201527f7570646174653a7265736572766520707269636520746f6f20686967680000006044820152606401610845565b8360a260008282546112019190612e5b565b9091555061121190508685612e6e565b609b60008282546112229190612e5b565b909155506114b99350505050565b82600003611276578060a2600082825461124a9190612e85565b9091555061125a90508282612e6e565b609b600082825461126b9190612e85565b909155506114b99050565b60008160a2546112869190612e85565b6112908385612e6e565b609b5461129d9190612e85565b6112a79190612efc565b905060006103e87f00000000000000000000000000000000000000000000000000000000000000006001600160a01b03166309990a966040518163ffffffff1660e01b81526004016020604051808303816000875af115801561130e573d6000803e3d6000fd5b505050506040513d601f19601f820116820180604052508101906113329190612e2c565b61133c9084612e6e565b6113469190612efc565b9050808510156113985760405162461bcd60e51b815260206004820152601c60248201527f7570646174653a7265736572766520707269636520746f6f206c6f77000000006044820152606401610845565b60006103e87f00000000000000000000000000000000000000000000000000000000000000006001600160a01b0316635410bfc96040518163ffffffff1660e01b81526004016020604051808303816000875af11580156113fd573d6000803e3d6000fd5b505050506040513d601f19601f820116820180604052508101906114219190612e2c565b61142b9085612e6e565b6114359190612efc565b9050808611156114875760405162461bcd60e51b815260206004820152601d60248201527f7570646174653a7265736572766520707269636520746f6f20686967680000006044820152606401610845565b6114918585612e6e565b61149b8786612e6e565b609b546114a89190612e5b565b6114b29190612e85565b609b555050505b33600081815260a3602052604090819020859055517f64e6e7bd72b853c4e62fd6ceaca05a104700c70a4cb567c75c7f2242ba7f037c906114fd9086815260200190565b60405180910390a2505050565b7f00000000000000000000000000000000000000000000000000000000000000006001600160a01b0316638da5cb5b6040518163ffffffff1660e01b8152600401602060405180830381865afa158015611568573d6000803e3d6000fd5b505050506040513d601f19601f8201168201806040525081019061158c9190612e98565b6001600160a01b0316336001600160a01b0316146115dd5760405162461bcd60e51b815260206004820152600e60248201526d3932b6b7bb329d3737ba1033b7bb60911b6044820152606401610845565b6000609d54600160a01b900460ff1660038111156115fd576115fd612d4f565b1461161a5760405162461bcd60e51b815260040161084590612eb5565b6001600160a01b038116600090815260a360205260408120549081900361167a5760405162461bcd60e51b81526020600482015260146024820152737570646174653a6e6f7420616e2075706461746560601b6044820152606401610845565b6001600160a01b03821660009081526033602052604081205490508060a260008282546116a79190612e85565b909155506116b790508282612e6e565b609b60008282546116c89190612e85565b90915550506001600160a01b038316600081815260a360209081526040808320839055519182527f64e6e7bd72b853c4e62fd6ceaca05a104700c70a4cb567c75c7f2242ba7f037c91016114fd565b609e546001600160a01b031633146117415760405162461bcd60e51b815260040161084590612e00565b7f00000000000000000000000000000000000000000000000000000000000000006001600160a01b0316638a364bc16040518163ffffffff1660e01b81526004016020604051808303816000875af11580156117a1573d6000803e3d6000fd5b505050506040513d601f19601f820116820180604052508101906117c59190612e2c565b8111156118205760405162461bcd60e51b8152602060048201526024808201527f7570646174653a63616e6e6f7420696e637265617365206665652074686973206044820152630d0d2ced60e31b6064820152608401610845565b6118286124e1565b609f55565b60606037805461077e90612dc6565b6002609d54600160a01b900460ff16600381111561185c5761185c612d4f565b146118a95760405162461bcd60e51b815260206004820152601960248201527f636173683a7661756c74206e6f7420636c6f73656420796574000000000000006044820152606401610845565b33600090815260336020526040902054806119065760405162461bcd60e51b815260206004820152601a60248201527f636173683a6e6f20746f6b656e7320746f2063617368206f75740000000000006044820152606401610845565b600061191160355490565b61191b4784612e6e565b6119259190612efc565b90506119313383612733565b61193b3382612873565b60405181815233907f730831a1e4aa2d187ddd8e03d7beeac760a3927da5f112d645e0f8df7494b3679060200160405180910390a25050565b600033816119828286611d60565b9050838110156119e25760405162461bcd60e51b815260206004820152602560248201527f45524332303a2064656372656173656420616c6c6f77616e63652062656c6f77604482015264207a65726f60d81b6064820152608401610845565b610ac48286868403611f0b565b60003361080f818585612202565b6000609d54600160a01b900460ff166003811115611a1d57611a1d612d4f565b14611a605760405162461bcd60e51b815260206004820152601360248201527272656465656d3a6e6f2072656465656d696e6760681b6044820152606401610845565b611a7233611a6d60355490565b612733565b6097546098546040516323b872dd60e01b815230600482015233602482015260448101919091526001600160a01b03909116906323b872dd90606401600060405180830381600087803b158015611ac857600080fd5b505af1158015611adc573d6000803e3d6000fd5b5050609d805460ff60a01b1916600360a01b179055505060405133907fd1b5ea7fe0f1c2fa09d49c2aa9b2200664ba57a734f1d95481d95b7f99af991c90600090a2565b6000609d54600160a01b900460ff166003811115611b4057611b40612d4f565b14611b8d5760405162461bcd60e51b815260206004820152601760248201527f73746172743a6e6f2061756374696f6e207374617274730000000000000000006044820152606401610845565b611b95611d39565b341015611bd85760405162461bcd60e51b81526020600482015260116024820152701cdd185c9d0e9d1bdbc81b1bddc8189a59607a1b6044820152606401610845565b6035547f00000000000000000000000000000000000000000000000000000000000000006001600160a01b03166332977c736040518163ffffffff1660e01b81526004016020604051808303816000875af1158015611c3b573d6000803e3d6000fd5b505050506040513d601f19601f82011682018060405250810190611c5f9190612e2c565b611c699190612e6e565b60a254611c78906103e8612e6e565b1015611cc65760405162461bcd60e51b815260206004820152601760248201527f73746172743a6e6f7420656e6f75676820766f746572730000000000000000006044820152606401610845565b609a54611cd39042612e5b565b609955609d805434609c8190556001600160a81b031990911633908117600160a01b179092556040519081527fcfb9c5312b25ec7b809d61e638df25f749eae5d5c25399e1c93d1d319bfd5821906020015b60405180910390a2565b611d376124e1565b565b600060a254600014611d5a5760a254609b54611d559190612efc565b905090565b50600090565b6001600160a01b03918216600090815260346020908152604080832093909416825291909152205490565b6001609d54600160a01b900460ff166003811115611dab57611dab612d4f565b14611df85760405162461bcd60e51b815260206004820152601c60248201527f656e643a7661756c742068617320616c726561647920636c6f736564000000006044820152606401610845565b609954421015611e3d5760405162461bcd60e51b815260206004820152601060248201526f656e643a61756374696f6e206c69766560801b6044820152606401610845565b611e456124e1565b609754609d546098546040516323b872dd60e01b81523060048201526001600160a01b03928316602482015260448101919091529116906323b872dd90606401600060405180830381600087803b158015611e9f57600080fd5b505af1158015611eb3573d6000803e3d6000fd5b5050609d8054600160a11b60ff60a01b19821617909155609c546040519081526001600160a01b0390911692507f8b01f9dd0400d6a1e84369a5fb8f6033934856ffa8ebadd707dca302ab5516959150602001611d25565b6001600160a01b038316611f6d5760405162461bcd60e51b8152602060048201526024808201527f45524332303a20617070726f76652066726f6d20746865207a65726f206164646044820152637265737360e01b6064820152608401610845565b6001600160a01b038216611fce5760405162461bcd60e51b815260206004820152602260248201527f45524332303a20617070726f766520746f20746865207a65726f206164647265604482015261737360f01b6064820152608401610845565b6001600160a01b0383811660008181526034602090815260408083209487168084529482529182902085905590518481527f8c5be1e5ebec7d5bd14f71427d1e84f3dd0314c0f7b2291e5b200ac8c7c3b925910160405180910390a3505050565b73c02aaa39b223fe8d0a0e5c4f27ead9083c756cc26001600160a01b031663d0e30db0826040518263ffffffff1660e01b81526004016000604051808303818588803b15801561207e57600080fd5b505af1158015612092573d6000803e3d6000fd5b50506040516370a0823160e01b815230600482015273c02aaa39b223fe8d0a0e5c4f27ead9083c756cc2935063a9059cbb925085915083906370a0823190602401602060405180830381865afa1580156120f0573d6000803e3d6000fd5b505050506040513d601f19601f820116820180604052508101906121149190612e2c565b6040516001600160e01b031960e085901b1681526001600160a01b03909216600483015260248201526044016020604051808303816000875af115801561215f573d6000803e3d6000fd5b505050506040513d601f19601f820116820180604052508101906121839190612f1e565b505050565b60006121948484611d60565b905060001981146121fc57818110156121ef5760405162461bcd60e51b815260206004820152601d60248201527f45524332303a20696e73756666696369656e7420616c6c6f77616e63650000006044820152606401610845565b6121fc8484848403611f0b565b50505050565b6001600160a01b0383166122665760405162461bcd60e51b815260206004820152602560248201527f45524332303a207472616e736665722066726f6d20746865207a65726f206164604482015264647265737360d81b6064820152608401610845565b6001600160a01b0382166122c85760405162461bcd60e51b815260206004820152602360248201527f45524332303a207472616e7366657220746f20746865207a65726f206164647260448201526265737360e81b6064820152608401610845565b6122d3838383612908565b6001600160a01b0383166000908152603360205260409020548181101561234b5760405162461bcd60e51b815260206004820152602660248201527f45524332303a207472616e7366657220616d6f756e7420657863656564732062604482015265616c616e636560d01b6064820152608401610845565b6001600160a01b0380851660008181526033602052604080822086860390559286168082529083902080548601905591517fddf252ad1be2c89b69c2b068fc378daa952ba7f163c4a11628f55a4df523b3ef906123ab9086815260200190565b60405180910390a36121fc565b600054610100900460ff166123df5760405162461bcd60e51b815260040161084590612f40565b6123e98282612a23565b5050565b600054610100900460ff16611d375760405162461bcd60e51b815260040161084590612f40565b6001600160a01b03821661246a5760405162461bcd60e51b815260206004820152601f60248201527f45524332303a206d696e7420746f20746865207a65726f2061646472657373006044820152606401610845565b61247660008383612908565b80603560008282546124889190612e5b565b90915550506001600160a01b0382166000818152603360209081526040808320805486019055518481527fddf252ad1be2c89b69c2b068fc378daa952ba7f163c4a11628f55a4df523b3ef910160405180910390a35050565b6002609d54600160a01b900460ff16600381111561250157612501612d4f565b0361255c5760405162461bcd60e51b815260206004820152602560248201527f636c61696d3a63616e6e6f7420636c61696d2061667465722061756374696f6e60448201526420656e647360d81b6064820152608401610845565b60006103e861256a60355490565b609f546125779190612e6e565b6125819190612efc565b905060006125936301e1338083612efc565b9050600060a054426125a59190612e85565b905060006125b38383612e6e565b905060007f00000000000000000000000000000000000000000000000000000000000000006001600160a01b031663b3f006746040518163ffffffff1660e01b81526004016020604051808303816000875af1158015612617573d6000803e3d6000fd5b505050506040513d601f19601f8201168201806040525081019061263b9190612e98565b905060007f00000000000000000000000000000000000000000000000000000000000000006001600160a01b0316630ea90a126040518163ffffffff1660e01b81526004016020604051808303816000875af115801561269f573d6000803e3d6000fd5b505050506040513d601f19601f820116820180604052508101906126c39190612e2c565b90506103e86126d160355490565b6126db9083612e6e565b6126e59190612efc565b95506126f56301e1338087612efc565b945060006127038686612e6e565b4260a055609e54909150612720906001600160a01b031685612414565b61272a8382612414565b50505050505050565b6001600160a01b0382166127935760405162461bcd60e51b815260206004820152602160248201527f45524332303a206275726e2066726f6d20746865207a65726f206164647265736044820152607360f81b6064820152608401610845565b61279f82600083612908565b6001600160a01b038216600090815260336020526040902054818110156128135760405162461bcd60e51b815260206004820152602260248201527f45524332303a206275726e20616d6f756e7420657863656564732062616c616e604482015261636560f01b6064820152608401610845565b6001600160a01b03831660008181526033602090815260408083208686039055603580548790039055518581529192917fddf252ad1be2c89b69c2b068fc378daa952ba7f163c4a11628f55a4df523b3ef910160405180910390a3505050565b6001600160a01b0382163b156128d25773c02aaa39b223fe8d0a0e5c4f27ead9083c756cc26001600160a01b031663d0e30db0826040518263ffffffff1660e01b81526004016000604051808303818588803b15801561207e57600080fd5b6040516001600160a01b0383169082156108fc029083906000818181858888f19350505050158015612183573d6000803e3d6000fd5b6001600160a01b0383161580159061293d57506000609d54600160a01b900460ff16600381111561293b5761293b612d4f565b145b15612183576001600160a01b03808416600090815260a36020526040808220549285168252902054808214612a1c57806000036129b2578260a260008282546129869190612e85565b9091555061299690508284612e6e565b609b60008282546129a79190612e85565b90915550612a1c9050565b816000036129ed578260a260008282546129cc9190612e5b565b909155506129dc90508184612e6e565b609b60008282546129a79190612e5b565b6129f78284612e6e565b612a018285612e6e565b609b54612a0e9190612e5b565b612a189190612e85565b609b555b5050505050565b600054610100900460ff16612a4a5760405162461bcd60e51b815260040161084590612f40565b6036612a568382612fd9565b5060376121838282612fd9565b600060208083528351808285015260005b81811015612a9057858101830151858201604001528201612a74565b506000604082860101526040601f19601f8301168501019250505092915050565b6001600160a01b0381168114612ac657600080fd5b50565b60008060408385031215612adc57600080fd5b8235612ae781612ab1565b946020939093013593505050565b600060208284031215612b0757600080fd5b8135612b1281612ab1565b9392505050565b634e487b7160e01b600052604160045260246000fd5b600067ffffffffffffffff80841115612b4a57612b4a612b19565b604051601f8501601f19908116603f01168101908282118183101715612b7257612b72612b19565b81604052809350858152868686011115612b8b57600080fd5b858560208301376000602087830101525050509392505050565b60008060008060808587031215612bbb57600080fd5b8435612bc681612ab1565b93506020850135612bd681612ab1565b925060408501359150606085013567ffffffffffffffff811115612bf957600080fd5b8501601f81018713612c0a57600080fd5b612c1987823560208401612b2f565b91505092959194509250565b600080600060608486031215612c3a57600080fd5b8335612c4581612ab1565b92506020840135612c5581612ab1565b929592945050506040919091013590565b600060208284031215612c7857600080fd5b5035919050565b600082601f830112612c9057600080fd5b612b1283833560208501612b2f565b600080600080600080600080610100898b031215612cbc57600080fd5b8835612cc781612ab1565b97506020890135612cd781612ab1565b965060408901359550606089013594506080890135935060a0890135925060c089013567ffffffffffffffff80821115612d1057600080fd5b612d1c8c838d01612c7f565b935060e08b0135915080821115612d3257600080fd5b50612d3f8b828c01612c7f565b9150509295985092959890939650565b634e487b7160e01b600052602160045260246000fd5b6020810160048310612d8757634e487b7160e01b600052602160045260246000fd5b91905290565b60008060408385031215612da057600080fd5b8235612dab81612ab1565b91506020830135612dbb81612ab1565b809150509250929050565b600181811c90821680612dda57607f821691505b602082108103612dfa57634e487b7160e01b600052602260045260246000fd5b50919050565b6020808252601290820152713ab83230ba329d3737ba1031bab930ba37b960711b604082015260600190565b600060208284031215612e3e57600080fd5b5051919050565b634e487b7160e01b600052601160045260246000fd5b8082018082111561081557610815612e45565b808202811582820484141761081557610815612e45565b8181038181111561081557610815612e45565b600060208284031215612eaa57600080fd5b8151612b1281612ab1565b60208082526027908201527f7570646174653a61756374696f6e206c6976652063616e6e6f742075706461746040820152666520707269636560c81b606082015260800190565b600082612f1957634e487b7160e01b600052601260045260246000fd5b500490565b600060208284031215612f3057600080fd5b81518015158114612b1257600080fd5b6020808252602b908201527f496e697469616c697a61626c653a20636f6e7472616374206973206e6f74206960408201526a6e697469616c697a696e6760a81b606082015260800190565b601f82111561218357600081815260208120601f850160051c81016020861015612fb25750805b601f850160051c820191505b81811015612fd157828155600101612fbe565b505050505050565b815167ffffffffffffffff811115612ff357612ff3612b19565b613007816130018454612dc6565b84612f8b565b602080601f83116001811461303c57600084156130245750858301515b600019600386901b1c1916600185901b178555612fd1565b600085815260208120601f198616915b8281101561306b5788860151825594840194600190910190840161304c565b50858210156130895787850151600019600388901b60f8161c191681555b5050505050600190811b0190555056fea26469706673582212208c49485320a9cb29214aaf2f24b7b8692d66901c2b42a51e0768be7b6458f17864736f6c63430008110033",
  "immutableReferences": {
    "6660": [
      {
        "length": 32,
        "start": 435
      }
    ],
    "6663": [
      {
        "length": 32,
        "start": 395
      },
      {
        "length": 32,
        "start": 654
      }
    ]
  },
  "source": "//SPDX-License-Identifier: MIT\npragma solidity ^0.8.0;\n\nimport '@openzeppelin/contracts/access/Ownable.sol';\nimport '@openzeppelin/contracts/security/Pausable.sol';\nimport '@openzeppelin/contracts/token/ERC721/ERC721.sol';\nimport '@openzeppelin/contracts/token/ERC721/utils/ERC721Holder.sol';\n\nimport '@openzeppelin/contracts/token/ERC20/IERC20.sol';\nimport '@openzeppelin/contracts/utils/math/SafeMath.sol';\nimport '@openzeppelin/contracts/token/ERC20/utils/SafeERC20.sol';\nimport '@openzeppelin/contracts/utils/math/SafeMath.sol';\nimport '@openzeppelin/contracts/security/ReentrancyGuard.sol';\n\nimport './InitializedProxy.sol';\nimport './Settings.sol';\nimport './ERC721TokenVault.sol';\n\ncontract ERC721VaultFactory is Ownable, Pausable {\n  /// @notice the number of ERC721 vaults\n  uint256 public vaultCount;\n\n  /// @notice the mapping of vault number to vault contract\n  mapping(uint256 => address) public vaults;\n\n  /// @notice a settings contract controlled by governance\n  address public immutable settings;\n  /// @notice the TokenVault logic contract\n  address public immutable logic;\n\n  event Mint(\n    address indexed token,\n    uint256 id,\n    uint256 price,\n    address vault,\n    uint256 vaultId\n  );\n\n  constructor(address _settings) {\n    settings = _settings;\n    logic = address(new TokenVault(_settings));\n  }\n\n  /// @notice the function to mint a new vault\n  /// @param _name the desired name of the vault\n  /// @param _symbol the desired sumbol of the vault\n  /// @param _token the ERC721 token address fo the NFT\n  /// @param _id the uint256 ID of the token\n  /// @param _supply is the initial total supply of the token\n  /// @param _listPrice the initial price of the NFT\n  /// @param _fee is the curators fee on creation\n  /// @return the ID of the vault\n  function mint(\n    string memory _name,\n    string memory _symbol,\n    address _token,\n    uint256 _id,\n    uint256 _supply,\n    uint256 _listPrice,\n    uint256 _fee\n  ) external whenNotPaused returns (uint256) {\n    bytes memory _initializationCalldata = abi.encodeWithSignature(\n      'initialize(address,address,uint256,uint256,uint256,uint256,string,string)',\n      msg.sender,\n      _token,\n      _id,\n      _supply,\n      _listPrice,\n      _fee,\n      _name,\n      _symbol\n    );\n\n    address vault = address(\n      new InitializedProxy(logic, _initializationCalldata)\n    );\n\n    emit Mint(_token, _id, _listPrice, vault, vaultCount);\n\n    IERC721(_token).safeTransferFrom(msg.sender, vault, _id);\n\n    vaults[vaultCount] = vault;\n    vaultCount++;\n\n    return vaultCount - 1;\n  }\n\n  function pause() external onlyOwner {\n    _pause();\n  }\n\n  function unpause() external onlyOwner {\n    _unpause();\n  }\n}\n",
  "sourcePath": "/Users/alberto/Desktop/Enalbis/myCask/nft-marketplace-frontend/contracts/ERC721VaultFactory.sol",
  "compiler": {
    "name": "solc",
    "version": "0.8.17+commit.8df45f5f.Emscripten.clang"
  },
  "schemaVersion": "3.4.11",
  "updatedAt": "2023-01-18T19:41:57.565Z",
  "networkType": "ethereum",
  "devdoc": {
    "kind": "dev",
    "methods": {
      "mint(string,string,address,uint256,uint256,uint256,uint256)": {
        "params": {
          "_fee": "is the curators fee on creation",
          "_id": "the uint256 ID of the token",
          "_listPrice": "the initial price of the NFT",
          "_name": "the desired name of the vault",
          "_supply": "is the initial total supply of the token",
          "_symbol": "the desired sumbol of the vault",
          "_token": "the ERC721 token address fo the NFT"
        },
        "returns": {
          "_0": "the ID of the vault"
        }
      },
      "owner()": {
        "details": "Returns the address of the current owner."
      },
      "paused()": {
        "details": "Returns true if the contract is paused, and false otherwise."
      },
      "renounceOwnership()": {
        "details": "Leaves the contract without owner. It will not be possible to call `onlyOwner` functions anymore. Can only be called by the current owner. NOTE: Renouncing ownership will leave the contract without an owner, thereby removing any functionality that is only available to the owner."
      },
      "transferOwnership(address)": {
        "details": "Transfers ownership of the contract to a new account (`newOwner`). Can only be called by the current owner."
      }
    },
    "version": 1
  },
  "userdoc": {
    "kind": "user",
    "methods": {
      "logic()": {
        "notice": "the TokenVault logic contract"
      },
      "mint(string,string,address,uint256,uint256,uint256,uint256)": {
        "notice": "the function to mint a new vault"
      },
      "settings()": {
        "notice": "a settings contract controlled by governance"
      },
      "vaultCount()": {
        "notice": "the number of ERC721 vaults"
      },
      "vaults(uint256)": {
        "notice": "the mapping of vault number to vault contract"
      }
    },
    "version": 1
  }
}