{
  "contractName": "Nft",
  "abi": [
    {
      "inputs": [],
      "stateMutability": "nonpayable",
      "type": "constructor"
    },
    {
      "anonymous": false,
      "inputs": [
        {
          "indexed": true,
          "internalType": "address",
          "name": "owner",
          "type": "address"
        },
        {
          "indexed": true,
          "internalType": "address",
          "name": "approved",
          "type": "address"
        },
        {
          "indexed": true,
          "internalType": "uint256",
          "name": "tokenId",
          "type": "uint256"
        }
      ],
      "name": "Approval",
      "type": "event"
    },
    {
      "anonymous": false,
      "inputs": [
        {
          "indexed": true,
          "internalType": "address",
          "name": "owner",
          "type": "address"
        },
        {
          "indexed": true,
          "internalType": "address",
          "name": "operator",
          "type": "address"
        },
        {
          "indexed": false,
          "internalType": "bool",
          "name": "approved",
          "type": "bool"
        }
      ],
      "name": "ApprovalForAll",
      "type": "event"
    },
    {
      "anonymous": false,
      "inputs": [
        {
          "indexed": false,
          "internalType": "address",
          "name": "owner",
          "type": "address"
        },
        {
          "indexed": false,
          "internalType": "uint256",
          "name": "tokenId",
          "type": "uint256"
        },
        {
          "indexed": false,
          "internalType": "string",
          "name": "tokenURI",
          "type": "string"
        }
      ],
      "name": "Mint",
      "type": "event"
    },
    {
      "anonymous": false,
      "inputs": [
        {
          "indexed": false,
          "internalType": "uint256",
          "name": "tokenId",
          "type": "uint256"
        },
        {
          "indexed": false,
          "internalType": "address",
          "name": "creator",
          "type": "address"
        }
      ],
      "name": "NftItemCreated",
      "type": "event"
    },
    {
      "anonymous": false,
      "inputs": [
        {
          "indexed": true,
          "internalType": "address",
          "name": "previousOwner",
          "type": "address"
        },
        {
          "indexed": true,
          "internalType": "address",
          "name": "newOwner",
          "type": "address"
        }
      ],
      "name": "OwnershipTransferred",
      "type": "event"
    },
    {
      "anonymous": false,
      "inputs": [
        {
          "indexed": true,
          "internalType": "address",
          "name": "from",
          "type": "address"
        },
        {
          "indexed": true,
          "internalType": "address",
          "name": "to",
          "type": "address"
        },
        {
          "indexed": true,
          "internalType": "uint256",
          "name": "tokenId",
          "type": "uint256"
        }
      ],
      "name": "Transfer",
      "type": "event"
    },
    {
      "inputs": [],
      "name": "_minimumFee",
      "outputs": [
        {
          "internalType": "uint256",
          "name": "",
          "type": "uint256"
        }
      ],
      "stateMutability": "view",
      "type": "function"
    },
    {
      "inputs": [
        {
          "internalType": "address",
          "name": "to",
          "type": "address"
        },
        {
          "internalType": "uint256",
          "name": "tokenId",
          "type": "uint256"
        }
      ],
      "name": "approve",
      "outputs": [],
      "stateMutability": "nonpayable",
      "type": "function"
    },
    {
      "inputs": [
        {
          "internalType": "address",
          "name": "owner",
          "type": "address"
        }
      ],
      "name": "balanceOf",
      "outputs": [
        {
          "internalType": "uint256",
          "name": "",
          "type": "uint256"
        }
      ],
      "stateMutability": "view",
      "type": "function"
    },
    {
      "inputs": [],
      "name": "bottlePrice",
      "outputs": [
        {
          "internalType": "uint256",
          "name": "",
          "type": "uint256"
        }
      ],
      "stateMutability": "view",
      "type": "function"
    },
    {
      "inputs": [
        {
          "internalType": "uint256",
          "name": "tokenId",
          "type": "uint256"
        }
      ],
      "name": "getApproved",
      "outputs": [
        {
          "internalType": "address",
          "name": "",
          "type": "address"
        }
      ],
      "stateMutability": "view",
      "type": "function"
    },
    {
      "inputs": [
        {
          "internalType": "address",
          "name": "owner",
          "type": "address"
        },
        {
          "internalType": "address",
          "name": "operator",
          "type": "address"
        }
      ],
      "name": "isApprovedForAll",
      "outputs": [
        {
          "internalType": "bool",
          "name": "",
          "type": "bool"
        }
      ],
      "stateMutability": "view",
      "type": "function"
    },
    {
      "inputs": [],
      "name": "name",
      "outputs": [
        {
          "internalType": "string",
          "name": "",
          "type": "string"
        }
      ],
      "stateMutability": "view",
      "type": "function"
    },
    {
      "inputs": [],
      "name": "owner",
      "outputs": [
        {
          "internalType": "address",
          "name": "",
          "type": "address"
        }
      ],
      "stateMutability": "view",
      "type": "function"
    },
    {
      "inputs": [
        {
          "internalType": "uint256",
          "name": "tokenId",
          "type": "uint256"
        }
      ],
      "name": "ownerOf",
      "outputs": [
        {
          "internalType": "address",
          "name": "",
          "type": "address"
        }
      ],
      "stateMutability": "view",
      "type": "function"
    },
    {
      "inputs": [],
      "name": "paused",
      "outputs": [
        {
          "internalType": "bool",
          "name": "",
          "type": "bool"
        }
      ],
      "stateMutability": "view",
      "type": "function"
    },
    {
      "inputs": [],
      "name": "renounceOwnership",
      "outputs": [],
      "stateMutability": "nonpayable",
      "type": "function"
    },
    {
      "inputs": [
        {
          "internalType": "uint256",
          "name": "_tokenId",
          "type": "uint256"
        },
        {
          "internalType": "uint256",
          "name": "_salePrice",
          "type": "uint256"
        }
      ],
      "name": "royaltyInfo",
      "outputs": [
        {
          "internalType": "address",
          "name": "",
          "type": "address"
        },
        {
          "internalType": "uint256",
          "name": "",
          "type": "uint256"
        }
      ],
      "stateMutability": "view",
      "type": "function"
    },
    {
      "inputs": [
        {
          "internalType": "address",
          "name": "from",
          "type": "address"
        },
        {
          "internalType": "address",
          "name": "to",
          "type": "address"
        },
        {
          "internalType": "uint256",
          "name": "tokenId",
          "type": "uint256"
        }
      ],
      "name": "safeTransferFrom",
      "outputs": [],
      "stateMutability": "payable",
      "type": "function"
    },
    {
      "inputs": [
        {
          "internalType": "address",
          "name": "from",
          "type": "address"
        },
        {
          "internalType": "address",
          "name": "to",
          "type": "address"
        },
        {
          "internalType": "uint256",
          "name": "tokenId",
          "type": "uint256"
        },
        {
          "internalType": "bytes",
          "name": "data",
          "type": "bytes"
        }
      ],
      "name": "safeTransferFrom",
      "outputs": [],
      "stateMutability": "payable",
      "type": "function"
    },
    {
      "inputs": [
        {
          "internalType": "address",
          "name": "operator",
          "type": "address"
        },
        {
          "internalType": "bool",
          "name": "approved",
          "type": "bool"
        }
      ],
      "name": "setApprovalForAll",
      "outputs": [],
      "stateMutability": "nonpayable",
      "type": "function"
    },
    {
      "inputs": [],
      "name": "symbol",
      "outputs": [
        {
          "internalType": "string",
          "name": "",
          "type": "string"
        }
      ],
      "stateMutability": "view",
      "type": "function"
    },
    {
      "inputs": [
        {
          "internalType": "uint256",
          "name": "tokenId",
          "type": "uint256"
        }
      ],
      "name": "tokenURI",
      "outputs": [
        {
          "internalType": "string",
          "name": "",
          "type": "string"
        }
      ],
      "stateMutability": "view",
      "type": "function"
    },
    {
      "inputs": [
        {
          "internalType": "address",
          "name": "from",
          "type": "address"
        },
        {
          "internalType": "address",
          "name": "to",
          "type": "address"
        },
        {
          "internalType": "uint256",
          "name": "tokenId",
          "type": "uint256"
        }
      ],
      "name": "transferFrom",
      "outputs": [],
      "stateMutability": "payable",
      "type": "function"
    },
    {
      "inputs": [
        {
          "internalType": "address",
          "name": "newOwner",
          "type": "address"
        }
      ],
      "name": "transferOwnership",
      "outputs": [],
      "stateMutability": "nonpayable",
      "type": "function"
    },
    {
      "inputs": [],
      "name": "txFeeToken",
      "outputs": [
        {
          "internalType": "address",
          "name": "",
          "type": "address"
        }
      ],
      "stateMutability": "view",
      "type": "function"
    },
    {
      "inputs": [
        {
          "internalType": "string",
          "name": "tokenURI",
          "type": "string"
        }
      ],
      "name": "mintNFT",
      "outputs": [
        {
          "internalType": "uint256",
          "name": "",
          "type": "uint256"
        }
      ],
      "stateMutability": "nonpayable",
      "type": "function"
    },
    {
      "inputs": [
        {
          "internalType": "uint256",
          "name": "tokenId",
          "type": "uint256"
        }
      ],
      "name": "burn",
      "outputs": [],
      "stateMutability": "nonpayable",
      "type": "function"
    },
    {
      "inputs": [],
      "name": "getAllNFTs",
      "outputs": [
        {
          "components": [
            {
              "internalType": "uint256",
              "name": "tokenId",
              "type": "uint256"
            },
            {
              "internalType": "address",
              "name": "creator",
              "type": "address"
            },
            {
              "internalType": "address",
              "name": "owner",
              "type": "address"
            }
          ],
          "internalType": "struct Nft.NftItem[]",
          "name": "",
          "type": "tuple[]"
        }
      ],
      "stateMutability": "view",
      "type": "function"
    },
    {
      "inputs": [
        {
          "internalType": "uint256[]",
          "name": "_tokensIds",
          "type": "uint256[]"
        }
      ],
      "name": "getAllNftsOnSale",
      "outputs": [
        {
          "components": [
            {
              "internalType": "uint256",
              "name": "tokenId",
              "type": "uint256"
            },
            {
              "internalType": "address",
              "name": "creator",
              "type": "address"
            },
            {
              "internalType": "address",
              "name": "owner",
              "type": "address"
            }
          ],
          "internalType": "struct Nft.NftItem[]",
          "name": "",
          "type": "tuple[]"
        }
      ],
      "stateMutability": "view",
      "type": "function"
    },
    {
      "inputs": [
        {
          "internalType": "bytes4",
          "name": "interfaceId",
          "type": "bytes4"
        }
      ],
      "name": "supportsInterface",
      "outputs": [
        {
          "internalType": "bool",
          "name": "",
          "type": "bool"
        }
      ],
      "stateMutability": "view",
      "type": "function"
    },
    {
      "inputs": [],
      "name": "totalSupply",
      "outputs": [
        {
          "internalType": "uint256",
          "name": "",
          "type": "uint256"
        }
      ],
      "stateMutability": "view",
      "type": "function"
    },
    {
      "inputs": [
        {
          "internalType": "uint256",
          "name": "index",
          "type": "uint256"
        }
      ],
      "name": "tokenByIndex",
      "outputs": [
        {
          "internalType": "uint256",
          "name": "",
          "type": "uint256"
        }
      ],
      "stateMutability": "view",
      "type": "function"
    }
  ],
  "bytecode": "0x6080604052662e2f6e5e148000600b5566470de4df820000600c55600d805460ff191690553480156200003157600080fd5b506040518060400160405280600881526020016710d85cdadcd3919560c21b8152506040518060400160405280600681526020016510d4d2d3919560d21b8152508160009081620000839190620001b0565b506001620000928282620001b0565b505050620000af620000a9620000b560201b60201c565b620000b9565b6200027c565b3390565b600980546001600160a01b038381166001600160a01b0319831681179093556040519116919082907f8be0079c531659141344cd1fd0a4f28419497f9722a3daafe3b4186f6b6457e090600090a35050565b634e487b7160e01b600052604160045260246000fd5b600181811c908216806200013657607f821691505b6020821081036200015757634e487b7160e01b600052602260045260246000fd5b50919050565b601f821115620001ab57600081815260208120601f850160051c81016020861015620001865750805b601f850160051c820191505b81811015620001a75782815560010162000192565b5050505b505050565b81516001600160401b03811115620001cc57620001cc6200010b565b620001e481620001dd845462000121565b846200015d565b602080601f8311600181146200021c5760008415620002035750858301515b600019600386901b1c1916600185901b178555620001a7565b600085815260208120601f198616915b828110156200024d578886015182559484019460019091019084016200022c565b50858210156200026c5787850151600019600388901b60f8161c191681555b5050505050600190811b01905550565b6126ec806200028c6000396000f3fe60806040526004361061019c5760003560e01c80636352211e116100ec578063b88d4fde1161008a578063e0391b0911610064578063e0391b0914610484578063e985e9c514610499578063f2fde38b146104b9578063fb37e883146104d957600080fd5b8063b88d4fde14610424578063c87b56dd14610437578063ca32232c1461045757600080fd5b806377c567a7116100c657806377c567a7146103b15780638da5cb5b146103d157806395d89b41146103ef578063a22cb4651461040457600080fd5b80636352211e1461035c57806370a082311461037c578063715018a61461039c57600080fd5b806323b872dd1161015957806342842e0e1161013357806342842e0e146102ef57806342966c68146103025780634f6ccce7146103225780635c975abb1461034257600080fd5b806323b872dd146102875780632a55205a1461029a57806340fb561c146102d957600080fd5b806301ffc9a7146101a157806306fdde03146101d6578063081812fc146101f8578063095ea7b31461023057806318160ddd14610252578063203f12ce14610271575b600080fd5b3480156101ad57600080fd5b506101c16101bc366004611eb3565b6104f9565b60405190151581526020015b60405180910390f35b3480156101e257600080fd5b506101eb61050a565b6040516101cd9190611f20565b34801561020457600080fd5b50610218610213366004611f33565b61059c565b6040516001600160a01b0390911681526020016101cd565b34801561023c57600080fd5b5061025061024b366004611f63565b6105c3565b005b34801561025e57600080fd5b506017545b6040519081526020016101cd565b34801561027d57600080fd5b50610263600c5481565b610250610295366004611f8d565b6106dd565b3480156102a657600080fd5b506102ba6102b5366004611fc9565b61070e565b604080516001600160a01b0390931683526020830191909152016101cd565b3480156102e557600080fd5b50610263600b5481565b6102506102fd366004611f8d565b6107ba565b34801561030e57600080fd5b5061025061031d366004611f33565b6107d5565b34801561032e57600080fd5b5061026361033d366004611f33565b6107fa565b34801561034e57600080fd5b50600d546101c19060ff1681565b34801561036857600080fd5b50610218610377366004611f33565b61086e565b34801561038857600080fd5b50610263610397366004611feb565b6108ce565b3480156103a857600080fd5b50610250610954565b3480156103bd57600080fd5b50600a54610218906001600160a01b031681565b3480156103dd57600080fd5b506009546001600160a01b0316610218565b3480156103fb57600080fd5b506101eb610968565b34801561041057600080fd5b5061025061041f366004612006565b610977565b6102506104323660046120e1565b610986565b34801561044357600080fd5b506101eb610452366004611f33565b6109be565b34801561046357600080fd5b5061047761047236600461215d565b610ace565b6040516101cd9190612203565b34801561049057600080fd5b50610477610bf9565b3480156104a557600080fd5b506101c16104b4366004612269565b610d1a565b3480156104c557600080fd5b506102506104d4366004611feb565b610d48565b3480156104e557600080fd5b506102636104f436600461229c565b610dbe565b600061050482610eed565b92915050565b606060008054610519906122e5565b80601f0160208091040260200160405190810160405280929190818152602001828054610545906122e5565b80156105925780601f1061056757610100808354040283529160200191610592565b820191906000526020600020905b81548152906001019060200180831161057557829003601f168201915b5050505050905090565b60006105a782610f12565b506000908152600460205260409020546001600160a01b031690565b60006105ce8261086e565b9050806001600160a01b0316836001600160a01b0316036106405760405162461bcd60e51b815260206004820152602160248201527f4552433732313a20617070726f76616c20746f2063757272656e74206f776e656044820152603960f91b60648201526084015b60405180910390fd5b336001600160a01b038216148061065c575061065c8133610d1a565b6106ce5760405162461bcd60e51b815260206004820152603d60248201527f4552433732313a20617070726f76652063616c6c6572206973206e6f7420746f60448201527f6b656e206f776e6572206f7220617070726f76656420666f7220616c6c0000006064820152608401610637565b6106d88383610f71565b505050565b6106e73382610fdf565b6107035760405162461bcd60e51b81526004016106379061231f565b6106d883838361103d565b60008281526008602090815260408083208151808301909252546001600160a01b038116808352600160a01b9091046001600160601b03169282019290925282916107835750604080518082019091526007546001600160a01b0381168252600160a01b90046001600160601b031660208201525b6020810151600090612710906107a2906001600160601b031687612382565b6107ac91906123af565b915196919550909350505050565b6106d883838360405180602001604052806000815250610986565b6107dd6111ae565b6107e681611208565b600090815260086020526040812055565b50565b600061080560175490565b82106108495760405162461bcd60e51b8152602060048201526013602482015272496e646578206f7574206f6620626f756e647360681b6044820152606401610637565b6017828154811061085c5761085c6123d1565b90600052602060002001549050919050565b6000818152600260205260408120546001600160a01b0316806105045760405162461bcd60e51b8152602060048201526018602482015277115490cdcc8c4e881a5b9d985b1a59081d1bdad95b88125160421b6044820152606401610637565b60006001600160a01b0382166109385760405162461bcd60e51b815260206004820152602960248201527f4552433732313a2061646472657373207a65726f206973206e6f7420612076616044820152683634b21037bbb732b960b91b6064820152608401610637565b506001600160a01b031660009081526003602052604090205490565b61095c6111ae565b6109666000611248565b565b606060018054610519906122e5565b61098233838361129a565b5050565b6109903383610fdf565b6109ac5760405162461bcd60e51b81526004016106379061231f565b6109b884848484611368565b50505050565b60606109c982610f12565b600082815260066020526040812080546109e2906122e5565b80601f0160208091040260200160405190810160405280929190818152602001828054610a0e906122e5565b8015610a5b5780601f10610a3057610100808354040283529160200191610a5b565b820191906000526020600020905b815481529060010190602001808311610a3e57829003601f168201915b505050505090506000610a7960408051602081019091526000815290565b90508051600003610a8b575092915050565b815115610abd578082604051602001610aa59291906123e7565b60405160208183030381529060405292505050919050565b610ac68461139b565b949350505050565b6060600080835167ffffffffffffffff811115610aed57610aed612042565b604051908082528060200260200182016040528015610b3857816020015b6040805160608101825260008082526020808301829052928201528252600019909201910181610b0b5790505b50905060005b8451811015610bf157600060106000878481518110610b5f57610b5f6123d1565b602090810291909101810151825281810192909252604090810160002081516060810183528154815260018201546001600160a01b03908116948201949094526002820154909316918301919091528451909250849086908110610bc557610bc56123d1565b6020908102919091010152610bdb600185612416565b9350508080610be990612429565b915050610b3e565b509392505050565b60606000610c0660175490565b9050600080610c14600e5490565b67ffffffffffffffff811115610c2c57610c2c612042565b604051908082528060200260200182016040528015610c7757816020015b6040805160608101825260008082526020808301829052928201528252600019909201910181610c4a5790505b50905060005b83811015610bf1576000610c90826107fa565b60008181526010602090815260409182902082516060810184528154815260018201546001600160a01b039081169382019390935260028201549092169282019290925285519293509091859087908110610ced57610ced6123d1565b6020908102919091010152610d03600186612416565b945050508080610d1290612429565b915050610c7d565b6001600160a01b03918216600090815260056020908152604080832093909416825291909152205460ff1690565b610d506111ae565b6001600160a01b038116610db55760405162461bcd60e51b815260206004820152602660248201527f4f776e61626c653a206e6577206f776e657220697320746865207a65726f206160448201526564647265737360d01b6064820152608401610637565b6107f781611248565b6000610dc86111ae565b610dd18261140f565b15610e1e5760405162461bcd60e51b815260206004820152601860248201527f546f6b656e2055524920616c72656164792065786973747300000000000000006044820152606401610637565b610e2c600e80546001019055565b6000610e37600e5490565b90506000610e444261143f565b9050610e50338361145f565b610e5a8285611479565b610e638261150c565b6001600f85604051610e759190612442565b9081526040805160209281900383018120805460ff1916941515949094179093556000858152601483528181208582529092528120557f85a66b9141978db9980f7e0ce3b468cebf4f7999f32b23091c5c03e798b1ba7a90610edc9033908590889061245e565b60405180910390a15090505b919050565b60006001600160e01b0319821663152a902d60e11b14806105045750610504826115a7565b6000818152600260205260409020546001600160a01b03166107f75760405162461bcd60e51b8152602060048201526018602482015277115490cdcc8c4e881a5b9d985b1a59081d1bdad95b88125160421b6044820152606401610637565b600081815260046020526040902080546001600160a01b0319166001600160a01b0384169081179091558190610fa68261086e565b6001600160a01b03167f8c5be1e5ebec7d5bd14f71427d1e84f3dd0314c0f7b2291e5b200ac8c7c3b92560405160405180910390a45050565b600080610feb8361086e565b9050806001600160a01b0316846001600160a01b0316148061101257506110128185610d1a565b80610ac65750836001600160a01b031661102b8461059c565b6001600160a01b031614949350505050565b826001600160a01b03166110508261086e565b6001600160a01b0316146110765760405162461bcd60e51b81526004016106379061248e565b6001600160a01b0382166110d85760405162461bcd60e51b8152602060048201526024808201527f4552433732313a207472616e7366657220746f20746865207a65726f206164646044820152637265737360e01b6064820152608401610637565b6110e583838360016115f7565b826001600160a01b03166110f88261086e565b6001600160a01b03161461111e5760405162461bcd60e51b81526004016106379061248e565b600081815260046020908152604080832080546001600160a01b03199081169091556001600160a01b0387811680865260038552838620805460001901905590871680865283862080546001019055868652600290945282852080549092168417909155905184937fddf252ad1be2c89b69c2b068fc378daa952ba7f163c4a11628f55a4df523b3ef91a4505050565b6009546001600160a01b031633146109665760405162461bcd60e51b815260206004820181905260248201527f4f776e61626c653a2063616c6c6572206973206e6f7420746865206f776e65726044820152606401610637565b611211816116c0565b6000818152600660205260409020805461122a906122e5565b1590506107f75760008181526006602052604081206107f791611e4f565b600980546001600160a01b038381166001600160a01b0319831681179093556040519116919082907f8be0079c531659141344cd1fd0a4f28419497f9722a3daafe3b4186f6b6457e090600090a35050565b816001600160a01b0316836001600160a01b0316036112fb5760405162461bcd60e51b815260206004820152601960248201527f4552433732313a20617070726f766520746f2063616c6c6572000000000000006044820152606401610637565b6001600160a01b03838116600081815260056020908152604080832094871680845294825291829020805460ff191686151590811790915591519182527f17307eab39ab6107e8899845ad3d59bd9653f200f220920489ca2b5937696c31910160405180910390a3505050565b61137384848461103d565b61137f84848484611763565b6109b85760405162461bcd60e51b8152600401610637906124d3565b60606113a682610f12565b60006113bd60408051602081019091526000815290565b905060008151116113dd5760405180602001604052806000815250611408565b806113e784611864565b6040516020016113f89291906123e7565b6040516020818303038152906040525b9392505050565b6000600f826040516114219190612442565b9081526040519081900360200190205460ff16151560011492915050565b600061145661145162015180846123af565b6118f7565b50909392505050565b610982828260405180602001604052806000815250611993565b6000828152600260205260409020546001600160a01b03166114f45760405162461bcd60e51b815260206004820152602e60248201527f45524337323155524953746f726167653a2055524920736574206f66206e6f6e60448201526d32bc34b9ba32b73a103a37b5b2b760911b6064820152608401610637565b60008281526006602052604090206106d88282612573565b604080516060810182528281523360208083018281528385018381526000878152601084528690209451855590516001850180546001600160a01b03199081166001600160a01b03938416179091559151600290950180549092169416939093179092558251848152918201527f93beb01ee4f5d2f89d0a0d55db47459601413c9ef0b552599f3ed68f27f82c79910160405180910390a150565b60006001600160e01b031982166380ac58cd60e01b14806115d857506001600160e01b03198216635b5e139f60e01b145b8061050457506301ffc9a760e01b6001600160e01b0319831614610504565b611603848484846119c6565b6001600160a01b03841661165e5761165982601780546000838152601160205260408120829055600182018355919091527fc624b66cc0138b8fabc209247f72d758e1cf3343756d543badbf24212bed8c150155565b611681565b826001600160a01b0316846001600160a01b031614611681576116818483611a4e565b6001600160a01b03831661169d5761169882611aeb565b6109b8565b836001600160a01b0316836001600160a01b0316146109b8576109b88383611b9a565b60006116cb8261086e565b90506116db8160008460016115f7565b6116e48261086e565b600083815260046020908152604080832080546001600160a01b03199081169091556001600160a01b0385168085526003845282852080546000190190558785526002909352818420805490911690555192935084927fddf252ad1be2c89b69c2b068fc378daa952ba7f163c4a11628f55a4df523b3ef908390a45050565b60006001600160a01b0384163b1561185957604051630a85bd0160e11b81526001600160a01b0385169063150b7a02906117a7903390899088908890600401612633565b6020604051808303816000875af19250505080156117e2575060408051601f3d908101601f191682019092526117df91810190612670565b60015b61183f573d808015611810576040519150601f19603f3d011682016040523d82523d6000602084013e611815565b606091505b5080516000036118375760405162461bcd60e51b8152600401610637906124d3565b805181602001fd5b6001600160e01b031916630a85bd0160e11b149050610ac6565b506001949350505050565b6060600061187183611bde565b600101905060008167ffffffffffffffff81111561189157611891612042565b6040519080825280601f01601f1916602001820160405280156118bb576020820181803683370190505b5090508181016020015b600019016f181899199a1a9b1b9c1cb0b131b232b360811b600a86061a8153600a85049450846118c557509392505050565b60008080836226496581018262023ab1600483020590506004600362023ab18302010590910390600062164b09610fa0600185010205905060046105b58202058303601f019250600061098f846050028161195457611954612399565b0590506000605061098f83020585039050600b820560301994909401606402929092018301996002600c90940290910392909201975095509350505050565b61199d8383611cb6565b6119aa6000848484611763565b6106d85760405162461bcd60e51b8152600401610637906124d3565b60018111156109b8576001600160a01b03841615611a0c576001600160a01b03841660009081526003602052604081208054839290611a0690849061268d565b90915550505b6001600160a01b038316156109b8576001600160a01b03831660009081526003602052604081208054839290611a43908490612416565b909155505050505050565b60006001611a5b846108ce565b611a65919061268d565b600083815260126020526040902054909150808214611ab8576001600160a01b03841660009081526013602090815260408083208584528252808320548484528184208190558352601290915290208190555b5060009182526012602090815260408084208490556001600160a01b039094168352601381528383209183525290812055565b601754600090611afd9060019061268d565b60008381526011602052604081205460178054939450909284908110611b2557611b256123d1565b906000526020600020015490508060178381548110611b4657611b466123d1565b6000918252602080832090910192909255828152601190915260408082208490558582528120556017805480611b7e57611b7e6126a0565b6001900381819060005260206000200160009055905550505050565b6000611ba5836108ce565b6001600160a01b039093166000908152601360209081526040808320868452825280832085905593825260129052919091209190915550565b60008072184f03e93ff9f4daa797ed6e38ed64bf6a1f0160401b8310611c1d5772184f03e93ff9f4daa797ed6e38ed64bf6a1f0160401b830492506040015b6d04ee2d6d415b85acef81000000008310611c49576d04ee2d6d415b85acef8100000000830492506020015b662386f26fc100008310611c6757662386f26fc10000830492506010015b6305f5e1008310611c7f576305f5e100830492506008015b6127108310611c9357612710830492506004015b60648310611ca5576064830492506002015b600a83106105045760010192915050565b6001600160a01b038216611d0c5760405162461bcd60e51b815260206004820181905260248201527f4552433732313a206d696e7420746f20746865207a65726f20616464726573736044820152606401610637565b6000818152600260205260409020546001600160a01b031615611d715760405162461bcd60e51b815260206004820152601c60248201527f4552433732313a20746f6b656e20616c7265616479206d696e746564000000006044820152606401610637565b611d7f6000838360016115f7565b6000818152600260205260409020546001600160a01b031615611de45760405162461bcd60e51b815260206004820152601c60248201527f4552433732313a20746f6b656e20616c7265616479206d696e746564000000006044820152606401610637565b6001600160a01b038216600081815260036020908152604080832080546001019055848352600290915280822080546001600160a01b0319168417905551839291907fddf252ad1be2c89b69c2b068fc378daa952ba7f163c4a11628f55a4df523b3ef908290a45050565b508054611e5b906122e5565b6000825580601f10611e6b575050565b601f0160209004906000526020600020908101906107f791905b80821115611e995760008155600101611e85565b5090565b6001600160e01b0319811681146107f757600080fd5b600060208284031215611ec557600080fd5b813561140881611e9d565b60005b83811015611eeb578181015183820152602001611ed3565b50506000910152565b60008151808452611f0c816020860160208601611ed0565b601f01601f19169290920160200192915050565b6020815260006114086020830184611ef4565b600060208284031215611f4557600080fd5b5035919050565b80356001600160a01b0381168114610ee857600080fd5b60008060408385031215611f7657600080fd5b611f7f83611f4c565b946020939093013593505050565b600080600060608486031215611fa257600080fd5b611fab84611f4c565b9250611fb960208501611f4c565b9150604084013590509250925092565b60008060408385031215611fdc57600080fd5b50508035926020909101359150565b600060208284031215611ffd57600080fd5b61140882611f4c565b6000806040838503121561201957600080fd5b61202283611f4c565b91506020830135801515811461203757600080fd5b809150509250929050565b634e487b7160e01b600052604160045260246000fd5b604051601f8201601f1916810167ffffffffffffffff8111828210171561208157612081612042565b604052919050565b600067ffffffffffffffff8311156120a3576120a3612042565b6120b6601f8401601f1916602001612058565b90508281528383830111156120ca57600080fd5b828260208301376000602084830101529392505050565b600080600080608085870312156120f757600080fd5b61210085611f4c565b935061210e60208601611f4c565b925060408501359150606085013567ffffffffffffffff81111561213157600080fd5b8501601f8101871361214257600080fd5b61215187823560208401612089565b91505092959194509250565b6000602080838503121561217057600080fd5b823567ffffffffffffffff8082111561218857600080fd5b818501915085601f83011261219c57600080fd5b8135818111156121ae576121ae612042565b8060051b91506121bf848301612058565b81815291830184019184810190888411156121d957600080fd5b938501935b838510156121f7578435825293850193908501906121de565b98975050505050505050565b602080825282518282018190526000919060409081850190868401855b8281101561225c57815180518552868101516001600160a01b039081168887015290860151168585015260609093019290850190600101612220565b5091979650505050505050565b6000806040838503121561227c57600080fd5b61228583611f4c565b915061229360208401611f4c565b90509250929050565b6000602082840312156122ae57600080fd5b813567ffffffffffffffff8111156122c557600080fd5b8201601f810184136122d657600080fd5b610ac684823560208401612089565b600181811c908216806122f957607f821691505b60208210810361231957634e487b7160e01b600052602260045260246000fd5b50919050565b6020808252602d908201527f4552433732313a2063616c6c6572206973206e6f7420746f6b656e206f776e6560408201526c1c881bdc88185c1c1c9bdd9959609a1b606082015260800190565b634e487b7160e01b600052601160045260246000fd5b80820281158282048414176105045761050461236c565b634e487b7160e01b600052601260045260246000fd5b6000826123cc57634e487b7160e01b600052601260045260246000fd5b500490565b634e487b7160e01b600052603260045260246000fd5b600083516123f9818460208801611ed0565b83519083019061240d818360208801611ed0565b01949350505050565b808201808211156105045761050461236c565b60006001820161243b5761243b61236c565b5060010190565b60008251612454818460208701611ed0565b9190910192915050565b60018060a01b03841681528260208201526060604082015260006124856060830184611ef4565b95945050505050565b60208082526025908201527f4552433732313a207472616e736665722066726f6d20696e636f72726563742060408201526437bbb732b960d91b606082015260800190565b60208082526032908201527f4552433732313a207472616e7366657220746f206e6f6e20455243373231526560408201527131b2b4bb32b91034b6b83632b6b2b73a32b960711b606082015260800190565b601f8211156106d857600081815260208120601f850160051c8101602086101561254c5750805b601f850160051c820191505b8181101561256b57828155600101612558565b505050505050565b815167ffffffffffffffff81111561258d5761258d612042565b6125a18161259b84546122e5565b84612525565b602080601f8311600181146125d657600084156125be5750858301515b600019600386901b1c1916600185901b17855561256b565b600085815260208120601f198616915b82811015612605578886015182559484019460019091019084016125e6565b50858210156126235787850151600019600388901b60f8161c191681555b5050505050600190811b01905550565b6001600160a01b038581168252841660208201526040810183905260806060820181905260009061266690830184611ef4565b9695505050505050565b60006020828403121561268257600080fd5b815161140881611e9d565b818103818111156105045761050461236c565b634e487b7160e01b600052603160045260246000fdfea2646970667358221220ca75fbe9de251687575d8fd04afa52ce3235e7fccec78260cb1fa63f95c798b564736f6c63430008110033",
  "immutableReferences": {},
  "source": "// SPDX-License-Identifier: MIT\npragma solidity >=0.4.22 <0.9.0;\n\nimport '@openzeppelin/contracts/token/common/ERC2981.sol';\nimport '@openzeppelin/contracts/token/ERC721/extensions/ERC721URIStorage.sol';\nimport '@openzeppelin/contracts/access/Ownable.sol';\nimport '@openzeppelin/contracts/utils/Counters.sol';\nimport '@openzeppelin/contracts/token/ERC20/IERC20.sol';\nimport '@openzeppelin/contracts/utils/math/SafeMath.sol';\nimport '@openzeppelin/contracts/token/ERC20/ERC20.sol';\n\ncontract Nft is ERC721URIStorage, ERC2981, Ownable {\n  using SafeMath for uint256;\n  using Counters for Counters.Counter;\n\n  struct ERC20Token {\n    address paytoken;\n    uint256 costvalue;\n  }\n\n  struct NftItem {\n    uint256 tokenId;\n    address creator;\n    address owner;\n  }\n\n  address public txFeeToken;\n  uint public bottlePrice = 0.013 ether;\n  uint public _minimumFee = 0.02 ether;\n  uint256 constant SECONDS_PER_DAY = 24 * 60 * 60;\n  int256 constant OFFSET19700101 = 2440588;\n  bool public paused = false;\n\n  Counters.Counter private _tokenIds;\n\n  // TokenURI => Bool (Is used?)\n  mapping(string => bool) private _usedTokenURIs;\n  // NFT id => NftItem\n  mapping(uint256 => NftItem) private _idToNftItem;\n  // NFT id => Index\n  mapping(uint256 => uint256) private _idToNftIndex;\n  // NFT id => ERC20 share\n  mapping(uint256 => uint256) private _idToOwnedIndex;\n  // Account address => NFT Id => Index\n  mapping(address => mapping(uint256 => uint256)) private _ownedTokens;\n  // NFT id => Year => Extractions\n  mapping(uint256 => mapping(uint256 => uint256))\n    private _tokensExtractionsByYear;\n  // NFT id => Address[]\n  mapping(uint256 => address) _idToNftCreator;\n  // Address => Booelan\n  mapping(uint256 => address[]) addressesFromTokenId;\n\n  uint256[] private _allNfts;\n\n  event Mint(address owner, uint256 tokenId, string tokenURI);\n\n  event NftItemCreated(uint256 tokenId, address creator);\n\n  constructor() ERC721('CasksNFT', 'CSKNFT') {}\n\n  /////////////////////\n  // Main Functions //\n  /////////////////////\n\n  function mintNFT(string memory tokenURI) public onlyOwner returns (uint256) {\n    require(!_tokenURIExists(tokenURI), 'Token URI already exists');\n\n    _tokenIds.increment();\n\n    uint256 newItemId = _tokenIds.current();\n    uint256 year = getYear(block.timestamp);\n\n    _safeMint(msg.sender, newItemId);\n\n    _setTokenURI(newItemId, tokenURI);\n    _createNftItem(newItemId);\n    _usedTokenURIs[tokenURI] = true;\n    _tokensExtractionsByYear[newItemId][year] = 0;\n\n    // _createNftOffer(newItemId, price, msg.sender);\n\n    emit Mint(msg.sender, newItemId, tokenURI);\n\n    return newItemId;\n  }\n\n  function burn(uint256 tokenId) public onlyOwner {\n    super._burn(tokenId);\n    _resetTokenRoyalty(tokenId);\n  }\n\n  function getAllNFTs() external view returns (NftItem[] memory) {\n    uint allItemsCounts = totalSupply();\n    uint currentIndex = 0;\n    NftItem[] memory items = new NftItem[](_tokenIds.current());\n\n    for (uint i = 0; i < allItemsCounts; i++) {\n      uint tokenId = tokenByIndex(i);\n      NftItem storage item = _idToNftItem[tokenId];\n      items[currentIndex] = item;\n      currentIndex += 1;\n    }\n\n    return items;\n  }\n\n  function getAllNftsOnSale(\n    uint256[] memory _tokensIds\n  ) external view returns (NftItem[] memory) {\n    uint currentIndex = 0;\n    NftItem[] memory items = new NftItem[](_tokensIds.length);\n\n    for (uint i = 0; i < _tokensIds.length; i++) {\n      NftItem storage item = _idToNftItem[_tokensIds[i]];\n      items[currentIndex] = item;\n      currentIndex += 1;\n    }\n\n    return items;\n  }\n\n  function supportsInterface(\n    bytes4 interfaceId\n  ) public view virtual override(ERC721, ERC2981) returns (bool) {\n    return super.supportsInterface(interfaceId);\n  }\n\n  function totalSupply() public view returns (uint256) {\n    return _allNfts.length;\n  }\n\n  function tokenByIndex(uint index) public view returns (uint) {\n    require(index < totalSupply(), 'Index out of bounds');\n    return _allNfts[index];\n  }\n\n  function getYear(uint256 timestamp) internal pure returns (uint256 year) {\n    (year, , ) = _daysToDate(timestamp / SECONDS_PER_DAY);\n  }\n\n  function _tokenURIExists(string memory tokenURI) private view returns (bool) {\n    return _usedTokenURIs[tokenURI] == true;\n  }\n\n  function _createNftItem(uint _tokenId) private {\n    _idToNftItem[_tokenId] = NftItem(_tokenId, msg.sender, msg.sender);\n\n    emit NftItemCreated(_tokenId, msg.sender);\n  }\n\n  function _beforeTokenTransfer(\n    address from,\n    address to,\n    uint tokenId,\n    uint256 batchSize\n  ) internal virtual override {\n    super._beforeTokenTransfer(from, to, tokenId, batchSize);\n\n    if (from == address(0)) {\n      // MINTING CASE\n      _addTokenToAllTokensEnumeration(tokenId);\n    } else if (from != to) {\n      // TRANSFER CASE\n      _removeTokenFromOwnerEnumeration(from, tokenId);\n    }\n\n    if (to == address(0)) {\n      // BURNING CASE\n      _removeTokenFromAllTokensEnumeration(tokenId);\n    } else if (to != from) {\n      // TRANSFER CASE\n      _addTokenToOwnerEnumeration(to, tokenId);\n    }\n  }\n\n  function _addTokenToOwnerEnumeration(address to, uint tokenId) private {\n    uint length = ERC721.balanceOf(to);\n    _ownedTokens[to][length] = tokenId;\n    _idToOwnedIndex[tokenId] = length;\n  }\n\n  function _removeTokenFromOwnerEnumeration(\n    address from,\n    uint tokenId\n  ) private {\n    uint lastTokenIndex = ERC721.balanceOf(from) - 1;\n    uint tokenIndex = _idToOwnedIndex[tokenId];\n\n    if (tokenIndex != lastTokenIndex) {\n      uint lastTokenId = _ownedTokens[from][lastTokenIndex];\n\n      _ownedTokens[from][tokenIndex] = lastTokenId;\n      _idToOwnedIndex[lastTokenId] = tokenIndex;\n    }\n\n    delete _idToOwnedIndex[tokenId];\n    delete _ownedTokens[from][lastTokenIndex];\n  }\n\n  function _addTokenToAllTokensEnumeration(uint tokenId) private {\n    _idToNftIndex[tokenId] = _allNfts.length;\n    _allNfts.push(tokenId);\n  }\n\n  function _removeTokenFromAllTokensEnumeration(uint tokenId) private {\n    uint lastTokenIndex = _allNfts.length - 1;\n    uint tokenIndex = _idToNftIndex[tokenId];\n    uint lastTokenId = _allNfts[lastTokenIndex];\n\n    _allNfts[tokenIndex] = lastTokenId;\n    _idToNftIndex[lastTokenId] = tokenIndex;\n\n    delete _idToNftIndex[tokenId];\n    _allNfts.pop();\n  }\n\n  function _daysToDate(\n    uint256 _days\n  ) internal pure returns (uint256 year, uint256 month, uint256 day) {\n    unchecked {\n      int256 __days = int256(_days);\n\n      int256 L = __days + 68569 + OFFSET19700101;\n      int256 N = (4 * L) / 146097;\n      L = L - (146097 * N + 3) / 4;\n      int256 _year = (4000 * (L + 1)) / 1461001;\n      L = L - (1461 * _year) / 4 + 31;\n      int256 _month = (80 * L) / 2447;\n      int256 _day = L - (2447 * _month) / 80;\n      L = _month / 11;\n      _month = _month + 2 - 12 * L;\n      _year = 100 * (N - 49) + _year + L;\n\n      year = uint256(_year);\n      month = uint256(_month);\n      day = uint256(_day);\n    }\n  }\n}\n",
  "sourcePath": "/Users/alberto/Desktop/Enalbis/myCask/nft-marketplace-frontend/contracts/CCNft.sol",
  "compiler": {
    "name": "solc",
    "version": "0.8.17+commit.8df45f5f.Emscripten.clang"
  },
  "schemaVersion": "3.4.11",
  "updatedAt": "2023-01-23T14:00:17.221Z",
  "devdoc": {
    "kind": "dev",
    "methods": {
      "approve(address,uint256)": {
        "details": "See {IERC721-approve}."
      },
      "balanceOf(address)": {
        "details": "See {IERC721-balanceOf}."
      },
      "getApproved(uint256)": {
        "details": "See {IERC721-getApproved}."
      },
      "isApprovedForAll(address,address)": {
        "details": "See {IERC721-isApprovedForAll}."
      },
      "name()": {
        "details": "See {IERC721Metadata-name}."
      },
      "owner()": {
        "details": "Returns the address of the current owner."
      },
      "ownerOf(uint256)": {
        "details": "See {IERC721-ownerOf}."
      },
      "renounceOwnership()": {
        "details": "Leaves the contract without owner. It will not be possible to call `onlyOwner` functions anymore. Can only be called by the current owner. NOTE: Renouncing ownership will leave the contract without an owner, thereby removing any functionality that is only available to the owner."
      },
      "royaltyInfo(uint256,uint256)": {
        "details": "Returns how much royalty is owed and to whom, based on a sale price that may be denominated in any unit of exchange. The royalty amount is denominated and should be paid in that same unit of exchange."
      },
      "safeTransferFrom(address,address,uint256)": {
        "details": "See {IERC721-safeTransferFrom}."
      },
      "safeTransferFrom(address,address,uint256,bytes)": {
        "details": "See {IERC721-safeTransferFrom}."
      },
      "setApprovalForAll(address,bool)": {
        "details": "See {IERC721-setApprovalForAll}."
      },
      "symbol()": {
        "details": "See {IERC721Metadata-symbol}."
      },
      "tokenURI(uint256)": {
        "details": "See {IERC721Metadata-tokenURI}."
      },
      "transferFrom(address,address,uint256)": {
        "details": "See {IERC721-transferFrom}."
      },
      "transferOwnership(address)": {
        "details": "Transfers ownership of the contract to a new account (`newOwner`). Can only be called by the current owner."
      }
    },
    "version": 1
  },
  "userdoc": {
    "kind": "user",
    "methods": {},
    "version": 1
  }
}