{
  "contractName": "NftFractionsVendor",
  "abi": [
    {
      "inputs": [],
      "stateMutability": "nonpayable",
      "type": "constructor"
    },
    {
      "anonymous": false,
      "inputs": [
        {
          "indexed": false,
          "internalType": "address",
          "name": "buyer",
          "type": "address"
        },
        {
          "indexed": false,
          "internalType": "uint256",
          "name": "amountOfMATIC",
          "type": "uint256"
        },
        {
          "indexed": false,
          "internalType": "uint256",
          "name": "amountOfTokens",
          "type": "uint256"
        }
      ],
      "name": "BuyTokens",
      "type": "event"
    },
    {
      "anonymous": false,
      "inputs": [
        {
          "indexed": true,
          "internalType": "address",
          "name": "previousOwner",
          "type": "address"
        },
        {
          "indexed": true,
          "internalType": "address",
          "name": "newOwner",
          "type": "address"
        }
      ],
      "name": "OwnershipTransferred",
      "type": "event"
    },
    {
      "inputs": [
        {
          "internalType": "address",
          "name": "",
          "type": "address"
        }
      ],
      "name": "activeAddressVendor",
      "outputs": [
        {
          "internalType": "bool",
          "name": "",
          "type": "bool"
        }
      ],
      "stateMutability": "view",
      "type": "function",
      "constant": true
    },
    {
      "inputs": [],
      "name": "owner",
      "outputs": [
        {
          "internalType": "address",
          "name": "",
          "type": "address"
        }
      ],
      "stateMutability": "view",
      "type": "function",
      "constant": true
    },
    {
      "inputs": [],
      "name": "renounceOwnership",
      "outputs": [],
      "stateMutability": "nonpayable",
      "type": "function"
    },
    {
      "inputs": [
        {
          "internalType": "address",
          "name": "",
          "type": "address"
        }
      ],
      "name": "tokens",
      "outputs": [
        {
          "internalType": "uint256",
          "name": "",
          "type": "uint256"
        }
      ],
      "stateMutability": "view",
      "type": "function",
      "constant": true
    },
    {
      "inputs": [
        {
          "internalType": "address",
          "name": "newOwner",
          "type": "address"
        }
      ],
      "name": "transferOwnership",
      "outputs": [],
      "stateMutability": "nonpayable",
      "type": "function"
    },
    {
      "inputs": [
        {
          "internalType": "address",
          "name": "tokenAddress",
          "type": "address"
        },
        {
          "internalType": "uint256",
          "name": "tokenPerETH",
          "type": "uint256"
        }
      ],
      "name": "updateTokenVendor",
      "outputs": [],
      "stateMutability": "nonpayable",
      "type": "function"
    },
    {
      "inputs": [
        {
          "internalType": "address",
          "name": "tokenAddress",
          "type": "address"
        },
        {
          "internalType": "bool",
          "name": "state",
          "type": "bool"
        }
      ],
      "name": "updateStateAddressVendor",
      "outputs": [],
      "stateMutability": "nonpayable",
      "type": "function"
    },
    {
      "inputs": [
        {
          "internalType": "address",
          "name": "tokenAddress",
          "type": "address"
        }
      ],
      "name": "buyTokens",
      "outputs": [
        {
          "internalType": "uint256",
          "name": "tokenAmount",
          "type": "uint256"
        }
      ],
      "stateMutability": "payable",
      "type": "function",
      "payable": true
    },
    {
      "inputs": [
        {
          "internalType": "uint256",
          "name": "tokenAmountToSell",
          "type": "uint256"
        },
        {
          "internalType": "address",
          "name": "tokenAddress",
          "type": "address"
        }
      ],
      "name": "sellTokens",
      "outputs": [],
      "stateMutability": "nonpayable",
      "type": "function"
    },
    {
      "inputs": [],
      "name": "withdraw",
      "outputs": [],
      "stateMutability": "nonpayable",
      "type": "function"
    }
  ],
  "bytecode": "0x608060405234801561001057600080fd5b5061001a3361001f565b61006f565b600080546001600160a01b038381166001600160a01b0319831681178455604051919092169283917f8be0079c531659141344cd1fd0a4f28419497f9722a3daafe3b4186f6b6457e09190a35050565b610b8b8061007e6000396000f3fe6080604052600436106100915760003560e01c8063a2f016a811610059578063a2f016a81461012f578063e48603391461016f578063e8d59fa8146101aa578063ec8ac4d8146101ca578063f2fde38b146101dd57600080fd5b80633ccfd60b146100965780635a336a76146100ad578063670f7151146100cd578063715018a6146100ed5780638da5cb5b14610102575b600080fd5b3480156100a257600080fd5b506100ab6101fd565b005b3480156100b957600080fd5b506100ab6100c8366004610a15565b6102e9565b3480156100d957600080fd5b506100ab6100e8366004610a3f565b610369565b3480156100f957600080fd5b506100ab610680565b34801561010e57600080fd5b506000546040516001600160a01b0390911681526020015b60405180910390f35b34801561013b57600080fd5b5061015f61014a366004610a6b565b60026020526000908152604090205460ff1681565b6040519015158152602001610126565b34801561017b57600080fd5b5061019c61018a366004610a6b565b60016020526000908152604090205481565b604051908152602001610126565b3480156101b657600080fd5b506100ab6101c5366004610a9b565b610694565b61019c6101d8366004610a6b565b6106c7565b3480156101e957600080fd5b506100ab6101f8366004610a6b565b6108d6565b61020561094f565b47806102585760405162461bcd60e51b815260206004820152601860248201527f4e6f204554482070726573656e7420696e2056656e646f72000000000000000060448201526064015b60405180910390fd5b604051600090339047908381818185875af1925050503d806000811461029a576040519150601f19603f3d011682016040523d82523d6000602084013e61029f565b606091505b50509050806102e55760405162461bcd60e51b81526020600482015260126024820152714661696c656420746f20776974686472617760701b604482015260640161024f565b5050565b6102f161094f565b6000811161034d5760405162461bcd60e51b815260206004820152602360248201527f546f6b656e2070657220657468206d757374206265206869676865722074686160448201526206e20360ec1b606482015260840161024f565b6001600160a01b03909116600090815260016020526040902055565b600082116103ce5760405162461bcd60e51b815260206004820152602c60248201527f5370656369667920616e20616d6f756e74206f6620746f6b656e20677265617460448201526b6572207468616e207a65726f60a01b606482015260840161024f565b6040516370a0823160e01b81523360048201526000906001600160a01b038316906370a0823190602401602060405180830381865afa158015610415573d6000803e3d6000fd5b505050506040513d601f19601f820116820180604052508101906104399190610ad2565b90508281101561048b5760405162461bcd60e51b815260206004820152601c60248201527f596f75206861766520696e73756666696369656e7420746f6b656e7300000000604482015260640161024f565b6001600160a01b0382166000908152600160205260408120546104ae9085610aeb565b905047818110156105015760405162461bcd60e51b815260206004820152601d60248201527f56656e646f722068617320696e73756666696369656e742066756e6473000000604482015260640161024f565b6040516323b872dd60e01b8152336004820152306024820152604481018690526000906001600160a01b038616906323b872dd906064016020604051808303816000875af1158015610557573d6000803e3d6000fd5b505050506040513d601f19601f8201168201806040525081019061057b9190610b0d565b9050806105e05760405162461bcd60e51b815260206004820152602d60248201527f4661696c656420746f207472616e7366657220746f6b656e732066726f6d207560448201526c39b2b9103a37903b32b73237b960991b606482015260840161024f565b60405133908490600081818185875af1925050503d8060008114610620576040519150601f19603f3d011682016040523d82523d6000602084013e610625565b606091505b505080915050806106785760405162461bcd60e51b815260206004820152601e60248201527f4661696c656420746f2073656e642045544820746f2074686520757365720000604482015260640161024f565b505050505050565b61068861094f565b61069260006109a9565b565b61069c61094f565b6001600160a01b03919091166000908152600260205260409020805460ff1916911515919091179055565b60008034116107275760405162461bcd60e51b815260206004820152602660248201527f596f75206e65656420746f2073656e6420736f6d65204d4154494320746f20706044820152651c9bd8d9595960d21b606482015260840161024f565b6001600160a01b03821660009081526001602052604081205461074a9034610b2a565b6040516370a0823160e01b81523060048201529091506000906001600160a01b038516906370a0823190602401602060405180830381865afa158015610794573d6000803e3d6000fd5b505050506040513d601f19601f820116820180604052508101906107b89190610ad2565b90508181101561080a5760405162461bcd60e51b815260206004820152601e60248201527f56656e646f722068617320696e73756666696369656e7420746f6b656e730000604482015260640161024f565b60405163a9059cbb60e01b8152336004820152602481018390526000906001600160a01b0386169063a9059cbb906044016020604051808303816000875af115801561085a573d6000803e3d6000fd5b505050506040513d601f19601f8201168201806040525081019061087e9190610b0d565b9050806108cd5760405162461bcd60e51b815260206004820181905260248201527f4661696c656420746f207472616e7366657220746f6b656e20746f2075736572604482015260640161024f565b50909392505050565b6108de61094f565b6001600160a01b0381166109435760405162461bcd60e51b815260206004820152602660248201527f4f776e61626c653a206e6577206f776e657220697320746865207a65726f206160448201526564647265737360d01b606482015260840161024f565b61094c816109a9565b50565b6000546001600160a01b031633146106925760405162461bcd60e51b815260206004820181905260248201527f4f776e61626c653a2063616c6c6572206973206e6f7420746865206f776e6572604482015260640161024f565b600080546001600160a01b038381166001600160a01b0319831681178455604051919092169283917f8be0079c531659141344cd1fd0a4f28419497f9722a3daafe3b4186f6b6457e09190a35050565b80356001600160a01b0381168114610a1057600080fd5b919050565b60008060408385031215610a2857600080fd5b610a31836109f9565b946020939093013593505050565b60008060408385031215610a5257600080fd5b82359150610a62602084016109f9565b90509250929050565b600060208284031215610a7d57600080fd5b610a86826109f9565b9392505050565b801515811461094c57600080fd5b60008060408385031215610aae57600080fd5b610ab7836109f9565b91506020830135610ac781610a8d565b809150509250929050565b600060208284031215610ae457600080fd5b5051919050565b600082610b0857634e487b7160e01b600052601260045260246000fd5b500490565b600060208284031215610b1f57600080fd5b8151610a8681610a8d565b8082028115828204841417610b4f57634e487b7160e01b600052601160045260246000fd5b9291505056fea264697066735822122091f8ea0fb665ab161c56c40ed7c050716710f6233527b619138719478dacc1d364736f6c63430008110033",
  "immutableReferences": {},
  "source": "// SPDX-License-Identifier: Unlicense\npragma solidity ^0.8.4;\nimport './NftFractionsVendor.sol';\nimport '@openzeppelin/contracts/token/ERC20/ERC20.sol';\nimport '@openzeppelin/contracts/access/Ownable.sol';\n\ncontract NftFractionsVendor is Ownable {\n  mapping(address => uint256) public tokens;\n  mapping(address => bool) public activeAddressVendor;\n\n  event BuyTokens(address buyer, uint256 amountOfMATIC, uint256 amountOfTokens);\n\n  constructor() {}\n\n  function updateTokenVendor(\n    address tokenAddress,\n    uint256 tokenPerETH\n  ) public onlyOwner {\n    require(tokenPerETH > 0, 'Token per eth must be higher than 0');\n    tokens[tokenAddress] = tokenPerETH;\n  }\n\n  function updateStateAddressVendor(\n    address tokenAddress,\n    bool state\n  ) public onlyOwner {\n    activeAddressVendor[tokenAddress] = state;\n  }\n\n  function buyTokens(\n    address tokenAddress\n  ) public payable returns (uint256 tokenAmount) {\n    require(msg.value > 0, 'You need to send some MATIC to proceed');\n\n    uint256 amountToBuy = msg.value * tokens[tokenAddress];\n\n    uint256 vendorBalance = ERC20(tokenAddress).balanceOf(address(this));\n    require(vendorBalance >= amountToBuy, 'Vendor has insufficient tokens');\n\n    bool sent = ERC20(tokenAddress).transfer(msg.sender, amountToBuy);\n    require(sent, 'Failed to transfer token to user');\n\n    return amountToBuy;\n  }\n\n  function sellTokens(uint256 tokenAmountToSell, address tokenAddress) public {\n    require(\n      tokenAmountToSell > 0,\n      'Specify an amount of token greater than zero'\n    );\n\n    uint256 userBalance = ERC20(tokenAddress).balanceOf(msg.sender);\n    require(userBalance >= tokenAmountToSell, 'You have insufficient tokens');\n\n    uint256 amountOfETHToTransfer = tokenAmountToSell / tokens[tokenAddress];\n    uint256 ownerETHBalance = address(this).balance;\n    require(\n      ownerETHBalance >= amountOfETHToTransfer,\n      'Vendor has insufficient funds'\n    );\n    bool sent = ERC20(tokenAddress).transferFrom(\n      msg.sender,\n      address(this),\n      tokenAmountToSell\n    );\n    require(sent, 'Failed to transfer tokens from user to vendor');\n\n    (sent, ) = msg.sender.call{value: amountOfETHToTransfer}('');\n    require(sent, 'Failed to send ETH to the user');\n  }\n\n  function withdraw() public onlyOwner {\n    uint256 ownerBalance = address(this).balance;\n    require(ownerBalance > 0, 'No ETH present in Vendor');\n    (bool sent, ) = msg.sender.call{value: address(this).balance}('');\n    require(sent, 'Failed to withdraw');\n  }\n}\n",
  "sourcePath": "/Users/alberto/Desktop/Enalbis/myCask/nft-marketplace-frontend/contracts/NftFractionsVendor.sol",
  "compiler": {
    "name": "solc",
    "version": "0.8.17+commit.8df45f5f.Emscripten.clang"
  },
  "schemaVersion": "3.4.11",
  "updatedAt": "2023-02-03T15:59:30.440Z",
  "networkType": "ethereum",
  "devdoc": {
    "kind": "dev",
    "methods": {
      "owner()": {
        "details": "Returns the address of the current owner."
      },
      "renounceOwnership()": {
        "details": "Leaves the contract without owner. It will not be possible to call `onlyOwner` functions anymore. Can only be called by the current owner. NOTE: Renouncing ownership will leave the contract without an owner, thereby removing any functionality that is only available to the owner."
      },
      "transferOwnership(address)": {
        "details": "Transfers ownership of the contract to a new account (`newOwner`). Can only be called by the current owner."
      }
    },
    "version": 1
  },
  "userdoc": {
    "kind": "user",
    "methods": {},
    "version": 1
  }
}