{
  "contractName": "NftFractionToken",
  "abi": [
    {
      "inputs": [],
      "stateMutability": "nonpayable",
      "type": "constructor"
    },
    {
      "anonymous": false,
      "inputs": [
        {
          "indexed": true,
          "internalType": "address",
          "name": "owner",
          "type": "address"
        },
        {
          "indexed": true,
          "internalType": "address",
          "name": "spender",
          "type": "address"
        },
        {
          "indexed": false,
          "internalType": "uint256",
          "name": "value",
          "type": "uint256"
        }
      ],
      "name": "Approval",
      "type": "event"
    },
    {
      "anonymous": false,
      "inputs": [
        {
          "indexed": true,
          "internalType": "address",
          "name": "buyer",
          "type": "address"
        },
        {
          "indexed": false,
          "internalType": "uint256",
          "name": "price",
          "type": "uint256"
        }
      ],
      "name": "Bid",
      "type": "event"
    },
    {
      "anonymous": false,
      "inputs": [
        {
          "indexed": true,
          "internalType": "address",
          "name": "owner",
          "type": "address"
        },
        {
          "indexed": false,
          "internalType": "uint256",
          "name": "shares",
          "type": "uint256"
        }
      ],
      "name": "Cash",
      "type": "event"
    },
    {
      "anonymous": false,
      "inputs": [
        {
          "indexed": true,
          "internalType": "address",
          "name": "user",
          "type": "address"
        },
        {
          "indexed": false,
          "internalType": "uint256",
          "name": "price",
          "type": "uint256"
        }
      ],
      "name": "FeeUpdate",
      "type": "event"
    },
    {
      "anonymous": false,
      "inputs": [
        {
          "indexed": false,
          "internalType": "uint8",
          "name": "version",
          "type": "uint8"
        }
      ],
      "name": "Initialized",
      "type": "event"
    },
    {
      "anonymous": false,
      "inputs": [
        {
          "indexed": true,
          "internalType": "address",
          "name": "user",
          "type": "address"
        },
        {
          "indexed": false,
          "internalType": "uint256",
          "name": "price",
          "type": "uint256"
        }
      ],
      "name": "PriceUpdate",
      "type": "event"
    },
    {
      "anonymous": false,
      "inputs": [
        {
          "indexed": true,
          "internalType": "address",
          "name": "redeemer",
          "type": "address"
        }
      ],
      "name": "Redeem",
      "type": "event"
    },
    {
      "anonymous": false,
      "inputs": [
        {
          "indexed": true,
          "internalType": "address",
          "name": "buyer",
          "type": "address"
        },
        {
          "indexed": false,
          "internalType": "uint256",
          "name": "price",
          "type": "uint256"
        }
      ],
      "name": "Start",
      "type": "event"
    },
    {
      "anonymous": false,
      "inputs": [
        {
          "indexed": true,
          "internalType": "address",
          "name": "from",
          "type": "address"
        },
        {
          "indexed": true,
          "internalType": "address",
          "name": "to",
          "type": "address"
        },
        {
          "indexed": false,
          "internalType": "uint256",
          "name": "value",
          "type": "uint256"
        }
      ],
      "name": "Transfer",
      "type": "event"
    },
    {
      "anonymous": false,
      "inputs": [
        {
          "indexed": true,
          "internalType": "address",
          "name": "buyer",
          "type": "address"
        },
        {
          "indexed": false,
          "internalType": "uint256",
          "name": "price",
          "type": "uint256"
        }
      ],
      "name": "Won",
      "type": "event"
    },
    {
      "inputs": [
        {
          "internalType": "address",
          "name": "owner",
          "type": "address"
        },
        {
          "internalType": "address",
          "name": "spender",
          "type": "address"
        }
      ],
      "name": "allowance",
      "outputs": [
        {
          "internalType": "uint256",
          "name": "",
          "type": "uint256"
        }
      ],
      "stateMutability": "view",
      "type": "function",
      "constant": true
    },
    {
      "inputs": [
        {
          "internalType": "address",
          "name": "spender",
          "type": "address"
        },
        {
          "internalType": "uint256",
          "name": "amount",
          "type": "uint256"
        }
      ],
      "name": "approve",
      "outputs": [
        {
          "internalType": "bool",
          "name": "",
          "type": "bool"
        }
      ],
      "stateMutability": "nonpayable",
      "type": "function"
    },
    {
      "inputs": [
        {
          "internalType": "address",
          "name": "account",
          "type": "address"
        }
      ],
      "name": "balanceOf",
      "outputs": [
        {
          "internalType": "uint256",
          "name": "",
          "type": "uint256"
        }
      ],
      "stateMutability": "view",
      "type": "function",
      "constant": true
    },
    {
      "inputs": [],
      "name": "canRedeem",
      "outputs": [
        {
          "internalType": "bool",
          "name": "",
          "type": "bool"
        }
      ],
      "stateMutability": "view",
      "type": "function",
      "constant": true
    },
    {
      "inputs": [],
      "name": "curator",
      "outputs": [
        {
          "internalType": "address",
          "name": "",
          "type": "address"
        }
      ],
      "stateMutability": "view",
      "type": "function",
      "constant": true
    },
    {
      "inputs": [],
      "name": "decimals",
      "outputs": [
        {
          "internalType": "uint8",
          "name": "",
          "type": "uint8"
        }
      ],
      "stateMutability": "view",
      "type": "function",
      "constant": true
    },
    {
      "inputs": [
        {
          "internalType": "address",
          "name": "spender",
          "type": "address"
        },
        {
          "internalType": "uint256",
          "name": "subtractedValue",
          "type": "uint256"
        }
      ],
      "name": "decreaseAllowance",
      "outputs": [
        {
          "internalType": "bool",
          "name": "",
          "type": "bool"
        }
      ],
      "stateMutability": "nonpayable",
      "type": "function"
    },
    {
      "inputs": [],
      "name": "fee",
      "outputs": [
        {
          "internalType": "uint256",
          "name": "",
          "type": "uint256"
        }
      ],
      "stateMutability": "view",
      "type": "function",
      "constant": true
    },
    {
      "inputs": [],
      "name": "forSale",
      "outputs": [
        {
          "internalType": "bool",
          "name": "",
          "type": "bool"
        }
      ],
      "stateMutability": "view",
      "type": "function",
      "constant": true
    },
    {
      "inputs": [],
      "name": "id",
      "outputs": [
        {
          "internalType": "uint256",
          "name": "",
          "type": "uint256"
        }
      ],
      "stateMutability": "view",
      "type": "function",
      "constant": true
    },
    {
      "inputs": [
        {
          "internalType": "address",
          "name": "spender",
          "type": "address"
        },
        {
          "internalType": "uint256",
          "name": "addedValue",
          "type": "uint256"
        }
      ],
      "name": "increaseAllowance",
      "outputs": [
        {
          "internalType": "bool",
          "name": "",
          "type": "bool"
        }
      ],
      "stateMutability": "nonpayable",
      "type": "function"
    },
    {
      "inputs": [],
      "name": "name",
      "outputs": [
        {
          "internalType": "string",
          "name": "",
          "type": "string"
        }
      ],
      "stateMutability": "view",
      "type": "function",
      "constant": true
    },
    {
      "inputs": [
        {
          "internalType": "address",
          "name": "",
          "type": "address"
        },
        {
          "internalType": "address",
          "name": "",
          "type": "address"
        },
        {
          "internalType": "uint256",
          "name": "",
          "type": "uint256"
        },
        {
          "internalType": "bytes",
          "name": "",
          "type": "bytes"
        }
      ],
      "name": "onERC721Received",
      "outputs": [
        {
          "internalType": "bytes4",
          "name": "",
          "type": "bytes4"
        }
      ],
      "stateMutability": "nonpayable",
      "type": "function"
    },
    {
      "inputs": [],
      "name": "price",
      "outputs": [
        {
          "internalType": "uint256",
          "name": "",
          "type": "uint256"
        }
      ],
      "stateMutability": "view",
      "type": "function",
      "constant": true
    },
    {
      "inputs": [],
      "name": "reserveTotal",
      "outputs": [
        {
          "internalType": "uint256",
          "name": "",
          "type": "uint256"
        }
      ],
      "stateMutability": "view",
      "type": "function",
      "constant": true
    },
    {
      "inputs": [],
      "name": "symbol",
      "outputs": [
        {
          "internalType": "string",
          "name": "",
          "type": "string"
        }
      ],
      "stateMutability": "view",
      "type": "function",
      "constant": true
    },
    {
      "inputs": [],
      "name": "token",
      "outputs": [
        {
          "internalType": "address",
          "name": "",
          "type": "address"
        }
      ],
      "stateMutability": "view",
      "type": "function",
      "constant": true
    },
    {
      "inputs": [],
      "name": "totalSupply",
      "outputs": [
        {
          "internalType": "uint256",
          "name": "",
          "type": "uint256"
        }
      ],
      "stateMutability": "view",
      "type": "function",
      "constant": true
    },
    {
      "inputs": [
        {
          "internalType": "address",
          "name": "to",
          "type": "address"
        },
        {
          "internalType": "uint256",
          "name": "amount",
          "type": "uint256"
        }
      ],
      "name": "transfer",
      "outputs": [
        {
          "internalType": "bool",
          "name": "",
          "type": "bool"
        }
      ],
      "stateMutability": "nonpayable",
      "type": "function"
    },
    {
      "inputs": [
        {
          "internalType": "address",
          "name": "from",
          "type": "address"
        },
        {
          "internalType": "address",
          "name": "to",
          "type": "address"
        },
        {
          "internalType": "uint256",
          "name": "amount",
          "type": "uint256"
        }
      ],
      "name": "transferFrom",
      "outputs": [
        {
          "internalType": "bool",
          "name": "",
          "type": "bool"
        }
      ],
      "stateMutability": "nonpayable",
      "type": "function"
    },
    {
      "inputs": [
        {
          "internalType": "address",
          "name": "",
          "type": "address"
        }
      ],
      "name": "userPrices",
      "outputs": [
        {
          "internalType": "uint256",
          "name": "",
          "type": "uint256"
        }
      ],
      "stateMutability": "view",
      "type": "function",
      "constant": true
    },
    {
      "inputs": [],
      "name": "votingTokens",
      "outputs": [
        {
          "internalType": "uint256",
          "name": "",
          "type": "uint256"
        }
      ],
      "stateMutability": "view",
      "type": "function",
      "constant": true
    },
    {
      "inputs": [],
      "name": "weth",
      "outputs": [
        {
          "internalType": "address",
          "name": "",
          "type": "address"
        }
      ],
      "stateMutability": "view",
      "type": "function",
      "constant": true
    },
    {
      "inputs": [
        {
          "internalType": "address",
          "name": "_curator",
          "type": "address"
        },
        {
          "internalType": "address",
          "name": "_token",
          "type": "address"
        },
        {
          "internalType": "uint256",
          "name": "_id",
          "type": "uint256"
        },
        {
          "internalType": "uint256",
          "name": "_supply",
          "type": "uint256"
        },
        {
          "internalType": "uint256",
          "name": "_fee",
          "type": "uint256"
        },
        {
          "internalType": "uint256",
          "name": "_listPrice",
          "type": "uint256"
        },
        {
          "internalType": "string",
          "name": "_name",
          "type": "string"
        },
        {
          "internalType": "string",
          "name": "_symbol",
          "type": "string"
        }
      ],
      "name": "initialize",
      "outputs": [],
      "stateMutability": "nonpayable",
      "type": "function"
    },
    {
      "inputs": [],
      "name": "reservePrice",
      "outputs": [
        {
          "internalType": "uint256",
          "name": "",
          "type": "uint256"
        }
      ],
      "stateMutability": "view",
      "type": "function",
      "constant": true
    },
    {
      "inputs": [
        {
          "internalType": "bool",
          "name": "state",
          "type": "bool"
        }
      ],
      "name": "updateSaleState",
      "outputs": [],
      "stateMutability": "nonpayable",
      "type": "function"
    },
    {
      "inputs": [
        {
          "internalType": "uint256",
          "name": "_new",
          "type": "uint256"
        }
      ],
      "name": "updateUserPrice",
      "outputs": [],
      "stateMutability": "nonpayable",
      "type": "function"
    },
    {
      "inputs": [
        {
          "internalType": "uint256",
          "name": "_newFee",
          "type": "uint256"
        }
      ],
      "name": "updateFee",
      "outputs": [],
      "stateMutability": "nonpayable",
      "type": "function"
    },
    {
      "inputs": [],
      "name": "purchase",
      "outputs": [],
      "stateMutability": "payable",
      "type": "function",
      "payable": true
    },
    {
      "inputs": [
        {
          "internalType": "uint256",
          "name": "_amount",
          "type": "uint256"
        }
      ],
      "name": "redeem",
      "outputs": [],
      "stateMutability": "nonpayable",
      "type": "function"
    },
    {
      "inputs": [],
      "name": "withdraw",
      "outputs": [],
      "stateMutability": "nonpayable",
      "type": "function"
    }
  ],
  "bytecode": "0x608060405234801561001057600080fd5b506118ce806100206000396000f3fe6080604052600436106101d85760003560e01c80637b5581ed11610102578063c91de64911610095578063ddca3f4311610064578063ddca3f4314610555578063e66f53b71461056b578063f97ed5091461058b578063fc0c546a146105aa57600080fd5b8063c91de649146104d3578063db006a7514610500578063db2e1eed14610520578063dd62ed3e1461053557600080fd5b8063a035b1fe116100d1578063a035b1fe14610467578063a457c2d71461047d578063a9059cbb1461049d578063af640d0f146104bd57600080fd5b80637b5581ed146104065780639012c4a81461041c57806395d89b411461043c5780639a4e6d341461045157600080fd5b80633ccfd60b1161017a578063626fb2f011610149578063626fb2f01461038857806364edfbf0146103a85780636a775714146103b057806370a08231146103d057600080fd5b80633ccfd60b146102f75780633fc8cef31461030e57806345374c4e1461034e578063466ccac01461036e57600080fd5b806318160ddd116101b657806318160ddd1461027c57806323b872dd1461029b578063313ce567146102bb57806339509351146102d757600080fd5b806306fdde03146101dd578063095ea7b314610208578063150b7a0214610238575b600080fd5b3480156101e957600080fd5b506101f26105ca565b6040516101ff9190611334565b60405180910390f35b34801561021457600080fd5b5061022861022336600461139e565b61065c565b60405190151581526020016101ff565b34801561024457600080fd5b50610263610253366004611454565b630a85bd0160e11b949350505050565b6040516001600160e01b031990911681526020016101ff565b34801561028857600080fd5b506035545b6040519081526020016101ff565b3480156102a757600080fd5b506102286102b63660046114d0565b610676565b3480156102c757600080fd5b50604051601281526020016101ff565b3480156102e357600080fd5b506102286102f236600461139e565b61069a565b34801561030357600080fd5b5061030c6106bc565b005b34801561031a57600080fd5b5061033673c02aaa39b223fe8d0a0e5c4f27ead9083c756cc281565b6040516001600160a01b0390911681526020016101ff565b34801561035a57600080fd5b5061030c61036936600461150c565b6107ce565b34801561037a57600080fd5b50609d546102289060ff1681565b34801561039457600080fd5b5061030c6103a336600461154e565b61080b565b61030c610977565b3480156103bc57600080fd5b5061030c6103cb3660046115fa565b610a81565b3480156103dc57600080fd5b5061028d6103eb366004611613565b6001600160a01b031660009081526033602052604090205490565b34801561041257600080fd5b5061028d60995481565b34801561042857600080fd5b5061030c6104373660046115fa565b610ae9565b34801561044857600080fd5b506101f2610b4a565b34801561045d57600080fd5b5061028d609b5481565b34801561047357600080fd5b5061028d609a5481565b34801561048957600080fd5b5061022861049836600461139e565b610b59565b3480156104a957600080fd5b506102286104b836600461139e565b610bd4565b3480156104c957600080fd5b5061028d60985481565b3480156104df57600080fd5b5061028d6104ee366004611613565b609c6020526000908152604090205481565b34801561050c57600080fd5b5061030c61051b3660046115fa565b610be2565b34801561052c57600080fd5b50609a5461028d565b34801561054157600080fd5b5061028d61055036600461162e565b610d08565b34801561056157600080fd5b5061028d609e5481565b34801561057757600080fd5b50609f54610336906001600160a01b031681565b34801561059757600080fd5b50609d5461022890610100900460ff1681565b3480156105b657600080fd5b50609754610336906001600160a01b031681565b6060603680546105d990611661565b80601f016020809104026020016040519081016040528092919081815260200182805461060590611661565b80156106525780601f1061062757610100808354040283529160200191610652565b820191906000526020600020905b81548152906001019060200180831161063557829003601f168201915b5050505050905090565b60003361066a818585610d33565b60019150505b92915050565b600033610684858285610e58565b61068f858585610ed2565b506001949350505050565b60003361066a8185856106ad8383610d08565b6106b791906116b1565b610d33565b609f546001600160a01b031633146106ef5760405162461bcd60e51b81526004016106e6906116c4565b60405180910390fd5b478061073d5760405162461bcd60e51b815260206004820152601860248201527f4e6f204554482070726573656e7420696e2056656e646f72000000000000000060448201526064016106e6565b604051600090339047908381818185875af1925050503d806000811461077f576040519150601f19603f3d011682016040523d82523d6000602084013e610784565b606091505b50509050806107ca5760405162461bcd60e51b81526020600482015260126024820152714661696c656420746f20776974686472617760701b60448201526064016106e6565b5050565b609f546001600160a01b031633146107f85760405162461bcd60e51b81526004016106e6906116c4565b609d805460ff1916911515919091179055565b600054610100900460ff161580801561082b5750600054600160ff909116105b806108455750303b158015610845575060005460ff166001145b6108a85760405162461bcd60e51b815260206004820152602e60248201527f496e697469616c697a61626c653a20636f6e747261637420697320616c72656160448201526d191e481a5b9a5d1a585b1a5e995960921b60648201526084016106e6565b6000805460ff1916600117905580156108cb576000805461ff0019166101001790555b6108d5838361107d565b6108dd6110ae565b609780546001600160a01b03808b166001600160a01b0319928316179092556098899055609e879055609a869055609f8054928c169290911691909117905561092689876110d7565b801561096c576000805461ff0019169055604051600181527f7f26b83ff96e1f2b6a682f133852f6798a09c465da95921460cefb38474024989060200160405180910390a15b505050505050505050565b609d5460ff166109b85760405162461bcd60e51b815260206004820152600c60248201526b4e6f7420666f722073616c6560a01b60448201526064016106e6565b609a54341015610a025760405162461bcd60e51b8152602060048201526015602482015274139bdd08195b9bdd59da08195d1a195c881cd95b9d605a1b60448201526064016106e6565b6097546098546040516323b872dd60e01b815230600482015233602482015260448101919091526001600160a01b03909116906323b872dd90606401600060405180830381600087803b158015610a5857600080fd5b505af1158015610a6c573d6000803e3d6000fd5b5050609d805461ffff19166101001790555050565b609f546001600160a01b03163314610aab5760405162461bcd60e51b81526004016106e6906116c4565b609a81905560405181815233907f64e6e7bd72b853c4e62fd6ceaca05a104700c70a4cb567c75c7f2242ba7f037c906020015b60405180910390a250565b609f546001600160a01b03163314610b135760405162461bcd60e51b81526004016106e6906116c4565b609e81905560405181815233907fa12973bd1c09e4ec46288dc2a7ccb9b337e197c7ffad7a179ecae62a90830afd90602001610ade565b6060603780546105d990611661565b60003381610b678286610d08565b905083811015610bc75760405162461bcd60e51b815260206004820152602560248201527f45524332303a2064656372656173656420616c6c6f77616e63652062656c6f77604482015264207a65726f60d81b60648201526084016106e6565b61068f8286868403610d33565b60003361066a818585610ed2565b609d54610100900460ff16610c395760405162461bcd60e51b815260206004820152601860248201527f526564656d7074696f6e206e6f7420617661696c61626c65000000000000000060448201526064016106e6565b476000610c4560355490565b610c4f83856116fb565b610c599190611712565b90506000610c7e612710610c78609e548561119890919063ffffffff16565b906111ab565b90506000610c8c83836111b7565b9050610c9833866111c3565b609f546040516001600160a01b039091169083156108fc029084906000818181858888f19350505050158015610cd2573d6000803e3d6000fd5b50604051339082156108fc029083906000818181858888f19350505050158015610d00573d6000803e3d6000fd5b505050505050565b6001600160a01b03918216600090815260346020908152604080832093909416825291909152205490565b6001600160a01b038316610d955760405162461bcd60e51b8152602060048201526024808201527f45524332303a20617070726f76652066726f6d20746865207a65726f206164646044820152637265737360e01b60648201526084016106e6565b6001600160a01b038216610df65760405162461bcd60e51b815260206004820152602260248201527f45524332303a20617070726f766520746f20746865207a65726f206164647265604482015261737360f01b60648201526084016106e6565b6001600160a01b0383811660008181526034602090815260408083209487168084529482529182902085905590518481527f8c5be1e5ebec7d5bd14f71427d1e84f3dd0314c0f7b2291e5b200ac8c7c3b92591015b60405180910390a3505050565b6000610e648484610d08565b90506000198114610ecc5781811015610ebf5760405162461bcd60e51b815260206004820152601d60248201527f45524332303a20696e73756666696369656e7420616c6c6f77616e636500000060448201526064016106e6565b610ecc8484848403610d33565b50505050565b6001600160a01b038316610f365760405162461bcd60e51b815260206004820152602560248201527f45524332303a207472616e736665722066726f6d20746865207a65726f206164604482015264647265737360d81b60648201526084016106e6565b6001600160a01b038216610f985760405162461bcd60e51b815260206004820152602360248201527f45524332303a207472616e7366657220746f20746865207a65726f206164647260448201526265737360e81b60648201526084016106e6565b6001600160a01b038316600090815260336020526040902054818110156110105760405162461bcd60e51b815260206004820152602660248201527f45524332303a207472616e7366657220616d6f756e7420657863656564732062604482015265616c616e636560d01b60648201526084016106e6565b6001600160a01b0380851660008181526033602052604080822086860390559286168082529083902080548601905591517fddf252ad1be2c89b69c2b068fc378daa952ba7f163c4a11628f55a4df523b3ef906110709086815260200190565b60405180910390a3610ecc565b600054610100900460ff166110a45760405162461bcd60e51b81526004016106e690611734565b6107ca82826112f4565b600054610100900460ff166110d55760405162461bcd60e51b81526004016106e690611734565b565b6001600160a01b03821661112d5760405162461bcd60e51b815260206004820152601f60248201527f45524332303a206d696e7420746f20746865207a65726f20616464726573730060448201526064016106e6565b806035600082825461113f91906116b1565b90915550506001600160a01b0382166000818152603360209081526040808320805486019055518481527fddf252ad1be2c89b69c2b068fc378daa952ba7f163c4a11628f55a4df523b3ef910160405180910390a35050565b60006111a482846116fb565b9392505050565b60006111a48284611712565b60006111a4828461177f565b6001600160a01b0382166112235760405162461bcd60e51b815260206004820152602160248201527f45524332303a206275726e2066726f6d20746865207a65726f206164647265736044820152607360f81b60648201526084016106e6565b6001600160a01b038216600090815260336020526040902054818110156112975760405162461bcd60e51b815260206004820152602260248201527f45524332303a206275726e20616d6f756e7420657863656564732062616c616e604482015261636560f01b60648201526084016106e6565b6001600160a01b03831660008181526033602090815260408083208686039055603580548790039055518581529192917fddf252ad1be2c89b69c2b068fc378daa952ba7f163c4a11628f55a4df523b3ef9101610e4b565b505050565b600054610100900460ff1661131b5760405162461bcd60e51b81526004016106e690611734565b603661132783826117d8565b5060376112ef82826117d8565b600060208083528351808285015260005b8181101561136157858101830151858201604001528201611345565b506000604082860101526040601f19601f8301168501019250505092915050565b80356001600160a01b038116811461139957600080fd5b919050565b600080604083850312156113b157600080fd5b6113ba83611382565b946020939093013593505050565b634e487b7160e01b600052604160045260246000fd5b600067ffffffffffffffff808411156113f9576113f96113c8565b604051601f8501601f19908116603f01168101908282118183101715611421576114216113c8565b8160405280935085815286868601111561143a57600080fd5b858560208301376000602087830101525050509392505050565b6000806000806080858703121561146a57600080fd5b61147385611382565b935061148160208601611382565b925060408501359150606085013567ffffffffffffffff8111156114a457600080fd5b8501601f810187136114b557600080fd5b6114c4878235602084016113de565b91505092959194509250565b6000806000606084860312156114e557600080fd5b6114ee84611382565b92506114fc60208501611382565b9150604084013590509250925092565b60006020828403121561151e57600080fd5b813580151581146111a457600080fd5b600082601f83011261153f57600080fd5b6111a4838335602085016113de565b600080600080600080600080610100898b03121561156b57600080fd5b61157489611382565b975061158260208a01611382565b965060408901359550606089013594506080890135935060a0890135925060c089013567ffffffffffffffff808211156115bb57600080fd5b6115c78c838d0161152e565b935060e08b01359150808211156115dd57600080fd5b506115ea8b828c0161152e565b9150509295985092959890939650565b60006020828403121561160c57600080fd5b5035919050565b60006020828403121561162557600080fd5b6111a482611382565b6000806040838503121561164157600080fd5b61164a83611382565b915061165860208401611382565b90509250929050565b600181811c9082168061167557607f821691505b60208210810361169557634e487b7160e01b600052602260045260246000fd5b50919050565b634e487b7160e01b600052601160045260246000fd5b808201808211156106705761067061169b565b60208082526017908201527f596f7520617265206e6f74207468652063757261746f72000000000000000000604082015260600190565b80820281158282048414176106705761067061169b565b60008261172f57634e487b7160e01b600052601260045260246000fd5b500490565b6020808252602b908201527f496e697469616c697a61626c653a20636f6e7472616374206973206e6f74206960408201526a6e697469616c697a696e6760a81b606082015260800190565b818103818111156106705761067061169b565b601f8211156112ef57600081815260208120601f850160051c810160208610156117b95750805b601f850160051c820191505b81811015610d00578281556001016117c5565b815167ffffffffffffffff8111156117f2576117f26113c8565b611806816118008454611661565b84611792565b602080601f83116001811461183b57600084156118235750858301515b600019600386901b1c1916600185901b178555610d00565b600085815260208120601f198616915b8281101561186a5788860151825594840194600190910190840161184b565b50858210156118885787850151600019600388901b60f8161c191681555b5050505050600190811b0190555056fea264697066735822122094597c6bd31a1d64c715d6fb012212f0e89c63f6a5b07f470d0ea50a44fe1fbc64736f6c63430008110033",
  "immutableReferences": {},
  "source": "//SPDX-License-Identifier: MIT\npragma solidity ^0.8.0;\n\nimport '@openzeppelin/contracts/utils/math/Math.sol';\nimport '@openzeppelin/contracts/token/ERC20/ERC20.sol';\nimport '@openzeppelin/contracts/token/ERC721/ERC721.sol';\nimport '@openzeppelin/contracts/utils/math/SafeMath.sol';\nimport '@openzeppelin/contracts/token/ERC721/utils/ERC721Holder.sol';\nimport '@openzeppelin/contracts-upgradeable/token/ERC721/utils/ERC721HolderUpgradeable.sol';\nimport '@openzeppelin/contracts-upgradeable/token/ERC20/ERC20Upgradeable.sol';\n\ncontract NftFractionToken is ERC20Upgradeable, ERC721HolderUpgradeable {\n  using Address for address;\n  using SafeMath for uint256;\n\n  /// -----------------------------------\n  /// -------- BASIC INFORMATION --------\n  /// -----------------------------------\n\n  /// @notice weth address\n  address public constant weth = 0xC02aaA39b223FE8D0A0e5C4F27eAD9083C756Cc2;\n\n  /// -----------------------------------\n  /// -------- TOKEN INFORMATION --------\n  /// -----------------------------------\n\n  /// @notice the ERC721 token address of the vault's token\n  address public token;\n\n  /// @notice the ERC721 token ID of the vault's token\n  uint256 public id;\n\n  /// -------------------------------------\n  /// -------- AUCTION INFORMATION --------\n  /// -------------------------------------\n\n  /// @notice reservePrice * votingTokens\n  uint256 public reserveTotal;\n  uint256 public price;\n  /// -----------------------------------\n  /// -------- VAULT INFORMATION --------\n  /// -----------------------------------\n\n  /// @notice the number of ownership tokens voting on the reserve price at any given time\n  uint256 public votingTokens;\n\n  /// @notice a mapping of users to their desired token price\n  mapping(address => uint256) public userPrices;\n\n  bool public forSale;\n  bool public canRedeem;\n  uint256 public fee;\n  address public curator;\n\n  /// ------------------------\n  /// -------- EVENTS --------\n  /// ------------------------\n\n  /// @notice An event emitted when a user updates their price\n  event PriceUpdate(address indexed user, uint price);\n\n  /// @notice An event emitted when a curator updates de fee\n  event FeeUpdate(address indexed user, uint price);\n\n  /// @notice An event emitted when an auction starts\n  event Start(address indexed buyer, uint price);\n\n  /// @notice An event emitted when a bid is made\n  event Bid(address indexed buyer, uint price);\n\n  /// @notice An event emitted when an auction is won\n  event Won(address indexed buyer, uint price);\n\n  /// @notice An event emitted when someone redeems all tokens for the NFT\n  event Redeem(address indexed redeemer);\n\n  /// @notice An event emitted when someone cashes in ERC20 tokens for ETH from an ERC721 token sale\n  event Cash(address indexed owner, uint256 shares);\n\n  constructor() {}\n\n  function initialize(\n    address _curator,\n    address _token,\n    uint256 _id,\n    uint256 _supply,\n    uint256 _fee,\n    uint256 _listPrice,\n    string memory _name,\n    string memory _symbol\n  ) external initializer {\n    // initialize inherited contracts\n    __ERC20_init(_name, _symbol);\n    __ERC721Holder_init();\n    // set storage variables\n    token = _token;\n    id = _id;\n    fee = _fee;\n    price = _listPrice;\n    curator = _curator;\n    // reserveTotal = _listPrice * _supply;\n    // votingTokens = _listPrice == 0 ? 0 : _supply;\n    _mint(_curator, _supply);\n  }\n\n  function reservePrice() public view returns (uint256) {\n    return price;\n  }\n\n  function updateSaleState(bool state) external {\n    require(curator == msg.sender, 'You are not the curator');\n    forSale = state;\n  }\n\n  function updateUserPrice(uint256 _new) external {\n    require(curator == msg.sender, 'You are not the curator');\n    price = _new;\n    emit PriceUpdate(msg.sender, _new);\n  }\n\n  function updateFee(uint256 _newFee) external {\n    require(curator == msg.sender, 'You are not the curator');\n    fee = _newFee;\n    emit FeeUpdate(msg.sender, _newFee);\n  }\n\n  function purchase() external payable {\n    require(forSale, 'Not for sale');\n    require(msg.value >= reservePrice(), 'Not enough ether sent');\n    IERC721(token).transferFrom(address(this), msg.sender, id);\n    forSale = false;\n    canRedeem = true;\n  }\n\n  function redeem(uint256 _amount) external {\n    require(canRedeem, 'Redemption not available');\n    uint256 totalEther = address(this).balance;\n\n    uint256 toRedeem = (_amount * totalEther) / totalSupply();\n    uint256 percentageFee = (toRedeem.mul(fee)).div(10000);\n    uint256 total = toRedeem.sub(percentageFee);\n\n    _burn(msg.sender, _amount);\n\n    payable(curator).transfer(percentageFee);\n    payable(msg.sender).transfer(total);\n  }\n\n  function withdraw() public {\n    require(curator == msg.sender, 'You are not the curator');\n    uint256 ownerBalance = address(this).balance;\n    require(ownerBalance > 0, 'No ETH present in Vendor');\n    (bool sent, ) = msg.sender.call{value: address(this).balance}('');\n    require(sent, 'Failed to withdraw');\n  }\n}\n",
  "sourcePath": "/Users/alberto/Desktop/Enalbis/myCask/nft-marketplace-frontend/contracts/NftFractionToken.sol",
  "compiler": {
    "name": "solc",
    "version": "0.8.17+commit.8df45f5f.Emscripten.clang"
  },
  "schemaVersion": "3.4.11",
  "updatedAt": "2023-02-15T15:56:19.298Z",
  "networkType": "ethereum",
  "devdoc": {
    "kind": "dev",
    "methods": {
      "allowance(address,address)": {
        "details": "See {IERC20-allowance}."
      },
      "approve(address,uint256)": {
        "details": "See {IERC20-approve}. NOTE: If `amount` is the maximum `uint256`, the allowance is not updated on `transferFrom`. This is semantically equivalent to an infinite approval. Requirements: - `spender` cannot be the zero address."
      },
      "balanceOf(address)": {
        "details": "See {IERC20-balanceOf}."
      },
      "decimals()": {
        "details": "Returns the number of decimals used to get its user representation. For example, if `decimals` equals `2`, a balance of `505` tokens should be displayed to a user as `5.05` (`505 / 10 ** 2`). Tokens usually opt for a value of 18, imitating the relationship between Ether and Wei. This is the value {ERC20} uses, unless this function is overridden; NOTE: This information is only used for _display_ purposes: it in no way affects any of the arithmetic of the contract, including {IERC20-balanceOf} and {IERC20-transfer}."
      },
      "decreaseAllowance(address,uint256)": {
        "details": "Atomically decreases the allowance granted to `spender` by the caller. This is an alternative to {approve} that can be used as a mitigation for problems described in {IERC20-approve}. Emits an {Approval} event indicating the updated allowance. Requirements: - `spender` cannot be the zero address. - `spender` must have allowance for the caller of at least `subtractedValue`."
      },
      "increaseAllowance(address,uint256)": {
        "details": "Atomically increases the allowance granted to `spender` by the caller. This is an alternative to {approve} that can be used as a mitigation for problems described in {IERC20-approve}. Emits an {Approval} event indicating the updated allowance. Requirements: - `spender` cannot be the zero address."
      },
      "name()": {
        "details": "Returns the name of the token."
      },
      "onERC721Received(address,address,uint256,bytes)": {
        "details": "See {IERC721Receiver-onERC721Received}. Always returns `IERC721Receiver.onERC721Received.selector`."
      },
      "symbol()": {
        "details": "Returns the symbol of the token, usually a shorter version of the name."
      },
      "totalSupply()": {
        "details": "See {IERC20-totalSupply}."
      },
      "transfer(address,uint256)": {
        "details": "See {IERC20-transfer}. Requirements: - `to` cannot be the zero address. - the caller must have a balance of at least `amount`."
      },
      "transferFrom(address,address,uint256)": {
        "details": "See {IERC20-transferFrom}. Emits an {Approval} event indicating the updated allowance. This is not required by the EIP. See the note at the beginning of {ERC20}. NOTE: Does not update the allowance if the current allowance is the maximum `uint256`. Requirements: - `from` and `to` cannot be the zero address. - `from` must have a balance of at least `amount`. - the caller must have allowance for ``from``'s tokens of at least `amount`."
      }
    },
    "version": 1
  },
  "userdoc": {
    "events": {
      "Bid(address,uint256)": {
        "notice": "An event emitted when a bid is made"
      },
      "Cash(address,uint256)": {
        "notice": "An event emitted when someone cashes in ERC20 tokens for ETH from an ERC721 token sale"
      },
      "FeeUpdate(address,uint256)": {
        "notice": "An event emitted when a curator updates de fee"
      },
      "PriceUpdate(address,uint256)": {
        "notice": "An event emitted when a user updates their price"
      },
      "Redeem(address)": {
        "notice": "An event emitted when someone redeems all tokens for the NFT"
      },
      "Start(address,uint256)": {
        "notice": "An event emitted when an auction starts"
      },
      "Won(address,uint256)": {
        "notice": "An event emitted when an auction is won"
      }
    },
    "kind": "user",
    "methods": {
      "id()": {
        "notice": "the ERC721 token ID of the vault's token"
      },
      "reserveTotal()": {
        "notice": "reservePrice * votingTokens"
      },
      "token()": {
        "notice": "the ERC721 token address of the vault's token"
      },
      "userPrices(address)": {
        "notice": "a mapping of users to their desired token price"
      },
      "votingTokens()": {
        "notice": "the number of ownership tokens voting on the reserve price at any given time"
      },
      "weth()": {
        "notice": "weth address"
      }
    },
    "version": 1
  }
}