{
  "contractName": "NftFractionToken",
  "abi": [
    {
      "inputs": [],
      "stateMutability": "nonpayable",
      "type": "constructor"
    },
    {
      "anonymous": false,
      "inputs": [
        {
          "indexed": true,
          "internalType": "address",
          "name": "owner",
          "type": "address"
        },
        {
          "indexed": true,
          "internalType": "address",
          "name": "spender",
          "type": "address"
        },
        {
          "indexed": false,
          "internalType": "uint256",
          "name": "value",
          "type": "uint256"
        }
      ],
      "name": "Approval",
      "type": "event"
    },
    {
      "anonymous": false,
      "inputs": [
        {
          "indexed": true,
          "internalType": "address",
          "name": "buyer",
          "type": "address"
        },
        {
          "indexed": false,
          "internalType": "uint256",
          "name": "price",
          "type": "uint256"
        }
      ],
      "name": "Bid",
      "type": "event"
    },
    {
      "anonymous": false,
      "inputs": [
        {
          "indexed": true,
          "internalType": "address",
          "name": "owner",
          "type": "address"
        },
        {
          "indexed": false,
          "internalType": "uint256",
          "name": "shares",
          "type": "uint256"
        }
      ],
      "name": "Cash",
      "type": "event"
    },
    {
      "anonymous": false,
      "inputs": [
        {
          "indexed": false,
          "internalType": "uint8",
          "name": "version",
          "type": "uint8"
        }
      ],
      "name": "Initialized",
      "type": "event"
    },
    {
      "anonymous": false,
      "inputs": [
        {
          "indexed": true,
          "internalType": "address",
          "name": "user",
          "type": "address"
        },
        {
          "indexed": false,
          "internalType": "uint256",
          "name": "price",
          "type": "uint256"
        }
      ],
      "name": "PriceUpdate",
      "type": "event"
    },
    {
      "anonymous": false,
      "inputs": [
        {
          "indexed": true,
          "internalType": "address",
          "name": "redeemer",
          "type": "address"
        }
      ],
      "name": "Redeem",
      "type": "event"
    },
    {
      "anonymous": false,
      "inputs": [
        {
          "indexed": true,
          "internalType": "address",
          "name": "buyer",
          "type": "address"
        },
        {
          "indexed": false,
          "internalType": "uint256",
          "name": "price",
          "type": "uint256"
        }
      ],
      "name": "Start",
      "type": "event"
    },
    {
      "anonymous": false,
      "inputs": [
        {
          "indexed": true,
          "internalType": "address",
          "name": "from",
          "type": "address"
        },
        {
          "indexed": true,
          "internalType": "address",
          "name": "to",
          "type": "address"
        },
        {
          "indexed": false,
          "internalType": "uint256",
          "name": "value",
          "type": "uint256"
        }
      ],
      "name": "Transfer",
      "type": "event"
    },
    {
      "anonymous": false,
      "inputs": [
        {
          "indexed": true,
          "internalType": "address",
          "name": "buyer",
          "type": "address"
        },
        {
          "indexed": false,
          "internalType": "uint256",
          "name": "price",
          "type": "uint256"
        }
      ],
      "name": "Won",
      "type": "event"
    },
    {
      "inputs": [
        {
          "internalType": "address",
          "name": "owner",
          "type": "address"
        },
        {
          "internalType": "address",
          "name": "spender",
          "type": "address"
        }
      ],
      "name": "allowance",
      "outputs": [
        {
          "internalType": "uint256",
          "name": "",
          "type": "uint256"
        }
      ],
      "stateMutability": "view",
      "type": "function",
      "constant": true
    },
    {
      "inputs": [
        {
          "internalType": "address",
          "name": "spender",
          "type": "address"
        },
        {
          "internalType": "uint256",
          "name": "amount",
          "type": "uint256"
        }
      ],
      "name": "approve",
      "outputs": [
        {
          "internalType": "bool",
          "name": "",
          "type": "bool"
        }
      ],
      "stateMutability": "nonpayable",
      "type": "function"
    },
    {
      "inputs": [
        {
          "internalType": "address",
          "name": "account",
          "type": "address"
        }
      ],
      "name": "balanceOf",
      "outputs": [
        {
          "internalType": "uint256",
          "name": "",
          "type": "uint256"
        }
      ],
      "stateMutability": "view",
      "type": "function",
      "constant": true
    },
    {
      "inputs": [],
      "name": "canRedeem",
      "outputs": [
        {
          "internalType": "bool",
          "name": "",
          "type": "bool"
        }
      ],
      "stateMutability": "view",
      "type": "function",
      "constant": true
    },
    {
      "inputs": [],
      "name": "decimals",
      "outputs": [
        {
          "internalType": "uint8",
          "name": "",
          "type": "uint8"
        }
      ],
      "stateMutability": "view",
      "type": "function",
      "constant": true
    },
    {
      "inputs": [
        {
          "internalType": "address",
          "name": "spender",
          "type": "address"
        },
        {
          "internalType": "uint256",
          "name": "subtractedValue",
          "type": "uint256"
        }
      ],
      "name": "decreaseAllowance",
      "outputs": [
        {
          "internalType": "bool",
          "name": "",
          "type": "bool"
        }
      ],
      "stateMutability": "nonpayable",
      "type": "function"
    },
    {
      "inputs": [],
      "name": "forSale",
      "outputs": [
        {
          "internalType": "bool",
          "name": "",
          "type": "bool"
        }
      ],
      "stateMutability": "view",
      "type": "function",
      "constant": true
    },
    {
      "inputs": [],
      "name": "id",
      "outputs": [
        {
          "internalType": "uint256",
          "name": "",
          "type": "uint256"
        }
      ],
      "stateMutability": "view",
      "type": "function",
      "constant": true
    },
    {
      "inputs": [
        {
          "internalType": "address",
          "name": "spender",
          "type": "address"
        },
        {
          "internalType": "uint256",
          "name": "addedValue",
          "type": "uint256"
        }
      ],
      "name": "increaseAllowance",
      "outputs": [
        {
          "internalType": "bool",
          "name": "",
          "type": "bool"
        }
      ],
      "stateMutability": "nonpayable",
      "type": "function"
    },
    {
      "inputs": [],
      "name": "name",
      "outputs": [
        {
          "internalType": "string",
          "name": "",
          "type": "string"
        }
      ],
      "stateMutability": "view",
      "type": "function",
      "constant": true
    },
    {
      "inputs": [
        {
          "internalType": "address",
          "name": "",
          "type": "address"
        },
        {
          "internalType": "address",
          "name": "",
          "type": "address"
        },
        {
          "internalType": "uint256",
          "name": "",
          "type": "uint256"
        },
        {
          "internalType": "bytes",
          "name": "",
          "type": "bytes"
        }
      ],
      "name": "onERC721Received",
      "outputs": [
        {
          "internalType": "bytes4",
          "name": "",
          "type": "bytes4"
        }
      ],
      "stateMutability": "nonpayable",
      "type": "function"
    },
    {
      "inputs": [],
      "name": "reserveTotal",
      "outputs": [
        {
          "internalType": "uint256",
          "name": "",
          "type": "uint256"
        }
      ],
      "stateMutability": "view",
      "type": "function",
      "constant": true
    },
    {
      "inputs": [],
      "name": "symbol",
      "outputs": [
        {
          "internalType": "string",
          "name": "",
          "type": "string"
        }
      ],
      "stateMutability": "view",
      "type": "function",
      "constant": true
    },
    {
      "inputs": [],
      "name": "token",
      "outputs": [
        {
          "internalType": "address",
          "name": "",
          "type": "address"
        }
      ],
      "stateMutability": "view",
      "type": "function",
      "constant": true
    },
    {
      "inputs": [],
      "name": "totalSupply",
      "outputs": [
        {
          "internalType": "uint256",
          "name": "",
          "type": "uint256"
        }
      ],
      "stateMutability": "view",
      "type": "function",
      "constant": true
    },
    {
      "inputs": [
        {
          "internalType": "address",
          "name": "to",
          "type": "address"
        },
        {
          "internalType": "uint256",
          "name": "amount",
          "type": "uint256"
        }
      ],
      "name": "transfer",
      "outputs": [
        {
          "internalType": "bool",
          "name": "",
          "type": "bool"
        }
      ],
      "stateMutability": "nonpayable",
      "type": "function"
    },
    {
      "inputs": [
        {
          "internalType": "address",
          "name": "from",
          "type": "address"
        },
        {
          "internalType": "address",
          "name": "to",
          "type": "address"
        },
        {
          "internalType": "uint256",
          "name": "amount",
          "type": "uint256"
        }
      ],
      "name": "transferFrom",
      "outputs": [
        {
          "internalType": "bool",
          "name": "",
          "type": "bool"
        }
      ],
      "stateMutability": "nonpayable",
      "type": "function"
    },
    {
      "inputs": [
        {
          "internalType": "address",
          "name": "",
          "type": "address"
        }
      ],
      "name": "userPrices",
      "outputs": [
        {
          "internalType": "uint256",
          "name": "",
          "type": "uint256"
        }
      ],
      "stateMutability": "view",
      "type": "function",
      "constant": true
    },
    {
      "inputs": [],
      "name": "votingTokens",
      "outputs": [
        {
          "internalType": "uint256",
          "name": "",
          "type": "uint256"
        }
      ],
      "stateMutability": "view",
      "type": "function",
      "constant": true
    },
    {
      "inputs": [],
      "name": "weth",
      "outputs": [
        {
          "internalType": "address",
          "name": "",
          "type": "address"
        }
      ],
      "stateMutability": "view",
      "type": "function",
      "constant": true
    },
    {
      "inputs": [
        {
          "internalType": "address",
          "name": "_curator",
          "type": "address"
        },
        {
          "internalType": "address",
          "name": "_token",
          "type": "address"
        },
        {
          "internalType": "uint256",
          "name": "_id",
          "type": "uint256"
        },
        {
          "internalType": "uint256",
          "name": "_supply",
          "type": "uint256"
        },
        {
          "internalType": "uint256",
          "name": "_listPrice",
          "type": "uint256"
        },
        {
          "internalType": "string",
          "name": "_name",
          "type": "string"
        },
        {
          "internalType": "string",
          "name": "_symbol",
          "type": "string"
        }
      ],
      "name": "initialize",
      "outputs": [],
      "stateMutability": "nonpayable",
      "type": "function"
    },
    {
      "inputs": [],
      "name": "reservePrice",
      "outputs": [
        {
          "internalType": "uint256",
          "name": "",
          "type": "uint256"
        }
      ],
      "stateMutability": "view",
      "type": "function",
      "constant": true
    },
    {
      "inputs": [],
      "name": "purchase",
      "outputs": [],
      "stateMutability": "payable",
      "type": "function",
      "payable": true
    },
    {
      "inputs": [
        {
          "internalType": "uint256",
          "name": "_amount",
          "type": "uint256"
        }
      ],
      "name": "redeem",
      "outputs": [],
      "stateMutability": "nonpayable",
      "type": "function"
    }
  ],
  "bytecode": "0x608060405234801561001057600080fd5b506114a1806100206000396000f3fe60806040526004361061014b5760003560e01c806395d89b41116100b6578063d3a09e781161006f578063d3a09e78146103c8578063db006a75146103e8578063db2e1eed14610408578063dd62ed3e1461041d578063f97ed5091461043d578063fc0c546a1461045c57600080fd5b806395d89b411461031a5780639a4e6d341461032f578063a457c2d714610345578063a9059cbb14610365578063af640d0f14610385578063c91de6491461039b57600080fd5b80633950935111610108578063395093511461024a5780633fc8cef31461026a578063466ccac0146102aa57806364edfbf0146102c457806370a08231146102ce5780637b5581ed1461030457600080fd5b806306fdde0314610150578063095ea7b31461017b578063150b7a02146101ab57806318160ddd146101ef57806323b872dd1461020e578063313ce5671461022e575b600080fd5b34801561015c57600080fd5b5061016561047c565b6040516101729190610f6e565b60405180910390f35b34801561018757600080fd5b5061019b610196366004610fd8565b61050e565b6040519015158152602001610172565b3480156101b757600080fd5b506101d66101c636600461108e565b630a85bd0160e11b949350505050565b6040516001600160e01b03199091168152602001610172565b3480156101fb57600080fd5b506035545b604051908152602001610172565b34801561021a57600080fd5b5061019b61022936600461110a565b610528565b34801561023a57600080fd5b5060405160128152602001610172565b34801561025657600080fd5b5061019b610265366004610fd8565b61054c565b34801561027657600080fd5b5061029273c02aaa39b223fe8d0a0e5c4f27ead9083c756cc281565b6040516001600160a01b039091168152602001610172565b3480156102b657600080fd5b50609c5461019b9060ff1681565b6102cc61056e565b005b3480156102da57600080fd5b506102006102e9366004611146565b6001600160a01b031660009081526033602052604090205490565b34801561031057600080fd5b5061020060995481565b34801561032657600080fd5b50610165610682565b34801561033b57600080fd5b50610200609a5481565b34801561035157600080fd5b5061019b610360366004610fd8565b610691565b34801561037157600080fd5b5061019b610380366004610fd8565b61070c565b34801561039157600080fd5b5061020060985481565b3480156103a757600080fd5b506102006103b6366004611146565b609b6020526000908152604090205481565b3480156103d457600080fd5b506102cc6103e3366004611188565b61071a565b3480156103f457600080fd5b506102cc61040336600461122a565b610892565b34801561041457600080fd5b50610200610948565b34801561042957600080fd5b50610200610438366004611243565b61096f565b34801561044957600080fd5b50609c5461019b90610100900460ff1681565b34801561046857600080fd5b50609754610292906001600160a01b031681565b60606036805461048b90611276565b80601f01602080910402602001604051908101604052809291908181526020018280546104b790611276565b80156105045780601f106104d957610100808354040283529160200191610504565b820191906000526020600020905b8154815290600101906020018083116104e757829003601f168201915b5050505050905090565b60003361051c81858561099a565b60019150505b92915050565b600033610536858285610abf565b610541858585610b33565b506001949350505050565b60003361051c81858561055f838361096f565b61056991906112c6565b61099a565b609c5460ff166105b45760405162461bcd60e51b815260206004820152600c60248201526b4e6f7420666f722073616c6560a01b60448201526064015b60405180910390fd5b6105bc610948565b3410156106035760405162461bcd60e51b8152602060048201526015602482015274139bdd08195b9bdd59da08195d1a195c881cd95b9d605a1b60448201526064016105ab565b6097546098546040516323b872dd60e01b815230600482015233602482015260448101919091526001600160a01b03909116906323b872dd90606401600060405180830381600087803b15801561065957600080fd5b505af115801561066d573d6000803e3d6000fd5b5050609c805461ffff19166101001790555050565b60606037805461048b90611276565b6000338161069f828661096f565b9050838110156106ff5760405162461bcd60e51b815260206004820152602560248201527f45524332303a2064656372656173656420616c6c6f77616e63652062656c6f77604482015264207a65726f60d81b60648201526084016105ab565b610541828686840361099a565b60003361051c818585610b33565b600054610100900460ff161580801561073a5750600054600160ff909116105b806107545750303b158015610754575060005460ff166001145b6107b75760405162461bcd60e51b815260206004820152602e60248201527f496e697469616c697a61626c653a20636f6e747261637420697320616c72656160448201526d191e481a5b9a5d1a585b1a5e995960921b60648201526084016105ab565b6000805460ff1916600117905580156107da576000805461ff0019166101001790555b6107e48383610cde565b6107ec610d13565b609780546001600160a01b0319166001600160a01b0389161790556098869055609c805460ff1916600117905561082385856112d9565b60995583156108325784610835565b60005b609a556108428886610d3c565b8015610888576000805461ff0019169055604051600181527f7f26b83ff96e1f2b6a682f133852f6798a09c465da95921460cefb38474024989060200160405180910390a15b5050505050505050565b609c54610100900460ff166108e95760405162461bcd60e51b815260206004820152601860248201527f526564656d7074696f6e206e6f7420617661696c61626c65000000000000000060448201526064016105ab565b4760006108f560355490565b6108ff83856112d9565b61090991906112f0565b90506109153384610dfd565b604051339082156108fc029083906000818181858888f19350505050158015610942573d6000803e3d6000fd5b50505050565b6000609a5460001461096957609a5460995461096491906112f0565b905090565b50600090565b6001600160a01b03918216600090815260346020908152604080832093909416825291909152205490565b6001600160a01b0383166109fc5760405162461bcd60e51b8152602060048201526024808201527f45524332303a20617070726f76652066726f6d20746865207a65726f206164646044820152637265737360e01b60648201526084016105ab565b6001600160a01b038216610a5d5760405162461bcd60e51b815260206004820152602260248201527f45524332303a20617070726f766520746f20746865207a65726f206164647265604482015261737360f01b60648201526084016105ab565b6001600160a01b0383811660008181526034602090815260408083209487168084529482529182902085905590518481527f8c5be1e5ebec7d5bd14f71427d1e84f3dd0314c0f7b2291e5b200ac8c7c3b92591015b60405180910390a3505050565b6000610acb848461096f565b905060001981146109425781811015610b265760405162461bcd60e51b815260206004820152601d60248201527f45524332303a20696e73756666696369656e7420616c6c6f77616e636500000060448201526064016105ab565b610942848484840361099a565b6001600160a01b038316610b975760405162461bcd60e51b815260206004820152602560248201527f45524332303a207472616e736665722066726f6d20746865207a65726f206164604482015264647265737360d81b60648201526084016105ab565b6001600160a01b038216610bf95760405162461bcd60e51b815260206004820152602360248201527f45524332303a207472616e7366657220746f20746865207a65726f206164647260448201526265737360e81b60648201526084016105ab565b6001600160a01b03831660009081526033602052604090205481811015610c715760405162461bcd60e51b815260206004820152602660248201527f45524332303a207472616e7366657220616d6f756e7420657863656564732062604482015265616c616e636560d01b60648201526084016105ab565b6001600160a01b0380851660008181526033602052604080822086860390559286168082529083902080548601905591517fddf252ad1be2c89b69c2b068fc378daa952ba7f163c4a11628f55a4df523b3ef90610cd19086815260200190565b60405180910390a3610942565b600054610100900460ff16610d055760405162461bcd60e51b81526004016105ab90611312565b610d0f8282610f2e565b5050565b600054610100900460ff16610d3a5760405162461bcd60e51b81526004016105ab90611312565b565b6001600160a01b038216610d925760405162461bcd60e51b815260206004820152601f60248201527f45524332303a206d696e7420746f20746865207a65726f20616464726573730060448201526064016105ab565b8060356000828254610da491906112c6565b90915550506001600160a01b0382166000818152603360209081526040808320805486019055518481527fddf252ad1be2c89b69c2b068fc378daa952ba7f163c4a11628f55a4df523b3ef910160405180910390a35050565b6001600160a01b038216610e5d5760405162461bcd60e51b815260206004820152602160248201527f45524332303a206275726e2066726f6d20746865207a65726f206164647265736044820152607360f81b60648201526084016105ab565b6001600160a01b03821660009081526033602052604090205481811015610ed15760405162461bcd60e51b815260206004820152602260248201527f45524332303a206275726e20616d6f756e7420657863656564732062616c616e604482015261636560f01b60648201526084016105ab565b6001600160a01b03831660008181526033602090815260408083208686039055603580548790039055518581529192917fddf252ad1be2c89b69c2b068fc378daa952ba7f163c4a11628f55a4df523b3ef9101610ab2565b505050565b600054610100900460ff16610f555760405162461bcd60e51b81526004016105ab90611312565b6036610f6183826113ab565b506037610f2982826113ab565b600060208083528351808285015260005b81811015610f9b57858101830151858201604001528201610f7f565b506000604082860101526040601f19601f8301168501019250505092915050565b80356001600160a01b0381168114610fd357600080fd5b919050565b60008060408385031215610feb57600080fd5b610ff483610fbc565b946020939093013593505050565b634e487b7160e01b600052604160045260246000fd5b600067ffffffffffffffff8084111561103357611033611002565b604051601f8501601f19908116603f0116810190828211818310171561105b5761105b611002565b8160405280935085815286868601111561107457600080fd5b858560208301376000602087830101525050509392505050565b600080600080608085870312156110a457600080fd5b6110ad85610fbc565b93506110bb60208601610fbc565b925060408501359150606085013567ffffffffffffffff8111156110de57600080fd5b8501601f810187136110ef57600080fd5b6110fe87823560208401611018565b91505092959194509250565b60008060006060848603121561111f57600080fd5b61112884610fbc565b925061113660208501610fbc565b9150604084013590509250925092565b60006020828403121561115857600080fd5b61116182610fbc565b9392505050565b600082601f83011261117957600080fd5b61116183833560208501611018565b600080600080600080600060e0888a0312156111a357600080fd5b6111ac88610fbc565b96506111ba60208901610fbc565b955060408801359450606088013593506080880135925060a088013567ffffffffffffffff808211156111ec57600080fd5b6111f88b838c01611168565b935060c08a013591508082111561120e57600080fd5b5061121b8a828b01611168565b91505092959891949750929550565b60006020828403121561123c57600080fd5b5035919050565b6000806040838503121561125657600080fd5b61125f83610fbc565b915061126d60208401610fbc565b90509250929050565b600181811c9082168061128a57607f821691505b6020821081036112aa57634e487b7160e01b600052602260045260246000fd5b50919050565b634e487b7160e01b600052601160045260246000fd5b80820180821115610522576105226112b0565b8082028115828204841417610522576105226112b0565b60008261130d57634e487b7160e01b600052601260045260246000fd5b500490565b6020808252602b908201527f496e697469616c697a61626c653a20636f6e7472616374206973206e6f74206960408201526a6e697469616c697a696e6760a81b606082015260800190565b601f821115610f2957600081815260208120601f850160051c810160208610156113845750805b601f850160051c820191505b818110156113a357828155600101611390565b505050505050565b815167ffffffffffffffff8111156113c5576113c5611002565b6113d9816113d38454611276565b8461135d565b602080601f83116001811461140e57600084156113f65750858301515b600019600386901b1c1916600185901b1785556113a3565b600085815260208120601f198616915b8281101561143d5788860151825594840194600190910190840161141e565b508582101561145b5787850151600019600388901b60f8161c191681555b5050505050600190811b0190555056fea2646970667358221220f657bd563733579555c80731abff42f060a8f651851aca0d2bdaf45af0620c2e64736f6c63430008110033",
  "immutableReferences": {},
  "source": "//SPDX-License-Identifier: MIT\npragma solidity ^0.8.0;\n\nimport '@openzeppelin/contracts/utils/math/Math.sol';\nimport '@openzeppelin/contracts/token/ERC20/ERC20.sol';\nimport '@openzeppelin/contracts/token/ERC721/ERC721.sol';\nimport '@openzeppelin/contracts/token/ERC721/utils/ERC721Holder.sol';\nimport '@openzeppelin/contracts-upgradeable/token/ERC721/utils/ERC721HolderUpgradeable.sol';\nimport '@openzeppelin/contracts-upgradeable/token/ERC20/ERC20Upgradeable.sol';\n\ncontract NftFractionToken is ERC20Upgradeable, ERC721HolderUpgradeable {\n  using Address for address;\n\n  /// -----------------------------------\n  /// -------- BASIC INFORMATION --------\n  /// -----------------------------------\n\n  /// @notice weth address\n  address public constant weth = 0xC02aaA39b223FE8D0A0e5C4F27eAD9083C756Cc2;\n\n  /// -----------------------------------\n  /// -------- TOKEN INFORMATION --------\n  /// -----------------------------------\n\n  /// @notice the ERC721 token address of the vault's token\n  address public token;\n\n  /// @notice the ERC721 token ID of the vault's token\n  uint256 public id;\n\n  /// -------------------------------------\n  /// -------- AUCTION INFORMATION --------\n  /// -------------------------------------\n\n  /// @notice reservePrice * votingTokens\n  uint256 public reserveTotal;\n\n  /// -----------------------------------\n  /// -------- VAULT INFORMATION --------\n  /// -----------------------------------\n\n  /// @notice the number of ownership tokens voting on the reserve price at any given time\n  uint256 public votingTokens;\n\n  /// @notice a mapping of users to their desired token price\n  mapping(address => uint256) public userPrices;\n\n  bool public forSale;\n  bool public canRedeem;\n\n  /// ------------------------\n  /// -------- EVENTS --------\n  /// ------------------------\n\n  /// @notice An event emitted when a user updates their price\n  event PriceUpdate(address indexed user, uint price);\n\n  /// @notice An event emitted when an auction starts\n  event Start(address indexed buyer, uint price);\n\n  /// @notice An event emitted when a bid is made\n  event Bid(address indexed buyer, uint price);\n\n  /// @notice An event emitted when an auction is won\n  event Won(address indexed buyer, uint price);\n\n  /// @notice An event emitted when someone redeems all tokens for the NFT\n  event Redeem(address indexed redeemer);\n\n  /// @notice An event emitted when someone cashes in ERC20 tokens for ETH from an ERC721 token sale\n  event Cash(address indexed owner, uint256 shares);\n\n  constructor() {}\n\n  function initialize(\n    address _curator,\n    address _token,\n    uint256 _id,\n    uint256 _supply,\n    uint256 _listPrice,\n    string memory _name,\n    string memory _symbol\n  ) external initializer {\n    // initialize inherited contracts\n    __ERC20_init(_name, _symbol);\n    __ERC721Holder_init();\n    // set storage variables\n    token = _token;\n    id = _id;\n    forSale = true;\n    reserveTotal = _listPrice * _supply;\n    votingTokens = _listPrice == 0 ? 0 : _supply;\n    _mint(_curator, _supply);\n  }\n\n  function reservePrice() public view returns (uint256) {\n    return votingTokens == 0 ? 0 : reserveTotal / votingTokens;\n  }\n\n  function purchase() external payable {\n    require(forSale, 'Not for sale');\n    require(msg.value >= reservePrice(), 'Not enough ether sent');\n    IERC721(token).transferFrom(address(this), msg.sender, id);\n    forSale = false;\n    canRedeem = true;\n  }\n\n  function redeem(uint256 _amount) external {\n    require(canRedeem, 'Redemption not available');\n    uint256 totalEther = address(this).balance;\n    uint256 toRedeem = (_amount * totalEther) / totalSupply();\n\n    _burn(msg.sender, _amount);\n    payable(msg.sender).transfer(toRedeem);\n  }\n}\n",
  "sourcePath": "/Users/alberto/Desktop/Enalbis/myCask/nft-marketplace-frontend/contracts/NftFractionToken.sol",
  "compiler": {
    "name": "solc",
    "version": "0.8.17+commit.8df45f5f.Emscripten.clang"
  },
  "schemaVersion": "3.4.11",
  "updatedAt": "2023-02-03T15:59:30.432Z",
  "networkType": "ethereum",
  "devdoc": {
    "kind": "dev",
    "methods": {
      "allowance(address,address)": {
        "details": "See {IERC20-allowance}."
      },
      "approve(address,uint256)": {
        "details": "See {IERC20-approve}. NOTE: If `amount` is the maximum `uint256`, the allowance is not updated on `transferFrom`. This is semantically equivalent to an infinite approval. Requirements: - `spender` cannot be the zero address."
      },
      "balanceOf(address)": {
        "details": "See {IERC20-balanceOf}."
      },
      "decimals()": {
        "details": "Returns the number of decimals used to get its user representation. For example, if `decimals` equals `2`, a balance of `505` tokens should be displayed to a user as `5.05` (`505 / 10 ** 2`). Tokens usually opt for a value of 18, imitating the relationship between Ether and Wei. This is the value {ERC20} uses, unless this function is overridden; NOTE: This information is only used for _display_ purposes: it in no way affects any of the arithmetic of the contract, including {IERC20-balanceOf} and {IERC20-transfer}."
      },
      "decreaseAllowance(address,uint256)": {
        "details": "Atomically decreases the allowance granted to `spender` by the caller. This is an alternative to {approve} that can be used as a mitigation for problems described in {IERC20-approve}. Emits an {Approval} event indicating the updated allowance. Requirements: - `spender` cannot be the zero address. - `spender` must have allowance for the caller of at least `subtractedValue`."
      },
      "increaseAllowance(address,uint256)": {
        "details": "Atomically increases the allowance granted to `spender` by the caller. This is an alternative to {approve} that can be used as a mitigation for problems described in {IERC20-approve}. Emits an {Approval} event indicating the updated allowance. Requirements: - `spender` cannot be the zero address."
      },
      "name()": {
        "details": "Returns the name of the token."
      },
      "onERC721Received(address,address,uint256,bytes)": {
        "details": "See {IERC721Receiver-onERC721Received}. Always returns `IERC721Receiver.onERC721Received.selector`."
      },
      "symbol()": {
        "details": "Returns the symbol of the token, usually a shorter version of the name."
      },
      "totalSupply()": {
        "details": "See {IERC20-totalSupply}."
      },
      "transfer(address,uint256)": {
        "details": "See {IERC20-transfer}. Requirements: - `to` cannot be the zero address. - the caller must have a balance of at least `amount`."
      },
      "transferFrom(address,address,uint256)": {
        "details": "See {IERC20-transferFrom}. Emits an {Approval} event indicating the updated allowance. This is not required by the EIP. See the note at the beginning of {ERC20}. NOTE: Does not update the allowance if the current allowance is the maximum `uint256`. Requirements: - `from` and `to` cannot be the zero address. - `from` must have a balance of at least `amount`. - the caller must have allowance for ``from``'s tokens of at least `amount`."
      }
    },
    "version": 1
  },
  "userdoc": {
    "events": {
      "Bid(address,uint256)": {
        "notice": "An event emitted when a bid is made"
      },
      "Cash(address,uint256)": {
        "notice": "An event emitted when someone cashes in ERC20 tokens for ETH from an ERC721 token sale"
      },
      "PriceUpdate(address,uint256)": {
        "notice": "An event emitted when a user updates their price"
      },
      "Redeem(address)": {
        "notice": "An event emitted when someone redeems all tokens for the NFT"
      },
      "Start(address,uint256)": {
        "notice": "An event emitted when an auction starts"
      },
      "Won(address,uint256)": {
        "notice": "An event emitted when an auction is won"
      }
    },
    "kind": "user",
    "methods": {
      "id()": {
        "notice": "the ERC721 token ID of the vault's token"
      },
      "reserveTotal()": {
        "notice": "reservePrice * votingTokens"
      },
      "token()": {
        "notice": "the ERC721 token address of the vault's token"
      },
      "userPrices(address)": {
        "notice": "a mapping of users to their desired token price"
      },
      "votingTokens()": {
        "notice": "the number of ownership tokens voting on the reserve price at any given time"
      },
      "weth()": {
        "notice": "weth address"
      }
    },
    "version": 1
  }
}