{
  "contractName": "NftMarket",
  "abi": [
    {
      "inputs": [],
      "stateMutability": "nonpayable",
      "type": "constructor"
    },
    {
      "anonymous": false,
      "inputs": [
        {
          "indexed": true,
          "internalType": "address",
          "name": "owner",
          "type": "address"
        },
        {
          "indexed": true,
          "internalType": "address",
          "name": "approved",
          "type": "address"
        },
        {
          "indexed": true,
          "internalType": "uint256",
          "name": "tokenId",
          "type": "uint256"
        }
      ],
      "name": "Approval",
      "type": "event"
    },
    {
      "anonymous": false,
      "inputs": [
        {
          "indexed": true,
          "internalType": "address",
          "name": "owner",
          "type": "address"
        },
        {
          "indexed": true,
          "internalType": "address",
          "name": "operator",
          "type": "address"
        },
        {
          "indexed": false,
          "internalType": "bool",
          "name": "approved",
          "type": "bool"
        }
      ],
      "name": "ApprovalForAll",
      "type": "event"
    },
    {
      "anonymous": false,
      "inputs": [
        {
          "indexed": true,
          "internalType": "address",
          "name": "sender",
          "type": "address"
        },
        {
          "indexed": false,
          "internalType": "uint256",
          "name": "amount",
          "type": "uint256"
        }
      ],
      "name": "Bid",
      "type": "event"
    },
    {
      "anonymous": false,
      "inputs": [
        {
          "indexed": false,
          "internalType": "address",
          "name": "highestBidder",
          "type": "address"
        },
        {
          "indexed": false,
          "internalType": "uint256",
          "name": "highestBid",
          "type": "uint256"
        }
      ],
      "name": "End",
      "type": "event"
    },
    {
      "anonymous": false,
      "inputs": [
        {
          "indexed": false,
          "internalType": "address",
          "name": "owner",
          "type": "address"
        },
        {
          "indexed": false,
          "internalType": "uint256",
          "name": "tokenId",
          "type": "uint256"
        },
        {
          "indexed": false,
          "internalType": "uint256",
          "name": "value",
          "type": "uint256"
        },
        {
          "indexed": false,
          "internalType": "string",
          "name": "tokenURI",
          "type": "string"
        }
      ],
      "name": "Mint",
      "type": "event"
    },
    {
      "anonymous": false,
      "inputs": [
        {
          "indexed": false,
          "internalType": "uint256",
          "name": "tokenId",
          "type": "uint256"
        },
        {
          "indexed": false,
          "internalType": "uint256",
          "name": "price",
          "type": "uint256"
        },
        {
          "indexed": false,
          "internalType": "address",
          "name": "creator",
          "type": "address"
        },
        {
          "indexed": false,
          "internalType": "address",
          "name": "owner",
          "type": "address"
        },
        {
          "indexed": false,
          "internalType": "bool",
          "name": "isListed",
          "type": "bool"
        }
      ],
      "name": "NftItemCreated",
      "type": "event"
    },
    {
      "anonymous": false,
      "inputs": [
        {
          "indexed": true,
          "internalType": "address",
          "name": "previousOwner",
          "type": "address"
        },
        {
          "indexed": true,
          "internalType": "address",
          "name": "newOwner",
          "type": "address"
        }
      ],
      "name": "OwnershipTransferred",
      "type": "event"
    },
    {
      "anonymous": false,
      "inputs": [
        {
          "indexed": true,
          "internalType": "address",
          "name": "from",
          "type": "address"
        },
        {
          "indexed": true,
          "internalType": "address",
          "name": "to",
          "type": "address"
        },
        {
          "indexed": false,
          "internalType": "uint256",
          "name": "tokenId",
          "type": "uint256"
        },
        {
          "indexed": false,
          "internalType": "uint256",
          "name": "value",
          "type": "uint256"
        }
      ],
      "name": "Sale",
      "type": "event"
    },
    {
      "anonymous": false,
      "inputs": [],
      "name": "Start",
      "type": "event"
    },
    {
      "anonymous": false,
      "inputs": [
        {
          "indexed": true,
          "internalType": "address",
          "name": "from",
          "type": "address"
        },
        {
          "indexed": true,
          "internalType": "address",
          "name": "to",
          "type": "address"
        },
        {
          "indexed": true,
          "internalType": "uint256",
          "name": "tokenId",
          "type": "uint256"
        }
      ],
      "name": "Transfer",
      "type": "event"
    },
    {
      "anonymous": false,
      "inputs": [
        {
          "indexed": true,
          "internalType": "address",
          "name": "bidder",
          "type": "address"
        },
        {
          "indexed": false,
          "internalType": "uint256",
          "name": "amount",
          "type": "uint256"
        }
      ],
      "name": "Withdraw",
      "type": "event"
    },
    {
      "inputs": [],
      "name": "_minimumFee",
      "outputs": [
        {
          "internalType": "uint256",
          "name": "",
          "type": "uint256"
        }
      ],
      "stateMutability": "view",
      "type": "function",
      "constant": true
    },
    {
      "inputs": [
        {
          "internalType": "address",
          "name": "to",
          "type": "address"
        },
        {
          "internalType": "uint256",
          "name": "tokenId",
          "type": "uint256"
        }
      ],
      "name": "approve",
      "outputs": [],
      "stateMutability": "nonpayable",
      "type": "function"
    },
    {
      "inputs": [
        {
          "internalType": "address",
          "name": "owner",
          "type": "address"
        }
      ],
      "name": "balanceOf",
      "outputs": [
        {
          "internalType": "uint256",
          "name": "",
          "type": "uint256"
        }
      ],
      "stateMutability": "view",
      "type": "function",
      "constant": true
    },
    {
      "inputs": [],
      "name": "bottlePrice",
      "outputs": [
        {
          "internalType": "uint256",
          "name": "",
          "type": "uint256"
        }
      ],
      "stateMutability": "view",
      "type": "function",
      "constant": true
    },
    {
      "inputs": [
        {
          "internalType": "address",
          "name": "",
          "type": "address"
        }
      ],
      "name": "excludedList",
      "outputs": [
        {
          "internalType": "bool",
          "name": "",
          "type": "bool"
        }
      ],
      "stateMutability": "view",
      "type": "function",
      "constant": true
    },
    {
      "inputs": [
        {
          "internalType": "uint256",
          "name": "tokenId",
          "type": "uint256"
        }
      ],
      "name": "getApproved",
      "outputs": [
        {
          "internalType": "address",
          "name": "",
          "type": "address"
        }
      ],
      "stateMutability": "view",
      "type": "function",
      "constant": true
    },
    {
      "inputs": [
        {
          "internalType": "address",
          "name": "owner",
          "type": "address"
        },
        {
          "internalType": "address",
          "name": "operator",
          "type": "address"
        }
      ],
      "name": "isApprovedForAll",
      "outputs": [
        {
          "internalType": "bool",
          "name": "",
          "type": "bool"
        }
      ],
      "stateMutability": "view",
      "type": "function",
      "constant": true
    },
    {
      "inputs": [],
      "name": "listingPrice",
      "outputs": [
        {
          "internalType": "uint256",
          "name": "",
          "type": "uint256"
        }
      ],
      "stateMutability": "view",
      "type": "function",
      "constant": true
    },
    {
      "inputs": [],
      "name": "name",
      "outputs": [
        {
          "internalType": "string",
          "name": "",
          "type": "string"
        }
      ],
      "stateMutability": "view",
      "type": "function",
      "constant": true
    },
    {
      "inputs": [],
      "name": "owner",
      "outputs": [
        {
          "internalType": "address",
          "name": "",
          "type": "address"
        }
      ],
      "stateMutability": "view",
      "type": "function",
      "constant": true
    },
    {
      "inputs": [
        {
          "internalType": "uint256",
          "name": "tokenId",
          "type": "uint256"
        }
      ],
      "name": "ownerOf",
      "outputs": [
        {
          "internalType": "address",
          "name": "",
          "type": "address"
        }
      ],
      "stateMutability": "view",
      "type": "function",
      "constant": true
    },
    {
      "inputs": [],
      "name": "paused",
      "outputs": [
        {
          "internalType": "bool",
          "name": "",
          "type": "bool"
        }
      ],
      "stateMutability": "view",
      "type": "function",
      "constant": true
    },
    {
      "inputs": [],
      "name": "renounceOwnership",
      "outputs": [],
      "stateMutability": "nonpayable",
      "type": "function"
    },
    {
      "inputs": [
        {
          "internalType": "uint256",
          "name": "_tokenId",
          "type": "uint256"
        },
        {
          "internalType": "uint256",
          "name": "_salePrice",
          "type": "uint256"
        }
      ],
      "name": "royaltyInfo",
      "outputs": [
        {
          "internalType": "address",
          "name": "",
          "type": "address"
        },
        {
          "internalType": "uint256",
          "name": "",
          "type": "uint256"
        }
      ],
      "stateMutability": "view",
      "type": "function",
      "constant": true
    },
    {
      "inputs": [
        {
          "internalType": "address",
          "name": "operator",
          "type": "address"
        },
        {
          "internalType": "bool",
          "name": "approved",
          "type": "bool"
        }
      ],
      "name": "setApprovalForAll",
      "outputs": [],
      "stateMutability": "nonpayable",
      "type": "function"
    },
    {
      "inputs": [],
      "name": "symbol",
      "outputs": [
        {
          "internalType": "string",
          "name": "",
          "type": "string"
        }
      ],
      "stateMutability": "view",
      "type": "function",
      "constant": true
    },
    {
      "inputs": [
        {
          "internalType": "uint256",
          "name": "tokenId",
          "type": "uint256"
        }
      ],
      "name": "tokenURI",
      "outputs": [
        {
          "internalType": "string",
          "name": "",
          "type": "string"
        }
      ],
      "stateMutability": "view",
      "type": "function",
      "constant": true
    },
    {
      "inputs": [
        {
          "internalType": "address",
          "name": "newOwner",
          "type": "address"
        }
      ],
      "name": "transferOwnership",
      "outputs": [],
      "stateMutability": "nonpayable",
      "type": "function"
    },
    {
      "inputs": [],
      "name": "txFeeToken",
      "outputs": [
        {
          "internalType": "address",
          "name": "",
          "type": "address"
        }
      ],
      "stateMutability": "view",
      "type": "function",
      "constant": true
    },
    {
      "inputs": [
        {
          "internalType": "uint256",
          "name": "tokenId",
          "type": "uint256"
        }
      ],
      "name": "burn",
      "outputs": [],
      "stateMutability": "nonpayable",
      "type": "function"
    },
    {
      "inputs": [
        {
          "internalType": "string",
          "name": "tokenURI",
          "type": "string"
        },
        {
          "internalType": "uint256",
          "name": "price",
          "type": "uint256"
        },
        {
          "components": [
            {
              "internalType": "address",
              "name": "paytoken",
              "type": "address"
            },
            {
              "internalType": "uint256",
              "name": "costvalue",
              "type": "uint256"
            }
          ],
          "internalType": "struct NftMarket.ERC20Token[]",
          "name": "tokens",
          "type": "tuple[]"
        }
      ],
      "name": "mintNFT",
      "outputs": [
        {
          "internalType": "uint256",
          "name": "",
          "type": "uint256"
        }
      ],
      "stateMutability": "nonpayable",
      "type": "function"
    },
    {
      "inputs": [
        {
          "internalType": "uint256",
          "name": "tokenId",
          "type": "uint256"
        },
        {
          "internalType": "address",
          "name": "token",
          "type": "address"
        },
        {
          "internalType": "uint256",
          "name": "price",
          "type": "uint256"
        }
      ],
      "name": "addUpdateNFTERC20Price",
      "outputs": [],
      "stateMutability": "nonpayable",
      "type": "function"
    },
    {
      "inputs": [
        {
          "internalType": "uint256",
          "name": "tokenId",
          "type": "uint256"
        }
      ],
      "name": "buyNFT",
      "outputs": [],
      "stateMutability": "payable",
      "type": "function",
      "payable": true
    },
    {
      "inputs": [
        {
          "internalType": "uint256",
          "name": "_tokenId",
          "type": "uint256"
        },
        {
          "internalType": "address",
          "name": "_erc20Token",
          "type": "address"
        }
      ],
      "name": "buyNFTWithERC20",
      "outputs": [],
      "stateMutability": "nonpayable",
      "type": "function"
    },
    {
      "inputs": [
        {
          "internalType": "uint256",
          "name": "tokenId",
          "type": "uint256"
        },
        {
          "internalType": "uint256",
          "name": "year",
          "type": "uint256"
        }
      ],
      "name": "getTokenExtractionsByYear",
      "outputs": [
        {
          "internalType": "uint256",
          "name": "extractions",
          "type": "uint256"
        }
      ],
      "stateMutability": "view",
      "type": "function",
      "constant": true
    },
    {
      "inputs": [
        {
          "internalType": "uint256",
          "name": "tokenId",
          "type": "uint256"
        },
        {
          "internalType": "address",
          "name": "_erc20Token",
          "type": "address"
        }
      ],
      "name": "getNFTCost",
      "outputs": [
        {
          "internalType": "uint256",
          "name": "",
          "type": "uint256"
        }
      ],
      "stateMutability": "view",
      "type": "function",
      "constant": true
    },
    {
      "inputs": [],
      "name": "getAllNFTs",
      "outputs": [
        {
          "components": [
            {
              "internalType": "uint256",
              "name": "tokenId",
              "type": "uint256"
            },
            {
              "internalType": "uint256",
              "name": "price",
              "type": "uint256"
            },
            {
              "internalType": "address",
              "name": "creator",
              "type": "address"
            },
            {
              "internalType": "address",
              "name": "owner",
              "type": "address"
            },
            {
              "internalType": "bool",
              "name": "isListed",
              "type": "bool"
            }
          ],
          "internalType": "struct NftMarket.NftItem[]",
          "name": "",
          "type": "tuple[]"
        }
      ],
      "stateMutability": "view",
      "type": "function",
      "constant": true
    },
    {
      "inputs": [],
      "name": "getAllNftsOnSale",
      "outputs": [
        {
          "components": [
            {
              "internalType": "uint256",
              "name": "tokenId",
              "type": "uint256"
            },
            {
              "internalType": "uint256",
              "name": "price",
              "type": "uint256"
            },
            {
              "internalType": "address",
              "name": "creator",
              "type": "address"
            },
            {
              "internalType": "address",
              "name": "owner",
              "type": "address"
            },
            {
              "internalType": "bool",
              "name": "isListed",
              "type": "bool"
            }
          ],
          "internalType": "struct NftMarket.NftItem[]",
          "name": "",
          "type": "tuple[]"
        }
      ],
      "stateMutability": "view",
      "type": "function",
      "constant": true
    },
    {
      "inputs": [],
      "name": "getOwnedNfts",
      "outputs": [
        {
          "components": [
            {
              "internalType": "uint256",
              "name": "tokenId",
              "type": "uint256"
            },
            {
              "internalType": "uint256",
              "name": "price",
              "type": "uint256"
            },
            {
              "internalType": "address",
              "name": "creator",
              "type": "address"
            },
            {
              "internalType": "address",
              "name": "owner",
              "type": "address"
            },
            {
              "internalType": "bool",
              "name": "isListed",
              "type": "bool"
            }
          ],
          "internalType": "struct NftMarket.NftItem[]",
          "name": "",
          "type": "tuple[]"
        }
      ],
      "stateMutability": "view",
      "type": "function",
      "constant": true
    },
    {
      "inputs": [
        {
          "internalType": "uint256",
          "name": "tokenId",
          "type": "uint256"
        }
      ],
      "name": "getNftItem",
      "outputs": [
        {
          "components": [
            {
              "internalType": "uint256",
              "name": "tokenId",
              "type": "uint256"
            },
            {
              "internalType": "uint256",
              "name": "price",
              "type": "uint256"
            },
            {
              "internalType": "address",
              "name": "creator",
              "type": "address"
            },
            {
              "internalType": "address",
              "name": "owner",
              "type": "address"
            },
            {
              "internalType": "bool",
              "name": "isListed",
              "type": "bool"
            }
          ],
          "internalType": "struct NftMarket.NftItem",
          "name": "",
          "type": "tuple"
        }
      ],
      "stateMutability": "view",
      "type": "function",
      "constant": true
    },
    {
      "inputs": [],
      "name": "getNftListedItemsCount",
      "outputs": [
        {
          "internalType": "uint256",
          "name": "",
          "type": "uint256"
        }
      ],
      "stateMutability": "view",
      "type": "function",
      "constant": true
    },
    {
      "inputs": [
        {
          "internalType": "uint256",
          "name": "numberOfBottles",
          "type": "uint256"
        },
        {
          "internalType": "uint256",
          "name": "tokenId",
          "type": "uint256"
        },
        {
          "internalType": "string",
          "name": "tokenURI",
          "type": "string"
        }
      ],
      "name": "orderBottle",
      "outputs": [],
      "stateMutability": "payable",
      "type": "function",
      "payable": true
    },
    {
      "inputs": [
        {
          "internalType": "uint256",
          "name": "newListingPrice",
          "type": "uint256"
        }
      ],
      "name": "setListingPrice",
      "outputs": [],
      "stateMutability": "nonpayable",
      "type": "function"
    },
    {
      "inputs": [
        {
          "internalType": "uint256",
          "name": "tokenId",
          "type": "uint256"
        },
        {
          "internalType": "uint256",
          "name": "newPrice",
          "type": "uint256"
        }
      ],
      "name": "placeNftOnSale",
      "outputs": [],
      "stateMutability": "nonpayable",
      "type": "function"
    },
    {
      "inputs": [],
      "name": "totalSupply",
      "outputs": [
        {
          "internalType": "uint256",
          "name": "",
          "type": "uint256"
        }
      ],
      "stateMutability": "view",
      "type": "function",
      "constant": true
    },
    {
      "inputs": [
        {
          "internalType": "uint256",
          "name": "index",
          "type": "uint256"
        }
      ],
      "name": "tokenByIndex",
      "outputs": [
        {
          "internalType": "uint256",
          "name": "",
          "type": "uint256"
        }
      ],
      "stateMutability": "view",
      "type": "function",
      "constant": true
    },
    {
      "inputs": [
        {
          "internalType": "address",
          "name": "owner",
          "type": "address"
        },
        {
          "internalType": "uint256",
          "name": "index",
          "type": "uint256"
        }
      ],
      "name": "tokenOfOwnerByIndex",
      "outputs": [
        {
          "internalType": "uint256",
          "name": "",
          "type": "uint256"
        }
      ],
      "stateMutability": "view",
      "type": "function",
      "constant": true
    },
    {
      "inputs": [
        {
          "internalType": "bytes4",
          "name": "interfaceId",
          "type": "bytes4"
        }
      ],
      "name": "supportsInterface",
      "outputs": [
        {
          "internalType": "bool",
          "name": "",
          "type": "bool"
        }
      ],
      "stateMutability": "view",
      "type": "function",
      "constant": true
    },
    {
      "inputs": [
        {
          "internalType": "string",
          "name": "tokenURI",
          "type": "string"
        }
      ],
      "name": "tokenURIExists",
      "outputs": [
        {
          "internalType": "bool",
          "name": "",
          "type": "bool"
        }
      ],
      "stateMutability": "view",
      "type": "function",
      "constant": true
    },
    {
      "inputs": [
        {
          "internalType": "uint256",
          "name": "tokenId",
          "type": "uint256"
        }
      ],
      "name": "getOwnerNFTAddress",
      "outputs": [
        {
          "internalType": "address",
          "name": "",
          "type": "address"
        }
      ],
      "stateMutability": "view",
      "type": "function",
      "constant": true
    },
    {
      "inputs": [
        {
          "internalType": "address",
          "name": "excluded",
          "type": "address"
        },
        {
          "internalType": "bool",
          "name": "status",
          "type": "bool"
        }
      ],
      "name": "setExcluded",
      "outputs": [],
      "stateMutability": "nonpayable",
      "type": "function"
    },
    {
      "inputs": [
        {
          "internalType": "address",
          "name": "from",
          "type": "address"
        },
        {
          "internalType": "address",
          "name": "to",
          "type": "address"
        },
        {
          "internalType": "uint256",
          "name": "tokenId",
          "type": "uint256"
        }
      ],
      "name": "transferFrom",
      "outputs": [],
      "stateMutability": "payable",
      "type": "function",
      "payable": true
    },
    {
      "inputs": [
        {
          "internalType": "address",
          "name": "from",
          "type": "address"
        },
        {
          "internalType": "address",
          "name": "to",
          "type": "address"
        },
        {
          "internalType": "uint256",
          "name": "tokenId",
          "type": "uint256"
        }
      ],
      "name": "safeTransferFrom",
      "outputs": [],
      "stateMutability": "payable",
      "type": "function",
      "payable": true
    },
    {
      "inputs": [
        {
          "internalType": "address",
          "name": "from",
          "type": "address"
        },
        {
          "internalType": "address",
          "name": "to",
          "type": "address"
        },
        {
          "internalType": "uint256",
          "name": "tokenId",
          "type": "uint256"
        },
        {
          "internalType": "bytes",
          "name": "_data",
          "type": "bytes"
        }
      ],
      "name": "safeTransferFrom",
      "outputs": [],
      "stateMutability": "payable",
      "type": "function",
      "payable": true
    },
    {
      "inputs": [
        {
          "internalType": "uint256",
          "name": "_tokenId",
          "type": "uint256"
        }
      ],
      "name": "acceptOffer",
      "outputs": [],
      "stateMutability": "payable",
      "type": "function",
      "payable": true
    },
    {
      "inputs": [
        {
          "internalType": "uint256",
          "name": "_tokenId",
          "type": "uint256"
        }
      ],
      "name": "getBidAddressesByTokenId",
      "outputs": [
        {
          "internalType": "address[]",
          "name": "",
          "type": "address[]"
        }
      ],
      "stateMutability": "view",
      "type": "function",
      "constant": true
    },
    {
      "inputs": [
        {
          "internalType": "uint256",
          "name": "_tokenId",
          "type": "uint256"
        }
      ],
      "name": "makeOffer",
      "outputs": [],
      "stateMutability": "payable",
      "type": "function",
      "payable": true
    },
    {
      "inputs": [
        {
          "internalType": "uint256",
          "name": "_tokenId",
          "type": "uint256"
        }
      ],
      "name": "withdraw",
      "outputs": [
        {
          "internalType": "bool",
          "name": "",
          "type": "bool"
        }
      ],
      "stateMutability": "payable",
      "type": "function",
      "payable": true
    },
    {
      "inputs": [
        {
          "internalType": "uint256",
          "name": "_tokenId",
          "type": "uint256"
        }
      ],
      "name": "getNftOffer",
      "outputs": [
        {
          "components": [
            {
              "internalType": "uint256",
              "name": "nftId",
              "type": "uint256"
            },
            {
              "internalType": "address",
              "name": "seller",
              "type": "address"
            },
            {
              "internalType": "uint256",
              "name": "lowerBid",
              "type": "uint256"
            },
            {
              "internalType": "uint256",
              "name": "highestBid",
              "type": "uint256"
            },
            {
              "internalType": "address",
              "name": "highestBidder",
              "type": "address"
            }
          ],
          "internalType": "struct NftMarket.Offer",
          "name": "",
          "type": "tuple"
        }
      ],
      "stateMutability": "view",
      "type": "function",
      "constant": true
    },
    {
      "inputs": [
        {
          "internalType": "uint256",
          "name": "_tokenId",
          "type": "uint256"
        },
        {
          "internalType": "address",
          "name": "bidder",
          "type": "address"
        }
      ],
      "name": "_removeOffer",
      "outputs": [],
      "stateMutability": "nonpayable",
      "type": "function"
    }
  ],
  "bytecode": "0x60806040526658d15e17628000600c55662e2f6e5e148000600d5566470de4df820000600e55600f805460ff191690553480156200003c57600080fd5b506040518060400160405280600881526020016710d85cdadcd3919560c21b8152506040518060400160405280600681526020016510d4d2d3919560d21b81525081600090816200008e9190620002da565b5060016200009d8282620002da565b5050600160095550620000b033620000de565b620000be336103e862000130565b336000908152601d60205260409020805460ff19166001179055620003a6565b600a80546001600160a01b038381166001600160a01b0319831681179093556040519116919082907f8be0079c531659141344cd1fd0a4f28419497f9722a3daafe3b4186f6b6457e090600090a35050565b6127106001600160601b0382161115620001a45760405162461bcd60e51b815260206004820152602a60248201527f455243323938313a20726f79616c7479206665652077696c6c206578636565646044820152692073616c65507269636560b01b60648201526084015b60405180910390fd5b6001600160a01b038216620001fc5760405162461bcd60e51b815260206004820152601960248201527f455243323938313a20696e76616c69642072656365697665720000000000000060448201526064016200019b565b604080518082019091526001600160a01b039092168083526001600160601b039091166020909201829052600160a01b90910217600755565b634e487b7160e01b600052604160045260246000fd5b600181811c908216806200026057607f821691505b6020821081036200028157634e487b7160e01b600052602260045260246000fd5b50919050565b601f821115620002d557600081815260208120601f850160051c81016020861015620002b05750805b601f850160051c820191505b81811015620002d157828155600101620002bc565b5050505b505050565b81516001600160401b03811115620002f657620002f662000235565b6200030e816200030784546200024b565b8462000287565b602080601f8311600181146200034657600084156200032d5750858301515b600019600386901b1c1916600185901b178555620002d1565b600085815260208120601f198616915b82811015620003775788860151825594840194600190910190840162000356565b5085821015620003965787850151600019600388901b60f8161c191681555b5050505050600190811b01905550565b6145fa80620003b66000396000f3fe6080604052600436106102c95760003560e01c80636f1a0af511610175578063a22cb465116100dc578063d772625b11610095578063e985e9c51161006f578063e985e9c514610867578063e9cf32a0146108b0578063f215823b1461091c578063f2fde38b1461095457600080fd5b8063d772625b14610805578063e0391b0914610825578063e3e741431461083a57600080fd5b8063a22cb46514610774578063b88d4fde14610794578063bb0543b5146107a7578063c78f19f9146107bc578063c815729d146107d2578063c87b56dd146107e557600080fd5b80638da5cb5b1161012e5780638da5cb5b146106db57806395d89b41146106f95780639713a2341461070e5780639989a5fb1461072e5780639a2f64741461074e5780639e1758891461076157600080fd5b80636f1a0af51461062457806370a082311461065157806370cbcb4314610671578063715018a61461068657806377c567a71461069b5780637c726b69146106bb57600080fd5b80632e1a7d4d1161023457806342966c68116101ed57806351ed8288116101c757806351ed8288146105a75780635600d2fa146105ba5780635c975abb146105ea5780636352211e1461060457600080fd5b806342966c681461054757806343d32ae7146105675780634f6ccce71461058757600080fd5b80632e1a7d4d146104865780632f745c591461049957806336b536be146104b95780633d921502146104db57806340fb561c1461051e57806342842e0e1461053457600080fd5b806321f422e51161028657806321f422e5146103b457806323b872dd146103d457806323c8be1a146103e75780632836be24146104075780632a4174c1146104275780632a55205a1461044757600080fd5b806301ffc9a7146102ce57806306fdde0314610303578063081812fc14610325578063095ea7b31461035d57806318160ddd1461037f578063203f12ce1461039e575b600080fd5b3480156102da57600080fd5b506102ee6102e9366004613bc6565b610974565b60405190151581526020015b60405180910390f35b34801561030f57600080fd5b50610318610985565b6040516102fa9190613c33565b34801561033157600080fd5b50610345610340366004613c46565b610a17565b6040516001600160a01b0390911681526020016102fa565b34801561036957600080fd5b5061037d610378366004613c7b565b610a3e565b005b34801561038b57600080fd5b50601f545b6040519081526020016102fa565b3480156103aa57600080fd5b50610390600e5481565b3480156103c057600080fd5b5061037d6103cf366004613ca5565b610b58565b61037d6103e2366004613cc7565b610c66565b3480156103f357600080fd5b5061037d610402366004613d03565b610dce565b34801561041357600080fd5b5061037d610422366004613d36565b610dfc565b34801561043357600080fd5b50610345610442366004613c46565b610e2f565b34801561045357600080fd5b50610467610462366004613ca5565b610e42565b604080516001600160a01b0390931683526020830191909152016102fa565b6102ee610494366004613c46565b610eee565b3480156104a557600080fd5b506103906104b4366004613c7b565b611168565b3480156104c557600080fd5b506104ce6111e0565b6040516102fa9190613dad565b3480156104e757600080fd5b506103906104f6366004613dfb565b60009182526015602090815260408084206001600160a01b0393909316845291905290205490565b34801561052a57600080fd5b50610390600d5481565b61037d610542366004613cc7565b611327565b34801561055357600080fd5b5061037d610562366004613c46565b611404565b34801561057357600080fd5b506102ee610582366004613f0f565b611429565b34801561059357600080fd5b506103906105a2366004613c46565b611459565b61037d6105b5366004613c46565b6114cd565b3480156105c657600080fd5b506102ee6105d5366004613f44565b601d6020526000908152604090205460ff1681565b3480156105f657600080fd5b50600f546102ee9060ff1681565b34801561061057600080fd5b5061034561061f366004613c46565b6116e4565b34801561063057600080fd5b5061064461063f366004613c46565b611744565b6040516102fa9190613f5f565b34801561065d57600080fd5b5061039061066c366004613f44565b6117af565b34801561067d57600080fd5b506104ce611835565b34801561069257600080fd5b5061037d611952565b3480156106a757600080fd5b50600b54610345906001600160a01b031681565b3480156106c757600080fd5b5061037d6106d6366004613c46565b611966565b3480156106e757600080fd5b50600a546001600160a01b0316610345565b34801561070557600080fd5b506103186119c3565b34801561071a57600080fd5b5061037d610729366004613dfb565b6119d2565b34801561073a57600080fd5b5061037d610749366004613dfb565b611b1a565b61037d61075c366004613c46565b611e15565b61037d61076f366004613f6d565b611f73565b34801561078057600080fd5b5061037d61078f366004613d36565b612097565b61037d6107a2366004613fbd565b6120a2565b3480156107b357600080fd5b506103906121c8565b3480156107c857600080fd5b50610390600c5481565b61037d6107e0366004613c46565b6121d8565b3480156107f157600080fd5b50610318610800366004613c46565b61232e565b34801561081157600080fd5b50610390610820366004614039565b61243e565b34801561083157600080fd5b506104ce6125f0565b34801561084657600080fd5b5061085a610855366004613c46565b61271b565b6040516102fa9190614139565b34801561087357600080fd5b506102ee61088236600461417a565b6001600160a01b03918216600090815260056020908152604080832093909416825291909152205460ff1690565b3480156108bc57600080fd5b506108d06108cb366004613c46565b612787565b6040516102fa9190815181526020808301516001600160a01b03908116918301919091526040808401519083015260608084015190830152608092830151169181019190915260a00190565b34801561092857600080fd5b50610390610937366004613ca5565b600091825260176020908152604080842092845291905290205490565b34801561096057600080fd5b5061037d61096f366004613f44565b612824565b600061097f8261289a565b92915050565b606060008054610994906141a4565b80601f01602080910402602001604051908101604052809291908181526020018280546109c0906141a4565b8015610a0d5780601f106109e257610100808354040283529160200191610a0d565b820191906000526020600020905b8154815290600101906020018083116109f057829003601f168201915b5050505050905090565b6000610a22826128bf565b506000908152600460205260409020546001600160a01b031690565b6000610a49826116e4565b9050806001600160a01b0316836001600160a01b031603610abb5760405162461bcd60e51b815260206004820152602160248201527f4552433732313a20617070726f76616c20746f2063757272656e74206f776e656044820152603960f91b60648201526084015b60405180910390fd5b336001600160a01b0382161480610ad75750610ad78133610882565b610b495760405162461bcd60e51b815260206004820152603d60248201527f4552433732313a20617070726f76652063616c6c6572206973206e6f7420746f60448201527f6b656e206f776e6572206f7220617070726f76656420666f7220616c6c0000006064820152608401610ab2565b610b53838361291e565b505050565b33610b62836116e4565b6001600160a01b031614610bc25760405162461bcd60e51b815260206004820152602160248201527f596f7520617265206e6f7420746865206f776e6572206f662074686973206e666044820152601d60fa1b6064820152608401610ab2565b600082815260136020526040902060030154600160a01b900460ff1615610c2b5760405162461bcd60e51b815260206004820152601860248201527f4974656d7320697320616c7265616479206f6e2073616c6500000000000000006044820152606401610ab2565b600082815260136020526040902060038101805460ff60a01b1916600160a01b179055600101819055610c62601180546001019055565b5050565b610c71335b8261298c565b610c8d5760405162461bcd60e51b8152600401610ab2906141de565b60003415610ce357610c9f8234610e42565b9150506001600160a01b0383166108fc610cb98334614245565b6040518115909202916000818181858888f19350505050158015610ce1573d6000803e3d6000fd5b505b6001600160a01b0384166000908152601d602052604081205460ff1615159003610d1157610d118282612a0a565b600082815260136020526040902060030154600160a01b900460ff161515600103610d5d57610d406011612a5a565b6000828152601360205260409020600301805460ff60a01b191690555b600082815260136020526040902060030180546001600160a01b0319166001600160a01b038516179055610d92848484612ab1565b604080518381523460208201526001600160a01b0380861692908716916000805160206145a5833981519152910160405180910390a350505050565b610dd6612c22565b60009283526015602090815260408085206001600160a01b039094168552929052912055565b610e04612c22565b6001600160a01b03919091166000908152601d60205260409020805460ff1916911515919091179055565b600080610e3b836116e4565b9392505050565b60008281526008602090815260408083208151808301909252546001600160a01b038116808352600160a01b9091046001600160601b0316928201929092528291610eb75750604080518082019091526007546001600160a01b0381168252600160a01b90046001600160601b031660208201525b602081015160009061271090610ed6906001600160601b031687614258565b610ee09190614285565b915196919550909350505050565b6000818152601a60209081526040808320338452909152812054610f665760405162461bcd60e51b815260206004820152602960248201527f596f75206d757374206861766520612062696420746f2062652061626c6520746044820152686f207769746472617760b81b6064820152608401610ab2565b6000828152601a60209081526040808320338085529252808320549051909283156108fc02918491818181858888f19350505050158015610fab573d6000803e3d6000fd5b50610fb683336119d2565b600083815260196020526040902060040154336001600160a01b039091160361115f576000838152601960205260408120600281015460038201556001810154600490910180546001600160a01b0319166001600160a01b039092169190911790555b6000848152601c602052604090205481101561115d57600084815260196020908152604080832060030154601a8352818420601c909352908320805491939185908110611068576110686142a7565b60009182526020808320909101546001600160a01b03168352820192909252604001902054111561114b576000848152601a60209081526040808320601c90925282208054919291849081106110c0576110c06142a7565b60009182526020808320909101546001600160a01b031683528281019390935260409182018120548782526019845282822060030155601c909252902080548290811061110f5761110f6142a7565b60009182526020808320909101548683526019909152604090912060040180546001600160a01b0319166001600160a01b039092169190911790555b80611155816142bd565b915050611019565b505b50600192915050565b6000611173836117af565b82106111b75760405162461bcd60e51b8152602060048201526013602482015272496e646578206f7574206f6620626f756e647360681b6044820152606401610ab2565b506001600160a01b03919091166000908152601660209081526040808320938352929052205490565b606060006111ed601f5490565b90506000806111fb60115490565b67ffffffffffffffff81111561121357611213613e27565b60405190808252806020026020018201604052801561124c57816020015b611239613b34565b8152602001906001900390816112315790505b50905060005b8381101561131f57600061126582611459565b6000818152601360205260409020600381015491925090600160a01b900460ff16151560010361130a576040805160a081018252825481526001830154602082015260028301546001600160a01b039081169282019290925260038301549182166060820152600160a01b90910460ff161515608082015284518590879081106112f1576112f16142a7565b60209081029190910101526113076001866142d6565b94505b50508080611317906142bd565b915050611252565b509392505050565b60003415611381576113398234610e42565b9150506001600160a01b0383166108fc6113538334614245565b6040518115909202916000818181858888f1935050505015801561137b573d6000803e3d6000fd5b50611386565b50600e545b6001600160a01b0384166000908152601d602052604081205460ff16151590036113b4576113b48282612a0a565b6113be6011612a5a565b600082815260136020908152604080832060030180546001600160a81b0319166001600160a01b03881617905580519182019052908152610d92908590859085906120a2565b61140c612c22565b61141581612c7c565b600090815260086020526040812055565b50565b600060128260405161143b91906142e9565b9081526040519081900360200190205460ff16151560011492915050565b6000611464601f5490565b82106114a85760405162461bcd60e51b8152602060048201526013602482015272496e646578206f7574206f6620626f756e647360681b6044820152606401610ab2565b601f82815481106114bb576114bb6142a7565b90600052602060002001549050919050565b60006114d8826116e4565b60008381526013602052604090206001810154600290910154919250906001600160a01b0390811690831633036115515760405162461bcd60e51b815260206004820152601860248201527f596f7520616c7265616479206f776e2074686973204e465400000000000000006044820152606401610ab2565b8134146115a05760405162461bcd60e51b815260206004820152601e60248201527f506c65617365207375626d6974207468652061736b696e6720707269636500006044820152606401610ab2565b600084815260136020526040902060030180546001600160a81b031916331790556115cb6011612a5a565b60006115d78584610e42565b336000908152601d602052604090205490925060ff16159050801561160e5750816001600160a01b0316846001600160a01b031614155b1561165e5761161d8582612a0a565b6001600160a01b0384166108fc6116348334614245565b6040518115909202916000818181858888f1935050505015801561165c573d6000803e3d6000fd5b505b6040516001600160a01b038516903480156108fc02916000818181858888f19350505050158015611693573d6000803e3d6000fd5b5061169f843387612ab1565b6116a98533612cbc565b6040805186815234602082015233916001600160a01b038716916000805160206145a583398151915291015b60405180910390a35050505050565b6000818152600260205260408120546001600160a01b03168061097f5760405162461bcd60e51b8152602060048201526018602482015277115490cdcc8c4e881a5b9d985b1a59081d1bdad95b88125160421b6044820152606401610ab2565b61174c613b34565b50600090815260136020908152604091829020825160a0810184528154815260018201549281019290925260028101546001600160a01b0390811693830193909352600301549182166060820152600160a01b90910460ff161515608082015290565b60006001600160a01b0382166118195760405162461bcd60e51b815260206004820152602960248201527f4552433732313a2061646472657373207a65726f206973206e6f7420612076616044820152683634b21037bbb732b960b91b6064820152608401610ab2565b506001600160a01b031660009081526003602052604090205490565b60606000611842336117af565b905060008167ffffffffffffffff81111561185f5761185f613e27565b60405190808252806020026020018201604052801561189857816020015b611885613b34565b81526020019060019003908161187d5790505b50905060005b8281101561194b5760006118b23383611168565b600081815260136020908152604091829020825160a0810184528154815260018201549281019290925260028101546001600160a01b039081169383019390935260038101549283166060830152600160a01b90920460ff16151560808201528551929350909185908590811061192b5761192b6142a7565b602002602001018190525050508080611943906142bd565b91505061189e565b5092915050565b61195a612c22565b6119646000612d19565b565b61196e612c22565b600081116119be5760405162461bcd60e51b815260206004820152601c60248201527f5072696365206d757374206265206174206c65617374203120776569000000006044820152606401610ab2565b600c55565b606060018054610994906141a4565b6000828152601a602090815260408083206001600160a01b038516808552908352818420849055858452601b8352818420908452825280832054858452601c909252822054909190611a2690600190614245565b6000858152601c602052604081208054929350909183908110611a4b57611a4b6142a7565b600091825260208083209190910154878352601b825260408084206001600160a01b039283168086529084528185208890559188168452808420849055888452601c90925291208054919250829185908110611aa957611aa96142a7565b600091825260208083209190910180546001600160a01b0319166001600160a01b039490941693909317909255868152601c90915260409020805480611af157611af1614305565b600082815260209020810160001990810180546001600160a01b03191690550190555050505050565b806000611b26846116e4565b600085815260136020526040902060030154909150600160a01b900460ff161515600114611b965760405162461bcd60e51b815260206004820152601b60248201527f546f6b656e206d757374206265206f6e2073616c6520666972737400000000006044820152606401610ab2565b60008481526015602090815260408083206001600160a01b0387168452909152812054604051636eb1769f60e11b815233600482015230602482015290915081906001600160a01b0385169063dd62ed3e90604401602060405180830381865afa158015611c08573d6000803e3d6000fd5b505050506040513d601f19601f82011682018060405250810190611c2c919061431b565b1015611c7a5760405162461bcd60e51b815260206004820152601760248201527f496e73756666696369656e7420616c6c6f77616e63652e0000000000000000006044820152606401610ab2565b6040516370a0823160e01b815233600482015281906001600160a01b038516906370a0823190602401602060405180830381865afa158015611cc0573d6000803e3d6000fd5b505050506040513d601f19601f82011682018060405250810190611ce4919061431b565b1015611d2a5760405162461bcd60e51b815260206004820152601560248201527424b739bab33334b1b4b2b73a103130b630b731b29760591b6044820152606401610ab2565b6040516323b872dd60e01b81523360048201526001600160a01b038381166024830152604482018390528416906323b872dd906064016020604051808303816000875af1158015611d7f573d6000803e3d6000fd5b505050506040513d601f19601f82011682018060405250810190611da39190614334565b50600085815260136020526040902060030180546001600160a81b03191633179055611dcf6011612a5a565b604080518681526020810183905233916001600160a01b038516916000805160206145a5833981519152910160405180910390a3611e0e823387612ab1565b5050505050565b600081815260136020526040902060030154600160a01b900460ff1615611e7e5760405162461bcd60e51b815260206004820152601b60248201527f546865206e6674206973206c697374656420746f2062757920697400000000006044820152606401610ab2565b6000818152601960205260409020600301543411611ed75760405162461bcd60e51b81526020600482015260166024820152754f6666657220707269636520697320746f6f206c6f7760501b6044820152606401610ab2565b6000818152601a6020908152604080832033845290915290205415611f3e576000818152601a60209081526040808320338085529252808320549051909283156108fc02918491818181858888f19350505050158015611f3b573d6000803e3d6000fd5b50505b611f488134612d6b565b60009081526019602052604090206004810180546001600160a01b0319163317905534600390910155565b60008311611fc35760405162461bcd60e51b815260206004820152601a60248201527f596f752063616e6e6f74206f72646572203020626f74746c65730000000000006044820152606401610ab2565b6000611fce42612dcc565b6000848152601760209081526040808320848452825280832054878452601390925290912060020154600d5492935090916001600160a01b039091169081906108fc9061201b9089614258565b6040518115909202916000818181858888f19350505050158015612043573d6000803e3d6000fd5b50426000908152601860209081526040808320888452909152902086905561206b86836142d6565b600086815260176020908152604080832087845290915290205561208f8585612dec565b505050505050565b610c62338383612e7f565b6120ac338361298c565b6120c85760405162461bcd60e51b8152600401610ab2906141de565b60003415612122576120da8334610e42565b9150506001600160a01b0384166108fc6120f48334614245565b6040518115909202916000818181858888f1935050505015801561211c573d6000803e3d6000fd5b50612127565b50600e545b6001600160a01b0385166000908152601d602052604081205460ff1615159003612155576121558382612a0a565b61215f6011612a5a565b600083815260136020526040902060030180546001600160a81b0319166001600160a01b03861617905561219585858585612f4d565b604080518481523460208201526001600160a01b0380871692908816916000805160206145a583398151915291016116d5565b60006121d360115490565b905090565b6121e23382612f80565b61222e5760405162461bcd60e51b815260206004820152601f60248201527f4f6e6c79206f776e65722063616e2061636365707420746865206f66666572006044820152606401610ab2565b6000818152601960205260408120600181015460038201546004909201546001600160a01b03918216939116906122658584610e42565b6001600160a01b0384166000908152601d602052604081205491935060ff90911615159003905061229a5761229a8582612a0a565b6001600160a01b0384166108fc6122b18386614245565b6040518115909202916000818181858888f193505050501580156122d9573d6000803e3d6000fd5b506122e5338387612fa6565b6122ef85836119d2565b6122f98583612cbc565b5060009384526013602052604090932060030180546001600160a01b0319166001600160a01b03909416939093179092555050565b6060612339826128bf565b60008281526006602052604081208054612352906141a4565b80601f016020809104026020016040519081016040528092919081815260200182805461237e906141a4565b80156123cb5780601f106123a0576101008083540402835291602001916123cb565b820191906000526020600020905b8154815290600101906020018083116123ae57829003601f168201915b5050505050905060006123e960408051602081019091526000815290565b905080516000036123fb575092915050565b81511561242d578082604051602001612415929190614351565b60405160208183030381529060405292505050919050565b6124368461301c565b949350505050565b6000612448612c22565b61245184611429565b1561249e5760405162461bcd60e51b815260206004820152601860248201527f546f6b656e2055524920616c72656164792065786973747300000000000000006044820152606401610ab2565b6124ac601180546001019055565b6124ba601080546001019055565b60006124c560105490565b905060006124d242612dcc565b90506124de338361308f565b6124e88287612dec565b6124f282866130a9565b600160128760405161250491906142e9565b9081526040805160209281900383019020805460ff1916931515939093179092556000848152601782528281208482529091529081208190555b845181101561259e5761258c8386838151811061255d5761255d6142a7565b60200260200101516000015187848151811061257b5761257b6142a7565b602002602001015160200151610dce565b80612596816142bd565b91505061253e565b506125aa8286336131d9565b7fcd0e00beb8e6d5ab96ee16e6a1a735ff07cae8702f2e48feb32fefe40f25692c338387896040516125df9493929190614380565b60405180910390a150949350505050565b606060006125fd601f5490565b905060008061260b60105490565b67ffffffffffffffff81111561262357612623613e27565b60405190808252806020026020018201604052801561265c57816020015b612649613b34565b8152602001906001900390816126415790505b50905060005b8381101561131f57600061267582611459565b600081815260136020908152604091829020825160a0810184528154815260018201549281019290925260028101546001600160a01b039081169383019390935260038101549283166060830152600160a01b90920460ff1615156080820152855192935090918590879081106126ee576126ee6142a7565b60209081029190910101526127046001866142d6565b945050508080612713906142bd565b915050612662565b6000818152601c602090815260409182902080548351818402810184019094528084526060939283018282801561277b57602002820191906000526020600020905b81546001600160a01b0316815260019091019060200180831161275d575b50505050509050919050565b6127cb6040518060a001604052806000815260200160006001600160a01b03168152602001600081526020016000815260200160006001600160a01b031681525090565b50600090815260196020908152604091829020825160a0810184528154815260018201546001600160a01b0390811693820193909352600282015493810193909352600381015460608401526004015416608082015290565b61282c612c22565b6001600160a01b0381166128915760405162461bcd60e51b815260206004820152602660248201527f4f776e61626c653a206e6577206f776e657220697320746865207a65726f206160448201526564647265737360d01b6064820152608401610ab2565b61142681612d19565b60006001600160e01b0319821663152a902d60e11b148061097f575061097f8261327f565b6000818152600260205260409020546001600160a01b03166114265760405162461bcd60e51b8152602060048201526018602482015277115490cdcc8c4e881a5b9d985b1a59081d1bdad95b88125160421b6044820152606401610ab2565b600081815260046020526040902080546001600160a01b0319166001600160a01b0384169081179091558190612953826116e4565b6001600160a01b03167f8c5be1e5ebec7d5bd14f71427d1e84f3dd0314c0f7b2291e5b200ac8c7c3b92560405160405180910390a45050565b600080612998836116e4565b9050806001600160a01b0316846001600160a01b031614806129df57506001600160a01b0380821660009081526005602090815260408083209388168352929052205460ff165b806124365750836001600160a01b03166129f884610a17565b6001600160a01b031614949350505050565b6000828152601360205260408082206002015490516001600160a01b0390911691829184156108fc0291859190818181858888f19350505050158015612a54573d6000803e3d6000fd5b50505050565b805480612aa95760405162461bcd60e51b815260206004820152601b60248201527f436f756e7465723a2064656372656d656e74206f766572666c6f7700000000006044820152606401610ab2565b600019019055565b826001600160a01b0316612ac4826116e4565b6001600160a01b031614612aea5760405162461bcd60e51b8152600401610ab2906143b7565b6001600160a01b038216612b4c5760405162461bcd60e51b8152602060048201526024808201527f4552433732313a207472616e7366657220746f20746865207a65726f206164646044820152637265737360e01b6064820152608401610ab2565b612b5983838360016132cf565b826001600160a01b0316612b6c826116e4565b6001600160a01b031614612b925760405162461bcd60e51b8152600401610ab2906143b7565b600081815260046020908152604080832080546001600160a01b03199081169091556001600160a01b0387811680865260038552838620805460001901905590871680865283862080546001019055868652600290945282852080549092168417909155905184937fddf252ad1be2c89b69c2b068fc378daa952ba7f163c4a11628f55a4df523b3ef91a4505050565b600a546001600160a01b031633146119645760405162461bcd60e51b815260206004820181905260248201527f4f776e61626c653a2063616c6c6572206973206e6f7420746865206f776e65726044820152606401610ab2565b612c8581613397565b60008181526006602052604090208054612c9e906141a4565b15905061142657600081815260066020526040812061142691613b62565b612cc68183612f80565b612ccf57600080fd5b600091825260196020526040909120600281015460038201556004810180546001600160a01b039093166001600160a01b0319938416811790915560019091018054909216179055565b600a80546001600160a01b038381166001600160a01b0319831681179093556040519116919082907f8be0079c531659141344cd1fd0a4f28419497f9722a3daafe3b4186f6b6457e090600090a35050565b6000828152601a602090815260408083203380855290835281842094909455938252601c8082528483208054601b845286852086865284529584208690559082526001850181558252902090910180546001600160a01b0319169091179055565b6000612de3612dde6201518084614285565b61343a565b50909392505050565b6000828152600260205260409020546001600160a01b0316612e675760405162461bcd60e51b815260206004820152602e60248201527f45524337323155524953746f726167653a2055524920736574206f66206e6f6e60448201526d32bc34b9ba32b73a103a37b5b2b760911b6064820152608401610ab2565b6000828152600660205260409020610b538282614442565b816001600160a01b0316836001600160a01b031603612ee05760405162461bcd60e51b815260206004820152601960248201527f4552433732313a20617070726f766520746f2063616c6c6572000000000000006044820152606401610ab2565b6001600160a01b03838116600081815260056020908152604080832094871680845294825291829020805460ff191686151590811790915591519182527f17307eab39ab6107e8899845ad3d59bd9653f200f220920489ca2b5937696c31910160405180910390a3505050565b612f58848484612ab1565b612f64848484846134d6565b612a545760405162461bcd60e51b8152600401610ab290614502565b6000826001600160a01b0316612f95836116e4565b6001600160a01b0316149392505050565b612faf33610c6b565b6130115760405162461bcd60e51b815260206004820152602d60248201527f4552433732313a2063616c6c6572206973206e6f7420746f6b656e206f776e6560448201526c1c881bdc88185c1c1c9bdd9959609a1b6064820152608401610ab2565b610b53838383612ab1565b6060613027826128bf565b600061303e60408051602081019091526000815290565b9050600081511161305e5760405180602001604052806000815250610e3b565b80613068846135d7565b604051602001613079929190614351565b6040516020818303038152906040529392505050565b610c6282826040518060200160405280600081525061366a565b600081116130f95760405162461bcd60e51b815260206004820152601c60248201527f5072696365206d757374206265206174206c65617374203120776569000000006044820152606401610ab2565b6040805160a08082018352848252602080830185815233848601818152606080870183815260016080808a0182815260008e815260138a528c90209a518b5596518a830155935160028a0180546001600160a01b039283166001600160a01b031990911617905591516003909901805496511515600160a01b026001600160a81b0319909716999092169890981794909417909355865189815293840188905295830181905290820152928301919091527f23d5ab71cc0f91445504902f71f3b3c11f8bc3940cc6822c2329c1bd5662a409910160405180910390a15050565b6131e33384612f80565b6131ec57600080fd5b6131f68383612d6b565b6040805160a0810182528481526001600160a01b03838116602080840191825283850187815260608501888152336080870190815260008b81526019909452969092208551815592516001840180546001600160a01b03199081169287169290921790559051600284015590516003830155935160049091018054909416911617909155612a54565b60006001600160e01b031982166380ac58cd60e01b14806132b057506001600160e01b03198216635b5e139f60e01b145b8061097f57506301ffc9a760e01b6001600160e01b031983161461097f565b6132db8484848461369d565b6001600160a01b0384166133355761333082601f805460008381526020805260408120829055600182018355919091527fa03837a25210ee280c2113ff4b77ca23440b19d4866cca721c801278fd08d8070155565b613358565b826001600160a01b0316846001600160a01b031614613358576133588483613725565b6001600160a01b0383166133745761336f826137c2565b612a54565b836001600160a01b0316836001600160a01b031614612a5457612a54838361387f565b60006133a2826116e4565b90506133b28160008460016132cf565b6133bb826116e4565b600083815260046020908152604080832080546001600160a01b03199081169091556001600160a01b0385168085526003845282852080546000190190558785526002909352818420805490911690555192935084927fddf252ad1be2c89b69c2b068fc378daa952ba7f163c4a11628f55a4df523b3ef908390a45050565b60008080836226496581018262023ab1600483020590506004600362023ab18302010590910390600062164b09610fa0600185010205905060046105b58202058303601f019250600061098f84605002816134975761349761426f565b0590506000605061098f83020585039050600b820560301994909401606402929092018301996002600c90940290910392909201975095509350505050565b60006001600160a01b0384163b156135cc57604051630a85bd0160e11b81526001600160a01b0385169063150b7a029061351a903390899088908890600401614554565b6020604051808303816000875af1925050508015613555575060408051601f3d908101601f1916820190925261355291810190614587565b60015b6135b2573d808015613583576040519150601f19603f3d011682016040523d82523d6000602084013e613588565b606091505b5080516000036135aa5760405162461bcd60e51b8152600401610ab290614502565b805181602001fd5b6001600160e01b031916630a85bd0160e11b149050612436565b506001949350505050565b606060006135e4836138c3565b600101905060008167ffffffffffffffff81111561360457613604613e27565b6040519080825280601f01601f19166020018201604052801561362e576020820181803683370190505b5090508181016020015b600019016f181899199a1a9b1b9c1cb0b131b232b360811b600a86061a8153600a850494508461363857509392505050565b613674838361399b565b61368160008484846134d6565b610b535760405162461bcd60e51b8152600401610ab290614502565b6001811115612a54576001600160a01b038416156136e3576001600160a01b038416600090815260036020526040812080548392906136dd908490614245565b90915550505b6001600160a01b03831615612a54576001600160a01b0383166000908152600360205260408120805483929061371a9084906142d6565b909155505050505050565b60006001613732846117af565b61373c9190614245565b6000838152601e602052604090205490915080821461378f576001600160a01b03841660009081526016602090815260408083208584528252808320548484528184208190558352601e90915290208190555b506000918252601e602090815260408084208490556001600160a01b039094168352601681528383209183525290812055565b601f546000906137d490600190614245565b6000838152602080526040812054601f80549394509092849081106137fb576137fb6142a7565b9060005260206000200154905080601f838154811061381c5761381c6142a7565b6000918252602080832090910192909255828152908052604090208290556138446011612a5a565b6000848152602080526040812055601f80548061386357613863614305565b6001900381819060005260206000200160009055905550505050565b600061388a836117af565b6001600160a01b0390931660009081526016602090815260408083208684528252808320859055938252601e9052919091209190915550565b60008072184f03e93ff9f4daa797ed6e38ed64bf6a1f0160401b83106139025772184f03e93ff9f4daa797ed6e38ed64bf6a1f0160401b830492506040015b6d04ee2d6d415b85acef8100000000831061392e576d04ee2d6d415b85acef8100000000830492506020015b662386f26fc10000831061394c57662386f26fc10000830492506010015b6305f5e1008310613964576305f5e100830492506008015b612710831061397857612710830492506004015b6064831061398a576064830492506002015b600a831061097f5760010192915050565b6001600160a01b0382166139f15760405162461bcd60e51b815260206004820181905260248201527f4552433732313a206d696e7420746f20746865207a65726f20616464726573736044820152606401610ab2565b6000818152600260205260409020546001600160a01b031615613a565760405162461bcd60e51b815260206004820152601c60248201527f4552433732313a20746f6b656e20616c7265616479206d696e746564000000006044820152606401610ab2565b613a646000838360016132cf565b6000818152600260205260409020546001600160a01b031615613ac95760405162461bcd60e51b815260206004820152601c60248201527f4552433732313a20746f6b656e20616c7265616479206d696e746564000000006044820152606401610ab2565b6001600160a01b038216600081815260036020908152604080832080546001019055848352600290915280822080546001600160a01b0319168417905551839291907fddf252ad1be2c89b69c2b068fc378daa952ba7f163c4a11628f55a4df523b3ef908290a45050565b6040805160a08101825260008082526020820181905291810182905260608101829052608081019190915290565b508054613b6e906141a4565b6000825580601f10613b7e575050565b601f01602090049060005260206000209081019061142691905b80821115613bac5760008155600101613b98565b5090565b6001600160e01b03198116811461142657600080fd5b600060208284031215613bd857600080fd5b8135610e3b81613bb0565b60005b83811015613bfe578181015183820152602001613be6565b50506000910152565b60008151808452613c1f816020860160208601613be3565b601f01601f19169290920160200192915050565b602081526000610e3b6020830184613c07565b600060208284031215613c5857600080fd5b5035919050565b80356001600160a01b0381168114613c7657600080fd5b919050565b60008060408385031215613c8e57600080fd5b613c9783613c5f565b946020939093013593505050565b60008060408385031215613cb857600080fd5b50508035926020909101359150565b600080600060608486031215613cdc57600080fd5b613ce584613c5f565b9250613cf360208501613c5f565b9150604084013590509250925092565b600080600060608486031215613d1857600080fd5b83359250613cf360208501613c5f565b801515811461142657600080fd5b60008060408385031215613d4957600080fd5b613d5283613c5f565b91506020830135613d6281613d28565b809150509250929050565b80518252602080820151908301526040808201516001600160a01b0390811691840191909152606080830151909116908301526080908101511515910152565b6020808252825182820181905260009190848201906040850190845b81811015613def57613ddc838551613d6d565b9284019260a09290920191600101613dc9565b50909695505050505050565b60008060408385031215613e0e57600080fd5b82359150613e1e60208401613c5f565b90509250929050565b634e487b7160e01b600052604160045260246000fd5b6040805190810167ffffffffffffffff81118282101715613e6057613e60613e27565b60405290565b604051601f8201601f1916810167ffffffffffffffff81118282101715613e8f57613e8f613e27565b604052919050565b600067ffffffffffffffff831115613eb157613eb1613e27565b613ec4601f8401601f1916602001613e66565b9050828152838383011115613ed857600080fd5b828260208301376000602084830101529392505050565b600082601f830112613f0057600080fd5b610e3b83833560208501613e97565b600060208284031215613f2157600080fd5b813567ffffffffffffffff811115613f3857600080fd5b61243684828501613eef565b600060208284031215613f5657600080fd5b610e3b82613c5f565b60a0810161097f8284613d6d565b600080600060608486031215613f8257600080fd5b8335925060208401359150604084013567ffffffffffffffff811115613fa757600080fd5b613fb386828701613eef565b9150509250925092565b60008060008060808587031215613fd357600080fd5b613fdc85613c5f565b9350613fea60208601613c5f565b925060408501359150606085013567ffffffffffffffff81111561400d57600080fd5b8501601f8101871361401e57600080fd5b61402d87823560208401613e97565b91505092959194509250565b60008060006060848603121561404e57600080fd5b833567ffffffffffffffff8082111561406657600080fd5b61407287838801613eef565b9450602091508186013593506040808701358281111561409157600080fd5b8701601f810189136140a257600080fd5b8035838111156140b4576140b4613e27565b6140c2858260051b01613e66565b818152858101945060069190911b82018501908a8211156140e257600080fd5b918501915b818310156141295783838c0312156140ff5760008081fd5b614107613e3d565b61411084613c5f565b81528387013587820152855293850193918301916140e7565b8096505050505050509250925092565b6020808252825182820181905260009190848201906040850190845b81811015613def5783516001600160a01b031683529284019291840191600101614155565b6000806040838503121561418d57600080fd5b61419683613c5f565b9150613e1e60208401613c5f565b600181811c908216806141b857607f821691505b6020821081036141d857634e487b7160e01b600052602260045260246000fd5b50919050565b60208082526031908201527f4552433732313a207472616e736665722063616c6c6572206973206e6f74206f6040820152701ddb995c881b9bdc88185c1c1c9bdd9959607a1b606082015260800190565b634e487b7160e01b600052601160045260246000fd5b8181038181111561097f5761097f61422f565b808202811582820484141761097f5761097f61422f565b634e487b7160e01b600052601260045260246000fd5b6000826142a257634e487b7160e01b600052601260045260246000fd5b500490565b634e487b7160e01b600052603260045260246000fd5b6000600182016142cf576142cf61422f565b5060010190565b8082018082111561097f5761097f61422f565b600082516142fb818460208701613be3565b9190910192915050565b634e487b7160e01b600052603160045260246000fd5b60006020828403121561432d57600080fd5b5051919050565b60006020828403121561434657600080fd5b8151610e3b81613d28565b60008351614363818460208801613be3565b835190830190614377818360208801613be3565b01949350505050565b60018060a01b03851681528360208201528260408201526080606082015260006143ad6080830184613c07565b9695505050505050565b60208082526025908201527f4552433732313a207472616e736665722066726f6d20696e636f72726563742060408201526437bbb732b960d91b606082015260800190565b601f821115610b5357600081815260208120601f850160051c810160208610156144235750805b601f850160051c820191505b8181101561208f5782815560010161442f565b815167ffffffffffffffff81111561445c5761445c613e27565b6144708161446a84546141a4565b846143fc565b602080601f8311600181146144a5576000841561448d5750858301515b600019600386901b1c1916600185901b17855561208f565b600085815260208120601f198616915b828110156144d4578886015182559484019460019091019084016144b5565b50858210156144f25787850151600019600388901b60f8161c191681555b5050505050600190811b01905550565b60208082526032908201527f4552433732313a207472616e7366657220746f206e6f6e20455243373231526560408201527131b2b4bb32b91034b6b83632b6b2b73a32b960711b606082015260800190565b6001600160a01b03858116825284166020820152604081018390526080606082018190526000906143ad90830184613c07565b60006020828403121561459957600080fd5b8151610e3b81613bb056fe681ddc67ea8796d2489979f5fc2ea2eb0f2d44ff3f11f061a191928a1f3d9a06a264697066735822122078bee72ed8aaeeb99a385e406ee31e2641443d497b22089580359d4369596f2864736f6c63430008110033",
  "immutableReferences": {},
  "source": "// SPDX-License-Identifier: MIT\npragma solidity >=0.4.22 <0.9.0;\n\nimport \"@openzeppelin/contracts/token/common/ERC2981.sol\";\nimport \"@openzeppelin/contracts/token/ERC721/extensions/ERC721URIStorage.sol\";\nimport \"@openzeppelin/contracts/access/Ownable.sol\";\nimport \"@openzeppelin/contracts/utils/Counters.sol\";\nimport '@openzeppelin/contracts/token/ERC20/IERC20.sol';\nimport \"@openzeppelin/contracts/utils/math/SafeMath.sol\";\nimport \"@openzeppelin/contracts/token/ERC20/utils/SafeERC20.sol\";\nimport \"@openzeppelin/contracts/security/ReentrancyGuard.sol\";\n\n\ncontract NftMarket is ERC721URIStorage, ERC2981, ReentrancyGuard, Ownable {\n  using Counters for Counters.Counter;\n\n  struct ERC20Token {\n    address paytoken;\n    uint256 costvalue;\n  }\n\n  struct NftOffer {\n    uint256 date;\n    uint256 offer;\n    address from;\n  }\n\n  struct NftItem {\n    uint256 tokenId;\n    uint256 price;\n    address creator;\n    address owner;\n    bool isListed;\n  }\n\n  struct Offer {\n    // Current owner of NFT\n    uint256 nftId;\n    address seller;\n    uint lowerBid;\n    uint highestBid;\n    address  highestBidder;\n  }\n\n  address public txFeeToken;\n  uint public listingPrice = 0.025 ether;\n  uint public bottlePrice = 0.013 ether;\n  uint public _minimumFee = 0.02 ether;\n  uint256 constant SECONDS_PER_DAY = 24 * 60 * 60;\n  int256 constant OFFSET19700101 = 2440588;\n  bool public paused = false;\n\n  Counters.Counter private _tokenIds;\n  Counters.Counter private _listedItems;\n\n  mapping(string => bool) private _usedTokenURIs;\n  mapping(uint256 => NftItem) private _idToNftItem;\n  mapping(uint256 => NftOffer[]) private _idToNftsOffers;\n\n  mapping(uint256 => mapping(address => uint256)) private _tokenIDpriceByErc20;\n  mapping(address => mapping(uint256 => uint256)) private _ownedTokens;\n  mapping(uint256 => mapping(uint256 => uint256)) private _tokensExtractionsByYear;\n  mapping(uint256 => mapping(uint256 => uint256)) private _extractionsRegistry;\n\n  // Map from token ID to their corresponding auction.\n  mapping (uint256 => Offer) tokenIdToOffer;\n  \n  mapping (uint256 => mapping(address => uint256)) offerBidsFromTokenId;\n  mapping (uint256 => mapping(address => uint256)) indexOfofferBidsFromAddress;\n  mapping (uint256 => address[]) addressesFromTokenId;\n\n  mapping(address => bool) public excludedList;\n\n  mapping(uint256 => uint256) private _idToOwnedIndex;\n\n  uint256[] private _allNfts;\n  mapping(uint256 => uint256) private _idToNftIndex;\n\n  event Mint(address owner, uint256 tokenId, uint256 value, string tokenURI);\n  event Sale(address indexed from, address indexed to, uint256 tokenId, uint256 value);\n\n  event Start();\n  event End(address highestBidder, uint highestBid);\n  event Bid(address indexed sender, uint amount);\n  event Withdraw(address indexed bidder, uint amount);\n\n  event NftItemCreated (\n      uint256 tokenId,\n      uint256 price,\n      address creator,\n      address owner,\n      bool isListed\n  );\n\n\n  constructor() ERC721(\"CasksNFT\", \"CSKNFT\") {\n    _setDefaultRoyalty(msg.sender, 1000);    \n    excludedList[msg.sender] = true; \n  }\n\n  function burn(uint256 tokenId) public onlyOwner {\n      super._burn(tokenId);\n      _resetTokenRoyalty(tokenId);\n  }\n\n  function mintNFT(string memory tokenURI, uint256 price, ERC20Token[] memory tokens)\n  public onlyOwner\n  returns (uint256) {\n\n    require(!tokenURIExists(tokenURI), \"Token URI already exists\");\n\n    _listedItems.increment();\n    _tokenIds.increment();\n\n    uint256 newItemId = _tokenIds.current();\n    uint256 year = getYear(block.timestamp);\n\n    _safeMint(msg.sender, newItemId);\n\n    _setTokenURI(newItemId, tokenURI);\n    _createNftItem(newItemId, price);\n    _usedTokenURIs[tokenURI] = true;\n    _tokensExtractionsByYear[newItemId][year] = 0;\n\n    for (uint i = 0; i < tokens.length; i++) {\n      addUpdateNFTERC20Price(newItemId, tokens[i].paytoken, tokens[i].costvalue);\n    }\n\n    _createNftOffer(newItemId, price, msg.sender);\n\n    emit Mint(msg.sender, newItemId, price, tokenURI);\n\n    return newItemId;\n  }\n\n  function addUpdateNFTERC20Price(uint256 tokenId, address token, uint256 price) public onlyOwner {\n    _tokenIDpriceByErc20[tokenId][token] = price;\n  }\n\n function buyNFT(\n    uint256 tokenId\n  ) public payable {\n\n    address owner = ERC721.ownerOf(tokenId);\n    uint256 price = _idToNftItem[tokenId].price;\n    address creator = _idToNftItem[tokenId].creator; \n\n    require(msg.sender != owner, \"You already own this NFT\");\n    require(msg.value == price, \"Please submit the asking price\");\n\n    _idToNftItem[tokenId].isListed = false;\n    _idToNftItem[tokenId].owner = msg.sender;\n\n    _listedItems.decrement();\n\n    (,uint256 royaltyAmount) = royaltyInfo(tokenId, price);\n\n    if(excludedList[msg.sender] == false && owner != creator) {\n      _payTxFee(tokenId, royaltyAmount);\n      payable(owner).transfer(msg.value - royaltyAmount);\n    }\n\n    payable(owner).transfer(msg.value);\n\n    _transfer(owner, msg.sender, tokenId);\n    _updateOfferWithNewBuyer(tokenId, msg.sender);\n    \n    emit Sale(owner, msg.sender, tokenId, msg.value);\n    \n  }\n\n  function buyNFTWithERC20(uint256 _tokenId, address _erc20Token) public {\n\n      IERC20 token = IERC20(_erc20Token);\n      address owner = ERC721.ownerOf(_tokenId);\n      require(_idToNftItem[_tokenId].isListed == true,\"Token must be on sale first\");\n      uint256 nftPrice = getNFTCost(_tokenId, _erc20Token);\n      require(token.allowance(msg.sender, address(this)) >= nftPrice, \"Insufficient allowance.\");\n      require(token.balanceOf(msg.sender) >= nftPrice, \"Insufficient balance.\");\n      \n      token.transferFrom(msg.sender, owner, nftPrice);\n      // transfer the nft to buyer as well... I've not implemented that\n      _idToNftItem[_tokenId].isListed = false;\n      _idToNftItem[_tokenId].owner = msg.sender;\n      _listedItems.decrement();\n\n      emit Sale(owner, msg.sender, _tokenId, nftPrice);\n\n      _transfer(owner, msg.sender, _tokenId);\n\n  }\n\n  function getTokenExtractionsByYear(uint256 tokenId, uint256 year) public view returns (uint256 extractions) {\n    return _tokensExtractionsByYear[tokenId][year];\n  }\n\n  function getNFTCost(uint256 tokenId, address _erc20Token) public view virtual returns(uint256) {\n      uint256 cost;\n      cost = _tokenIDpriceByErc20[tokenId][_erc20Token];\n      return cost;\n  }\n\n  function getAllNFTs() external view returns (NftItem[] memory) {\n    uint allItemsCounts = totalSupply();\n    uint currentIndex = 0;\n    NftItem[] memory items = new NftItem[](_tokenIds.current());\n\n    for (uint i = 0; i < allItemsCounts; i++) {\n      uint tokenId = tokenByIndex(i);\n      NftItem storage item = _idToNftItem[tokenId];\n      items[currentIndex] = item;\n      currentIndex += 1;\n    }\n\n    return items;\n  }\n\n  function getAllNftsOnSale() external view returns (NftItem[] memory) {\n    uint allItemsCounts = totalSupply();\n    uint currentIndex = 0;\n    NftItem[] memory items = new NftItem[](_listedItems.current());\n\n    for (uint i = 0; i < allItemsCounts; i++) {\n      uint tokenId = tokenByIndex(i);\n      NftItem storage item = _idToNftItem[tokenId];\n\n      if (item.isListed == true) {\n        items[currentIndex] = item;\n        currentIndex += 1;\n      }\n\n    }\n\n    return items;\n\n  }\n\n  function getOwnedNfts() public view returns (NftItem[] memory) {\n    uint ownedItemsCount = ERC721.balanceOf(msg.sender);\n    NftItem[] memory items = new NftItem[](ownedItemsCount);\n\n    for (uint i = 0; i < ownedItemsCount; i++) {\n      uint tokenId = tokenOfOwnerByIndex(msg.sender, i);\n      NftItem storage item = _idToNftItem[tokenId];\n      items[i] = item;\n    }\n\n    return items;\n  }\n\n  function getNftItem(uint tokenId) public view returns (NftItem memory) {\n    return _idToNftItem[tokenId];\n  }\n\n  function getNftListedItemsCount() public view returns (uint) {\n    return _listedItems.current();\n  }\n\n  function orderBottle(uint256 numberOfBottles, uint256 tokenId, string memory tokenURI) public payable {\n    require(numberOfBottles > 0, \"You cannot order 0 bottles\");\n\n    uint256 year = getYear(block.timestamp);\n    uint256 yearExtractedBottles = _tokensExtractionsByYear[tokenId][year];\n    address creator = payable(_idToNftItem[tokenId].creator);\n\n    payable(creator).transfer(numberOfBottles * bottlePrice);\n\n    _extractionsRegistry[block.timestamp][tokenId] = numberOfBottles;\n    _tokensExtractionsByYear[tokenId][year] = yearExtractedBottles + numberOfBottles;\n\n    _setTokenURI(tokenId, tokenURI);\n\n  }\n\n  function setListingPrice(uint256 newListingPrice) external onlyOwner {\n    require(newListingPrice > 0, \"Price must be at least 1 wei\");\n    listingPrice = newListingPrice;\n  }\n\n  function placeNftOnSale(uint256 tokenId, uint256 newPrice) public {\n\n    require(ERC721.ownerOf(tokenId) == msg.sender, \"You are not the owner of this nft\");\n    require(_idToNftItem[tokenId].isListed == false, \"Items is already on sale\");\n\n    _idToNftItem[tokenId].isListed = true;\n    _idToNftItem[tokenId].price = newPrice;\n    _listedItems.increment();\n\n  } \n\n  function totalSupply() public view returns (uint256) {\n    return _allNfts.length;\n  }\n\n  function tokenByIndex(uint index) public view returns (uint) {\n    require(index < totalSupply(), \"Index out of bounds\");\n    return _allNfts[index];\n  }\n\n  function tokenOfOwnerByIndex(address owner, uint index) public view returns (uint) {\n    require(index < ERC721.balanceOf(owner), \"Index out of bounds\");\n    return _ownedTokens[owner][index];\n  }\n\n  function supportsInterface(bytes4 interfaceId)\n    public view virtual override(ERC721, ERC2981)\n    returns (bool) {\n      return super.supportsInterface(interfaceId);\n  }\n\n  function tokenURIExists(string memory tokenURI) public view returns (bool) {\n    return _usedTokenURIs[tokenURI] == true;\n  }\n\n  function getYear(uint256 timestamp) internal pure returns (uint256 year) {\n    (year,,) = _daysToDate(timestamp / SECONDS_PER_DAY);\n  }\n\n  function getOwnerNFTAddress(uint256 tokenId) public view returns (address) {\n    address owner = ERC721.ownerOf(tokenId);\n    return owner;\n  }\n\n  function setExcluded(address excluded, bool status) external onlyOwner {\n    excludedList[excluded] = status;\n  }\n\n  function transferFrom(\n    address from, \n    address to, \n    uint256 tokenId\n  ) public payable override {\n     require(\n       _isApprovedOrOwner(_msgSender(), tokenId), \n       'ERC721: transfer caller is not owner nor approved'\n     );\n\n     uint256 royalty;\n\n    if (msg.value > 0) {\n      (,royalty) = royaltyInfo(tokenId, msg.value);\n      payable(to).transfer(msg.value - royalty);\n    }\n\n     if(excludedList[from] == false) {\n      _payTxFee(tokenId, royalty);\n     }\n \n     if (_idToNftItem[tokenId].isListed == true) {\n      _listedItems.decrement();\n      _idToNftItem[tokenId].isListed = false;\n     }\n     _idToNftItem[tokenId].owner = to;\n\n     _transfer(from, to, tokenId);\n\n     emit Sale(from, to, tokenId, msg.value);\n  }\n\n  function safeTransferFrom(\n    address from,\n    address to,\n    uint256 tokenId\n   ) public payable override {\n\n     uint256 royalty;\n\n    if (msg.value > 0) {\n      (,royalty) = royaltyInfo(tokenId, msg.value);\n      payable(to).transfer(msg.value - royalty);\n    } else {\n      royalty = _minimumFee;\n    }\n\n     if(excludedList[from] == false) {\n      _payTxFee(tokenId, royalty);\n     }\n \n     _listedItems.decrement();\n     _idToNftItem[tokenId].isListed = false;\n     _idToNftItem[tokenId].owner = to;\n\n     safeTransferFrom(from, to, tokenId, '');\n\n     emit Sale(from, to, tokenId, msg.value);\n\n   }\n   \n  function safeTransferFrom(\n    address from,\n    address to,\n    uint256 tokenId,\n    bytes memory _data\n  ) public payable override {\n    require(\n      _isApprovedOrOwner(_msgSender(), tokenId), \n      'ERC721: transfer caller is not owner nor approved'\n    );\n\n     uint256 royalty;\n\n    if (msg.value > 0) {\n      (,royalty) = royaltyInfo(tokenId, msg.value);\n      payable(to).transfer(msg.value - royalty);\n    } else {\n      royalty = _minimumFee;\n    }\n\n     if(excludedList[from] == false) {\n      _payTxFee(tokenId, royalty);\n     }\n \n    _listedItems.decrement();\n    _idToNftItem[tokenId].isListed = false;\n    _idToNftItem[tokenId].owner = to;\n\n    _safeTransfer(from, to, tokenId, _data);\n\n    emit Sale(from, to, tokenId, msg.value);\n\n  }\n\n  function _updateOfferWithNewBuyer(uint256 _tokenId, address buyer) private {\n    require(_owns(buyer, _tokenId));\n    tokenIdToOffer[_tokenId].highestBid = tokenIdToOffer[_tokenId].lowerBid;\n    tokenIdToOffer[_tokenId].highestBidder = buyer;\n    tokenIdToOffer[_tokenId].seller = buyer;\n  }\n\n  function _createNftOffer(uint256 _tokenId, uint256 _nftPrice, address _seller) private {\n      // Sanity check that no inputs overflow how many bits we've allocated\n      // to store them in the auction struct.\n      require(_owns(msg.sender, _tokenId));\n\n      _setOffer(_tokenId, _nftPrice);\n\n      Offer memory offer = Offer(\n          _tokenId,\n          _seller,\n          _nftPrice,\n          _nftPrice,\n          msg.sender\n      );\n\n      _addAuction(_tokenId, offer);\n  }\n\n  function acceptOffer(uint256 _tokenId) public payable {\n\n    require(_owns(msg.sender, _tokenId),\"Only owner can accept the offer\");\n    address payable seller = payable(tokenIdToOffer[_tokenId].seller);\n    uint256 highestBid = tokenIdToOffer[_tokenId].highestBid;\n    address highestBidder = tokenIdToOffer[_tokenId].highestBidder;\n    uint256 royalty;\n\n    (,royalty) = royaltyInfo(_tokenId, highestBid);\n\n     if(excludedList[highestBidder] == false) {\n      _payTxFee(_tokenId, royalty);\n     }\n\n    seller.transfer(highestBid - royalty);\n    ERC721.transferFrom(msg.sender, highestBidder, _tokenId);\n\n    _removeOffer(_tokenId, highestBidder);\n    _updateOfferWithNewBuyer(_tokenId, highestBidder);\n\n    _idToNftItem[_tokenId].owner = highestBidder;\n\n  }\n\n  function getBidAddressesByTokenId(uint256 _tokenId) external view returns (address[] memory) {\n      return addressesFromTokenId[_tokenId];\n  }\n\n  function makeOffer(uint256 _tokenId) public payable {\n      // Ensure that the buyer is making a valid offer\n    require(_idToNftItem[_tokenId].isListed == false, \"The nft is listed to buy it\");\n    require(msg.value > tokenIdToOffer[_tokenId].highestBid, \"Offer price is too low\");\n\n    if(offerBidsFromTokenId[_tokenId][msg.sender] > 0) {\n      uint amount = offerBidsFromTokenId[_tokenId][msg.sender];\n      payable(msg.sender).transfer(amount);\n    }\n\n    // Save the offer details\n    _setOffer(_tokenId, msg.value);\n    tokenIdToOffer[_tokenId].highestBidder = msg.sender;\n    tokenIdToOffer[_tokenId].highestBid = msg.value;\n  }\n\n  function withdraw(uint256 _tokenId) external payable returns(bool) {\n\n      require(offerBidsFromTokenId[_tokenId][msg.sender] > 0, \"You must have a bid to be able to witdraw\");\n\n      uint amount = offerBidsFromTokenId[_tokenId][msg.sender];\n      payable(msg.sender).transfer(amount);\n\n      _removeOffer(_tokenId, msg.sender);\n\n      if(tokenIdToOffer[_tokenId].highestBidder == msg.sender) {\n          tokenIdToOffer[_tokenId].highestBid = tokenIdToOffer[_tokenId].lowerBid;\n          tokenIdToOffer[_tokenId].highestBidder = tokenIdToOffer[_tokenId].seller;\n          for (uint i = 0; i < addressesFromTokenId[_tokenId].length; i++) {\n          if ( offerBidsFromTokenId[_tokenId][addressesFromTokenId[_tokenId][i]] > tokenIdToOffer[_tokenId].highestBid) {\n              tokenIdToOffer[_tokenId].highestBid = offerBidsFromTokenId[_tokenId][addressesFromTokenId[_tokenId][i]];\n              tokenIdToOffer[_tokenId].highestBidder = addressesFromTokenId[_tokenId][i];\n          }\n          }\n      }\n\n      return true;\n  }\n\n  function getNftOffer(uint256 _tokenId) external view returns (Offer memory) {\n      Offer memory offer = tokenIdToOffer[_tokenId];\n      return offer;\n  }\n\n  function _owns(address _claimant, uint256 _tokenId) internal view returns (bool) {\n      return (ERC721.ownerOf(_tokenId) == _claimant);\n  }\n\n  function _addAuction(uint256 _tokenId, Offer memory _offer) internal {\n      tokenIdToOffer[_tokenId] = _offer;\n\n  }\n\n  function _setOffer(uint256 _tokenId, uint256 offer) private {\n      offerBidsFromTokenId[_tokenId][msg.sender] = offer;\n      indexOfofferBidsFromAddress[_tokenId][msg.sender] = addressesFromTokenId[_tokenId].length;\n      addressesFromTokenId[_tokenId].push(msg.sender);\n  }\n\n  function _removeOffer(uint256 _tokenId, address bidder) public {\n\n      delete  offerBidsFromTokenId[_tokenId][bidder];\n\n      uint index = indexOfofferBidsFromAddress[_tokenId][bidder];\n      uint lastIndex = addressesFromTokenId[_tokenId].length - 1;\n      address lastBidder = addressesFromTokenId[_tokenId][lastIndex];\n\n      indexOfofferBidsFromAddress[_tokenId][lastBidder] = index;\n      delete indexOfofferBidsFromAddress[_tokenId][bidder];\n\n      addressesFromTokenId[_tokenId][index] = lastBidder;\n      addressesFromTokenId[_tokenId].pop();\n\n  }\n\n  function _createNftItem(uint tokenId, uint price) private {\n    require(price > 0, \"Price must be at least 1 wei\");\n\n    _idToNftItem[tokenId] = NftItem(\n      tokenId,\n      price,\n      msg.sender,\n      msg.sender,\n      true\n    );\n\n    emit NftItemCreated(tokenId, price, msg.sender, msg.sender, true);\n\n  }\n\n  function _isOwnerCreator(uint tokenId) private view returns(bool) {\n     address owner = ERC721.ownerOf(tokenId);\n     return _idToNftItem[tokenId].creator == owner;\n  }\n\n  function _payTxFeeWithERC20(uint256 tokenId, address _erc20Token, uint256 royalty) internal {\n    IERC20 token = IERC20(_erc20Token);\n    address creator = _idToNftItem[tokenId].creator; \n    token.transferFrom(msg.sender, creator, royalty);\n\n  }\n\n  function _payTxFee(uint256 tokenId, uint256 royalty) internal {\n\n    address creator = payable(_idToNftItem[tokenId].creator); \n    payable(creator).transfer(royalty);\n\n  }\n\n  function _beforeTokenTransfer(\n    address from,\n    address to,\n    uint tokenId,\n    uint256 batchSize\n  ) internal virtual override {\n    super._beforeTokenTransfer(from, to, tokenId, batchSize);\n\n    if (from == address(0)) {\n      // MINTING CASE\n      _addTokenToAllTokensEnumeration(tokenId);\n    } else if (from != to) {\n      // TRANSFER CASE\n      _removeTokenFromOwnerEnumeration(from, tokenId);\n    }\n\n    if (to == address(0)) {\n      // BURNING CASE\n      _removeTokenFromAllTokensEnumeration(tokenId);\n    } else if (to != from) {\n      // TRANSFER CASE\n      _addTokenToOwnerEnumeration(to, tokenId);\n    }\n  }\n\n  function _addTokenToAllTokensEnumeration(uint tokenId) private {\n    _idToNftIndex[tokenId] = _allNfts.length;\n    _allNfts.push(tokenId);\n  }\n\n  function _addTokenToOwnerEnumeration(address to, uint tokenId) private {\n    uint length = ERC721.balanceOf(to);\n    _ownedTokens[to][length] = tokenId;\n    _idToOwnedIndex[tokenId] = length;\n  }\n\n  function _removeTokenFromOwnerEnumeration(address from, uint tokenId) private {\n    uint lastTokenIndex = ERC721.balanceOf(from) - 1;\n    uint tokenIndex = _idToOwnedIndex[tokenId];\n\n    if (tokenIndex != lastTokenIndex) {\n      uint lastTokenId = _ownedTokens[from][lastTokenIndex];\n\n      _ownedTokens[from][tokenIndex] = lastTokenId;\n      _idToOwnedIndex[lastTokenId] = tokenIndex;\n    }\n\n    delete _idToOwnedIndex[tokenId];\n    delete _ownedTokens[from][lastTokenIndex];\n  }\n\n  function _removeTokenFromAllTokensEnumeration(uint tokenId) private {\n    uint lastTokenIndex = _allNfts.length - 1;\n    uint tokenIndex = _idToNftIndex[tokenId];\n    uint lastTokenId = _allNfts[lastTokenIndex];\n\n    _allNfts[tokenIndex] = lastTokenId;\n    _idToNftIndex[lastTokenId] = tokenIndex;\n    _listedItems.decrement();\n\n    delete _idToNftIndex[tokenId];\n    _allNfts.pop();\n  }\n\n  function _daysToDate(uint256 _days) internal pure returns (uint256 year, uint256 month, uint256 day) {\n    unchecked {\n        int256 __days = int256(_days);\n\n        int256 L = __days + 68569 + OFFSET19700101;\n        int256 N = (4 * L) / 146097;\n        L = L - (146097 * N + 3) / 4;\n        int256 _year = (4000 * (L + 1)) / 1461001;\n        L = L - (1461 * _year) / 4 + 31;\n        int256 _month = (80 * L) / 2447;\n        int256 _day = L - (2447 * _month) / 80;\n        L = _month / 11;\n        _month = _month + 2 - 12 * L;\n        _year = 100 * (N - 49) + _year + L;\n\n        year = uint256(_year);\n        month = uint256(_month);\n        day = uint256(_day);\n        }\n    }\n\n}\n",
  "sourcePath": "/Users/alberto/Desktop/Enalbis/myCask/nft-marketplace-frontend/contracts/NftMarket.sol",
  "compiler": {
    "name": "solc",
    "version": "0.8.17+commit.8df45f5f.Emscripten.clang"
  },
  "schemaVersion": "3.4.11",
  "updatedAt": "2023-01-13T20:11:29.744Z",
  "networkType": "ethereum",
  "devdoc": {
    "kind": "dev",
    "methods": {
      "approve(address,uint256)": {
        "details": "See {IERC721-approve}."
      },
      "balanceOf(address)": {
        "details": "See {IERC721-balanceOf}."
      },
      "getApproved(uint256)": {
        "details": "See {IERC721-getApproved}."
      },
      "isApprovedForAll(address,address)": {
        "details": "See {IERC721-isApprovedForAll}."
      },
      "name()": {
        "details": "See {IERC721Metadata-name}."
      },
      "owner()": {
        "details": "Returns the address of the current owner."
      },
      "ownerOf(uint256)": {
        "details": "See {IERC721-ownerOf}."
      },
      "renounceOwnership()": {
        "details": "Leaves the contract without owner. It will not be possible to call `onlyOwner` functions anymore. Can only be called by the current owner. NOTE: Renouncing ownership will leave the contract without an owner, thereby removing any functionality that is only available to the owner."
      },
      "royaltyInfo(uint256,uint256)": {
        "details": "Returns how much royalty is owed and to whom, based on a sale price that may be denominated in any unit of exchange. The royalty amount is denominated and should be paid in that same unit of exchange."
      },
      "safeTransferFrom(address,address,uint256)": {
        "details": "See {IERC721-safeTransferFrom}."
      },
      "setApprovalForAll(address,bool)": {
        "details": "See {IERC721-setApprovalForAll}."
      },
      "symbol()": {
        "details": "See {IERC721Metadata-symbol}."
      },
      "tokenURI(uint256)": {
        "details": "See {IERC721Metadata-tokenURI}."
      },
      "transferFrom(address,address,uint256)": {
        "details": "See {IERC721-transferFrom}."
      },
      "transferOwnership(address)": {
        "details": "Transfers ownership of the contract to a new account (`newOwner`). Can only be called by the current owner."
      }
    },
    "version": 1
  },
  "userdoc": {
    "kind": "user",
    "methods": {},
    "version": 1
  }
}