{
  "contractName": "NftMarket",
  "abi": [
    {
      "inputs": [],
      "stateMutability": "nonpayable",
      "type": "constructor"
    },
    {
      "anonymous": false,
      "inputs": [
        {
          "indexed": true,
          "internalType": "address",
          "name": "owner",
          "type": "address"
        },
        {
          "indexed": true,
          "internalType": "address",
          "name": "approved",
          "type": "address"
        },
        {
          "indexed": true,
          "internalType": "uint256",
          "name": "tokenId",
          "type": "uint256"
        }
      ],
      "name": "Approval",
      "type": "event"
    },
    {
      "anonymous": false,
      "inputs": [
        {
          "indexed": true,
          "internalType": "address",
          "name": "owner",
          "type": "address"
        },
        {
          "indexed": true,
          "internalType": "address",
          "name": "operator",
          "type": "address"
        },
        {
          "indexed": false,
          "internalType": "bool",
          "name": "approved",
          "type": "bool"
        }
      ],
      "name": "ApprovalForAll",
      "type": "event"
    },
    {
      "anonymous": false,
      "inputs": [
        {
          "indexed": false,
          "internalType": "uint256",
          "name": "tokenId",
          "type": "uint256"
        },
        {
          "indexed": false,
          "internalType": "uint256",
          "name": "price",
          "type": "uint256"
        },
        {
          "indexed": false,
          "internalType": "address",
          "name": "creator",
          "type": "address"
        },
        {
          "indexed": false,
          "internalType": "address",
          "name": "owner",
          "type": "address"
        },
        {
          "indexed": false,
          "internalType": "bool",
          "name": "isListed",
          "type": "bool"
        }
      ],
      "name": "NftItemCreated",
      "type": "event"
    },
    {
      "anonymous": false,
      "inputs": [
        {
          "indexed": true,
          "internalType": "address",
          "name": "previousOwner",
          "type": "address"
        },
        {
          "indexed": true,
          "internalType": "address",
          "name": "newOwner",
          "type": "address"
        }
      ],
      "name": "OwnershipTransferred",
      "type": "event"
    },
    {
      "anonymous": false,
      "inputs": [
        {
          "indexed": true,
          "internalType": "address",
          "name": "from",
          "type": "address"
        },
        {
          "indexed": true,
          "internalType": "address",
          "name": "to",
          "type": "address"
        },
        {
          "indexed": false,
          "internalType": "uint256",
          "name": "tokenId",
          "type": "uint256"
        },
        {
          "indexed": false,
          "internalType": "uint256",
          "name": "value",
          "type": "uint256"
        }
      ],
      "name": "Sale",
      "type": "event"
    },
    {
      "anonymous": false,
      "inputs": [
        {
          "indexed": true,
          "internalType": "address",
          "name": "from",
          "type": "address"
        },
        {
          "indexed": true,
          "internalType": "address",
          "name": "to",
          "type": "address"
        },
        {
          "indexed": true,
          "internalType": "uint256",
          "name": "tokenId",
          "type": "uint256"
        }
      ],
      "name": "Transfer",
      "type": "event"
    },
    {
      "inputs": [],
      "name": "_minimumFee",
      "outputs": [
        {
          "internalType": "uint256",
          "name": "",
          "type": "uint256"
        }
      ],
      "stateMutability": "view",
      "type": "function",
      "constant": true
    },
    {
      "inputs": [
        {
          "internalType": "address",
          "name": "to",
          "type": "address"
        },
        {
          "internalType": "uint256",
          "name": "tokenId",
          "type": "uint256"
        }
      ],
      "name": "approve",
      "outputs": [],
      "stateMutability": "nonpayable",
      "type": "function"
    },
    {
      "inputs": [
        {
          "internalType": "address",
          "name": "owner",
          "type": "address"
        }
      ],
      "name": "balanceOf",
      "outputs": [
        {
          "internalType": "uint256",
          "name": "",
          "type": "uint256"
        }
      ],
      "stateMutability": "view",
      "type": "function",
      "constant": true
    },
    {
      "inputs": [],
      "name": "bottlePrice",
      "outputs": [
        {
          "internalType": "uint256",
          "name": "",
          "type": "uint256"
        }
      ],
      "stateMutability": "view",
      "type": "function",
      "constant": true
    },
    {
      "inputs": [
        {
          "internalType": "address",
          "name": "",
          "type": "address"
        }
      ],
      "name": "excludedList",
      "outputs": [
        {
          "internalType": "bool",
          "name": "",
          "type": "bool"
        }
      ],
      "stateMutability": "view",
      "type": "function",
      "constant": true
    },
    {
      "inputs": [
        {
          "internalType": "uint256",
          "name": "tokenId",
          "type": "uint256"
        }
      ],
      "name": "getApproved",
      "outputs": [
        {
          "internalType": "address",
          "name": "",
          "type": "address"
        }
      ],
      "stateMutability": "view",
      "type": "function",
      "constant": true
    },
    {
      "inputs": [
        {
          "internalType": "address",
          "name": "owner",
          "type": "address"
        },
        {
          "internalType": "address",
          "name": "operator",
          "type": "address"
        }
      ],
      "name": "isApprovedForAll",
      "outputs": [
        {
          "internalType": "bool",
          "name": "",
          "type": "bool"
        }
      ],
      "stateMutability": "view",
      "type": "function",
      "constant": true
    },
    {
      "inputs": [],
      "name": "listingPrice",
      "outputs": [
        {
          "internalType": "uint256",
          "name": "",
          "type": "uint256"
        }
      ],
      "stateMutability": "view",
      "type": "function",
      "constant": true
    },
    {
      "inputs": [],
      "name": "name",
      "outputs": [
        {
          "internalType": "string",
          "name": "",
          "type": "string"
        }
      ],
      "stateMutability": "view",
      "type": "function",
      "constant": true
    },
    {
      "inputs": [],
      "name": "owner",
      "outputs": [
        {
          "internalType": "address",
          "name": "",
          "type": "address"
        }
      ],
      "stateMutability": "view",
      "type": "function",
      "constant": true
    },
    {
      "inputs": [
        {
          "internalType": "uint256",
          "name": "tokenId",
          "type": "uint256"
        }
      ],
      "name": "ownerOf",
      "outputs": [
        {
          "internalType": "address",
          "name": "",
          "type": "address"
        }
      ],
      "stateMutability": "view",
      "type": "function",
      "constant": true
    },
    {
      "inputs": [],
      "name": "renounceOwnership",
      "outputs": [],
      "stateMutability": "nonpayable",
      "type": "function"
    },
    {
      "inputs": [
        {
          "internalType": "uint256",
          "name": "_tokenId",
          "type": "uint256"
        },
        {
          "internalType": "uint256",
          "name": "_salePrice",
          "type": "uint256"
        }
      ],
      "name": "royaltyInfo",
      "outputs": [
        {
          "internalType": "address",
          "name": "",
          "type": "address"
        },
        {
          "internalType": "uint256",
          "name": "",
          "type": "uint256"
        }
      ],
      "stateMutability": "view",
      "type": "function",
      "constant": true
    },
    {
      "inputs": [
        {
          "internalType": "address",
          "name": "operator",
          "type": "address"
        },
        {
          "internalType": "bool",
          "name": "approved",
          "type": "bool"
        }
      ],
      "name": "setApprovalForAll",
      "outputs": [],
      "stateMutability": "nonpayable",
      "type": "function"
    },
    {
      "inputs": [],
      "name": "symbol",
      "outputs": [
        {
          "internalType": "string",
          "name": "",
          "type": "string"
        }
      ],
      "stateMutability": "view",
      "type": "function",
      "constant": true
    },
    {
      "inputs": [
        {
          "internalType": "uint256",
          "name": "tokenId",
          "type": "uint256"
        }
      ],
      "name": "tokenURI",
      "outputs": [
        {
          "internalType": "string",
          "name": "",
          "type": "string"
        }
      ],
      "stateMutability": "view",
      "type": "function",
      "constant": true
    },
    {
      "inputs": [
        {
          "internalType": "address",
          "name": "newOwner",
          "type": "address"
        }
      ],
      "name": "transferOwnership",
      "outputs": [],
      "stateMutability": "nonpayable",
      "type": "function"
    },
    {
      "inputs": [
        {
          "internalType": "uint256",
          "name": "tokenId",
          "type": "uint256"
        }
      ],
      "name": "burn",
      "outputs": [],
      "stateMutability": "nonpayable",
      "type": "function"
    },
    {
      "inputs": [
        {
          "internalType": "string",
          "name": "tokenURI",
          "type": "string"
        },
        {
          "internalType": "uint256",
          "name": "price",
          "type": "uint256"
        }
      ],
      "name": "mintNFT",
      "outputs": [
        {
          "internalType": "uint256",
          "name": "",
          "type": "uint256"
        }
      ],
      "stateMutability": "nonpayable",
      "type": "function"
    },
    {
      "inputs": [
        {
          "internalType": "uint256",
          "name": "tokenId",
          "type": "uint256"
        }
      ],
      "name": "buyNFT",
      "outputs": [],
      "stateMutability": "payable",
      "type": "function",
      "payable": true
    },
    {
      "inputs": [
        {
          "internalType": "uint256",
          "name": "tokenId",
          "type": "uint256"
        },
        {
          "internalType": "uint256",
          "name": "year",
          "type": "uint256"
        }
      ],
      "name": "getTokenExtractionsByYear",
      "outputs": [
        {
          "internalType": "uint256",
          "name": "extractions",
          "type": "uint256"
        }
      ],
      "stateMutability": "view",
      "type": "function",
      "constant": true
    },
    {
      "inputs": [
        {
          "internalType": "uint256",
          "name": "numberOfBottles",
          "type": "uint256"
        },
        {
          "internalType": "uint256",
          "name": "tokenId",
          "type": "uint256"
        },
        {
          "internalType": "string",
          "name": "tokenURI",
          "type": "string"
        }
      ],
      "name": "orderBottle",
      "outputs": [],
      "stateMutability": "payable",
      "type": "function",
      "payable": true
    },
    {
      "inputs": [
        {
          "internalType": "uint256",
          "name": "newListingPrice",
          "type": "uint256"
        }
      ],
      "name": "setListingPrice",
      "outputs": [],
      "stateMutability": "nonpayable",
      "type": "function"
    },
    {
      "inputs": [
        {
          "internalType": "uint256",
          "name": "tokenId",
          "type": "uint256"
        },
        {
          "internalType": "uint256",
          "name": "newPrice",
          "type": "uint256"
        }
      ],
      "name": "placeNftOnSale",
      "outputs": [],
      "stateMutability": "nonpayable",
      "type": "function"
    },
    {
      "inputs": [],
      "name": "totalSupply",
      "outputs": [
        {
          "internalType": "uint256",
          "name": "",
          "type": "uint256"
        }
      ],
      "stateMutability": "view",
      "type": "function",
      "constant": true
    },
    {
      "inputs": [
        {
          "internalType": "uint256",
          "name": "index",
          "type": "uint256"
        }
      ],
      "name": "tokenByIndex",
      "outputs": [
        {
          "internalType": "uint256",
          "name": "",
          "type": "uint256"
        }
      ],
      "stateMutability": "view",
      "type": "function",
      "constant": true
    },
    {
      "inputs": [
        {
          "internalType": "address",
          "name": "owner",
          "type": "address"
        },
        {
          "internalType": "uint256",
          "name": "index",
          "type": "uint256"
        }
      ],
      "name": "tokenOfOwnerByIndex",
      "outputs": [
        {
          "internalType": "uint256",
          "name": "",
          "type": "uint256"
        }
      ],
      "stateMutability": "view",
      "type": "function",
      "constant": true
    },
    {
      "inputs": [],
      "name": "getAllNftsOnSale",
      "outputs": [
        {
          "components": [
            {
              "internalType": "uint256",
              "name": "tokenId",
              "type": "uint256"
            },
            {
              "internalType": "uint256",
              "name": "price",
              "type": "uint256"
            },
            {
              "internalType": "address",
              "name": "creator",
              "type": "address"
            },
            {
              "internalType": "address",
              "name": "owner",
              "type": "address"
            },
            {
              "internalType": "bool",
              "name": "isListed",
              "type": "bool"
            }
          ],
          "internalType": "struct NftMarket.NftItem[]",
          "name": "",
          "type": "tuple[]"
        }
      ],
      "stateMutability": "view",
      "type": "function",
      "constant": true
    },
    {
      "inputs": [],
      "name": "getOwnedNfts",
      "outputs": [
        {
          "components": [
            {
              "internalType": "uint256",
              "name": "tokenId",
              "type": "uint256"
            },
            {
              "internalType": "uint256",
              "name": "price",
              "type": "uint256"
            },
            {
              "internalType": "address",
              "name": "creator",
              "type": "address"
            },
            {
              "internalType": "address",
              "name": "owner",
              "type": "address"
            },
            {
              "internalType": "bool",
              "name": "isListed",
              "type": "bool"
            }
          ],
          "internalType": "struct NftMarket.NftItem[]",
          "name": "",
          "type": "tuple[]"
        }
      ],
      "stateMutability": "view",
      "type": "function",
      "constant": true
    },
    {
      "inputs": [
        {
          "internalType": "bytes4",
          "name": "interfaceId",
          "type": "bytes4"
        }
      ],
      "name": "supportsInterface",
      "outputs": [
        {
          "internalType": "bool",
          "name": "",
          "type": "bool"
        }
      ],
      "stateMutability": "view",
      "type": "function",
      "constant": true
    },
    {
      "inputs": [
        {
          "internalType": "uint256",
          "name": "tokenId",
          "type": "uint256"
        }
      ],
      "name": "getNftItem",
      "outputs": [
        {
          "components": [
            {
              "internalType": "uint256",
              "name": "tokenId",
              "type": "uint256"
            },
            {
              "internalType": "uint256",
              "name": "price",
              "type": "uint256"
            },
            {
              "internalType": "address",
              "name": "creator",
              "type": "address"
            },
            {
              "internalType": "address",
              "name": "owner",
              "type": "address"
            },
            {
              "internalType": "bool",
              "name": "isListed",
              "type": "bool"
            }
          ],
          "internalType": "struct NftMarket.NftItem",
          "name": "",
          "type": "tuple"
        }
      ],
      "stateMutability": "view",
      "type": "function",
      "constant": true
    },
    {
      "inputs": [],
      "name": "getNftListedItemsCount",
      "outputs": [
        {
          "internalType": "uint256",
          "name": "",
          "type": "uint256"
        }
      ],
      "stateMutability": "view",
      "type": "function",
      "constant": true
    },
    {
      "inputs": [
        {
          "internalType": "string",
          "name": "tokenURI",
          "type": "string"
        }
      ],
      "name": "tokenURIExists",
      "outputs": [
        {
          "internalType": "bool",
          "name": "",
          "type": "bool"
        }
      ],
      "stateMutability": "view",
      "type": "function",
      "constant": true
    },
    {
      "inputs": [
        {
          "internalType": "uint256",
          "name": "tokenId",
          "type": "uint256"
        }
      ],
      "name": "getOwnerNFTAddress",
      "outputs": [
        {
          "internalType": "address",
          "name": "",
          "type": "address"
        }
      ],
      "stateMutability": "view",
      "type": "function",
      "constant": true
    },
    {
      "inputs": [
        {
          "internalType": "address",
          "name": "excluded",
          "type": "address"
        },
        {
          "internalType": "bool",
          "name": "status",
          "type": "bool"
        }
      ],
      "name": "setExcluded",
      "outputs": [],
      "stateMutability": "nonpayable",
      "type": "function"
    },
    {
      "inputs": [
        {
          "internalType": "address",
          "name": "from",
          "type": "address"
        },
        {
          "internalType": "address",
          "name": "to",
          "type": "address"
        },
        {
          "internalType": "uint256",
          "name": "tokenId",
          "type": "uint256"
        }
      ],
      "name": "transferFrom",
      "outputs": [],
      "stateMutability": "payable",
      "type": "function",
      "payable": true
    },
    {
      "inputs": [
        {
          "internalType": "address",
          "name": "from",
          "type": "address"
        },
        {
          "internalType": "address",
          "name": "to",
          "type": "address"
        },
        {
          "internalType": "uint256",
          "name": "tokenId",
          "type": "uint256"
        }
      ],
      "name": "safeTransferFrom",
      "outputs": [],
      "stateMutability": "payable",
      "type": "function",
      "payable": true
    },
    {
      "inputs": [
        {
          "internalType": "address",
          "name": "from",
          "type": "address"
        },
        {
          "internalType": "address",
          "name": "to",
          "type": "address"
        },
        {
          "internalType": "uint256",
          "name": "tokenId",
          "type": "uint256"
        },
        {
          "internalType": "bytes",
          "name": "_data",
          "type": "bytes"
        }
      ],
      "name": "safeTransferFrom",
      "outputs": [],
      "stateMutability": "payable",
      "type": "function",
      "payable": true
    }
  ],
  "bytecode": "0x60806040526658d15e17628000600a55662e2f6e5e148000600b5566470de4df820000600c553480156200003257600080fd5b506040518060400160405280600881526020016710d85cdadcd3919560c21b8152506040518060400160405280600681526020016510d4d2d3919560d21b8152508160009081620000849190620002de565b506001620000938282620002de565b505050620000b0620000aa620000de60201b60201c565b620000e2565b620000be336103e862000134565b336000908152601460205260409020805460ff19166001179055620003aa565b3390565b600980546001600160a01b038381166001600160a01b0319831681179093556040519116919082907f8be0079c531659141344cd1fd0a4f28419497f9722a3daafe3b4186f6b6457e090600090a35050565b6127106001600160601b0382161115620001a85760405162461bcd60e51b815260206004820152602a60248201527f455243323938313a20726f79616c7479206665652077696c6c206578636565646044820152692073616c65507269636560b01b60648201526084015b60405180910390fd5b6001600160a01b038216620002005760405162461bcd60e51b815260206004820152601960248201527f455243323938313a20696e76616c69642072656365697665720000000000000060448201526064016200019f565b604080518082019091526001600160a01b039092168083526001600160601b039091166020909201829052600160a01b90910217600755565b634e487b7160e01b600052604160045260246000fd5b600181811c908216806200026457607f821691505b6020821081036200028557634e487b7160e01b600052602260045260246000fd5b50919050565b601f821115620002d957600081815260208120601f850160051c81016020861015620002b45750805b601f850160051c820191505b81811015620002d557828155600101620002c0565b5050505b505050565b81516001600160401b03811115620002fa57620002fa62000239565b62000312816200030b84546200024f565b846200028b565b602080601f8311600181146200034a5760008415620003315750858301515b600019600386901b1c1916600185901b178555620002d5565b600085815260208120601f198616915b828110156200037b578886015182559484019460019091019084016200035a565b50858210156200039a5787850151600019600388901b60f8161c191681555b5050505050600190811b01905550565b61320180620003ba6000396000f3fe6080604052600436106102255760003560e01c80635600d2fa1161012357806395d89b41116100ab578063c78f19f91161006f578063c78f19f9146106be578063c87b56dd146106d4578063e985e9c5146106f4578063f215823b1461073d578063f2fde38b1461077557600080fd5b806395d89b411461064e5780639e17588914610663578063a22cb46514610676578063b88d4fde14610696578063bb0543b5146106a957600080fd5b806370a08231116100f257806370a08231146105c657806370cbcb43146105e6578063715018a6146105fb5780637c726b69146106105780638da5cb5b1461063057600080fd5b80635600d2fa146104a05780635afa3a72146104d05780636352211e146104f05780636f1a0af51461051057600080fd5b80632a4174c1116101b157806342842e0e1161017557806342842e0e1461041a57806342966c681461042d57806343d32ae71461044d5780634f6ccce71461046d57806351ed82881461048d57600080fd5b80632a4174c1146103635780632a55205a146103835780632f745c59146103c257806336b536be146103e257806340fb561c1461040457600080fd5b806318160ddd116101f857806318160ddd146102db578063203f12ce146102fa57806321f422e51461031057806323b872dd146103305780632836be241461034357600080fd5b806301ffc9a71461022a57806306fdde031461025f578063081812fc14610281578063095ea7b3146102b9575b600080fd5b34801561023657600080fd5b5061024a6102453660046129d9565b610795565b60405190151581526020015b60405180910390f35b34801561026b57600080fd5b506102746107a6565b6040516102569190612a46565b34801561028d57600080fd5b506102a161029c366004612a59565b610838565b6040516001600160a01b039091168152602001610256565b3480156102c557600080fd5b506102d96102d4366004612a8e565b61085f565b005b3480156102e757600080fd5b506016545b604051908152602001610256565b34801561030657600080fd5b506102ec600c5481565b34801561031c57600080fd5b506102d961032b366004612ab8565b610979565b6102d961033e366004612ada565b610a87565b34801561034f57600080fd5b506102d961035e366004612b16565b610b6c565b34801561036f57600080fd5b506102a161037e366004612a59565b610b9f565b34801561038f57600080fd5b506103a361039e366004612ab8565b610bb2565b604080516001600160a01b039093168352602083019190915201610256565b3480156103ce57600080fd5b506102ec6103dd366004612a8e565b610c5e565b3480156103ee57600080fd5b506103f7610cd6565b6040516102569190612b92565b34801561041057600080fd5b506102ec600b5481565b6102d9610428366004612ada565b610e3d565b34801561043957600080fd5b506102d9610448366004612a59565b610f07565b34801561045957600080fd5b5061024a610468366004612c8c565b610f2c565b34801561047957600080fd5b506102ec610488366004612a59565b610f5c565b6102d961049b366004612a59565b610fd0565b3480156104ac57600080fd5b5061024a6104bb366004612cc1565b60146020526000908152604090205460ff1681565b3480156104dc57600080fd5b506102ec6104eb366004612cdc565b61118a565b3480156104fc57600080fd5b506102a161050b366004612a59565b61128d565b34801561051c57600080fd5b506105b961052b366004612a59565b6040805160a08101825260008082526020820181905291810182905260608101829052608081019190915250600090815260106020908152604091829020825160a0810184528154815260018201549281019290925260028101546001600160a01b0390811693830193909352600301549182166060820152600160a01b90910460ff161515608082015290565b6040516102569190612d21565b3480156105d257600080fd5b506102ec6105e1366004612cc1565b6112ed565b3480156105f257600080fd5b506103f7611373565b34801561060757600080fd5b506102d96114b0565b34801561061c57600080fd5b506102d961062b366004612a59565b6114c4565b34801561063c57600080fd5b506009546001600160a01b03166102a1565b34801561065a57600080fd5b50610274611521565b6102d9610671366004612d2f565b611530565b34801561068257600080fd5b506102d9610691366004612b16565b611654565b6102d96106a4366004612d7f565b61165f565b3480156106b557600080fd5b506102ec611746565b3480156106ca57600080fd5b506102ec600a5481565b3480156106e057600080fd5b506102746106ef366004612a59565b611756565b34801561070057600080fd5b5061024a61070f366004612dfb565b6001600160a01b03918216600090815260056020908152604080832093909416825291909152205460ff1690565b34801561074957600080fd5b506102ec610758366004612ab8565b600091825260126020908152604080842092845291905290205490565b34801561078157600080fd5b506102d9610790366004612cc1565b611866565b60006107a0826118dc565b92915050565b6060600080546107b590612e2e565b80601f01602080910402602001604051908101604052809291908181526020018280546107e190612e2e565b801561082e5780601f106108035761010080835404028352916020019161082e565b820191906000526020600020905b81548152906001019060200180831161081157829003601f168201915b5050505050905090565b600061084382611901565b506000908152600460205260409020546001600160a01b031690565b600061086a8261128d565b9050806001600160a01b0316836001600160a01b0316036108dc5760405162461bcd60e51b815260206004820152602160248201527f4552433732313a20617070726f76616c20746f2063757272656e74206f776e656044820152603960f91b60648201526084015b60405180910390fd5b336001600160a01b03821614806108f857506108f8813361070f565b61096a5760405162461bcd60e51b815260206004820152603d60248201527f4552433732313a20617070726f76652063616c6c6572206973206e6f7420746f60448201527f6b656e206f776e6572206f7220617070726f76656420666f7220616c6c00000060648201526084016108d3565b6109748383611960565b505050565b336109838361128d565b6001600160a01b0316146109e35760405162461bcd60e51b815260206004820152602160248201527f596f7520617265206e6f7420746865206f776e6572206f662074686973206e666044820152601d60fa1b60648201526084016108d3565b600082815260106020526040902060030154600160a01b900460ff1615610a4c5760405162461bcd60e51b815260206004820152601860248201527f4974656d7320697320616c7265616479206f6e2073616c65000000000000000060448201526064016108d3565b600082815260106020526040902060038101805460ff60a01b1916600160a01b179055600101819055610a83600e80546001019055565b5050565b610a9133826119ce565b610aad5760405162461bcd60e51b81526004016108d390612e68565b60003415610b0757610abf8234610bb2565b9150506001600160a01b0383166108fc610ad98334612ecf565b6040518115909202916000818181858888f19350505050158015610b01573d6000803e3d6000fd5b50610b0c565b50600c545b6001600160a01b03841660009081526014602052604081205460ff1615159003610b3a57610b3a8282611a4c565b600082815260106020526040902060030180546001600160a81b03191633179055610b66848484611a96565b50505050565b610b74611c07565b6001600160a01b03919091166000908152601460205260409020805460ff1916911515919091179055565b600080610bab8361128d565b9392505050565b60008281526008602090815260408083208151808301909252546001600160a01b038116808352600160a01b9091046001600160601b0316928201929092528291610c275750604080518082019091526007546001600160a01b0381168252600160a01b90046001600160601b031660208201525b602081015160009061271090610c46906001600160601b031687612ee2565b610c509190612f0f565b915196919550909350505050565b6000610c69836112ed565b8210610cad5760405162461bcd60e51b8152602060048201526013602482015272496e646578206f7574206f6620626f756e647360681b60448201526064016108d3565b506001600160a01b03919091166000908152601160209081526040808320938352929052205490565b60606000610ce360165490565b9050600080610cf1600e5490565b67ffffffffffffffff811115610d0957610d09612be0565b604051908082528060200260200182016040528015610d6257816020015b6040805160a081018252600080825260208083018290529282018190526060820181905260808201528252600019909201910181610d275790505b50905060005b83811015610e35576000610d7b82610f5c565b6000818152601060205260409020600381015491925090600160a01b900460ff161515600103610e20576040805160a081018252825481526001830154602082015260028301546001600160a01b039081169282019290925260038301549182166060820152600160a01b90910460ff16151560808201528451859087908110610e0757610e07612f31565b6020908102919091010152610e1d600186612f47565b94505b50508080610e2d90612f5a565b915050610d68565b509392505050565b60003415610e9757610e4f8234610bb2565b9150506001600160a01b0383166108fc610e698334612ecf565b6040518115909202916000818181858888f19350505050158015610e91573d6000803e3d6000fd5b50610e9c565b50600c545b6001600160a01b03841660009081526014602052604081205460ff1615159003610eca57610eca8282611a4c565b600082815260106020908152604080832060030180546001600160a81b0319163317905580519182019052908152610b669085908590859061165f565b610f0f611c07565b610f1881611c61565b600090815260086020526040812055565b50565b6000600f82604051610f3e9190612f73565b9081526040519081900360200190205460ff16151560011492915050565b6000610f6760165490565b8210610fab5760405162461bcd60e51b8152602060048201526013602482015272496e646578206f7574206f6620626f756e647360681b60448201526064016108d3565b60168281548110610fbe57610fbe612f31565b90600052602060002001549050919050565b6000610fdb8261128d565b6000838152601060205260409020600101549091506001600160a01b03821633036110485760405162461bcd60e51b815260206004820152601860248201527f596f7520616c7265616479206f776e2074686973204e4654000000000000000060448201526064016108d3565b8034146110975760405162461bcd60e51b815260206004820152601e60248201527f506c65617365207375626d6974207468652061736b696e67207072696365000060448201526064016108d3565b600083815260106020526040902060030180546001600160a81b031916331790556110c2600e611ca1565b60006110ce8483610bb2565b3360009081526014602052604081205491935060ff9091161515900390506110fa576110fa8482611a4c565b6001600160a01b0383166108fc6111118334612ecf565b6040518115909202916000818181858888f19350505050158015611139573d6000803e3d6000fd5b506040805185815234602082015233916001600160a01b038616917f681ddc67ea8796d2489979f5fc2ea2eb0f2d44ff3f11f061a191928a1f3d9a06910160405180910390a3610b66833386611a96565b6000611194611c07565b61119d83610f2c565b156111ea5760405162461bcd60e51b815260206004820152601860248201527f546f6b656e2055524920616c726561647920657869737473000000000000000060448201526064016108d3565b6111f8600e80546001019055565b611206600d80546001019055565b6000611211600d5490565b9050600061121e42611cf8565b905061122a3383611d18565b6112348286611d32565b61123e8285611dc5565b6001600f866040516112509190612f73565b9081526040805160209281900383019020805460ff1916931515939093179092556000848152601282528281209381529290528120559392505050565b6000818152600260205260408120546001600160a01b0316806107a05760405162461bcd60e51b8152602060048201526018602482015277115490cdcc8c4e881a5b9d985b1a59081d1bdad95b88125160421b60448201526064016108d3565b60006001600160a01b0382166113575760405162461bcd60e51b815260206004820152602960248201527f4552433732313a2061646472657373207a65726f206973206e6f7420612076616044820152683634b21037bbb732b960b91b60648201526084016108d3565b506001600160a01b031660009081526003602052604090205490565b60606000611380336112ed565b905060008167ffffffffffffffff81111561139d5761139d612be0565b6040519080825280602002602001820160405280156113f657816020015b6040805160a0810182526000808252602080830182905292820181905260608201819052608082015282526000199092019101816113bb5790505b50905060005b828110156114a95760006114103383610c5e565b600081815260106020908152604091829020825160a0810184528154815260018201549281019290925260028101546001600160a01b039081169383019390935260038101549283166060830152600160a01b90920460ff16151560808201528551929350909185908590811061148957611489612f31565b6020026020010181905250505080806114a190612f5a565b9150506113fc565b5092915050565b6114b8611c07565b6114c26000611ef5565b565b6114cc611c07565b6000811161151c5760405162461bcd60e51b815260206004820152601c60248201527f5072696365206d757374206265206174206c656173742031207765690000000060448201526064016108d3565b600a55565b6060600180546107b590612e2e565b600083116115805760405162461bcd60e51b815260206004820152601a60248201527f596f752063616e6e6f74206f72646572203020626f74746c657300000000000060448201526064016108d3565b600061158b42611cf8565b6000848152601260209081526040808320848452825280832054878452601090925290912060020154600b5492935090916001600160a01b039091169081906108fc906115d89089612ee2565b6040518115909202916000818181858888f19350505050158015611600573d6000803e3d6000fd5b5042600090815260136020908152604080832088845290915290208690556116288683612f47565b600086815260126020908152604080832087845290915290205561164c8585611d32565b505050505050565b610a83338383611f47565b61166933836119ce565b6116855760405162461bcd60e51b81526004016108d390612e68565b600034156116df576116978334610bb2565b9150506001600160a01b0384166108fc6116b18334612ecf565b6040518115909202916000818181858888f193505050501580156116d9573d6000803e3d6000fd5b506116e4565b50600c545b6001600160a01b03851660009081526014602052604081205460ff1615159003611712576117128382611a4c565b600083815260106020526040902060030180546001600160a81b0319163317905561173f85858585612015565b5050505050565b6000611751600e5490565b905090565b606061176182611901565b6000828152600660205260408120805461177a90612e2e565b80601f01602080910402602001604051908101604052809291908181526020018280546117a690612e2e565b80156117f35780601f106117c8576101008083540402835291602001916117f3565b820191906000526020600020905b8154815290600101906020018083116117d657829003601f168201915b50505050509050600061181160408051602081019091526000815290565b90508051600003611823575092915050565b81511561185557808260405160200161183d929190612f8f565b60405160208183030381529060405292505050919050565b61185e84612048565b949350505050565b61186e611c07565b6001600160a01b0381166118d35760405162461bcd60e51b815260206004820152602660248201527f4f776e61626c653a206e6577206f776e657220697320746865207a65726f206160448201526564647265737360d01b60648201526084016108d3565b610f2981611ef5565b60006001600160e01b0319821663152a902d60e11b14806107a057506107a0826120bb565b6000818152600260205260409020546001600160a01b0316610f295760405162461bcd60e51b8152602060048201526018602482015277115490cdcc8c4e881a5b9d985b1a59081d1bdad95b88125160421b60448201526064016108d3565b600081815260046020526040902080546001600160a01b0319166001600160a01b03841690811790915581906119958261128d565b6001600160a01b03167f8c5be1e5ebec7d5bd14f71427d1e84f3dd0314c0f7b2291e5b200ac8c7c3b92560405160405180910390a45050565b6000806119da8361128d565b9050806001600160a01b0316846001600160a01b03161480611a2157506001600160a01b0380821660009081526005602090815260408083209388168352929052205460ff165b8061185e5750836001600160a01b0316611a3a84610838565b6001600160a01b031614949350505050565b6000828152601060205260408082206002015490516001600160a01b0390911691829184156108fc0291859190818181858888f19350505050158015610b66573d6000803e3d6000fd5b826001600160a01b0316611aa98261128d565b6001600160a01b031614611acf5760405162461bcd60e51b81526004016108d390612fbe565b6001600160a01b038216611b315760405162461bcd60e51b8152602060048201526024808201527f4552433732313a207472616e7366657220746f20746865207a65726f206164646044820152637265737360e01b60648201526084016108d3565b611b3e838383600161210b565b826001600160a01b0316611b518261128d565b6001600160a01b031614611b775760405162461bcd60e51b81526004016108d390612fbe565b600081815260046020908152604080832080546001600160a01b03199081169091556001600160a01b0387811680865260038552838620805460001901905590871680865283862080546001019055868652600290945282852080549092168417909155905184937fddf252ad1be2c89b69c2b068fc378daa952ba7f163c4a11628f55a4df523b3ef91a4505050565b6009546001600160a01b031633146114c25760405162461bcd60e51b815260206004820181905260248201527f4f776e61626c653a2063616c6c6572206973206e6f7420746865206f776e657260448201526064016108d3565b611c6a816121d4565b60008181526006602052604090208054611c8390612e2e565b159050610f29576000818152600660205260408120610f2991612975565b805480611cf05760405162461bcd60e51b815260206004820152601b60248201527f436f756e7465723a2064656372656d656e74206f766572666c6f77000000000060448201526064016108d3565b600019019055565b6000611d0f611d0a6201518084612f0f565b612277565b50909392505050565b610a83828260405180602001604052806000815250612313565b6000828152600260205260409020546001600160a01b0316611dad5760405162461bcd60e51b815260206004820152602e60248201527f45524337323155524953746f726167653a2055524920736574206f66206e6f6e60448201526d32bc34b9ba32b73a103a37b5b2b760911b60648201526084016108d3565b60008281526006602052604090206109748282613049565b60008111611e155760405162461bcd60e51b815260206004820152601c60248201527f5072696365206d757374206265206174206c656173742031207765690000000060448201526064016108d3565b6040805160a08082018352848252602080830185815233848601818152606080870183815260016080808a0182815260008e815260108a528c90209a518b5596518a830155935160028a0180546001600160a01b039283166001600160a01b031990911617905591516003909901805496511515600160a01b026001600160a81b0319909716999092169890981794909417909355865189815293840188905295830181905290820152928301919091527f23d5ab71cc0f91445504902f71f3b3c11f8bc3940cc6822c2329c1bd5662a409910160405180910390a15050565b600980546001600160a01b038381166001600160a01b0319831681179093556040519116919082907f8be0079c531659141344cd1fd0a4f28419497f9722a3daafe3b4186f6b6457e090600090a35050565b816001600160a01b0316836001600160a01b031603611fa85760405162461bcd60e51b815260206004820152601960248201527f4552433732313a20617070726f766520746f2063616c6c65720000000000000060448201526064016108d3565b6001600160a01b03838116600081815260056020908152604080832094871680845294825291829020805460ff191686151590811790915591519182527f17307eab39ab6107e8899845ad3d59bd9653f200f220920489ca2b5937696c31910160405180910390a3505050565b612020848484611a96565b61202c84848484612346565b610b665760405162461bcd60e51b81526004016108d390613109565b606061205382611901565b600061206a60408051602081019091526000815290565b9050600081511161208a5760405180602001604052806000815250610bab565b8061209484612447565b6040516020016120a5929190612f8f565b6040516020818303038152906040529392505050565b60006001600160e01b031982166380ac58cd60e01b14806120ec57506001600160e01b03198216635b5e139f60e01b145b806107a057506301ffc9a760e01b6001600160e01b03198316146107a0565b612117848484846124da565b6001600160a01b0384166121725761216d82601680546000838152601760205260408120829055600182018355919091527fd833147d7dc355ba459fc788f669e58cfaf9dc25ddcd0702e87d69c7b51242890155565b612195565b826001600160a01b0316846001600160a01b031614612195576121958483612562565b6001600160a01b0383166121b1576121ac826125ff565b610b66565b836001600160a01b0316836001600160a01b031614610b6657610b6683836126c0565b60006121df8261128d565b90506121ef81600084600161210b565b6121f88261128d565b600083815260046020908152604080832080546001600160a01b03199081169091556001600160a01b0385168085526003845282852080546000190190558785526002909352818420805490911690555192935084927fddf252ad1be2c89b69c2b068fc378daa952ba7f163c4a11628f55a4df523b3ef908390a45050565b60008080836226496581018262023ab1600483020590506004600362023ab18302010590910390600062164b09610fa0600185010205905060046105b58202058303601f019250600061098f84605002816122d4576122d4612ef9565b0590506000605061098f83020585039050600b820560301994909401606402929092018301996002600c90940290910392909201975095509350505050565b61231d8383612704565b61232a6000848484612346565b6109745760405162461bcd60e51b81526004016108d390613109565b60006001600160a01b0384163b1561243c57604051630a85bd0160e11b81526001600160a01b0385169063150b7a029061238a90339089908890889060040161315b565b6020604051808303816000875af19250505080156123c5575060408051601f3d908101601f191682019092526123c291810190613198565b60015b612422573d8080156123f3576040519150601f19603f3d011682016040523d82523d6000602084013e6123f8565b606091505b50805160000361241a5760405162461bcd60e51b81526004016108d390613109565b805181602001fd5b6001600160e01b031916630a85bd0160e11b14905061185e565b506001949350505050565b606060006124548361289d565b600101905060008167ffffffffffffffff81111561247457612474612be0565b6040519080825280601f01601f19166020018201604052801561249e576020820181803683370190505b5090508181016020015b600019016f181899199a1a9b1b9c1cb0b131b232b360811b600a86061a8153600a85049450846124a857509392505050565b6001811115610b66576001600160a01b03841615612520576001600160a01b0384166000908152600360205260408120805483929061251a908490612ecf565b90915550505b6001600160a01b03831615610b66576001600160a01b03831660009081526003602052604081208054839290612557908490612f47565b909155505050505050565b6000600161256f846112ed565b6125799190612ecf565b6000838152601560205260409020549091508082146125cc576001600160a01b03841660009081526011602090815260408083208584528252808320548484528184208190558352601590915290208190555b5060009182526015602090815260408084208490556001600160a01b039094168352601181528383209183525290812055565b60165460009061261190600190612ecf565b6000838152601760205260408120546016805493945090928490811061263957612639612f31565b90600052602060002001549050806016838154811061265a5761265a612f31565b6000918252602080832090910192909255828152601790915260409020829055612684600e611ca1565b60008481526017602052604081205560168054806126a4576126a46131b5565b6001900381819060005260206000200160009055905550505050565b60006126cb836112ed565b6001600160a01b039093166000908152601160209081526040808320868452825280832085905593825260159052919091209190915550565b6001600160a01b03821661275a5760405162461bcd60e51b815260206004820181905260248201527f4552433732313a206d696e7420746f20746865207a65726f206164647265737360448201526064016108d3565b6000818152600260205260409020546001600160a01b0316156127bf5760405162461bcd60e51b815260206004820152601c60248201527f4552433732313a20746f6b656e20616c7265616479206d696e7465640000000060448201526064016108d3565b6127cd60008383600161210b565b6000818152600260205260409020546001600160a01b0316156128325760405162461bcd60e51b815260206004820152601c60248201527f4552433732313a20746f6b656e20616c7265616479206d696e7465640000000060448201526064016108d3565b6001600160a01b038216600081815260036020908152604080832080546001019055848352600290915280822080546001600160a01b0319168417905551839291907fddf252ad1be2c89b69c2b068fc378daa952ba7f163c4a11628f55a4df523b3ef908290a45050565b60008072184f03e93ff9f4daa797ed6e38ed64bf6a1f0160401b83106128dc5772184f03e93ff9f4daa797ed6e38ed64bf6a1f0160401b830492506040015b6d04ee2d6d415b85acef81000000008310612908576d04ee2d6d415b85acef8100000000830492506020015b662386f26fc10000831061292657662386f26fc10000830492506010015b6305f5e100831061293e576305f5e100830492506008015b612710831061295257612710830492506004015b60648310612964576064830492506002015b600a83106107a05760010192915050565b50805461298190612e2e565b6000825580601f10612991575050565b601f016020900490600052602060002090810190610f2991905b808211156129bf57600081556001016129ab565b5090565b6001600160e01b031981168114610f2957600080fd5b6000602082840312156129eb57600080fd5b8135610bab816129c3565b60005b83811015612a115781810151838201526020016129f9565b50506000910152565b60008151808452612a328160208601602086016129f6565b601f01601f19169290920160200192915050565b602081526000610bab6020830184612a1a565b600060208284031215612a6b57600080fd5b5035919050565b80356001600160a01b0381168114612a8957600080fd5b919050565b60008060408385031215612aa157600080fd5b612aaa83612a72565b946020939093013593505050565b60008060408385031215612acb57600080fd5b50508035926020909101359150565b600080600060608486031215612aef57600080fd5b612af884612a72565b9250612b0660208501612a72565b9150604084013590509250925092565b60008060408385031215612b2957600080fd5b612b3283612a72565b915060208301358015158114612b4757600080fd5b809150509250929050565b80518252602080820151908301526040808201516001600160a01b0390811691840191909152606080830151909116908301526080908101511515910152565b6020808252825182820181905260009190848201906040850190845b81811015612bd457612bc1838551612b52565b9284019260a09290920191600101612bae565b50909695505050505050565b634e487b7160e01b600052604160045260246000fd5b600067ffffffffffffffff80841115612c1157612c11612be0565b604051601f8501601f19908116603f01168101908282118183101715612c3957612c39612be0565b81604052809350858152868686011115612c5257600080fd5b858560208301376000602087830101525050509392505050565b600082601f830112612c7d57600080fd5b610bab83833560208501612bf6565b600060208284031215612c9e57600080fd5b813567ffffffffffffffff811115612cb557600080fd5b61185e84828501612c6c565b600060208284031215612cd357600080fd5b610bab82612a72565b60008060408385031215612cef57600080fd5b823567ffffffffffffffff811115612d0657600080fd5b612d1285828601612c6c565b95602094909401359450505050565b60a081016107a08284612b52565b600080600060608486031215612d4457600080fd5b8335925060208401359150604084013567ffffffffffffffff811115612d6957600080fd5b612d7586828701612c6c565b9150509250925092565b60008060008060808587031215612d9557600080fd5b612d9e85612a72565b9350612dac60208601612a72565b925060408501359150606085013567ffffffffffffffff811115612dcf57600080fd5b8501601f81018713612de057600080fd5b612def87823560208401612bf6565b91505092959194509250565b60008060408385031215612e0e57600080fd5b612e1783612a72565b9150612e2560208401612a72565b90509250929050565b600181811c90821680612e4257607f821691505b602082108103612e6257634e487b7160e01b600052602260045260246000fd5b50919050565b60208082526031908201527f4552433732313a207472616e736665722063616c6c6572206973206e6f74206f6040820152701ddb995c881b9bdc88185c1c1c9bdd9959607a1b606082015260800190565b634e487b7160e01b600052601160045260246000fd5b818103818111156107a0576107a0612eb9565b80820281158282048414176107a0576107a0612eb9565b634e487b7160e01b600052601260045260246000fd5b600082612f2c57634e487b7160e01b600052601260045260246000fd5b500490565b634e487b7160e01b600052603260045260246000fd5b808201808211156107a0576107a0612eb9565b600060018201612f6c57612f6c612eb9565b5060010190565b60008251612f858184602087016129f6565b9190910192915050565b60008351612fa18184602088016129f6565b835190830190612fb58183602088016129f6565b01949350505050565b60208082526025908201527f4552433732313a207472616e736665722066726f6d20696e636f72726563742060408201526437bbb732b960d91b606082015260800190565b601f82111561097457600081815260208120601f850160051c8101602086101561302a5750805b601f850160051c820191505b8181101561164c57828155600101613036565b815167ffffffffffffffff81111561306357613063612be0565b613077816130718454612e2e565b84613003565b602080601f8311600181146130ac57600084156130945750858301515b600019600386901b1c1916600185901b17855561164c565b600085815260208120601f198616915b828110156130db578886015182559484019460019091019084016130bc565b50858210156130f95787850151600019600388901b60f8161c191681555b5050505050600190811b01905550565b60208082526032908201527f4552433732313a207472616e7366657220746f206e6f6e20455243373231526560408201527131b2b4bb32b91034b6b83632b6b2b73a32b960711b606082015260800190565b6001600160a01b038581168252841660208201526040810183905260806060820181905260009061318e90830184612a1a565b9695505050505050565b6000602082840312156131aa57600080fd5b8151610bab816129c3565b634e487b7160e01b600052603160045260246000fdfea26469706673582212204ffc44139e5da8bc087693e171eb64b59c77f2f7fe4b5ebafadbcab2f39c3cc264736f6c63430008110033",
  "immutableReferences": {},
  "source": "// SPDX-License-Identifier: MIT\npragma solidity >=0.4.22 <0.9.0;\n\nimport \"@openzeppelin/contracts/token/common/ERC2981.sol\";\nimport \"@openzeppelin/contracts/token/ERC721/extensions/ERC721URIStorage.sol\";\nimport \"@openzeppelin/contracts/access/Ownable.sol\";\nimport \"@openzeppelin/contracts/utils/Counters.sol\";\nimport '@openzeppelin/contracts/token/ERC20/IERC20.sol';\n\ncontract NftMarket is ERC721URIStorage, ERC2981, Ownable {\n  using Counters for Counters.Counter;\n\n  struct NftItem {\n    uint256 tokenId;\n    uint256 price;\n    address creator;\n    address owner;\n    bool isListed;\n  }\n\n  uint public listingPrice = 0.025 ether;\n  uint public bottlePrice = 0.013 ether;\n  uint public _minimumFee = 0.02 ether;\n  uint256 constant SECONDS_PER_DAY = 24 * 60 * 60;\n  int256 constant OFFSET19700101 = 2440588;\n\n  Counters.Counter private _tokenIds;\n  Counters.Counter private _listedItems;\n\n  mapping(string => bool) private _usedTokenURIs;\n  mapping(uint256 => NftItem) private _idToNftItem;\n\n  mapping(address => mapping(uint256 => uint256)) private _ownedTokens;\n  mapping(uint256 => mapping(uint256 => uint256)) private _tokensExtractionsByYear;\n  mapping(uint256 => mapping(uint256 => uint256)) private _extractionsRegistry;\n  mapping(address => bool) public excludedList;\n\n  mapping(uint256 => uint256) private _idToOwnedIndex;\n\n\n  uint256[] private _allNfts;\n  mapping(uint256 => uint256) private _idToNftIndex;\n\n  event Sale(address indexed from, address indexed to, uint256 tokenId, uint256 value);\n\n  event NftItemCreated (\n      uint256 tokenId,\n      uint256 price,\n      address creator,\n      address owner,\n      bool isListed\n  );\n\n  constructor() ERC721(\"CasksNFT\", \"CSKNFT\") {\n    _setDefaultRoyalty(msg.sender, 1000);\n    excludedList[msg.sender] = true; \n  }\n\n  function burn(uint256 tokenId) public onlyOwner {\n      super._burn(tokenId);\n      _resetTokenRoyalty(tokenId);\n  }\n\n  function mintNFT(string memory tokenURI, uint256 price)\n  public onlyOwner\n  returns (uint256) {\n\n    require(!tokenURIExists(tokenURI), \"Token URI already exists\");\n\n    _listedItems.increment();\n    _tokenIds.increment();\n\n    uint256 newItemId = _tokenIds.current();\n\n    uint256 year = getYear(block.timestamp);\n\n    _safeMint(msg.sender, newItemId);\n    _setTokenURI(newItemId, tokenURI);\n    _createNftItem(newItemId, price);\n    _usedTokenURIs[tokenURI] = true;\n    _tokensExtractionsByYear[newItemId][year]  = 0;\n\n    return newItemId;\n  }\n\n  function buyNFT(\n    uint256 tokenId\n  ) public payable {\n\n    address owner = ERC721.ownerOf(tokenId);\n    uint256 price = _idToNftItem[tokenId].price;\n\n    require(msg.sender != owner, \"You already own this NFT\");\n    require(msg.value == price, \"Please submit the asking price\");\n\n    _idToNftItem[tokenId].isListed = false;\n    _idToNftItem[tokenId].owner = msg.sender;\n\n    _listedItems.decrement();\n\n    (,uint256 royaltyAmount) = royaltyInfo(tokenId, price);\n\n    if(excludedList[msg.sender] == false) {\n      _payTxFee(tokenId, royaltyAmount);\n    }\n\n    payable(owner).transfer(msg.value - royaltyAmount);\n\n    emit Sale(owner, msg.sender, tokenId, msg.value);\n\n    _transfer(owner, msg.sender, tokenId);\n\n    \n  }\n\n  function getTokenExtractionsByYear(uint256 tokenId, uint256 year) public view returns (uint256 extractions) {\n    return _tokensExtractionsByYear[tokenId][year];\n  }\n\n  function orderBottle(uint256 numberOfBottles, uint256 tokenId, string memory tokenURI) public payable {\n    require(numberOfBottles > 0, \"You cannot order 0 bottles\");\n\n    uint256 year = getYear(block.timestamp);\n    uint256 yearExtractedBottles = _tokensExtractionsByYear[tokenId][year];\n    address creator = payable(_idToNftItem[tokenId].creator);\n\n    payable(creator).transfer(numberOfBottles * bottlePrice);\n\n    _extractionsRegistry[block.timestamp][tokenId] = numberOfBottles;\n    _tokensExtractionsByYear[tokenId][year] = yearExtractedBottles + numberOfBottles;\n\n    _setTokenURI(tokenId, tokenURI);\n\n  }\n\n  function setListingPrice(uint256 newListingPrice) external onlyOwner {\n    require(newListingPrice > 0, \"Price must be at least 1 wei\");\n    listingPrice = newListingPrice;\n  }\n\n  function placeNftOnSale(uint256 tokenId, uint256 newPrice) public {\n\n    require(ERC721.ownerOf(tokenId) == msg.sender, \"You are not the owner of this nft\");\n    require(_idToNftItem[tokenId].isListed == false, \"Items is already on sale\");\n\n    _idToNftItem[tokenId].isListed = true;\n    _idToNftItem[tokenId].price = newPrice;\n    _listedItems.increment();\n\n  } \n\n  function totalSupply() public view returns (uint256) {\n    return _allNfts.length;\n  }\n\n  function tokenByIndex(uint index) public view returns (uint) {\n    require(index < totalSupply(), \"Index out of bounds\");\n    return _allNfts[index];\n  }\n\n  function tokenOfOwnerByIndex(address owner, uint index) public view returns (uint) {\n    require(index < ERC721.balanceOf(owner), \"Index out of bounds\");\n    return _ownedTokens[owner][index];\n  }\n\n  function getAllNftsOnSale() public view returns (NftItem[] memory) {\n    uint allItemsCounts = totalSupply();\n    uint currentIndex = 0;\n    NftItem[] memory items = new NftItem[](_listedItems.current());\n\n    for (uint i = 0; i < allItemsCounts; i++) {\n      uint tokenId = tokenByIndex(i);\n      NftItem storage item = _idToNftItem[tokenId];\n\n      if (item.isListed == true) {\n        items[currentIndex] = item;\n        currentIndex += 1;\n      }\n\n    }\n\n    return items;\n\n  }\n\n  function getOwnedNfts() public view returns (NftItem[] memory) {\n    uint ownedItemsCount = ERC721.balanceOf(msg.sender);\n    NftItem[] memory items = new NftItem[](ownedItemsCount);\n\n    for (uint i = 0; i < ownedItemsCount; i++) {\n      uint tokenId = tokenOfOwnerByIndex(msg.sender, i);\n      NftItem storage item = _idToNftItem[tokenId];\n      items[i] = item;\n    }\n\n    return items;\n  }\n\n  function supportsInterface(bytes4 interfaceId)\n    public view virtual override(ERC721, ERC2981)\n    returns (bool) {\n      return super.supportsInterface(interfaceId);\n  }\n\n  function getNftItem(uint tokenId) public view returns (NftItem memory) {\n    return _idToNftItem[tokenId];\n  }\n\n  function getNftListedItemsCount() public view returns (uint) {\n    return _listedItems.current();\n  }\n\n  function tokenURIExists(string memory tokenURI) public view returns (bool) {\n    return _usedTokenURIs[tokenURI] == true;\n  }\n\n  function getYear(uint256 timestamp) internal pure returns (uint256 year) {\n    (year,,) = _daysToDate(timestamp / SECONDS_PER_DAY);\n  }\n\n  function getOwnerNFTAddress(uint256 tokenId) public view returns (address) {\n    address owner = ERC721.ownerOf(tokenId);\n    return owner;\n  }\n\n  function setExcluded(address excluded, bool status) external onlyOwner {\n    excludedList[excluded] = status;\n  }\n\n  function transferFrom(\n    address from, \n    address to, \n    uint256 tokenId\n  ) public payable override {\n     require(\n       _isApprovedOrOwner(_msgSender(), tokenId), \n       'ERC721: transfer caller is not owner nor approved'\n     );\n\n     uint256 royalty;\n\n    if (msg.value > 0) {\n      (,royalty) = royaltyInfo(tokenId, msg.value);\n      payable(to).transfer(msg.value - royalty);\n    } else {\n      royalty = _minimumFee;\n    }\n\n     if(excludedList[from] == false) {\n      _payTxFee(tokenId, royalty);\n     }\n \n     _idToNftItem[tokenId].isListed = false;\n     _idToNftItem[tokenId].owner = msg.sender;\n\n     _transfer(from, to, tokenId);\n  }\n\n  function safeTransferFrom(\n    address from,\n    address to,\n    uint256 tokenId\n   ) public payable override {\n\n     uint256 royalty;\n\n    if (msg.value > 0) {\n      (,royalty) = royaltyInfo(tokenId, msg.value);\n      payable(to).transfer(msg.value - royalty);\n    } else {\n      royalty = _minimumFee;\n    }\n\n     if(excludedList[from] == false) {\n      _payTxFee(tokenId, royalty);\n     }\n \n     _idToNftItem[tokenId].isListed = false;\n     _idToNftItem[tokenId].owner = msg.sender;\n\n     safeTransferFrom(from, to, tokenId, '');\n   }\n   \n  function safeTransferFrom(\n    address from,\n    address to,\n    uint256 tokenId,\n    bytes memory _data\n  ) public payable override {\n    require(\n      _isApprovedOrOwner(_msgSender(), tokenId), \n      'ERC721: transfer caller is not owner nor approved'\n    );\n\n     uint256 royalty;\n\n    if (msg.value > 0) {\n      (,royalty) = royaltyInfo(tokenId, msg.value);\n      payable(to).transfer(msg.value - royalty);\n    } else {\n      royalty = _minimumFee;\n    }\n\n     if(excludedList[from] == false) {\n      _payTxFee(tokenId, royalty);\n     }\n \n    _idToNftItem[tokenId].isListed = false;\n    _idToNftItem[tokenId].owner = msg.sender;\n\n    _safeTransfer(from, to, tokenId, _data);\n  }\n\n  function _createNftItem(uint tokenId, uint price) private {\n    require(price > 0, \"Price must be at least 1 wei\");\n\n    _idToNftItem[tokenId] = NftItem(\n      tokenId,\n      price,\n      msg.sender,\n      msg.sender,\n      true\n    );\n\n    emit NftItemCreated(tokenId, price, msg.sender, msg.sender, true);\n\n  }\n\n  function _isOwnerCreator(uint tokenId) private view returns(bool) {\n     address owner = ERC721.ownerOf(tokenId);\n     return _idToNftItem[tokenId].creator == owner;\n  }\n\n  function _payTxFee(uint256 tokenId, uint256 royalty) internal {\n\n    address creator = payable(_idToNftItem[tokenId].creator); \n    payable(creator).transfer(royalty);\n\n  }\n\n  function _beforeTokenTransfer(\n    address from,\n    address to,\n    uint tokenId,\n    uint256 batchSize\n  ) internal virtual override {\n    super._beforeTokenTransfer(from, to, tokenId, batchSize);\n\n    if (from == address(0)) {\n      // MINTING CASE\n      _addTokenToAllTokensEnumeration(tokenId);\n    } else if (from != to) {\n      // TRANSFER CASE\n      _removeTokenFromOwnerEnumeration(from, tokenId);\n    }\n\n    if (to == address(0)) {\n      // BURNING CASE\n      _removeTokenFromAllTokensEnumeration(tokenId);\n    } else if (to != from) {\n      // TRANSFER CASE\n      _addTokenToOwnerEnumeration(to, tokenId);\n    }\n  }\n\n  function _addTokenToAllTokensEnumeration(uint tokenId) private {\n    _idToNftIndex[tokenId] = _allNfts.length;\n    _allNfts.push(tokenId);\n  }\n\n  function _addTokenToOwnerEnumeration(address to, uint tokenId) private {\n    uint length = ERC721.balanceOf(to);\n    _ownedTokens[to][length] = tokenId;\n    _idToOwnedIndex[tokenId] = length;\n  }\n\n  function _removeTokenFromOwnerEnumeration(address from, uint tokenId) private {\n    uint lastTokenIndex = ERC721.balanceOf(from) - 1;\n    uint tokenIndex = _idToOwnedIndex[tokenId];\n\n    if (tokenIndex != lastTokenIndex) {\n      uint lastTokenId = _ownedTokens[from][lastTokenIndex];\n\n      _ownedTokens[from][tokenIndex] = lastTokenId;\n      _idToOwnedIndex[lastTokenId] = tokenIndex;\n    }\n\n    delete _idToOwnedIndex[tokenId];\n    delete _ownedTokens[from][lastTokenIndex];\n  }\n\n  function _removeTokenFromAllTokensEnumeration(uint tokenId) private {\n    uint lastTokenIndex = _allNfts.length - 1;\n    uint tokenIndex = _idToNftIndex[tokenId];\n    uint lastTokenId = _allNfts[lastTokenIndex];\n\n    _allNfts[tokenIndex] = lastTokenId;\n    _idToNftIndex[lastTokenId] = tokenIndex;\n    _listedItems.decrement();\n\n    delete _idToNftIndex[tokenId];\n    _allNfts.pop();\n  }\n\n  function _daysToDate(uint256 _days) internal pure returns (uint256 year, uint256 month, uint256 day) {\n    unchecked {\n        int256 __days = int256(_days);\n\n        int256 L = __days + 68569 + OFFSET19700101;\n        int256 N = (4 * L) / 146097;\n        L = L - (146097 * N + 3) / 4;\n        int256 _year = (4000 * (L + 1)) / 1461001;\n        L = L - (1461 * _year) / 4 + 31;\n        int256 _month = (80 * L) / 2447;\n        int256 _day = L - (2447 * _month) / 80;\n        L = _month / 11;\n        _month = _month + 2 - 12 * L;\n        _year = 100 * (N - 49) + _year + L;\n\n        year = uint256(_year);\n        month = uint256(_month);\n        day = uint256(_day);\n        }\n    }\n\n}",
  "sourcePath": "/Users/alberto/Desktop/Enalbis/myCask/nft-marketplace-frontend/contracts/NftMarket.sol",
  "compiler": {
    "name": "solc",
    "version": "0.8.17+commit.8df45f5f.Emscripten.clang"
  },
  "schemaVersion": "3.4.11",
  "updatedAt": "2022-12-29T22:25:20.879Z",
  "networkType": "ethereum",
  "devdoc": {
    "kind": "dev",
    "methods": {
      "approve(address,uint256)": {
        "details": "See {IERC721-approve}."
      },
      "balanceOf(address)": {
        "details": "See {IERC721-balanceOf}."
      },
      "getApproved(uint256)": {
        "details": "See {IERC721-getApproved}."
      },
      "isApprovedForAll(address,address)": {
        "details": "See {IERC721-isApprovedForAll}."
      },
      "name()": {
        "details": "See {IERC721Metadata-name}."
      },
      "owner()": {
        "details": "Returns the address of the current owner."
      },
      "ownerOf(uint256)": {
        "details": "See {IERC721-ownerOf}."
      },
      "renounceOwnership()": {
        "details": "Leaves the contract without owner. It will not be possible to call `onlyOwner` functions anymore. Can only be called by the current owner. NOTE: Renouncing ownership will leave the contract without an owner, thereby removing any functionality that is only available to the owner."
      },
      "royaltyInfo(uint256,uint256)": {
        "details": "Returns how much royalty is owed and to whom, based on a sale price that may be denominated in any unit of exchange. The royalty amount is denominated and should be paid in that same unit of exchange."
      },
      "safeTransferFrom(address,address,uint256)": {
        "details": "See {IERC721-safeTransferFrom}."
      },
      "setApprovalForAll(address,bool)": {
        "details": "See {IERC721-setApprovalForAll}."
      },
      "symbol()": {
        "details": "See {IERC721Metadata-symbol}."
      },
      "tokenURI(uint256)": {
        "details": "See {IERC721Metadata-tokenURI}."
      },
      "transferFrom(address,address,uint256)": {
        "details": "See {IERC721-transferFrom}."
      },
      "transferOwnership(address)": {
        "details": "Transfers ownership of the contract to a new account (`newOwner`). Can only be called by the current owner."
      }
    },
    "version": 1
  },
  "userdoc": {
    "kind": "user",
    "methods": {},
    "version": 1
  }
}