{
  "contractName": "NftMarket",
  "abi": [
    {
      "inputs": [],
      "stateMutability": "nonpayable",
      "type": "constructor"
    },
    {
      "anonymous": false,
      "inputs": [
        {
          "indexed": true,
          "internalType": "address",
          "name": "owner",
          "type": "address"
        },
        {
          "indexed": true,
          "internalType": "address",
          "name": "approved",
          "type": "address"
        },
        {
          "indexed": true,
          "internalType": "uint256",
          "name": "tokenId",
          "type": "uint256"
        }
      ],
      "name": "Approval",
      "type": "event"
    },
    {
      "anonymous": false,
      "inputs": [
        {
          "indexed": true,
          "internalType": "address",
          "name": "owner",
          "type": "address"
        },
        {
          "indexed": true,
          "internalType": "address",
          "name": "operator",
          "type": "address"
        },
        {
          "indexed": false,
          "internalType": "bool",
          "name": "approved",
          "type": "bool"
        }
      ],
      "name": "ApprovalForAll",
      "type": "event"
    },
    {
      "anonymous": false,
      "inputs": [
        {
          "indexed": true,
          "internalType": "address",
          "name": "sender",
          "type": "address"
        },
        {
          "indexed": false,
          "internalType": "uint256",
          "name": "amount",
          "type": "uint256"
        }
      ],
      "name": "Bid",
      "type": "event"
    },
    {
      "anonymous": false,
      "inputs": [
        {
          "indexed": false,
          "internalType": "address",
          "name": "highestBidder",
          "type": "address"
        },
        {
          "indexed": false,
          "internalType": "uint256",
          "name": "highestBid",
          "type": "uint256"
        }
      ],
      "name": "End",
      "type": "event"
    },
    {
      "anonymous": false,
      "inputs": [
        {
          "indexed": false,
          "internalType": "address",
          "name": "owner",
          "type": "address"
        },
        {
          "indexed": false,
          "internalType": "uint256",
          "name": "tokenId",
          "type": "uint256"
        },
        {
          "indexed": false,
          "internalType": "uint256",
          "name": "value",
          "type": "uint256"
        },
        {
          "indexed": false,
          "internalType": "string",
          "name": "tokenURI",
          "type": "string"
        }
      ],
      "name": "Mint",
      "type": "event"
    },
    {
      "anonymous": false,
      "inputs": [
        {
          "indexed": false,
          "internalType": "uint256",
          "name": "tokenId",
          "type": "uint256"
        },
        {
          "indexed": false,
          "internalType": "uint256",
          "name": "price",
          "type": "uint256"
        },
        {
          "indexed": false,
          "internalType": "address",
          "name": "creator",
          "type": "address"
        },
        {
          "indexed": false,
          "internalType": "address",
          "name": "owner",
          "type": "address"
        },
        {
          "indexed": false,
          "internalType": "bool",
          "name": "isListed",
          "type": "bool"
        }
      ],
      "name": "NftItemCreated",
      "type": "event"
    },
    {
      "anonymous": false,
      "inputs": [
        {
          "indexed": true,
          "internalType": "address",
          "name": "previousOwner",
          "type": "address"
        },
        {
          "indexed": true,
          "internalType": "address",
          "name": "newOwner",
          "type": "address"
        }
      ],
      "name": "OwnershipTransferred",
      "type": "event"
    },
    {
      "anonymous": false,
      "inputs": [
        {
          "indexed": true,
          "internalType": "address",
          "name": "from",
          "type": "address"
        },
        {
          "indexed": true,
          "internalType": "address",
          "name": "to",
          "type": "address"
        },
        {
          "indexed": false,
          "internalType": "uint256",
          "name": "tokenId",
          "type": "uint256"
        },
        {
          "indexed": false,
          "internalType": "uint256",
          "name": "value",
          "type": "uint256"
        }
      ],
      "name": "Sale",
      "type": "event"
    },
    {
      "anonymous": false,
      "inputs": [],
      "name": "Start",
      "type": "event"
    },
    {
      "anonymous": false,
      "inputs": [
        {
          "indexed": true,
          "internalType": "address",
          "name": "from",
          "type": "address"
        },
        {
          "indexed": true,
          "internalType": "address",
          "name": "to",
          "type": "address"
        },
        {
          "indexed": true,
          "internalType": "uint256",
          "name": "tokenId",
          "type": "uint256"
        }
      ],
      "name": "Transfer",
      "type": "event"
    },
    {
      "anonymous": false,
      "inputs": [
        {
          "indexed": true,
          "internalType": "address",
          "name": "bidder",
          "type": "address"
        },
        {
          "indexed": false,
          "internalType": "uint256",
          "name": "amount",
          "type": "uint256"
        }
      ],
      "name": "Withdraw",
      "type": "event"
    },
    {
      "inputs": [],
      "name": "_minimumFee",
      "outputs": [
        {
          "internalType": "uint256",
          "name": "",
          "type": "uint256"
        }
      ],
      "stateMutability": "view",
      "type": "function",
      "constant": true
    },
    {
      "inputs": [
        {
          "internalType": "address",
          "name": "to",
          "type": "address"
        },
        {
          "internalType": "uint256",
          "name": "tokenId",
          "type": "uint256"
        }
      ],
      "name": "approve",
      "outputs": [],
      "stateMutability": "nonpayable",
      "type": "function"
    },
    {
      "inputs": [
        {
          "internalType": "address",
          "name": "owner",
          "type": "address"
        }
      ],
      "name": "balanceOf",
      "outputs": [
        {
          "internalType": "uint256",
          "name": "",
          "type": "uint256"
        }
      ],
      "stateMutability": "view",
      "type": "function",
      "constant": true
    },
    {
      "inputs": [],
      "name": "bottlePrice",
      "outputs": [
        {
          "internalType": "uint256",
          "name": "",
          "type": "uint256"
        }
      ],
      "stateMutability": "view",
      "type": "function",
      "constant": true
    },
    {
      "inputs": [
        {
          "internalType": "address",
          "name": "",
          "type": "address"
        }
      ],
      "name": "excludedList",
      "outputs": [
        {
          "internalType": "bool",
          "name": "",
          "type": "bool"
        }
      ],
      "stateMutability": "view",
      "type": "function",
      "constant": true
    },
    {
      "inputs": [
        {
          "internalType": "contract ERC20",
          "name": "",
          "type": "address"
        }
      ],
      "name": "fTokenAvailableShares",
      "outputs": [
        {
          "internalType": "uint256",
          "name": "",
          "type": "uint256"
        }
      ],
      "stateMutability": "view",
      "type": "function",
      "constant": true
    },
    {
      "inputs": [
        {
          "internalType": "uint256",
          "name": "tokenId",
          "type": "uint256"
        }
      ],
      "name": "getApproved",
      "outputs": [
        {
          "internalType": "address",
          "name": "",
          "type": "address"
        }
      ],
      "stateMutability": "view",
      "type": "function",
      "constant": true
    },
    {
      "inputs": [
        {
          "internalType": "uint256",
          "name": "",
          "type": "uint256"
        }
      ],
      "name": "idToShare",
      "outputs": [
        {
          "internalType": "contract ERC20",
          "name": "",
          "type": "address"
        }
      ],
      "stateMutability": "view",
      "type": "function",
      "constant": true
    },
    {
      "inputs": [
        {
          "internalType": "uint256",
          "name": "",
          "type": "uint256"
        }
      ],
      "name": "idToShareValue",
      "outputs": [
        {
          "internalType": "uint256",
          "name": "",
          "type": "uint256"
        }
      ],
      "stateMutability": "view",
      "type": "function",
      "constant": true
    },
    {
      "inputs": [
        {
          "internalType": "address",
          "name": "owner",
          "type": "address"
        },
        {
          "internalType": "address",
          "name": "operator",
          "type": "address"
        }
      ],
      "name": "isApprovedForAll",
      "outputs": [
        {
          "internalType": "bool",
          "name": "",
          "type": "bool"
        }
      ],
      "stateMutability": "view",
      "type": "function",
      "constant": true
    },
    {
      "inputs": [],
      "name": "listingPrice",
      "outputs": [
        {
          "internalType": "uint256",
          "name": "",
          "type": "uint256"
        }
      ],
      "stateMutability": "view",
      "type": "function",
      "constant": true
    },
    {
      "inputs": [],
      "name": "name",
      "outputs": [
        {
          "internalType": "string",
          "name": "",
          "type": "string"
        }
      ],
      "stateMutability": "view",
      "type": "function",
      "constant": true
    },
    {
      "inputs": [],
      "name": "owner",
      "outputs": [
        {
          "internalType": "address",
          "name": "",
          "type": "address"
        }
      ],
      "stateMutability": "view",
      "type": "function",
      "constant": true
    },
    {
      "inputs": [
        {
          "internalType": "uint256",
          "name": "tokenId",
          "type": "uint256"
        }
      ],
      "name": "ownerOf",
      "outputs": [
        {
          "internalType": "address",
          "name": "",
          "type": "address"
        }
      ],
      "stateMutability": "view",
      "type": "function",
      "constant": true
    },
    {
      "inputs": [],
      "name": "paused",
      "outputs": [
        {
          "internalType": "bool",
          "name": "",
          "type": "bool"
        }
      ],
      "stateMutability": "view",
      "type": "function",
      "constant": true
    },
    {
      "inputs": [],
      "name": "renounceOwnership",
      "outputs": [],
      "stateMutability": "nonpayable",
      "type": "function"
    },
    {
      "inputs": [
        {
          "internalType": "uint256",
          "name": "_tokenId",
          "type": "uint256"
        },
        {
          "internalType": "uint256",
          "name": "_salePrice",
          "type": "uint256"
        }
      ],
      "name": "royaltyInfo",
      "outputs": [
        {
          "internalType": "address",
          "name": "",
          "type": "address"
        },
        {
          "internalType": "uint256",
          "name": "",
          "type": "uint256"
        }
      ],
      "stateMutability": "view",
      "type": "function",
      "constant": true
    },
    {
      "inputs": [],
      "name": "symbol",
      "outputs": [
        {
          "internalType": "string",
          "name": "",
          "type": "string"
        }
      ],
      "stateMutability": "view",
      "type": "function",
      "constant": true
    },
    {
      "inputs": [
        {
          "internalType": "uint256",
          "name": "tokenId",
          "type": "uint256"
        }
      ],
      "name": "tokenURI",
      "outputs": [
        {
          "internalType": "string",
          "name": "",
          "type": "string"
        }
      ],
      "stateMutability": "view",
      "type": "function",
      "constant": true
    },
    {
      "inputs": [
        {
          "internalType": "address",
          "name": "newOwner",
          "type": "address"
        }
      ],
      "name": "transferOwnership",
      "outputs": [],
      "stateMutability": "nonpayable",
      "type": "function"
    },
    {
      "inputs": [],
      "name": "txFeeToken",
      "outputs": [
        {
          "internalType": "address",
          "name": "",
          "type": "address"
        }
      ],
      "stateMutability": "view",
      "type": "function",
      "constant": true
    },
    {
      "inputs": [
        {
          "internalType": "uint256",
          "name": "tokenId",
          "type": "uint256"
        }
      ],
      "name": "burn",
      "outputs": [],
      "stateMutability": "nonpayable",
      "type": "function"
    },
    {
      "inputs": [
        {
          "internalType": "string",
          "name": "tokenURI",
          "type": "string"
        },
        {
          "internalType": "uint256",
          "name": "price",
          "type": "uint256"
        },
        {
          "components": [
            {
              "internalType": "address",
              "name": "paytoken",
              "type": "address"
            },
            {
              "internalType": "uint256",
              "name": "costvalue",
              "type": "uint256"
            }
          ],
          "internalType": "struct NftMarket.ERC20Token[]",
          "name": "tokens",
          "type": "tuple[]"
        }
      ],
      "name": "mintNFT",
      "outputs": [
        {
          "internalType": "uint256",
          "name": "",
          "type": "uint256"
        }
      ],
      "stateMutability": "nonpayable",
      "type": "function"
    },
    {
      "inputs": [
        {
          "internalType": "uint256",
          "name": "tokenId",
          "type": "uint256"
        },
        {
          "internalType": "address",
          "name": "token",
          "type": "address"
        },
        {
          "internalType": "uint256",
          "name": "price",
          "type": "uint256"
        }
      ],
      "name": "addUpdateNFTERC20Price",
      "outputs": [],
      "stateMutability": "nonpayable",
      "type": "function"
    },
    {
      "inputs": [
        {
          "internalType": "uint256",
          "name": "tokenId",
          "type": "uint256"
        }
      ],
      "name": "buyNFT",
      "outputs": [],
      "stateMutability": "payable",
      "type": "function",
      "payable": true
    },
    {
      "inputs": [
        {
          "internalType": "uint256",
          "name": "_tokenId",
          "type": "uint256"
        },
        {
          "internalType": "address",
          "name": "_erc20Token",
          "type": "address"
        }
      ],
      "name": "buyNFTWithERC20",
      "outputs": [],
      "stateMutability": "nonpayable",
      "type": "function"
    },
    {
      "inputs": [
        {
          "internalType": "uint256",
          "name": "tokenId",
          "type": "uint256"
        },
        {
          "internalType": "uint256",
          "name": "year",
          "type": "uint256"
        }
      ],
      "name": "getTokenExtractionsByYear",
      "outputs": [
        {
          "internalType": "uint256",
          "name": "extractions",
          "type": "uint256"
        }
      ],
      "stateMutability": "view",
      "type": "function",
      "constant": true
    },
    {
      "inputs": [
        {
          "internalType": "uint256",
          "name": "tokenId",
          "type": "uint256"
        },
        {
          "internalType": "address",
          "name": "_erc20Token",
          "type": "address"
        }
      ],
      "name": "getNFTCost",
      "outputs": [
        {
          "internalType": "uint256",
          "name": "",
          "type": "uint256"
        }
      ],
      "stateMutability": "view",
      "type": "function",
      "constant": true
    },
    {
      "inputs": [],
      "name": "getAllNFTs",
      "outputs": [
        {
          "components": [
            {
              "internalType": "uint256",
              "name": "tokenId",
              "type": "uint256"
            },
            {
              "internalType": "uint256",
              "name": "price",
              "type": "uint256"
            },
            {
              "internalType": "address",
              "name": "creator",
              "type": "address"
            },
            {
              "internalType": "address",
              "name": "owner",
              "type": "address"
            },
            {
              "internalType": "bool",
              "name": "isLocked",
              "type": "bool"
            },
            {
              "internalType": "bool",
              "name": "isListed",
              "type": "bool"
            }
          ],
          "internalType": "struct NftMarket.NftItem[]",
          "name": "",
          "type": "tuple[]"
        }
      ],
      "stateMutability": "view",
      "type": "function",
      "constant": true
    },
    {
      "inputs": [],
      "name": "getAllLockedNfts",
      "outputs": [
        {
          "components": [
            {
              "internalType": "uint256",
              "name": "tokenId",
              "type": "uint256"
            },
            {
              "internalType": "uint256",
              "name": "price",
              "type": "uint256"
            },
            {
              "internalType": "address",
              "name": "creator",
              "type": "address"
            },
            {
              "internalType": "address",
              "name": "owner",
              "type": "address"
            },
            {
              "internalType": "bool",
              "name": "isLocked",
              "type": "bool"
            },
            {
              "internalType": "bool",
              "name": "isListed",
              "type": "bool"
            }
          ],
          "internalType": "struct NftMarket.NftItem[]",
          "name": "",
          "type": "tuple[]"
        }
      ],
      "stateMutability": "view",
      "type": "function",
      "constant": true
    },
    {
      "inputs": [],
      "name": "getAllNftsOnSale",
      "outputs": [
        {
          "components": [
            {
              "internalType": "uint256",
              "name": "tokenId",
              "type": "uint256"
            },
            {
              "internalType": "uint256",
              "name": "price",
              "type": "uint256"
            },
            {
              "internalType": "address",
              "name": "creator",
              "type": "address"
            },
            {
              "internalType": "address",
              "name": "owner",
              "type": "address"
            },
            {
              "internalType": "bool",
              "name": "isLocked",
              "type": "bool"
            },
            {
              "internalType": "bool",
              "name": "isListed",
              "type": "bool"
            }
          ],
          "internalType": "struct NftMarket.NftItem[]",
          "name": "",
          "type": "tuple[]"
        }
      ],
      "stateMutability": "view",
      "type": "function",
      "constant": true
    },
    {
      "inputs": [
        {
          "internalType": "address",
          "name": "operator",
          "type": "address"
        },
        {
          "internalType": "bool",
          "name": "approved",
          "type": "bool"
        }
      ],
      "name": "setApprovalForAll",
      "outputs": [],
      "stateMutability": "nonpayable",
      "type": "function"
    },
    {
      "inputs": [
        {
          "internalType": "address",
          "name": "vault",
          "type": "address"
        },
        {
          "internalType": "address",
          "name": "vaultToken",
          "type": "address"
        }
      ],
      "name": "setApprovalForAll",
      "outputs": [],
      "stateMutability": "nonpayable",
      "type": "function"
    },
    {
      "inputs": [],
      "name": "getOwnedNfts",
      "outputs": [
        {
          "components": [
            {
              "internalType": "uint256",
              "name": "tokenId",
              "type": "uint256"
            },
            {
              "internalType": "uint256",
              "name": "price",
              "type": "uint256"
            },
            {
              "internalType": "address",
              "name": "creator",
              "type": "address"
            },
            {
              "internalType": "address",
              "name": "owner",
              "type": "address"
            },
            {
              "internalType": "bool",
              "name": "isLocked",
              "type": "bool"
            },
            {
              "internalType": "bool",
              "name": "isListed",
              "type": "bool"
            }
          ],
          "internalType": "struct NftMarket.NftItem[]",
          "name": "",
          "type": "tuple[]"
        }
      ],
      "stateMutability": "view",
      "type": "function",
      "constant": true
    },
    {
      "inputs": [
        {
          "internalType": "uint256",
          "name": "tokenId",
          "type": "uint256"
        }
      ],
      "name": "getNftItem",
      "outputs": [
        {
          "components": [
            {
              "internalType": "uint256",
              "name": "tokenId",
              "type": "uint256"
            },
            {
              "internalType": "uint256",
              "name": "price",
              "type": "uint256"
            },
            {
              "internalType": "address",
              "name": "creator",
              "type": "address"
            },
            {
              "internalType": "address",
              "name": "owner",
              "type": "address"
            },
            {
              "internalType": "bool",
              "name": "isLocked",
              "type": "bool"
            },
            {
              "internalType": "bool",
              "name": "isListed",
              "type": "bool"
            }
          ],
          "internalType": "struct NftMarket.NftItem",
          "name": "",
          "type": "tuple"
        }
      ],
      "stateMutability": "view",
      "type": "function",
      "constant": true
    },
    {
      "inputs": [],
      "name": "getNftListedItemsCount",
      "outputs": [
        {
          "internalType": "uint256",
          "name": "",
          "type": "uint256"
        }
      ],
      "stateMutability": "view",
      "type": "function",
      "constant": true
    },
    {
      "inputs": [
        {
          "internalType": "uint256",
          "name": "numberOfBottles",
          "type": "uint256"
        },
        {
          "internalType": "uint256",
          "name": "tokenId",
          "type": "uint256"
        },
        {
          "internalType": "string",
          "name": "tokenURI",
          "type": "string"
        }
      ],
      "name": "orderBottle",
      "outputs": [],
      "stateMutability": "payable",
      "type": "function",
      "payable": true
    },
    {
      "inputs": [
        {
          "internalType": "uint256",
          "name": "newListingPrice",
          "type": "uint256"
        }
      ],
      "name": "setListingPrice",
      "outputs": [],
      "stateMutability": "nonpayable",
      "type": "function"
    },
    {
      "inputs": [
        {
          "internalType": "uint256",
          "name": "tokenId",
          "type": "uint256"
        },
        {
          "internalType": "uint256",
          "name": "newPrice",
          "type": "uint256"
        }
      ],
      "name": "placeNftOnSale",
      "outputs": [],
      "stateMutability": "nonpayable",
      "type": "function"
    },
    {
      "inputs": [],
      "name": "totalSupply",
      "outputs": [
        {
          "internalType": "uint256",
          "name": "",
          "type": "uint256"
        }
      ],
      "stateMutability": "view",
      "type": "function",
      "constant": true
    },
    {
      "inputs": [
        {
          "internalType": "uint256",
          "name": "index",
          "type": "uint256"
        }
      ],
      "name": "tokenByIndex",
      "outputs": [
        {
          "internalType": "uint256",
          "name": "",
          "type": "uint256"
        }
      ],
      "stateMutability": "view",
      "type": "function",
      "constant": true
    },
    {
      "inputs": [
        {
          "internalType": "address",
          "name": "owner",
          "type": "address"
        },
        {
          "internalType": "uint256",
          "name": "index",
          "type": "uint256"
        }
      ],
      "name": "tokenOfOwnerByIndex",
      "outputs": [
        {
          "internalType": "uint256",
          "name": "",
          "type": "uint256"
        }
      ],
      "stateMutability": "view",
      "type": "function",
      "constant": true
    },
    {
      "inputs": [
        {
          "internalType": "bytes4",
          "name": "interfaceId",
          "type": "bytes4"
        }
      ],
      "name": "supportsInterface",
      "outputs": [
        {
          "internalType": "bool",
          "name": "",
          "type": "bool"
        }
      ],
      "stateMutability": "view",
      "type": "function",
      "constant": true
    },
    {
      "inputs": [
        {
          "internalType": "string",
          "name": "tokenURI",
          "type": "string"
        }
      ],
      "name": "tokenURIExists",
      "outputs": [
        {
          "internalType": "bool",
          "name": "",
          "type": "bool"
        }
      ],
      "stateMutability": "view",
      "type": "function",
      "constant": true
    },
    {
      "inputs": [
        {
          "internalType": "uint256",
          "name": "tokenId",
          "type": "uint256"
        }
      ],
      "name": "getOwnerNFTAddress",
      "outputs": [
        {
          "internalType": "address",
          "name": "",
          "type": "address"
        }
      ],
      "stateMutability": "view",
      "type": "function",
      "constant": true
    },
    {
      "inputs": [
        {
          "internalType": "address",
          "name": "excluded",
          "type": "address"
        },
        {
          "internalType": "bool",
          "name": "status",
          "type": "bool"
        }
      ],
      "name": "setExcluded",
      "outputs": [],
      "stateMutability": "nonpayable",
      "type": "function"
    },
    {
      "inputs": [
        {
          "internalType": "address",
          "name": "from",
          "type": "address"
        },
        {
          "internalType": "address",
          "name": "to",
          "type": "address"
        },
        {
          "internalType": "uint256",
          "name": "tokenId",
          "type": "uint256"
        }
      ],
      "name": "transferFrom",
      "outputs": [],
      "stateMutability": "payable",
      "type": "function",
      "payable": true
    },
    {
      "inputs": [
        {
          "internalType": "address",
          "name": "from",
          "type": "address"
        },
        {
          "internalType": "address",
          "name": "to",
          "type": "address"
        },
        {
          "internalType": "uint256",
          "name": "tokenId",
          "type": "uint256"
        }
      ],
      "name": "safeTransferFrom",
      "outputs": [],
      "stateMutability": "payable",
      "type": "function",
      "payable": true
    },
    {
      "inputs": [
        {
          "internalType": "address",
          "name": "from",
          "type": "address"
        },
        {
          "internalType": "address",
          "name": "to",
          "type": "address"
        },
        {
          "internalType": "uint256",
          "name": "tokenId",
          "type": "uint256"
        },
        {
          "internalType": "bytes",
          "name": "_data",
          "type": "bytes"
        }
      ],
      "name": "safeTransferFrom",
      "outputs": [],
      "stateMutability": "payable",
      "type": "function",
      "payable": true
    },
    {
      "inputs": [
        {
          "internalType": "uint256",
          "name": "_tokenId",
          "type": "uint256"
        }
      ],
      "name": "getNftOffer",
      "outputs": [
        {
          "components": [
            {
              "internalType": "uint256",
              "name": "nftId",
              "type": "uint256"
            },
            {
              "internalType": "address",
              "name": "seller",
              "type": "address"
            },
            {
              "internalType": "uint256",
              "name": "lowerBid",
              "type": "uint256"
            },
            {
              "internalType": "uint256",
              "name": "highestBid",
              "type": "uint256"
            },
            {
              "internalType": "address",
              "name": "highestBidder",
              "type": "address"
            }
          ],
          "internalType": "struct NftMarket.Offer",
          "name": "",
          "type": "tuple"
        }
      ],
      "stateMutability": "view",
      "type": "function",
      "constant": true
    },
    {
      "inputs": [
        {
          "internalType": "uint256",
          "name": "_tokenId",
          "type": "uint256"
        }
      ],
      "name": "makeOffer",
      "outputs": [],
      "stateMutability": "payable",
      "type": "function",
      "payable": true
    },
    {
      "inputs": [
        {
          "internalType": "uint256",
          "name": "_tokenId",
          "type": "uint256"
        }
      ],
      "name": "acceptOffer",
      "outputs": [],
      "stateMutability": "payable",
      "type": "function",
      "payable": true
    },
    {
      "inputs": [
        {
          "internalType": "uint256",
          "name": "_tokenId",
          "type": "uint256"
        }
      ],
      "name": "getBidAddressesByTokenId",
      "outputs": [
        {
          "internalType": "address[]",
          "name": "",
          "type": "address[]"
        }
      ],
      "stateMutability": "view",
      "type": "function",
      "constant": true
    },
    {
      "inputs": [
        {
          "internalType": "uint256",
          "name": "_tokenId",
          "type": "uint256"
        }
      ],
      "name": "withdraw",
      "outputs": [
        {
          "internalType": "bool",
          "name": "",
          "type": "bool"
        }
      ],
      "stateMutability": "payable",
      "type": "function",
      "payable": true
    },
    {
      "inputs": [
        {
          "internalType": "uint256",
          "name": "_tokenId",
          "type": "uint256"
        },
        {
          "internalType": "address",
          "name": "bidder",
          "type": "address"
        }
      ],
      "name": "_removeOffer",
      "outputs": [],
      "stateMutability": "nonpayable",
      "type": "function"
    }
  ],
  "bytecode": "0x60806040526658d15e17628000600c55662e2f6e5e148000600d5566470de4df820000600e55600f805460ff191690553480156200003c57600080fd5b506040518060400160405280600881526020016710d85cdadcd3919560c21b8152506040518060400160405280600681526020016510d4d2d3919560d21b81525081600090816200008e9190620002da565b5060016200009d8282620002da565b5050600160095550620000b033620000de565b620000be336103e862000130565b336000908152601c60205260409020805460ff19166001179055620003a6565b600a80546001600160a01b038381166001600160a01b0319831681179093556040519116919082907f8be0079c531659141344cd1fd0a4f28419497f9722a3daafe3b4186f6b6457e090600090a35050565b6127106001600160601b0382161115620001a45760405162461bcd60e51b815260206004820152602a60248201527f455243323938313a20726f79616c7479206665652077696c6c206578636565646044820152692073616c65507269636560b01b60648201526084015b60405180910390fd5b6001600160a01b038216620001fc5760405162461bcd60e51b815260206004820152601960248201527f455243323938313a20696e76616c69642072656365697665720000000000000060448201526064016200019b565b604080518082019091526001600160a01b039092168083526001600160601b039091166020909201829052600160a01b90910217600755565b634e487b7160e01b600052604160045260246000fd5b600181811c908216806200026057607f821691505b6020821081036200028157634e487b7160e01b600052602260045260246000fd5b50919050565b601f821115620002d557600081815260208120601f850160051c81016020861015620002b05750805b601f850160051c820191505b81811015620002d157828155600101620002bc565b5050505b505050565b81516001600160401b03811115620002f657620002f662000235565b6200030e816200030784546200024b565b8462000287565b602080601f8311600181146200034657600084156200032d5750858301515b600019600386901b1c1916600185901b178555620002d1565b600085815260208120601f198616915b82811015620003775788860151825594840194600190910190840162000356565b5085821015620003965787850151600019600388901b60f8161c191681555b5050505050600190811b01905550565b614b7f80620003b66000396000f3fe6080604052600436106103505760003560e01c806370a08231116101c6578063bb0543b5116100f7578063e3e7414311610095578063f215823b1161006f578063f215823b14610a1e578063f2fde38b14610a56578063f470e16f14610a76578063f55a934014610aa357600080fd5b8063e3e741431461093c578063e985e9c514610969578063e9cf32a0146109b257600080fd5b8063c87b56dd116100d1578063c87b56dd146108b2578063c89b023e146108d2578063d772625b14610907578063e0391b091461092757600080fd5b8063bb0543b514610874578063c78f19f914610889578063c815729d1461089f57600080fd5b806395d89b41116101645780639a2f64741161013e5780639a2f64741461081b5780639e1758891461082e578063a22cb46514610841578063b88d4fde1461086157600080fd5b806395d89b41146107c65780639713a234146107db5780639989a5fb146107fb57600080fd5b806377c567a7116101a057806377c567a7146107535780637c726b691461077357806387fa79fe146107935780638da5cb5b146107a857600080fd5b806370a082311461070957806370cbcb4314610729578063715018a61461073e57600080fd5b80632e1a7d4d116102a057806343d32ae71161023e5780635600d2fa116102185780635600d2fa146106725780635c975abb146106a25780636352211e146106bc5780636f1a0af5146106dc57600080fd5b806343d32ae71461061f5780634f6ccce71461063f57806351ed82881461065f57600080fd5b80633d9215021161027a5780633d9215021461059357806340fb561c146105d657806342842e0e146105ec57806342966c68146105ff57600080fd5b80632e1a7d4d1461053e5780632f745c591461055157806336b536be1461057157600080fd5b8063203f12ce1161030d57806323c8be1a116102e757806323c8be1a1461049f5780632836be24146104bf5780632a4174c1146104df5780632a55205a146104ff57600080fd5b8063203f12ce1461045657806321f422e51461046c57806323b872dd1461048c57600080fd5b806301ffc9a71461035557806306fdde031461038a578063081812fc146103ac578063095ea7b3146103e45780630a5974941461040657806318160ddd14610441575b600080fd5b34801561036157600080fd5b5061037561037036600461413e565b610ac3565b60405190151581526020015b60405180910390f35b34801561039657600080fd5b5061039f610ad4565b60405161038191906141ab565b3480156103b857600080fd5b506103cc6103c73660046141be565b610b66565b6040516001600160a01b039091168152602001610381565b3480156103f057600080fd5b506104046103ff3660046141ec565b610b8d565b005b34801561041257600080fd5b506104336104213660046141be565b601f6020526000908152604090205481565b604051908152602001610381565b34801561044d57600080fd5b50602254610433565b34801561046257600080fd5b50610433600e5481565b34801561047857600080fd5b50610404610487366004614218565b610ca7565b61040461049a36600461423a565b610db5565b3480156104ab57600080fd5b506104046104ba36600461427b565b610fad565b3480156104cb57600080fd5b506104046104da3660046142b0565b610fdb565b3480156104eb57600080fd5b506103cc6104fa3660046141be565b61100e565b34801561050b57600080fd5b5061051f61051a366004614218565b611021565b604080516001600160a01b039093168352602083019190915201610381565b61037561054c3660046141be565b6110cd565b34801561055d57600080fd5b5061043361056c3660046141ec565b611347565b34801561057d57600080fd5b506105866113bf565b6040516103819190614335565b34801561059f57600080fd5b506104336105ae366004614383565b60009182526015602090815260408084206001600160a01b0393909316845291905290205490565b3480156105e257600080fd5b50610433600d5481565b6104046105fa36600461423a565b611517565b34801561060b57600080fd5b5061040461061a3660046141be565b6116bd565b34801561062b57600080fd5b5061037561063a36600461448d565b6116e2565b34801561064b57600080fd5b5061043361065a3660046141be565b611712565b61040461066d3660046141be565b611786565b34801561067e57600080fd5b5061037561068d3660046144c1565b601c6020526000908152604090205460ff1681565b3480156106ae57600080fd5b50600f546103759060ff1681565b3480156106c857600080fd5b506103cc6106d73660046141be565b6119a3565b3480156106e857600080fd5b506106fc6106f73660046141be565b611a03565b60405161038191906144de565b34801561071557600080fd5b506104336107243660046144c1565b611a80565b34801561073557600080fd5b50610586611b06565b34801561074a57600080fd5b50610404611c34565b34801561075f57600080fd5b50600b546103cc906001600160a01b031681565b34801561077f57600080fd5b5061040461078e3660046141be565b611c48565b34801561079f57600080fd5b50610586611ca5565b3480156107b457600080fd5b50600a546001600160a01b03166103cc565b3480156107d257600080fd5b5061039f611df5565b3480156107e757600080fd5b506104046107f6366004614383565b611e04565b34801561080757600080fd5b50610404610816366004614383565b611f4c565b6104046108293660046141be565b612248565b61040461083c3660046144ec565b6123bb565b34801561084d57600080fd5b5061040461085c3660046142b0565b6124c2565b61040461086f36600461453b565b6124cd565b34801561088057600080fd5b506104336126bc565b34801561089557600080fd5b50610433600c5481565b6104046108ad3660046141be565b6126cc565b3480156108be57600080fd5b5061039f6108cd3660046141be565b612822565b3480156108de57600080fd5b506103cc6108ed3660046141be565b60208052600090815260409020546001600160a01b031681565b34801561091357600080fd5b506104336109223660046145ba565b612932565b34801561093357600080fd5b50610586612ae4565b34801561094857600080fd5b5061095c6109573660046141be565b612c20565b60405161038191906146bb565b34801561097557600080fd5b506103756109843660046146fc565b6001600160a01b03918216600090815260056020908152604080832093909416825291909152205460ff1690565b3480156109be57600080fd5b506109d26109cd3660046141be565b612c8c565b6040516103819190815181526020808301516001600160a01b03908116918301919091526040808401519083015260608084015190830152608092830151169181019190915260a00190565b348015610a2a57600080fd5b50610433610a39366004614218565b600091825260176020908152604080842092845291905290205490565b348015610a6257600080fd5b50610404610a713660046144c1565b612ced565b348015610a8257600080fd5b50610433610a913660046144c1565b60216020526000908152604090205481565b348015610aaf57600080fd5b50610404610abe3660046146fc565b612d63565b6000610ace82612d81565b92915050565b606060008054610ae39061472a565b80601f0160208091040260200160405190810160405280929190818152602001828054610b0f9061472a565b8015610b5c5780601f10610b3157610100808354040283529160200191610b5c565b820191906000526020600020905b815481529060010190602001808311610b3f57829003601f168201915b5050505050905090565b6000610b7182612da6565b506000908152600460205260409020546001600160a01b031690565b6000610b98826119a3565b9050806001600160a01b0316836001600160a01b031603610c0a5760405162461bcd60e51b815260206004820152602160248201527f4552433732313a20617070726f76616c20746f2063757272656e74206f776e656044820152603960f91b60648201526084015b60405180910390fd5b336001600160a01b0382161480610c265750610c268133610984565b610c985760405162461bcd60e51b815260206004820152603d60248201527f4552433732313a20617070726f76652063616c6c6572206973206e6f7420746f60448201527f6b656e206f776e6572206f7220617070726f76656420666f7220616c6c0000006064820152608401610c01565b610ca28383612e05565b505050565b33610cb1836119a3565b6001600160a01b031614610d115760405162461bcd60e51b815260206004820152602160248201527f596f7520617265206e6f7420746865206f776e6572206f662074686973206e666044820152601d60fa1b6064820152608401610c01565b600082815260136020526040902060030154600160a81b900460ff1615610d7a5760405162461bcd60e51b815260206004820152601860248201527f4974656d7320697320616c7265616479206f6e2073616c6500000000000000006044820152606401610c01565b600082815260136020526040902060038101805460ff60a81b1916600160a81b179055600101819055610db1601180546001019055565b5050565b610dc0335b82612e73565b610ddc5760405162461bcd60e51b8152600401610c0190614764565b60003415610ef057610dee8234611021565b6001600160a01b0386166000908152601c602052604081205491935060ff909116151590039050610e8e57610e238282612ef1565b60006001600160a01b038416610e3983346147cb565b604051600081818185875af1925050503d8060008114610e75576040519150601f19603f3d011682016040523d82523d6000602084013e610e7a565b606091505b5050905080610e8857600080fd5b50610ef0565b6000836001600160a01b03163460405160006040518083038185875af1925050503d8060008114610edb576040519150601f19603f3d011682016040523d82523d6000602084013e610ee0565b606091505b5050905080610eee57600080fd5b505b600082815260136020526040902060030154600160a81b900460ff161515600103610f3c57610f1f6011612f68565b6000828152601360205260409020600301805460ff60a81b191690555b600082815260136020526040902060030180546001600160a01b0319166001600160a01b038516179055610f71848484612fbf565b604080518381523460208201526001600160a01b038086169290871691600080516020614b2a833981519152910160405180910390a350505050565b610fb5613130565b60009283526015602090815260408085206001600160a01b039094168552929052912055565b610fe3613130565b6001600160a01b03919091166000908152601c60205260409020805460ff1916911515919091179055565b60008061101a836119a3565b9392505050565b60008281526008602090815260408083208151808301909252546001600160a01b038116808352600160a01b9091046001600160601b03169282019290925282916110965750604080518082019091526007546001600160a01b0381168252600160a01b90046001600160601b031660208201525b6020810151600090612710906110b5906001600160601b0316876147de565b6110bf919061480b565b915196919550909350505050565b60008181526019602090815260408083203384529091528120546111455760405162461bcd60e51b815260206004820152602960248201527f596f75206d757374206861766520612062696420746f2062652061626c6520746044820152686f207769746472617760b81b6064820152608401610c01565b6000828152601960209081526040808320338085529252808320549051909283156108fc02918491818181858888f1935050505015801561118a573d6000803e3d6000fd5b506111958333611e04565b600083815260186020526040902060040154336001600160a01b039091160361133e576000838152601860205260408120600281015460038201556001810154600490910180546001600160a01b0319166001600160a01b039092169190911790555b6000848152601b602052604090205481101561133c5760008481526018602090815260408083206003015460198352818420601b9093529083208054919391859081106112475761124761482d565b60009182526020808320909101546001600160a01b03168352820192909252604001902054111561132a576000848152601960209081526040808320601b909252822080549192918490811061129f5761129f61482d565b60009182526020808320909101546001600160a01b031683528281019390935260409182018120548782526018845282822060030155601b90925290208054829081106112ee576112ee61482d565b60009182526020808320909101548683526018909152604090912060040180546001600160a01b0319166001600160a01b039092169190911790555b8061133481614843565b9150506111f8565b505b50600192915050565b600061135283611a80565b82106113965760405162461bcd60e51b8152602060048201526013602482015272496e646578206f7574206f6620626f756e647360681b6044820152606401610c01565b506001600160a01b03919091166000908152601660209081526040808320938352929052205490565b606060006113cc60225490565b90506000806113da60115490565b6001600160401b038111156113f1576113f16143a8565b60405190808252806020026020018201604052801561142a57816020015b611417614064565b81526020019060019003908161140f5790505b50905060005b8381101561150f57600061144382611712565b6000818152601360205260409020600381015491925090600160a81b900460ff1615156001036114fa576040805160c081018252825481526001830154602082015260028301546001600160a01b03908116928201929092526003830154918216606082015260ff600160a01b8304811615156080830152600160a81b909204909116151560a082015284518590879081106114e1576114e161482d565b60209081029190910101526114f760018661485c565b94505b5050808061150790614843565b915050611430565b509392505050565b6000341561162b576115298234611021565b6001600160a01b0386166000908152601c602052604081205491935060ff9091161515900390506115c95761155e8282612ef1565b60006001600160a01b03841661157483346147cb565b604051600081818185875af1925050503d80600081146115b0576040519150601f19603f3d011682016040523d82523d6000602084013e6115b5565b606091505b50509050806115c357600080fd5b5061162b565b6000836001600160a01b03163460405160006040518083038185875af1925050503d8060008114611616576040519150601f19603f3d011682016040523d82523d6000602084013e61161b565b606091505b505090508061162957600080fd5b505b600082815260136020526040902060030154600160a81b900460ff1615156001036116775761165a6011612f68565b6000828152601360205260409020600301805460ff60a81b191690555b600082815260136020908152604080832060030180546001600160a01b0319166001600160a01b03881617905580519182019052908152610f71908590859085906124cd565b6116c5613130565b6116ce8161318a565b600090815260086020526040812055565b50565b60006012826040516116f4919061486f565b9081526040519081900360200190205460ff16151560011492915050565b600061171d60225490565b82106117615760405162461bcd60e51b8152602060048201526013602482015272496e646578206f7574206f6620626f756e647360681b6044820152606401610c01565b602282815481106117745761177461482d565b90600052602060002001549050919050565b6000611791826119a3565b60008381526013602052604090206001810154600290910154919250906001600160a01b03908116908316330361180a5760405162461bcd60e51b815260206004820152601860248201527f596f7520616c7265616479206f776e2074686973204e465400000000000000006044820152606401610c01565b8134146118595760405162461bcd60e51b815260206004820152601e60248201527f506c65617365207375626d6974207468652061736b696e6720707269636500006044820152606401610c01565b60006118658584611021565b336000908152601c602052604090205490925060ff16159050801561189c5750816001600160a01b0316846001600160a01b031614155b156118f0576118ab8582612ef1565b6001600160a01b0384166108fc6118c283346147cb565b6040518115909202916000818181858888f193505050501580156118ea573d6000803e3d6000fd5b50611927565b6040516001600160a01b038516903480156108fc02916000818181858888f19350505050158015611925573d6000803e3d6000fd5b505b60008581526013602052604090206003018054600161ff0160a01b031916331790556119536011612f68565b61195e843387612fbf565b61196885336131ca565b6040805186815234602082015233916001600160a01b03871691600080516020614b2a83398151915291015b60405180910390a35050505050565b6000818152600260205260408120546001600160a01b031680610ace5760405162461bcd60e51b8152602060048201526018602482015277115490cdcc8c4e881a5b9d985b1a59081d1bdad95b88125160421b6044820152606401610c01565b611a0b614064565b50600090815260136020908152604091829020825160c0810184528154815260018201549281019290925260028101546001600160a01b039081169383019390935260030154918216606082015260ff600160a01b8304811615156080830152600160a81b909204909116151560a082015290565b60006001600160a01b038216611aea5760405162461bcd60e51b815260206004820152602960248201527f4552433732313a2061646472657373207a65726f206973206e6f7420612076616044820152683634b21037bbb732b960b91b6064820152608401610c01565b506001600160a01b031660009081526003602052604090205490565b60606000611b1333611a80565b90506000816001600160401b03811115611b2f57611b2f6143a8565b604051908082528060200260200182016040528015611b6857816020015b611b55614064565b815260200190600190039081611b4d5790505b50905060005b82811015611c2d576000611b823383611347565b600081815260136020908152604091829020825160c0810184528154815260018201549281019290925260028101546001600160a01b03908116938301939093526003810154928316606083015260ff600160a01b8404811615156080840152600160a81b909304909216151560a082015285519293509091859085908110611c0d57611c0d61482d565b602002602001018190525050508080611c2590614843565b915050611b6e565b5092915050565b611c3c613130565b611c466000613227565b565b611c50613130565b60008111611ca05760405162461bcd60e51b815260206004820152601c60248201527f5072696365206d757374206265206174206c65617374203120776569000000006044820152606401610c01565b600c55565b60606000611cb260225490565b9050600080611cc060115490565b6001600160401b03811115611cd757611cd76143a8565b604051908082528060200260200182016040528015611d1057816020015b611cfd614064565b815260200190600190039081611cf55790505b50905060005b8381101561150f576000611d2982611712565b6000818152601360205260409020600381015491925090600160a81b900460ff161515600103611de0576040805160c081018252825481526001830154602082015260028301546001600160a01b03908116928201929092526003830154918216606082015260ff600160a01b8304811615156080830152600160a81b909204909116151560a08201528451859087908110611dc757611dc761482d565b6020908102919091010152611ddd60018661485c565b94505b50508080611ded90614843565b915050611d16565b606060018054610ae39061472a565b60008281526019602090815260408083206001600160a01b038516808552908352818420849055858452601a8352818420908452825280832054858452601b909252822054909190611e58906001906147cb565b6000858152601b602052604081208054929350909183908110611e7d57611e7d61482d565b600091825260208083209190910154878352601a825260408084206001600160a01b039283168086529084528185208890559188168452808420849055888452601b90925291208054919250829185908110611edb57611edb61482d565b600091825260208083209190910180546001600160a01b0319166001600160a01b039490941693909317909255868152601b90915260409020805480611f2357611f2361488b565b600082815260209020810160001990810180546001600160a01b03191690550190555050505050565b806000611f58846119a3565b600085815260136020526040902060030154909150600160a81b900460ff161515600114611fc85760405162461bcd60e51b815260206004820152601b60248201527f546f6b656e206d757374206265206f6e2073616c6520666972737400000000006044820152606401610c01565b60008481526015602090815260408083206001600160a01b0387168452909152812054604051636eb1769f60e11b815233600482015230602482015290915081906001600160a01b0385169063dd62ed3e90604401602060405180830381865afa15801561203a573d6000803e3d6000fd5b505050506040513d601f19601f8201168201806040525081019061205e91906148a1565b10156120ac5760405162461bcd60e51b815260206004820152601760248201527f496e73756666696369656e7420616c6c6f77616e63652e0000000000000000006044820152606401610c01565b6040516370a0823160e01b815233600482015281906001600160a01b038516906370a0823190602401602060405180830381865afa1580156120f2573d6000803e3d6000fd5b505050506040513d601f19601f8201168201806040525081019061211691906148a1565b101561215c5760405162461bcd60e51b815260206004820152601560248201527424b739bab33334b1b4b2b73a103130b630b731b29760591b6044820152606401610c01565b6040516323b872dd60e01b81523360048201526001600160a01b038381166024830152604482018390528416906323b872dd906064016020604051808303816000875af11580156121b1573d6000803e3d6000fd5b505050506040513d601f19601f820116820180604052508101906121d591906148ba565b5060008581526013602052604090206003018054600161ff0160a01b031916331790556122026011612f68565b604080518681526020810183905233916001600160a01b03851691600080516020614b2a833981519152910160405180910390a3612241823387612fbf565b5050505050565b600081815260136020526040902060030154600160a81b900460ff16156122b15760405162461bcd60e51b815260206004820152601b60248201527f546865206e6674206973206c697374656420746f2062757920697400000000006044820152606401610c01565b600081815260186020526040902060030154341161230a5760405162461bcd60e51b81526020600482015260166024820152754f6666657220707269636520697320746f6f206c6f7760501b6044820152606401610c01565b612312614099565b61231b82612c8c565b600083815260196020908152604080832033845290915290205490915015612385576000828152601960209081526040808320338085529252808320549051909283156108fc02918491818181858888f19350505050158015612382573d6000803e3d6000fd5b50505b61238f8234613279565b5060009081526018602052604090206004810180546001600160a01b0319163317905534600390910155565b6000831161240b5760405162461bcd60e51b815260206004820152601a60248201527f596f752063616e6e6f74206f72646572203020626f74746c65730000000000006044820152606401610c01565b6000612416426132da565b6000848152601760209081526040808320848452825280832054878452601390925290912060020154600d5492935090916001600160a01b039091169081906108fc9061246390896147de565b6040518115909202916000818181858888f1935050505015801561248b573d6000803e3d6000fd5b50612496868361485c565b60008681526017602090815260408083208784529091529020556124ba85856132fa565b505050505050565b610db133838361338d565b6124d73383612e73565b6124f35760405162461bcd60e51b8152600401610c0190614764565b60003415612607576125058334611021565b6001600160a01b0387166000908152601c602052604081205491935060ff9091161515900390506125a55761253a8382612ef1565b60006001600160a01b03851661255083346147cb565b604051600081818185875af1925050503d806000811461258c576040519150601f19603f3d011682016040523d82523d6000602084013e612591565b606091505b505090508061259f57600080fd5b50612607565b6000846001600160a01b03163460405160006040518083038185875af1925050503d80600081146125f2576040519150601f19603f3d011682016040523d82523d6000602084013e6125f7565b606091505b505090508061260557600080fd5b505b600083815260136020526040902060030154600160a81b900460ff161515600103612653576126366011612f68565b6000838152601360205260409020600301805460ff60a81b191690555b600083815260136020526040902060030180546001600160a01b0319166001600160a01b0386161790556126898585858561345b565b604080518481523460208201526001600160a01b038087169290881691600080516020614b2a8339815191529101611994565b60006126c760115490565b905090565b6126d6338261348e565b6127225760405162461bcd60e51b815260206004820152601f60248201527f4f6e6c79206f776e65722063616e2061636365707420746865206f66666572006044820152606401610c01565b6000818152601860205260408120600181015460038201546004909201546001600160a01b03918216939116906127598584611021565b6001600160a01b0384166000908152601c602052604081205491935060ff90911615159003905061278e5761278e8582612ef1565b6001600160a01b0384166108fc6127a583866147cb565b6040518115909202916000818181858888f193505050501580156127cd573d6000803e3d6000fd5b506127d93383876134b4565b6127e38583611e04565b6127ed85836131ca565b5060009384526013602052604090932060030180546001600160a01b0319166001600160a01b03909416939093179092555050565b606061282d82612da6565b600082815260066020526040812080546128469061472a565b80601f01602080910402602001604051908101604052809291908181526020018280546128729061472a565b80156128bf5780601f10612894576101008083540402835291602001916128bf565b820191906000526020600020905b8154815290600101906020018083116128a257829003601f168201915b5050505050905060006128dd60408051602081019091526000815290565b905080516000036128ef575092915050565b8151156129215780826040516020016129099291906148d7565b60405160208183030381529060405292505050919050565b61292a8461352a565b949350505050565b600061293c613130565b612945846116e2565b156129925760405162461bcd60e51b815260206004820152601860248201527f546f6b656e2055524920616c72656164792065786973747300000000000000006044820152606401610c01565b6129a0601180546001019055565b6129ae601080546001019055565b60006129b960105490565b905060006129c6426132da565b90506129d2338361359d565b6129dc82876132fa565b6129e682866135b7565b60016012876040516129f8919061486f565b9081526040805160209281900383019020805460ff1916931515939093179092556000848152601782528281208482529091529081208190555b8451811015612a9257612a8083868381518110612a5157612a5161482d565b602002602001015160000151878481518110612a6f57612a6f61482d565b602002602001015160200151610fad565b80612a8a81614843565b915050612a32565b50612a9e828633613705565b7fcd0e00beb8e6d5ab96ee16e6a1a735ff07cae8702f2e48feb32fefe40f25692c33838789604051612ad39493929190614906565b60405180910390a150949350505050565b60606000612af160225490565b9050600080612aff60105490565b6001600160401b03811115612b1657612b166143a8565b604051908082528060200260200182016040528015612b4f57816020015b612b3c614064565b815260200190600190039081612b345790505b50905060005b8381101561150f576000612b6882611712565b600081815260136020908152604091829020825160c0810184528154815260018201549281019290925260028101546001600160a01b03908116938301939093526003810154928316606083015260ff600160a01b8404811615156080840152600160a81b909304909216151560a082015285519293509091859087908110612bf357612bf361482d565b6020908102919091010152612c0960018661485c565b945050508080612c1890614843565b915050612b55565b6000818152601b6020908152604091829020805483518184028101840190945280845260609392830182828015612c8057602002820191906000526020600020905b81546001600160a01b03168152600190910190602001808311612c62575b50505050509050919050565b612c94614099565b50600090815260186020908152604091829020825160a0810184528154815260018201546001600160a01b0390811693820193909352600282015493810193909352600381015460608401526004015416608082015290565b612cf5613130565b6001600160a01b038116612d5a5760405162461bcd60e51b815260206004820152602660248201527f4f776e61626c653a206e6577206f776e657220697320746865207a65726f206160448201526564647265737360d01b6064820152608401610c01565b6116df81613227565b612d6b613130565b612d768260016124c2565b610db18160016124c2565b60006001600160e01b0319821663152a902d60e11b1480610ace5750610ace826137ab565b6000818152600260205260409020546001600160a01b03166116df5760405162461bcd60e51b8152602060048201526018602482015277115490cdcc8c4e881a5b9d985b1a59081d1bdad95b88125160421b6044820152606401610c01565b600081815260046020526040902080546001600160a01b0319166001600160a01b0384169081179091558190612e3a826119a3565b6001600160a01b03167f8c5be1e5ebec7d5bd14f71427d1e84f3dd0314c0f7b2291e5b200ac8c7c3b92560405160405180910390a45050565b600080612e7f836119a3565b9050806001600160a01b0316846001600160a01b03161480612ec657506001600160a01b0380821660009081526005602090815260408083209388168352929052205460ff165b8061292a5750836001600160a01b0316612edf84610b66565b6001600160a01b031614949350505050565b6000828152601360205260408082206002015490516001600160a01b039091169190829084908381818185875af1925050503d8060008114612f4f576040519150601f19603f3d011682016040523d82523d6000602084013e612f54565b606091505b5050905080612f6257600080fd5b50505050565b805480612fb75760405162461bcd60e51b815260206004820152601b60248201527f436f756e7465723a2064656372656d656e74206f766572666c6f7700000000006044820152606401610c01565b600019019055565b826001600160a01b0316612fd2826119a3565b6001600160a01b031614612ff85760405162461bcd60e51b8152600401610c019061493d565b6001600160a01b03821661305a5760405162461bcd60e51b8152602060048201526024808201527f4552433732313a207472616e7366657220746f20746865207a65726f206164646044820152637265737360e01b6064820152608401610c01565b61306783838360016137fb565b826001600160a01b031661307a826119a3565b6001600160a01b0316146130a05760405162461bcd60e51b8152600401610c019061493d565b600081815260046020908152604080832080546001600160a01b03199081169091556001600160a01b0387811680865260038552838620805460001901905590871680865283862080546001019055868652600290945282852080549092168417909155905184937fddf252ad1be2c89b69c2b068fc378daa952ba7f163c4a11628f55a4df523b3ef91a4505050565b600a546001600160a01b03163314611c465760405162461bcd60e51b815260206004820181905260248201527f4f776e61626c653a2063616c6c6572206973206e6f7420746865206f776e65726044820152606401610c01565b613193816138c4565b600081815260066020526040902080546131ac9061472a565b1590506116df5760008181526006602052604081206116df916140da565b6131d4818361348e565b6131dd57600080fd5b600091825260186020526040909120600281015460038201556004810180546001600160a01b039093166001600160a01b0319938416811790915560019091018054909216179055565b600a80546001600160a01b038381166001600160a01b0319831681179093556040519116919082907f8be0079c531659141344cd1fd0a4f28419497f9722a3daafe3b4186f6b6457e090600090a35050565b60008281526019602090815260408083203380855290835281842094909455938252601b8082528483208054601a845286852086865284529584208690559082526001850181558252902090910180546001600160a01b0319169091179055565b60006132f16132ec620151808461480b565b613967565b50909392505050565b6000828152600260205260409020546001600160a01b03166133755760405162461bcd60e51b815260206004820152602e60248201527f45524337323155524953746f726167653a2055524920736574206f66206e6f6e60448201526d32bc34b9ba32b73a103a37b5b2b760911b6064820152608401610c01565b6000828152600660205260409020610ca282826149c8565b816001600160a01b0316836001600160a01b0316036133ee5760405162461bcd60e51b815260206004820152601960248201527f4552433732313a20617070726f766520746f2063616c6c6572000000000000006044820152606401610c01565b6001600160a01b03838116600081815260056020908152604080832094871680845294825291829020805460ff191686151590811790915591519182527f17307eab39ab6107e8899845ad3d59bd9653f200f220920489ca2b5937696c31910160405180910390a3505050565b613466848484612fbf565b61347284848484613a03565b612f625760405162461bcd60e51b8152600401610c0190614a87565b6000826001600160a01b03166134a3836119a3565b6001600160a01b0316149392505050565b6134bd33610dba565b61351f5760405162461bcd60e51b815260206004820152602d60248201527f4552433732313a2063616c6c6572206973206e6f7420746f6b656e206f776e6560448201526c1c881bdc88185c1c1c9bdd9959609a1b6064820152608401610c01565b610ca2838383612fbf565b606061353582612da6565b600061354c60408051602081019091526000815290565b9050600081511161356c576040518060200160405280600081525061101a565b8061357684613b04565b6040516020016135879291906148d7565b6040516020818303038152906040529392505050565b610db1828260405180602001604052806000815250613b96565b600081116136075760405162461bcd60e51b815260206004820152601c60248201527f5072696365206d757374206265206174206c65617374203120776569000000006044820152606401610c01565b6040805160c081018252838152602080820184815233838501818152606080860183815260006080808901828152600160a0808c018281528f865260138c52948d90209b518c5598518b820155955160028b0180546001600160a01b039283166001600160a01b031990911617905593516003909a018054915193511515600160a81b0260ff60a81b19941515600160a01b026001600160a81b03199093169b9095169a909a17179190911691909117909655865189815294850188905295840182905294830152918101929092527f23d5ab71cc0f91445504902f71f3b3c11f8bc3940cc6822c2329c1bd5662a409910160405180910390a15050565b61370f338461348e565b61371857600080fd5b6137228383613279565b6040805160a0810182528481526001600160a01b03838116602080840191825283850187815260608501888152336080870190815260008b81526018909452969092208551815592516001840180546001600160a01b03199081169287169290921790559051600284015590516003830155935160049091018054909416911617909155612f62565b60006001600160e01b031982166380ac58cd60e01b14806137dc57506001600160e01b03198216635b5e139f60e01b145b80610ace57506301ffc9a760e01b6001600160e01b0319831614610ace565b61380784848484613bc9565b6001600160a01b0384166138625761385d82602280546000838152601e60205260408120829055600182018355919091527f61035b26e3e9eee00e0d72fd1ee8ddca6894550dca6916ea2ac6baa90d11e5100155565b613885565b826001600160a01b0316846001600160a01b031614613885576138858483613c51565b6001600160a01b0383166138a15761389c82613cee565b612f62565b836001600160a01b0316836001600160a01b031614612f6257612f628383613daf565b60006138cf826119a3565b90506138df8160008460016137fb565b6138e8826119a3565b600083815260046020908152604080832080546001600160a01b03199081169091556001600160a01b0385168085526003845282852080546000190190558785526002909352818420805490911690555192935084927fddf252ad1be2c89b69c2b068fc378daa952ba7f163c4a11628f55a4df523b3ef908390a45050565b60008080836226496581018262023ab1600483020590506004600362023ab18302010590910390600062164b09610fa0600185010205905060046105b58202058303601f019250600061098f84605002816139c4576139c46147f5565b0590506000605061098f83020585039050600b820560301994909401606402929092018301996002600c90940290910392909201975095509350505050565b60006001600160a01b0384163b15613af957604051630a85bd0160e11b81526001600160a01b0385169063150b7a0290613a47903390899088908890600401614ad9565b6020604051808303816000875af1925050508015613a82575060408051601f3d908101601f19168201909252613a7f91810190614b0c565b60015b613adf573d808015613ab0576040519150601f19603f3d011682016040523d82523d6000602084013e613ab5565b606091505b508051600003613ad75760405162461bcd60e51b8152600401610c0190614a87565b805181602001fd5b6001600160e01b031916630a85bd0160e11b14905061292a565b506001949350505050565b60606000613b1183613df3565b60010190506000816001600160401b03811115613b3057613b306143a8565b6040519080825280601f01601f191660200182016040528015613b5a576020820181803683370190505b5090508181016020015b600019016f181899199a1a9b1b9c1cb0b131b232b360811b600a86061a8153600a8504945084613b6457509392505050565b613ba08383613ecb565b613bad6000848484613a03565b610ca25760405162461bcd60e51b8152600401610c0190614a87565b6001811115612f62576001600160a01b03841615613c0f576001600160a01b03841660009081526003602052604081208054839290613c099084906147cb565b90915550505b6001600160a01b03831615612f62576001600160a01b03831660009081526003602052604081208054839290613c4690849061485c565b909155505050505050565b60006001613c5e84611a80565b613c6891906147cb565b6000838152601d6020526040902054909150808214613cbb576001600160a01b03841660009081526016602090815260408083208584528252808320548484528184208190558352601d90915290208190555b506000918252601d602090815260408084208490556001600160a01b039094168352601681528383209183525290812055565b602254600090613d00906001906147cb565b6000838152601e602052604081205460228054939450909284908110613d2857613d2861482d565b906000526020600020015490508060228381548110613d4957613d4961482d565b6000918252602080832090910192909255828152601e90915260409020829055613d736011612f68565b6000848152601e60205260408120556022805480613d9357613d9361488b565b6001900381819060005260206000200160009055905550505050565b6000613dba83611a80565b6001600160a01b0390931660009081526016602090815260408083208684528252808320859055938252601d9052919091209190915550565b60008072184f03e93ff9f4daa797ed6e38ed64bf6a1f0160401b8310613e325772184f03e93ff9f4daa797ed6e38ed64bf6a1f0160401b830492506040015b6d04ee2d6d415b85acef81000000008310613e5e576d04ee2d6d415b85acef8100000000830492506020015b662386f26fc100008310613e7c57662386f26fc10000830492506010015b6305f5e1008310613e94576305f5e100830492506008015b6127108310613ea857612710830492506004015b60648310613eba576064830492506002015b600a8310610ace5760010192915050565b6001600160a01b038216613f215760405162461bcd60e51b815260206004820181905260248201527f4552433732313a206d696e7420746f20746865207a65726f20616464726573736044820152606401610c01565b6000818152600260205260409020546001600160a01b031615613f865760405162461bcd60e51b815260206004820152601c60248201527f4552433732313a20746f6b656e20616c7265616479206d696e746564000000006044820152606401610c01565b613f946000838360016137fb565b6000818152600260205260409020546001600160a01b031615613ff95760405162461bcd60e51b815260206004820152601c60248201527f4552433732313a20746f6b656e20616c7265616479206d696e746564000000006044820152606401610c01565b6001600160a01b038216600081815260036020908152604080832080546001019055848352600290915280822080546001600160a01b0319168417905551839291907fddf252ad1be2c89b69c2b068fc378daa952ba7f163c4a11628f55a4df523b3ef908290a45050565b6040805160c081018252600080825260208201819052918101829052606081018290526080810182905260a081019190915290565b6040518060a001604052806000815260200160006001600160a01b03168152602001600081526020016000815260200160006001600160a01b031681525090565b5080546140e69061472a565b6000825580601f106140f6575050565b601f0160209004906000526020600020908101906116df91905b808211156141245760008155600101614110565b5090565b6001600160e01b0319811681146116df57600080fd5b60006020828403121561415057600080fd5b813561101a81614128565b60005b8381101561417657818101518382015260200161415e565b50506000910152565b6000815180845261419781602086016020860161415b565b601f01601f19169290920160200192915050565b60208152600061101a602083018461417f565b6000602082840312156141d057600080fd5b5035919050565b6001600160a01b03811681146116df57600080fd5b600080604083850312156141ff57600080fd5b823561420a816141d7565b946020939093013593505050565b6000806040838503121561422b57600080fd5b50508035926020909101359150565b60008060006060848603121561424f57600080fd5b833561425a816141d7565b9250602084013561426a816141d7565b929592945050506040919091013590565b60008060006060848603121561429057600080fd5b83359250602084013561426a816141d7565b80151581146116df57600080fd5b600080604083850312156142c357600080fd5b82356142ce816141d7565b915060208301356142de816142a2565b809150509250929050565b8051825260208101516020830152604081015160018060a01b038082166040850152806060840151166060850152505060808101511515608083015260a0810151151560a08301525050565b6020808252825182820181905260009190848201906040850190845b81811015614377576143648385516142e9565b9284019260c09290920191600101614351565b50909695505050505050565b6000806040838503121561439657600080fd5b8235915060208301356142de816141d7565b634e487b7160e01b600052604160045260246000fd5b604080519081016001600160401b03811182821017156143e0576143e06143a8565b60405290565b604051601f8201601f191681016001600160401b038111828210171561440e5761440e6143a8565b604052919050565b60006001600160401b0383111561442f5761442f6143a8565b614442601f8401601f19166020016143e6565b905082815283838301111561445657600080fd5b828260208301376000602084830101529392505050565b600082601f83011261447e57600080fd5b61101a83833560208501614416565b60006020828403121561449f57600080fd5b81356001600160401b038111156144b557600080fd5b61292a8482850161446d565b6000602082840312156144d357600080fd5b813561101a816141d7565b60c08101610ace82846142e9565b60008060006060848603121561450157600080fd5b833592506020840135915060408401356001600160401b0381111561452557600080fd5b6145318682870161446d565b9150509250925092565b6000806000806080858703121561455157600080fd5b843561455c816141d7565b9350602085013561456c816141d7565b92506040850135915060608501356001600160401b0381111561458e57600080fd5b8501601f8101871361459f57600080fd5b6145ae87823560208401614416565b91505092959194509250565b6000806000606084860312156145cf57600080fd5b83356001600160401b03808211156145e657600080fd5b6145f28783880161446d565b9450602091508186013593506040808701358281111561461157600080fd5b8701601f8101891361462257600080fd5b803583811115614634576146346143a8565b614642858260051b016143e6565b818152858101945060069190911b82018501908a82111561466257600080fd5b918501915b818310156146ab5783838c03121561467f5760008081fd5b6146876143be565b8335614692816141d7565b8152838701358782015285529385019391830191614667565b8096505050505050509250925092565b6020808252825182820181905260009190848201906040850190845b818110156143775783516001600160a01b0316835292840192918401916001016146d7565b6000806040838503121561470f57600080fd5b823561471a816141d7565b915060208301356142de816141d7565b600181811c9082168061473e57607f821691505b60208210810361475e57634e487b7160e01b600052602260045260246000fd5b50919050565b60208082526031908201527f4552433732313a207472616e736665722063616c6c6572206973206e6f74206f6040820152701ddb995c881b9bdc88185c1c1c9bdd9959607a1b606082015260800190565b634e487b7160e01b600052601160045260246000fd5b81810381811115610ace57610ace6147b5565b8082028115828204841417610ace57610ace6147b5565b634e487b7160e01b600052601260045260246000fd5b60008261482857634e487b7160e01b600052601260045260246000fd5b500490565b634e487b7160e01b600052603260045260246000fd5b600060018201614855576148556147b5565b5060010190565b80820180821115610ace57610ace6147b5565b6000825161488181846020870161415b565b9190910192915050565b634e487b7160e01b600052603160045260246000fd5b6000602082840312156148b357600080fd5b5051919050565b6000602082840312156148cc57600080fd5b815161101a816142a2565b600083516148e981846020880161415b565b8351908301906148fd81836020880161415b565b01949350505050565b60018060a01b0385168152836020820152826040820152608060608201526000614933608083018461417f565b9695505050505050565b60208082526025908201527f4552433732313a207472616e736665722066726f6d20696e636f72726563742060408201526437bbb732b960d91b606082015260800190565b601f821115610ca257600081815260208120601f850160051c810160208610156149a95750805b601f850160051c820191505b818110156124ba578281556001016149b5565b81516001600160401b038111156149e1576149e16143a8565b6149f5816149ef845461472a565b84614982565b602080601f831160018114614a2a5760008415614a125750858301515b600019600386901b1c1916600185901b1785556124ba565b600085815260208120601f198616915b82811015614a5957888601518255948401946001909101908401614a3a565b5085821015614a775787850151600019600388901b60f8161c191681555b5050505050600190811b01905550565b60208082526032908201527f4552433732313a207472616e7366657220746f206e6f6e20455243373231526560408201527131b2b4bb32b91034b6b83632b6b2b73a32b960711b606082015260800190565b6001600160a01b03858116825284166020820152604081018390526080606082018190526000906149339083018461417f565b600060208284031215614b1e57600080fd5b815161101a8161412856fe681ddc67ea8796d2489979f5fc2ea2eb0f2d44ff3f11f061a191928a1f3d9a06a2646970667358221220a496de23b3d734cdebad4cb2692ad4a822c6dca58b69c84ac8882c0d6789a41164736f6c63430008110033",
  "immutableReferences": {},
  "source": "// SPDX-License-Identifier: MIT\npragma solidity >=0.4.22 <0.9.0;\n\nimport '@openzeppelin/contracts/token/common/ERC2981.sol';\nimport '@openzeppelin/contracts/token/ERC721/extensions/ERC721URIStorage.sol';\nimport '@openzeppelin/contracts/access/Ownable.sol';\nimport '@openzeppelin/contracts/utils/Counters.sol';\nimport '@openzeppelin/contracts/token/ERC20/IERC20.sol';\nimport '@openzeppelin/contracts/utils/math/SafeMath.sol';\nimport '@openzeppelin/contracts/token/ERC20/utils/SafeERC20.sol';\nimport '@openzeppelin/contracts/utils/math/SafeMath.sol';\nimport '@openzeppelin/contracts/security/ReentrancyGuard.sol';\nimport '@openzeppelin/contracts/token/ERC20/ERC20.sol';\n\nimport './NftFraction.sol';\n\ncontract NftMarket is ERC721URIStorage, ERC2981, ReentrancyGuard, Ownable {\n  using SafeMath for uint256;\n  using Counters for Counters.Counter;\n\n  struct ERC20Token {\n    address paytoken;\n    uint256 costvalue;\n  }\n\n  struct NftOffer {\n    uint256 date;\n    uint256 offer;\n    address from;\n  }\n\n  struct NftItem {\n    uint256 tokenId;\n    uint256 price;\n    address creator;\n    address owner;\n    bool isLocked;\n    bool isListed;\n  }\n\n  struct Offer {\n    // Current owner of NFT\n    uint256 nftId;\n    address seller;\n    uint lowerBid;\n    uint highestBid;\n    address highestBidder;\n  }\n\n  address public txFeeToken;\n  uint public listingPrice = 0.025 ether;\n  uint public bottlePrice = 0.013 ether;\n  uint public _minimumFee = 0.02 ether;\n  uint256 constant SECONDS_PER_DAY = 24 * 60 * 60;\n  int256 constant OFFSET19700101 = 2440588;\n  bool public paused = false;\n\n  Counters.Counter private _tokenIds;\n  Counters.Counter private _listedItems;\n\n  // TokenURI => Bool (Is used?)\n  mapping(string => bool) private _usedTokenURIs;\n  // NFT ID => NftItem\n  mapping(uint256 => NftItem) private _idToNftItem;\n  // NFT ID => NftOffers[]\n  mapping(uint256 => NftOffer[]) private _idToNftsOffers;\n  // NFT ID => ERC20 Address => Price in ERC20 Token\n  mapping(uint256 => mapping(address => uint256)) private _tokenIDpriceByErc20;\n  // Account address => NFT Id => Index\n  mapping(address => mapping(uint256 => uint256)) private _ownedTokens;\n  // NFT Id => Year => Extractions\n  mapping(uint256 => mapping(uint256 => uint256))\n    private _tokensExtractionsByYear;\n  // Map from token ID to their corresponding auction.\n  mapping(uint256 => Offer) tokenIdToOffer;\n  // NFT Id => Account Address => Bid\n  mapping(uint256 => mapping(address => uint256)) offerBidsFromTokenId;\n  // NFT Id => Account Address => Index\n  mapping(uint256 => mapping(address => uint256)) indexOfofferBidsFromAddress;\n  // NFT Id => Address[]\n  mapping(uint256 => address[]) addressesFromTokenId;\n  // Address => Booelan\n  mapping(address => bool) public excludedList;\n  // NFT id => ERC20 share\n  mapping(uint256 => uint256) private _idToOwnedIndex;\n  // NFT id => Index\n  mapping(uint256 => uint256) private _idToNftIndex;\n\n  // SHARES\n\n  // NFT ID => share value\n  mapping(uint256 => uint256) public idToShareValue;\n  // NFT id => ERC20 share\n  mapping(uint256 => ERC20) public idToShare;\n  // ERC20 ==> uint256\n  mapping(ERC20 => uint256) public fTokenAvailableShares;\n\n  uint256[] private _allNfts;\n\n  event Mint(address owner, uint256 tokenId, uint256 value, string tokenURI);\n  event Sale(\n    address indexed from,\n    address indexed to,\n    uint256 tokenId,\n    uint256 value\n  );\n\n  event Start();\n  event End(address highestBidder, uint highestBid);\n  event Bid(address indexed sender, uint amount);\n  event Withdraw(address indexed bidder, uint amount);\n\n  event NftItemCreated(\n    uint256 tokenId,\n    uint256 price,\n    address creator,\n    address owner,\n    bool isListed\n  );\n\n  constructor() ERC721('CasksNFT', 'CSKNFT') {\n    _setDefaultRoyalty(msg.sender, 1000);\n    excludedList[msg.sender] = true;\n  }\n\n  function burn(uint256 tokenId) public onlyOwner {\n    super._burn(tokenId);\n    _resetTokenRoyalty(tokenId);\n  }\n\n  function mintNFT(\n    string memory tokenURI,\n    uint256 price,\n    ERC20Token[] memory tokens\n  ) public onlyOwner returns (uint256) {\n    require(!tokenURIExists(tokenURI), 'Token URI already exists');\n\n    _listedItems.increment();\n    _tokenIds.increment();\n\n    uint256 newItemId = _tokenIds.current();\n    uint256 year = getYear(block.timestamp);\n\n    _safeMint(msg.sender, newItemId);\n\n    _setTokenURI(newItemId, tokenURI);\n    _createNftItem(newItemId, price);\n    _usedTokenURIs[tokenURI] = true;\n    _tokensExtractionsByYear[newItemId][year] = 0;\n\n    for (uint i = 0; i < tokens.length; i++) {\n      addUpdateNFTERC20Price(\n        newItemId,\n        tokens[i].paytoken,\n        tokens[i].costvalue\n      );\n    }\n\n    _createNftOffer(newItemId, price, msg.sender);\n\n    emit Mint(msg.sender, newItemId, price, tokenURI);\n\n    return newItemId;\n  }\n\n  // function getBalanceOfUserShares(\n  //   address from,\n  //   uint256 _tokenId\n  // ) public view returns (uint256 shares) {\n  //   ERC20 fToken = idToShare[_tokenId];\n  //   return fToken.balanceOf(from);\n  // }\n\n  // function getAvailableFractionalizedSharesByTokenId(\n  //   uint256 _tokenId\n  // ) public view returns (uint256 shares) {\n  //   ERC20 fToken = idToShare[_tokenId];\n  //   return fTokenAvailableShares[fToken];\n  // }\n\n  // function getFractionalizedSharesByTokenId(\n  //   uint256 _tokenId\n  // ) public view returns (uint256 shares) {\n  //   ERC20 fToken = idToShare[_tokenId];\n  //   return fToken.totalSupply();\n  // }\n\n  // function getERC20FractionalizeAddress(\n  //   uint256 _tokenId\n  // ) public view returns (ERC20 ftoken) {\n  //   return idToShare[_tokenId];\n  // }\n\n  // // lock NFT in fractional contract\n  // function lockNFT(uint256 _tokenID, uint256 _sharesAmount) public {\n  //   // transfer NFT to contract\n  //   transferFrom(msg.sender, address(this), _tokenID);\n\n  //   // mint & transfer ERC20 to contract\n  //   // set name of new token\n  //   string memory tokenID = Strings.toString(_tokenID);\n  //   string memory _tokenName = 'FractionCaskNFT';\n  //   string memory tokenName = string(abi.encodePacked(_tokenName, tokenID));\n\n  //   // set symbol of new token\n  //   string memory _tokenSymbol = 'FCNFT';\n  //   string memory tokenSymbol = string(abi.encodePacked(_tokenSymbol, tokenID));\n\n  //   // create new token\n  //   ERC20 fToken = new NftFraction(tokenName, tokenSymbol, _sharesAmount);\n\n  //   // transfer tokens to this contract address\n  //   fToken.transfer(address(this), _sharesAmount);\n  //   // update mapping\n  //   idToShare[_tokenID] = fToken;\n  //   fTokenAvailableShares[fToken] = _sharesAmount;\n  //   // update share valueusing SafeMath for uint256;\n  //   uint256 _price = _idToNftItem[_tokenID].price;\n  //   _idToNftItem[_tokenID].isLocked = true;\n  //   idToShareValue[_tokenID] = _price.div(_sharesAmount);\n  // }\n\n  // function buyFractionalShares(\n  //   uint256 _tokenID,\n  //   uint256 _totalShares\n  // ) public payable {\n  //   require(msg.value > 0, 'Insufficient funds');\n  //   require(_totalShares > 0, 'Insufficient shares');\n  //   require(\n  //     msg.value >= idToShareValue[_tokenID].mul(_totalShares),\n  //     'Insufficient funds'\n  //   );\n\n  //   require(\n  //     _totalShares <= fTokenAvailableShares[idToShare[_tokenID]],\n  //     'Insuffiecient shares'\n  //   );\n\n  //   // user sends ETH to owner\n  //   address payable nftCreator = payable(_idToNftItem[_tokenID].creator);\n  //   uint256 _amount = idToShareValue[_tokenID].mul(_totalShares);\n  //   nftCreator.transfer(_amount);\n\n  //   ERC20 fToken = idToShare[_tokenID];\n\n  //   fTokenAvailableShares[fToken] =\n  //     fTokenAvailableShares[fToken] -\n  //     _totalShares;\n\n  //   fToken.transfer(msg.sender, _totalShares);\n  // }\n\n  function addUpdateNFTERC20Price(\n    uint256 tokenId,\n    address token,\n    uint256 price\n  ) public onlyOwner {\n    _tokenIDpriceByErc20[tokenId][token] = price;\n  }\n\n  function buyNFT(uint256 tokenId) public payable {\n    address owner = ERC721.ownerOf(tokenId);\n    uint256 price = _idToNftItem[tokenId].price;\n    address creator = _idToNftItem[tokenId].creator;\n\n    require(msg.sender != owner, 'You already own this NFT');\n    require(msg.value == price, 'Please submit the asking price');\n\n    (, uint256 royaltyAmount) = royaltyInfo(tokenId, price);\n\n    if (excludedList[msg.sender] == false && owner != creator) {\n      _payTxFee(tokenId, royaltyAmount);\n      payable(owner).transfer(msg.value - royaltyAmount);\n    } else {\n      payable(owner).transfer(msg.value);\n    }\n\n    _idToNftItem[tokenId].isListed = false;\n    _idToNftItem[tokenId].owner = msg.sender;\n\n    _listedItems.decrement();\n\n    _transfer(owner, msg.sender, tokenId);\n    _updateOfferWithNewBuyer(tokenId, msg.sender);\n\n    emit Sale(owner, msg.sender, tokenId, msg.value);\n  }\n\n  function buyNFTWithERC20(uint256 _tokenId, address _erc20Token) public {\n    IERC20 token = IERC20(_erc20Token);\n    address owner = ERC721.ownerOf(_tokenId);\n    require(\n      _idToNftItem[_tokenId].isListed == true,\n      'Token must be on sale first'\n    );\n    uint256 nftPrice = getNFTCost(_tokenId, _erc20Token);\n    require(\n      token.allowance(msg.sender, address(this)) >= nftPrice,\n      'Insufficient allowance.'\n    );\n    require(token.balanceOf(msg.sender) >= nftPrice, 'Insufficient balance.');\n\n    token.transferFrom(msg.sender, owner, nftPrice);\n    // transfer the nft to buyer as well... I've not implemented that\n    _idToNftItem[_tokenId].isListed = false;\n    _idToNftItem[_tokenId].owner = msg.sender;\n    _listedItems.decrement();\n\n    emit Sale(owner, msg.sender, _tokenId, nftPrice);\n\n    _transfer(owner, msg.sender, _tokenId);\n  }\n\n  function getTokenExtractionsByYear(\n    uint256 tokenId,\n    uint256 year\n  ) public view returns (uint256 extractions) {\n    return _tokensExtractionsByYear[tokenId][year];\n  }\n\n  function getNFTCost(\n    uint256 tokenId,\n    address _erc20Token\n  ) public view virtual returns (uint256) {\n    uint256 cost;\n    cost = _tokenIDpriceByErc20[tokenId][_erc20Token];\n    return cost;\n  }\n\n  function getAllNFTs() external view returns (NftItem[] memory) {\n    uint allItemsCounts = totalSupply();\n    uint currentIndex = 0;\n    NftItem[] memory items = new NftItem[](_tokenIds.current());\n\n    for (uint i = 0; i < allItemsCounts; i++) {\n      uint tokenId = tokenByIndex(i);\n      NftItem storage item = _idToNftItem[tokenId];\n      items[currentIndex] = item;\n      currentIndex += 1;\n    }\n\n    return items;\n  }\n\n  function getAllLockedNfts() external view returns (NftItem[] memory) {\n    uint allItemsCounts = totalSupply();\n    uint currentIndex = 0;\n    NftItem[] memory items = new NftItem[](_listedItems.current());\n\n    for (uint i = 0; i < allItemsCounts; i++) {\n      uint tokenId = tokenByIndex(i);\n      NftItem storage item = _idToNftItem[tokenId];\n\n      if (item.isListed == true) {\n        items[currentIndex] = item;\n        currentIndex += 1;\n      }\n    }\n\n    return items;\n  }\n\n  function getAllNftsOnSale() external view returns (NftItem[] memory) {\n    uint allItemsCounts = totalSupply();\n    uint currentIndex = 0;\n    NftItem[] memory items = new NftItem[](_listedItems.current());\n\n    for (uint i = 0; i < allItemsCounts; i++) {\n      uint tokenId = tokenByIndex(i);\n      NftItem storage item = _idToNftItem[tokenId];\n\n      if (item.isListed == true) {\n        items[currentIndex] = item;\n        currentIndex += 1;\n      }\n    }\n\n    return items;\n  }\n\n  function setApprovalForAll(\n    address vault,\n    address vaultToken\n  ) public onlyOwner {\n    setApprovalForAll(vault, true);\n    setApprovalForAll(vaultToken, true);\n  }\n\n  function getOwnedNfts() public view returns (NftItem[] memory) {\n    uint ownedItemsCount = ERC721.balanceOf(msg.sender);\n    NftItem[] memory items = new NftItem[](ownedItemsCount);\n\n    for (uint i = 0; i < ownedItemsCount; i++) {\n      uint tokenId = tokenOfOwnerByIndex(msg.sender, i);\n      NftItem storage item = _idToNftItem[tokenId];\n      items[i] = item;\n    }\n\n    return items;\n  }\n\n  function getNftItem(uint tokenId) public view returns (NftItem memory) {\n    return _idToNftItem[tokenId];\n  }\n\n  function getNftListedItemsCount() public view returns (uint) {\n    return _listedItems.current();\n  }\n\n  function orderBottle(\n    uint256 numberOfBottles,\n    uint256 tokenId,\n    string memory tokenURI\n  ) public payable {\n    require(numberOfBottles > 0, 'You cannot order 0 bottles');\n\n    uint256 year = getYear(block.timestamp);\n    uint256 yearExtractedBottles = _tokensExtractionsByYear[tokenId][year];\n    address creator = payable(_idToNftItem[tokenId].creator);\n\n    payable(creator).transfer(numberOfBottles * bottlePrice);\n\n    _tokensExtractionsByYear[tokenId][year] =\n      yearExtractedBottles +\n      numberOfBottles;\n\n    _setTokenURI(tokenId, tokenURI);\n  }\n\n  function setListingPrice(uint256 newListingPrice) external onlyOwner {\n    require(newListingPrice > 0, 'Price must be at least 1 wei');\n    listingPrice = newListingPrice;\n  }\n\n  function placeNftOnSale(uint256 tokenId, uint256 newPrice) public {\n    require(\n      ERC721.ownerOf(tokenId) == msg.sender,\n      'You are not the owner of this nft'\n    );\n    require(\n      _idToNftItem[tokenId].isListed == false,\n      'Items is already on sale'\n    );\n\n    _idToNftItem[tokenId].isListed = true;\n    _idToNftItem[tokenId].price = newPrice;\n    _listedItems.increment();\n  }\n\n  function totalSupply() public view returns (uint256) {\n    return _allNfts.length;\n  }\n\n  function tokenByIndex(uint index) public view returns (uint) {\n    require(index < totalSupply(), 'Index out of bounds');\n    return _allNfts[index];\n  }\n\n  function tokenOfOwnerByIndex(\n    address owner,\n    uint index\n  ) public view returns (uint) {\n    require(index < ERC721.balanceOf(owner), 'Index out of bounds');\n    return _ownedTokens[owner][index];\n  }\n\n  function supportsInterface(\n    bytes4 interfaceId\n  ) public view virtual override(ERC721, ERC2981) returns (bool) {\n    return super.supportsInterface(interfaceId);\n  }\n\n  function tokenURIExists(string memory tokenURI) public view returns (bool) {\n    return _usedTokenURIs[tokenURI] == true;\n  }\n\n  function getYear(uint256 timestamp) internal pure returns (uint256 year) {\n    (year, , ) = _daysToDate(timestamp / SECONDS_PER_DAY);\n  }\n\n  function getOwnerNFTAddress(uint256 tokenId) public view returns (address) {\n    address owner = ERC721.ownerOf(tokenId);\n    return owner;\n  }\n\n  function setExcluded(address excluded, bool status) external onlyOwner {\n    excludedList[excluded] = status;\n  }\n\n  function transferFrom(\n    address from,\n    address to,\n    uint256 tokenId\n  ) public payable override {\n    require(\n      _isApprovedOrOwner(_msgSender(), tokenId),\n      'ERC721: transfer caller is not owner nor approved'\n    );\n\n    uint256 royalty;\n\n    if (msg.value > 0) {\n      (, royalty) = royaltyInfo(tokenId, msg.value);\n\n      if (excludedList[from] == false) {\n        _payTxFee(tokenId, royalty);\n        (bool successPayWithRoyalty, ) = payable(to).call{\n          value: msg.value - royalty\n        }('');\n        require(successPayWithRoyalty);\n      } else {\n        (bool successPayWithoutRoyalty, ) = payable(to).call{value: msg.value}(\n          ''\n        );\n        require(successPayWithoutRoyalty);\n      }\n    }\n\n    if (_idToNftItem[tokenId].isListed == true) {\n      _listedItems.decrement();\n      _idToNftItem[tokenId].isListed = false;\n    }\n\n    _idToNftItem[tokenId].owner = to;\n\n    _transfer(from, to, tokenId);\n\n    emit Sale(from, to, tokenId, msg.value);\n  }\n\n  function safeTransferFrom(\n    address from,\n    address to,\n    uint256 tokenId\n  ) public payable override {\n    uint256 royalty;\n\n    if (msg.value > 0) {\n      (, royalty) = royaltyInfo(tokenId, msg.value);\n\n      if (excludedList[from] == false) {\n        _payTxFee(tokenId, royalty);\n        (bool successPayWithRoyalty, ) = payable(to).call{\n          value: msg.value - royalty\n        }('');\n        require(successPayWithRoyalty);\n      } else {\n        (bool successPayWithoutRoyalty, ) = payable(to).call{value: msg.value}(\n          ''\n        );\n        require(successPayWithoutRoyalty);\n      }\n    }\n\n    if (_idToNftItem[tokenId].isListed == true) {\n      _listedItems.decrement();\n      _idToNftItem[tokenId].isListed = false;\n    }\n\n    _idToNftItem[tokenId].owner = to;\n\n    safeTransferFrom(from, to, tokenId, '');\n\n    emit Sale(from, to, tokenId, msg.value);\n  }\n\n  function safeTransferFrom(\n    address from,\n    address to,\n    uint256 tokenId,\n    bytes memory _data\n  ) public payable override {\n    require(\n      _isApprovedOrOwner(_msgSender(), tokenId),\n      'ERC721: transfer caller is not owner nor approved'\n    );\n\n    uint256 royalty;\n\n    if (msg.value > 0) {\n      (, royalty) = royaltyInfo(tokenId, msg.value);\n\n      if (excludedList[from] == false) {\n        _payTxFee(tokenId, royalty);\n        (bool successPayWithRoyalty, ) = payable(to).call{\n          value: msg.value - royalty\n        }('');\n        require(successPayWithRoyalty);\n      } else {\n        (bool successPayWithoutRoyalty, ) = payable(to).call{value: msg.value}(\n          ''\n        );\n        require(successPayWithoutRoyalty);\n      }\n    }\n\n    if (_idToNftItem[tokenId].isListed == true) {\n      _listedItems.decrement();\n      _idToNftItem[tokenId].isListed = false;\n    }\n\n    _idToNftItem[tokenId].owner = to;\n    _safeTransfer(from, to, tokenId, _data);\n\n    emit Sale(from, to, tokenId, msg.value);\n  }\n\n  function getNftOffer(uint256 _tokenId) public view returns (Offer memory) {\n    Offer memory offer = tokenIdToOffer[_tokenId];\n    return offer;\n  }\n\n  function makeOffer(uint256 _tokenId) public payable {\n    // Ensure that the buyer is making a valid offer\n    require(\n      _idToNftItem[_tokenId].isListed == false,\n      'The nft is listed to buy it'\n    );\n    require(\n      msg.value > tokenIdToOffer[_tokenId].highestBid,\n      'Offer price is too low'\n    );\n\n    Offer memory offer;\n\n    offer = getNftOffer(_tokenId);\n\n    if (offerBidsFromTokenId[_tokenId][msg.sender] > 0) {\n      uint amount = offerBidsFromTokenId[_tokenId][msg.sender];\n      payable(msg.sender).transfer(amount);\n    }\n\n    // Save the offer details\n    _setOffer(_tokenId, msg.value);\n    tokenIdToOffer[_tokenId].highestBidder = msg.sender;\n    tokenIdToOffer[_tokenId].highestBid = msg.value;\n  }\n\n  function _updateOfferWithNewBuyer(uint256 _tokenId, address buyer) private {\n    require(_owns(buyer, _tokenId));\n    tokenIdToOffer[_tokenId].highestBid = tokenIdToOffer[_tokenId].lowerBid;\n    tokenIdToOffer[_tokenId].highestBidder = buyer;\n    tokenIdToOffer[_tokenId].seller = buyer;\n  }\n\n  function _createNftOffer(\n    uint256 _tokenId,\n    uint256 _nftPrice,\n    address _seller\n  ) private {\n    // Sanity check that no inputs overflow how many bits we've allocated\n    // to store them in the auction struct.\n    require(_owns(msg.sender, _tokenId));\n\n    _setOffer(_tokenId, _nftPrice);\n\n    Offer memory offer = Offer(\n      _tokenId,\n      _seller,\n      _nftPrice,\n      _nftPrice,\n      msg.sender\n    );\n\n    _addAuction(_tokenId, offer);\n  }\n\n  function acceptOffer(uint256 _tokenId) public payable {\n    require(_owns(msg.sender, _tokenId), 'Only owner can accept the offer');\n    address payable seller = payable(tokenIdToOffer[_tokenId].seller);\n    uint256 highestBid = tokenIdToOffer[_tokenId].highestBid;\n    address highestBidder = tokenIdToOffer[_tokenId].highestBidder;\n    uint256 royalty;\n\n    (, royalty) = royaltyInfo(_tokenId, highestBid);\n\n    if (excludedList[highestBidder] == false) {\n      _payTxFee(_tokenId, royalty);\n    }\n\n    seller.transfer(highestBid - royalty);\n    ERC721.transferFrom(msg.sender, highestBidder, _tokenId);\n\n    _removeOffer(_tokenId, highestBidder);\n    _updateOfferWithNewBuyer(_tokenId, highestBidder);\n\n    _idToNftItem[_tokenId].owner = highestBidder;\n  }\n\n  function getBidAddressesByTokenId(\n    uint256 _tokenId\n  ) external view returns (address[] memory) {\n    return addressesFromTokenId[_tokenId];\n  }\n\n  function withdraw(uint256 _tokenId) external payable returns (bool) {\n    require(\n      offerBidsFromTokenId[_tokenId][msg.sender] > 0,\n      'You must have a bid to be able to witdraw'\n    );\n\n    uint amount = offerBidsFromTokenId[_tokenId][msg.sender];\n    payable(msg.sender).transfer(amount);\n\n    _removeOffer(_tokenId, msg.sender);\n\n    if (tokenIdToOffer[_tokenId].highestBidder == msg.sender) {\n      tokenIdToOffer[_tokenId].highestBid = tokenIdToOffer[_tokenId].lowerBid;\n      tokenIdToOffer[_tokenId].highestBidder = tokenIdToOffer[_tokenId].seller;\n      for (uint i = 0; i < addressesFromTokenId[_tokenId].length; i++) {\n        if (\n          offerBidsFromTokenId[_tokenId][addressesFromTokenId[_tokenId][i]] >\n          tokenIdToOffer[_tokenId].highestBid\n        ) {\n          tokenIdToOffer[_tokenId].highestBid = offerBidsFromTokenId[_tokenId][\n            addressesFromTokenId[_tokenId][i]\n          ];\n          tokenIdToOffer[_tokenId].highestBidder = addressesFromTokenId[\n            _tokenId\n          ][i];\n        }\n      }\n    }\n\n    return true;\n  }\n\n  function _owns(\n    address _claimant,\n    uint256 _tokenId\n  ) internal view returns (bool) {\n    return (ERC721.ownerOf(_tokenId) == _claimant);\n  }\n\n  function _addAuction(uint256 _tokenId, Offer memory _offer) internal {\n    tokenIdToOffer[_tokenId] = _offer;\n  }\n\n  function _setOffer(uint256 _tokenId, uint256 offer) private {\n    offerBidsFromTokenId[_tokenId][msg.sender] = offer;\n    indexOfofferBidsFromAddress[_tokenId][msg.sender] = addressesFromTokenId[\n      _tokenId\n    ].length;\n    addressesFromTokenId[_tokenId].push(msg.sender);\n  }\n\n  function _removeOffer(uint256 _tokenId, address bidder) public {\n    delete offerBidsFromTokenId[_tokenId][bidder];\n\n    uint index = indexOfofferBidsFromAddress[_tokenId][bidder];\n    uint lastIndex = addressesFromTokenId[_tokenId].length - 1;\n    address lastBidder = addressesFromTokenId[_tokenId][lastIndex];\n\n    indexOfofferBidsFromAddress[_tokenId][lastBidder] = index;\n    delete indexOfofferBidsFromAddress[_tokenId][bidder];\n\n    addressesFromTokenId[_tokenId][index] = lastBidder;\n    addressesFromTokenId[_tokenId].pop();\n  }\n\n  function _createNftItem(uint tokenId, uint price) private {\n    require(price > 0, 'Price must be at least 1 wei');\n\n    _idToNftItem[tokenId] = NftItem(\n      tokenId,\n      price,\n      msg.sender,\n      msg.sender,\n      false,\n      true\n    );\n\n    emit NftItemCreated(tokenId, price, msg.sender, msg.sender, true);\n  }\n\n  function _isOwnerCreator(uint tokenId) private view returns (bool) {\n    address owner = ERC721.ownerOf(tokenId);\n    return _idToNftItem[tokenId].creator == owner;\n  }\n\n  function _payTxFeeWithERC20(\n    uint256 tokenId,\n    address _erc20Token,\n    uint256 royalty\n  ) internal {\n    IERC20 token = IERC20(_erc20Token);\n    address creator = _idToNftItem[tokenId].creator;\n    token.transferFrom(msg.sender, creator, royalty);\n  }\n\n  function _payTxFee(uint256 tokenId, uint256 royalty) internal {\n    address creator = payable(_idToNftItem[tokenId].creator);\n    (bool success1, ) = payable(creator).call{value: royalty}('');\n    require(success1);\n  }\n\n  function _beforeTokenTransfer(\n    address from,\n    address to,\n    uint tokenId,\n    uint256 batchSize\n  ) internal virtual override {\n    super._beforeTokenTransfer(from, to, tokenId, batchSize);\n\n    if (from == address(0)) {\n      // MINTING CASE\n      _addTokenToAllTokensEnumeration(tokenId);\n    } else if (from != to) {\n      // TRANSFER CASE\n      _removeTokenFromOwnerEnumeration(from, tokenId);\n    }\n\n    if (to == address(0)) {\n      // BURNING CASE\n      _removeTokenFromAllTokensEnumeration(tokenId);\n    } else if (to != from) {\n      // TRANSFER CASE\n      _addTokenToOwnerEnumeration(to, tokenId);\n    }\n  }\n\n  function _addTokenToAllTokensEnumeration(uint tokenId) private {\n    _idToNftIndex[tokenId] = _allNfts.length;\n    _allNfts.push(tokenId);\n  }\n\n  function _addTokenToOwnerEnumeration(address to, uint tokenId) private {\n    uint length = ERC721.balanceOf(to);\n    _ownedTokens[to][length] = tokenId;\n    _idToOwnedIndex[tokenId] = length;\n  }\n\n  function _removeTokenFromOwnerEnumeration(\n    address from,\n    uint tokenId\n  ) private {\n    uint lastTokenIndex = ERC721.balanceOf(from) - 1;\n    uint tokenIndex = _idToOwnedIndex[tokenId];\n\n    if (tokenIndex != lastTokenIndex) {\n      uint lastTokenId = _ownedTokens[from][lastTokenIndex];\n\n      _ownedTokens[from][tokenIndex] = lastTokenId;\n      _idToOwnedIndex[lastTokenId] = tokenIndex;\n    }\n\n    delete _idToOwnedIndex[tokenId];\n    delete _ownedTokens[from][lastTokenIndex];\n  }\n\n  function _removeTokenFromAllTokensEnumeration(uint tokenId) private {\n    uint lastTokenIndex = _allNfts.length - 1;\n    uint tokenIndex = _idToNftIndex[tokenId];\n    uint lastTokenId = _allNfts[lastTokenIndex];\n\n    _allNfts[tokenIndex] = lastTokenId;\n    _idToNftIndex[lastTokenId] = tokenIndex;\n    _listedItems.decrement();\n\n    delete _idToNftIndex[tokenId];\n    _allNfts.pop();\n  }\n\n  function _daysToDate(\n    uint256 _days\n  ) internal pure returns (uint256 year, uint256 month, uint256 day) {\n    unchecked {\n      int256 __days = int256(_days);\n\n      int256 L = __days + 68569 + OFFSET19700101;\n      int256 N = (4 * L) / 146097;\n      L = L - (146097 * N + 3) / 4;\n      int256 _year = (4000 * (L + 1)) / 1461001;\n      L = L - (1461 * _year) / 4 + 31;\n      int256 _month = (80 * L) / 2447;\n      int256 _day = L - (2447 * _month) / 80;\n      L = _month / 11;\n      _month = _month + 2 - 12 * L;\n      _year = 100 * (N - 49) + _year + L;\n\n      year = uint256(_year);\n      month = uint256(_month);\n      day = uint256(_day);\n    }\n  }\n}\n",
  "sourcePath": "/Users/alberto/Desktop/Enalbis/myCask/nft-marketplace-frontend/contracts/NftMarket.sol",
  "compiler": {
    "name": "solc",
    "version": "0.8.17+commit.8df45f5f.Emscripten.clang"
  },
  "schemaVersion": "3.4.11",
  "updatedAt": "2023-01-18T22:25:08.994Z",
  "networkType": "ethereum",
  "devdoc": {
    "kind": "dev",
    "methods": {
      "approve(address,uint256)": {
        "details": "See {IERC721-approve}."
      },
      "balanceOf(address)": {
        "details": "See {IERC721-balanceOf}."
      },
      "getApproved(uint256)": {
        "details": "See {IERC721-getApproved}."
      },
      "isApprovedForAll(address,address)": {
        "details": "See {IERC721-isApprovedForAll}."
      },
      "name()": {
        "details": "See {IERC721Metadata-name}."
      },
      "owner()": {
        "details": "Returns the address of the current owner."
      },
      "ownerOf(uint256)": {
        "details": "See {IERC721-ownerOf}."
      },
      "renounceOwnership()": {
        "details": "Leaves the contract without owner. It will not be possible to call `onlyOwner` functions anymore. Can only be called by the current owner. NOTE: Renouncing ownership will leave the contract without an owner, thereby removing any functionality that is only available to the owner."
      },
      "royaltyInfo(uint256,uint256)": {
        "details": "Returns how much royalty is owed and to whom, based on a sale price that may be denominated in any unit of exchange. The royalty amount is denominated and should be paid in that same unit of exchange."
      },
      "safeTransferFrom(address,address,uint256)": {
        "details": "See {IERC721-safeTransferFrom}."
      },
      "setApprovalForAll(address,bool)": {
        "details": "See {IERC721-setApprovalForAll}."
      },
      "symbol()": {
        "details": "See {IERC721Metadata-symbol}."
      },
      "tokenURI(uint256)": {
        "details": "See {IERC721Metadata-tokenURI}."
      },
      "transferFrom(address,address,uint256)": {
        "details": "See {IERC721-transferFrom}."
      },
      "transferOwnership(address)": {
        "details": "Transfers ownership of the contract to a new account (`newOwner`). Can only be called by the current owner."
      }
    },
    "version": 1
  },
  "userdoc": {
    "kind": "user",
    "methods": {},
    "version": 1
  }
}