{
  "contractName": "NftMarket",
  "abi": [
    {
      "inputs": [],
      "stateMutability": "nonpayable",
      "type": "constructor"
    },
    {
      "anonymous": false,
      "inputs": [
        {
          "indexed": true,
          "internalType": "address",
          "name": "owner",
          "type": "address"
        },
        {
          "indexed": true,
          "internalType": "address",
          "name": "approved",
          "type": "address"
        },
        {
          "indexed": true,
          "internalType": "uint256",
          "name": "tokenId",
          "type": "uint256"
        }
      ],
      "name": "Approval",
      "type": "event"
    },
    {
      "anonymous": false,
      "inputs": [
        {
          "indexed": true,
          "internalType": "address",
          "name": "owner",
          "type": "address"
        },
        {
          "indexed": true,
          "internalType": "address",
          "name": "operator",
          "type": "address"
        },
        {
          "indexed": false,
          "internalType": "bool",
          "name": "approved",
          "type": "bool"
        }
      ],
      "name": "ApprovalForAll",
      "type": "event"
    },
    {
      "anonymous": false,
      "inputs": [
        {
          "indexed": true,
          "internalType": "address",
          "name": "sender",
          "type": "address"
        },
        {
          "indexed": false,
          "internalType": "uint256",
          "name": "amount",
          "type": "uint256"
        }
      ],
      "name": "Bid",
      "type": "event"
    },
    {
      "anonymous": false,
      "inputs": [
        {
          "indexed": false,
          "internalType": "address",
          "name": "highestBidder",
          "type": "address"
        },
        {
          "indexed": false,
          "internalType": "uint256",
          "name": "highestBid",
          "type": "uint256"
        }
      ],
      "name": "End",
      "type": "event"
    },
    {
      "anonymous": false,
      "inputs": [
        {
          "indexed": false,
          "internalType": "address",
          "name": "owner",
          "type": "address"
        },
        {
          "indexed": false,
          "internalType": "uint256",
          "name": "tokenId",
          "type": "uint256"
        },
        {
          "indexed": false,
          "internalType": "uint256",
          "name": "value",
          "type": "uint256"
        },
        {
          "indexed": false,
          "internalType": "string",
          "name": "tokenURI",
          "type": "string"
        }
      ],
      "name": "Mint",
      "type": "event"
    },
    {
      "anonymous": false,
      "inputs": [
        {
          "indexed": false,
          "internalType": "uint256",
          "name": "tokenId",
          "type": "uint256"
        },
        {
          "indexed": false,
          "internalType": "uint256",
          "name": "price",
          "type": "uint256"
        },
        {
          "indexed": false,
          "internalType": "address",
          "name": "creator",
          "type": "address"
        },
        {
          "indexed": false,
          "internalType": "address",
          "name": "owner",
          "type": "address"
        },
        {
          "indexed": false,
          "internalType": "bool",
          "name": "isListed",
          "type": "bool"
        }
      ],
      "name": "NftItemCreated",
      "type": "event"
    },
    {
      "anonymous": false,
      "inputs": [
        {
          "indexed": true,
          "internalType": "address",
          "name": "previousOwner",
          "type": "address"
        },
        {
          "indexed": true,
          "internalType": "address",
          "name": "newOwner",
          "type": "address"
        }
      ],
      "name": "OwnershipTransferred",
      "type": "event"
    },
    {
      "anonymous": false,
      "inputs": [
        {
          "indexed": true,
          "internalType": "address",
          "name": "from",
          "type": "address"
        },
        {
          "indexed": true,
          "internalType": "address",
          "name": "to",
          "type": "address"
        },
        {
          "indexed": false,
          "internalType": "uint256",
          "name": "tokenId",
          "type": "uint256"
        },
        {
          "indexed": false,
          "internalType": "uint256",
          "name": "value",
          "type": "uint256"
        }
      ],
      "name": "Sale",
      "type": "event"
    },
    {
      "anonymous": false,
      "inputs": [],
      "name": "Start",
      "type": "event"
    },
    {
      "anonymous": false,
      "inputs": [
        {
          "indexed": true,
          "internalType": "address",
          "name": "from",
          "type": "address"
        },
        {
          "indexed": true,
          "internalType": "address",
          "name": "to",
          "type": "address"
        },
        {
          "indexed": true,
          "internalType": "uint256",
          "name": "tokenId",
          "type": "uint256"
        }
      ],
      "name": "Transfer",
      "type": "event"
    },
    {
      "anonymous": false,
      "inputs": [
        {
          "indexed": true,
          "internalType": "address",
          "name": "bidder",
          "type": "address"
        },
        {
          "indexed": false,
          "internalType": "uint256",
          "name": "amount",
          "type": "uint256"
        }
      ],
      "name": "Withdraw",
      "type": "event"
    },
    {
      "inputs": [],
      "name": "_minimumFee",
      "outputs": [
        {
          "internalType": "uint256",
          "name": "",
          "type": "uint256"
        }
      ],
      "stateMutability": "view",
      "type": "function",
      "constant": true
    },
    {
      "inputs": [
        {
          "internalType": "address",
          "name": "to",
          "type": "address"
        },
        {
          "internalType": "uint256",
          "name": "tokenId",
          "type": "uint256"
        }
      ],
      "name": "approve",
      "outputs": [],
      "stateMutability": "nonpayable",
      "type": "function"
    },
    {
      "inputs": [
        {
          "internalType": "address",
          "name": "owner",
          "type": "address"
        }
      ],
      "name": "balanceOf",
      "outputs": [
        {
          "internalType": "uint256",
          "name": "",
          "type": "uint256"
        }
      ],
      "stateMutability": "view",
      "type": "function",
      "constant": true
    },
    {
      "inputs": [],
      "name": "bottlePrice",
      "outputs": [
        {
          "internalType": "uint256",
          "name": "",
          "type": "uint256"
        }
      ],
      "stateMutability": "view",
      "type": "function",
      "constant": true
    },
    {
      "inputs": [
        {
          "internalType": "address",
          "name": "",
          "type": "address"
        }
      ],
      "name": "excludedList",
      "outputs": [
        {
          "internalType": "bool",
          "name": "",
          "type": "bool"
        }
      ],
      "stateMutability": "view",
      "type": "function",
      "constant": true
    },
    {
      "inputs": [
        {
          "internalType": "contract ERC20",
          "name": "",
          "type": "address"
        }
      ],
      "name": "fTokenAvailableShares",
      "outputs": [
        {
          "internalType": "uint256",
          "name": "",
          "type": "uint256"
        }
      ],
      "stateMutability": "view",
      "type": "function",
      "constant": true
    },
    {
      "inputs": [
        {
          "internalType": "uint256",
          "name": "tokenId",
          "type": "uint256"
        }
      ],
      "name": "getApproved",
      "outputs": [
        {
          "internalType": "address",
          "name": "",
          "type": "address"
        }
      ],
      "stateMutability": "view",
      "type": "function",
      "constant": true
    },
    {
      "inputs": [
        {
          "internalType": "uint256",
          "name": "",
          "type": "uint256"
        }
      ],
      "name": "idToShare",
      "outputs": [
        {
          "internalType": "contract ERC20",
          "name": "",
          "type": "address"
        }
      ],
      "stateMutability": "view",
      "type": "function",
      "constant": true
    },
    {
      "inputs": [
        {
          "internalType": "uint256",
          "name": "",
          "type": "uint256"
        }
      ],
      "name": "idToShareValue",
      "outputs": [
        {
          "internalType": "uint256",
          "name": "",
          "type": "uint256"
        }
      ],
      "stateMutability": "view",
      "type": "function",
      "constant": true
    },
    {
      "inputs": [
        {
          "internalType": "address",
          "name": "owner",
          "type": "address"
        },
        {
          "internalType": "address",
          "name": "operator",
          "type": "address"
        }
      ],
      "name": "isApprovedForAll",
      "outputs": [
        {
          "internalType": "bool",
          "name": "",
          "type": "bool"
        }
      ],
      "stateMutability": "view",
      "type": "function",
      "constant": true
    },
    {
      "inputs": [],
      "name": "listingPrice",
      "outputs": [
        {
          "internalType": "uint256",
          "name": "",
          "type": "uint256"
        }
      ],
      "stateMutability": "view",
      "type": "function",
      "constant": true
    },
    {
      "inputs": [],
      "name": "name",
      "outputs": [
        {
          "internalType": "string",
          "name": "",
          "type": "string"
        }
      ],
      "stateMutability": "view",
      "type": "function",
      "constant": true
    },
    {
      "inputs": [],
      "name": "owner",
      "outputs": [
        {
          "internalType": "address",
          "name": "",
          "type": "address"
        }
      ],
      "stateMutability": "view",
      "type": "function",
      "constant": true
    },
    {
      "inputs": [
        {
          "internalType": "uint256",
          "name": "tokenId",
          "type": "uint256"
        }
      ],
      "name": "ownerOf",
      "outputs": [
        {
          "internalType": "address",
          "name": "",
          "type": "address"
        }
      ],
      "stateMutability": "view",
      "type": "function",
      "constant": true
    },
    {
      "inputs": [],
      "name": "paused",
      "outputs": [
        {
          "internalType": "bool",
          "name": "",
          "type": "bool"
        }
      ],
      "stateMutability": "view",
      "type": "function",
      "constant": true
    },
    {
      "inputs": [],
      "name": "renounceOwnership",
      "outputs": [],
      "stateMutability": "nonpayable",
      "type": "function"
    },
    {
      "inputs": [
        {
          "internalType": "uint256",
          "name": "_tokenId",
          "type": "uint256"
        },
        {
          "internalType": "uint256",
          "name": "_salePrice",
          "type": "uint256"
        }
      ],
      "name": "royaltyInfo",
      "outputs": [
        {
          "internalType": "address",
          "name": "",
          "type": "address"
        },
        {
          "internalType": "uint256",
          "name": "",
          "type": "uint256"
        }
      ],
      "stateMutability": "view",
      "type": "function",
      "constant": true
    },
    {
      "inputs": [
        {
          "internalType": "address",
          "name": "operator",
          "type": "address"
        },
        {
          "internalType": "bool",
          "name": "approved",
          "type": "bool"
        }
      ],
      "name": "setApprovalForAll",
      "outputs": [],
      "stateMutability": "nonpayable",
      "type": "function"
    },
    {
      "inputs": [],
      "name": "symbol",
      "outputs": [
        {
          "internalType": "string",
          "name": "",
          "type": "string"
        }
      ],
      "stateMutability": "view",
      "type": "function",
      "constant": true
    },
    {
      "inputs": [
        {
          "internalType": "uint256",
          "name": "tokenId",
          "type": "uint256"
        }
      ],
      "name": "tokenURI",
      "outputs": [
        {
          "internalType": "string",
          "name": "",
          "type": "string"
        }
      ],
      "stateMutability": "view",
      "type": "function",
      "constant": true
    },
    {
      "inputs": [
        {
          "internalType": "address",
          "name": "newOwner",
          "type": "address"
        }
      ],
      "name": "transferOwnership",
      "outputs": [],
      "stateMutability": "nonpayable",
      "type": "function"
    },
    {
      "inputs": [],
      "name": "txFeeToken",
      "outputs": [
        {
          "internalType": "address",
          "name": "",
          "type": "address"
        }
      ],
      "stateMutability": "view",
      "type": "function",
      "constant": true
    },
    {
      "inputs": [
        {
          "internalType": "uint256",
          "name": "tokenId",
          "type": "uint256"
        }
      ],
      "name": "burn",
      "outputs": [],
      "stateMutability": "nonpayable",
      "type": "function"
    },
    {
      "inputs": [
        {
          "internalType": "string",
          "name": "tokenURI",
          "type": "string"
        },
        {
          "internalType": "uint256",
          "name": "price",
          "type": "uint256"
        },
        {
          "components": [
            {
              "internalType": "address",
              "name": "paytoken",
              "type": "address"
            },
            {
              "internalType": "uint256",
              "name": "costvalue",
              "type": "uint256"
            }
          ],
          "internalType": "struct NftMarket.ERC20Token[]",
          "name": "tokens",
          "type": "tuple[]"
        }
      ],
      "name": "mintNFT",
      "outputs": [
        {
          "internalType": "uint256",
          "name": "",
          "type": "uint256"
        }
      ],
      "stateMutability": "nonpayable",
      "type": "function"
    },
    {
      "inputs": [
        {
          "internalType": "uint256",
          "name": "tokenId",
          "type": "uint256"
        },
        {
          "internalType": "address",
          "name": "token",
          "type": "address"
        },
        {
          "internalType": "uint256",
          "name": "price",
          "type": "uint256"
        }
      ],
      "name": "addUpdateNFTERC20Price",
      "outputs": [],
      "stateMutability": "nonpayable",
      "type": "function"
    },
    {
      "inputs": [],
      "name": "getAllNFTs",
      "outputs": [
        {
          "components": [
            {
              "internalType": "uint256",
              "name": "tokenId",
              "type": "uint256"
            },
            {
              "internalType": "uint256",
              "name": "price",
              "type": "uint256"
            },
            {
              "internalType": "address",
              "name": "creator",
              "type": "address"
            },
            {
              "internalType": "address",
              "name": "owner",
              "type": "address"
            },
            {
              "internalType": "bool",
              "name": "isLocked",
              "type": "bool"
            },
            {
              "internalType": "bool",
              "name": "isListed",
              "type": "bool"
            }
          ],
          "internalType": "struct NftMarket.NftItem[]",
          "name": "",
          "type": "tuple[]"
        }
      ],
      "stateMutability": "view",
      "type": "function",
      "constant": true
    },
    {
      "inputs": [],
      "name": "getAllLockedNfts",
      "outputs": [
        {
          "components": [
            {
              "internalType": "uint256",
              "name": "tokenId",
              "type": "uint256"
            },
            {
              "internalType": "uint256",
              "name": "price",
              "type": "uint256"
            },
            {
              "internalType": "address",
              "name": "creator",
              "type": "address"
            },
            {
              "internalType": "address",
              "name": "owner",
              "type": "address"
            },
            {
              "internalType": "bool",
              "name": "isLocked",
              "type": "bool"
            },
            {
              "internalType": "bool",
              "name": "isListed",
              "type": "bool"
            }
          ],
          "internalType": "struct NftMarket.NftItem[]",
          "name": "",
          "type": "tuple[]"
        }
      ],
      "stateMutability": "view",
      "type": "function",
      "constant": true
    },
    {
      "inputs": [],
      "name": "getAllNftsOnSale",
      "outputs": [
        {
          "components": [
            {
              "internalType": "uint256",
              "name": "tokenId",
              "type": "uint256"
            },
            {
              "internalType": "uint256",
              "name": "price",
              "type": "uint256"
            },
            {
              "internalType": "address",
              "name": "creator",
              "type": "address"
            },
            {
              "internalType": "address",
              "name": "owner",
              "type": "address"
            },
            {
              "internalType": "bool",
              "name": "isLocked",
              "type": "bool"
            },
            {
              "internalType": "bool",
              "name": "isListed",
              "type": "bool"
            }
          ],
          "internalType": "struct NftMarket.NftItem[]",
          "name": "",
          "type": "tuple[]"
        }
      ],
      "stateMutability": "view",
      "type": "function",
      "constant": true
    },
    {
      "inputs": [],
      "name": "getOwnedNfts",
      "outputs": [
        {
          "components": [
            {
              "internalType": "uint256",
              "name": "tokenId",
              "type": "uint256"
            },
            {
              "internalType": "uint256",
              "name": "price",
              "type": "uint256"
            },
            {
              "internalType": "address",
              "name": "creator",
              "type": "address"
            },
            {
              "internalType": "address",
              "name": "owner",
              "type": "address"
            },
            {
              "internalType": "bool",
              "name": "isLocked",
              "type": "bool"
            },
            {
              "internalType": "bool",
              "name": "isListed",
              "type": "bool"
            }
          ],
          "internalType": "struct NftMarket.NftItem[]",
          "name": "",
          "type": "tuple[]"
        }
      ],
      "stateMutability": "view",
      "type": "function",
      "constant": true
    },
    {
      "inputs": [
        {
          "internalType": "uint256",
          "name": "tokenId",
          "type": "uint256"
        }
      ],
      "name": "getNftItem",
      "outputs": [
        {
          "components": [
            {
              "internalType": "uint256",
              "name": "tokenId",
              "type": "uint256"
            },
            {
              "internalType": "uint256",
              "name": "price",
              "type": "uint256"
            },
            {
              "internalType": "address",
              "name": "creator",
              "type": "address"
            },
            {
              "internalType": "address",
              "name": "owner",
              "type": "address"
            },
            {
              "internalType": "bool",
              "name": "isLocked",
              "type": "bool"
            },
            {
              "internalType": "bool",
              "name": "isListed",
              "type": "bool"
            }
          ],
          "internalType": "struct NftMarket.NftItem",
          "name": "",
          "type": "tuple"
        }
      ],
      "stateMutability": "view",
      "type": "function",
      "constant": true
    },
    {
      "inputs": [
        {
          "internalType": "uint256",
          "name": "numberOfBottles",
          "type": "uint256"
        },
        {
          "internalType": "uint256",
          "name": "tokenId",
          "type": "uint256"
        },
        {
          "internalType": "string",
          "name": "tokenURI",
          "type": "string"
        }
      ],
      "name": "orderBottle",
      "outputs": [],
      "stateMutability": "payable",
      "type": "function",
      "payable": true
    },
    {
      "inputs": [],
      "name": "totalSupply",
      "outputs": [
        {
          "internalType": "uint256",
          "name": "",
          "type": "uint256"
        }
      ],
      "stateMutability": "view",
      "type": "function",
      "constant": true
    },
    {
      "inputs": [
        {
          "internalType": "uint256",
          "name": "index",
          "type": "uint256"
        }
      ],
      "name": "tokenByIndex",
      "outputs": [
        {
          "internalType": "uint256",
          "name": "",
          "type": "uint256"
        }
      ],
      "stateMutability": "view",
      "type": "function",
      "constant": true
    },
    {
      "inputs": [
        {
          "internalType": "address",
          "name": "owner",
          "type": "address"
        },
        {
          "internalType": "uint256",
          "name": "index",
          "type": "uint256"
        }
      ],
      "name": "tokenOfOwnerByIndex",
      "outputs": [
        {
          "internalType": "uint256",
          "name": "",
          "type": "uint256"
        }
      ],
      "stateMutability": "view",
      "type": "function",
      "constant": true
    },
    {
      "inputs": [
        {
          "internalType": "bytes4",
          "name": "interfaceId",
          "type": "bytes4"
        }
      ],
      "name": "supportsInterface",
      "outputs": [
        {
          "internalType": "bool",
          "name": "",
          "type": "bool"
        }
      ],
      "stateMutability": "view",
      "type": "function",
      "constant": true
    },
    {
      "inputs": [
        {
          "internalType": "string",
          "name": "tokenURI",
          "type": "string"
        }
      ],
      "name": "tokenURIExists",
      "outputs": [
        {
          "internalType": "bool",
          "name": "",
          "type": "bool"
        }
      ],
      "stateMutability": "view",
      "type": "function",
      "constant": true
    },
    {
      "inputs": [
        {
          "internalType": "address",
          "name": "excluded",
          "type": "address"
        },
        {
          "internalType": "bool",
          "name": "status",
          "type": "bool"
        }
      ],
      "name": "setExcluded",
      "outputs": [],
      "stateMutability": "nonpayable",
      "type": "function"
    },
    {
      "inputs": [
        {
          "internalType": "address",
          "name": "from",
          "type": "address"
        },
        {
          "internalType": "address",
          "name": "to",
          "type": "address"
        },
        {
          "internalType": "uint256",
          "name": "tokenId",
          "type": "uint256"
        }
      ],
      "name": "transferFrom",
      "outputs": [],
      "stateMutability": "payable",
      "type": "function",
      "payable": true
    },
    {
      "inputs": [
        {
          "internalType": "address",
          "name": "from",
          "type": "address"
        },
        {
          "internalType": "address",
          "name": "to",
          "type": "address"
        },
        {
          "internalType": "uint256",
          "name": "tokenId",
          "type": "uint256"
        }
      ],
      "name": "safeTransferFrom",
      "outputs": [],
      "stateMutability": "payable",
      "type": "function",
      "payable": true
    },
    {
      "inputs": [
        {
          "internalType": "address",
          "name": "from",
          "type": "address"
        },
        {
          "internalType": "address",
          "name": "to",
          "type": "address"
        },
        {
          "internalType": "uint256",
          "name": "tokenId",
          "type": "uint256"
        },
        {
          "internalType": "bytes",
          "name": "_data",
          "type": "bytes"
        }
      ],
      "name": "safeTransferFrom",
      "outputs": [],
      "stateMutability": "payable",
      "type": "function",
      "payable": true
    }
  ],
  "bytecode": "0x60806040526658d15e17628000600c55662e2f6e5e148000600d5566470de4df820000600e55600f805460ff191690553480156200003c57600080fd5b506040518060400160405280600881526020016710d85cdadcd3919560c21b8152506040518060400160405280600681526020016510d4d2d3919560d21b81525081600090816200008e9190620002da565b5060016200009d8282620002da565b5050600160095550620000b033620000de565b620000be336103e862000130565b336000908152601c60205260409020805460ff19166001179055620003a6565b600a80546001600160a01b038381166001600160a01b0319831681179093556040519116919082907f8be0079c531659141344cd1fd0a4f28419497f9722a3daafe3b4186f6b6457e090600090a35050565b6127106001600160601b0382161115620001a45760405162461bcd60e51b815260206004820152602a60248201527f455243323938313a20726f79616c7479206665652077696c6c206578636565646044820152692073616c65507269636560b01b60648201526084015b60405180910390fd5b6001600160a01b038216620001fc5760405162461bcd60e51b815260206004820152601960248201527f455243323938313a20696e76616c69642072656365697665720000000000000060448201526064016200019b565b604080518082019091526001600160a01b039092168083526001600160601b039091166020909201829052600160a01b90910217600755565b634e487b7160e01b600052604160045260246000fd5b600181811c908216806200026057607f821691505b6020821081036200028157634e487b7160e01b600052602260045260246000fd5b50919050565b601f821115620002d557600081815260208120601f850160051c81016020861015620002b05750805b601f850160051c820191505b81811015620002d157828155600101620002bc565b5050505b505050565b81516001600160401b03811115620002f657620002f662000235565b6200030e816200030784546200024b565b8462000287565b602080601f8311600181146200034657600084156200032d5750858301515b600019600386901b1c1916600185901b178555620002d1565b600085815260208120601f198616915b82811015620003775788860151825594840194600190910190840162000356565b5085821015620003965787850151600019600388901b60f8161c191681555b5050505050600190811b01905550565b61373980620003b66000396000f3fe60806040526004361061023b5760003560e01c80636352211e1161012e578063a22cb465116100ab578063d772625b1161006f578063d772625b146106ae578063e0391b09146106ce578063e985e9c5146106e3578063f2fde38b1461072c578063f470e16f1461074c57600080fd5b8063a22cb46514610610578063b88d4fde14610630578063c78f19f914610643578063c87b56dd14610659578063c89b023e1461067957600080fd5b806377c567a7116100f257806377c567a71461059557806387fa79fe146105b55780638da5cb5b146105ca57806395d89b41146105e85780639e175889146105fd57600080fd5b80636352211e146104fe5780636f1a0af51461051e57806370a082311461054b57806370cbcb431461056b578063715018a61461058057600080fd5b80632a55205a116101bc57806342966c681161018057806342966c681461045457806343d32ae7146104745780634f6ccce7146104945780635600d2fa146104b45780635c975abb146104e457600080fd5b80632a55205a146103aa5780632f745c59146103e957806336b536be1461040957806340fb561c1461042b57806342842e0e1461044157600080fd5b806318160ddd1161020357806318160ddd1461032c578063203f12ce1461034157806323b872dd1461035757806323c8be1a1461036a5780632836be241461038a57600080fd5b806301ffc9a71461024057806306fdde0314610275578063081812fc14610297578063095ea7b3146102cf5780630a597494146102f1575b600080fd5b34801561024c57600080fd5b5061026061025b366004612dbd565b610779565b60405190151581526020015b60405180910390f35b34801561028157600080fd5b5061028a61078a565b60405161026c9190612e2a565b3480156102a357600080fd5b506102b76102b2366004612e3d565b61081c565b6040516001600160a01b03909116815260200161026c565b3480156102db57600080fd5b506102ef6102ea366004612e6b565b610843565b005b3480156102fd57600080fd5b5061031e61030c366004612e3d565b601f6020526000908152604090205481565b60405190815260200161026c565b34801561033857600080fd5b5060225461031e565b34801561034d57600080fd5b5061031e600e5481565b6102ef610365366004612e97565b61095d565b34801561037657600080fd5b506102ef610385366004612ed8565b610b66565b34801561039657600080fd5b506102ef6103a5366004612eff565b610b94565b3480156103b657600080fd5b506103ca6103c5366004612f3d565b610bc7565b604080516001600160a01b03909316835260208301919091520161026c565b3480156103f557600080fd5b5061031e610404366004612e6b565b610c73565b34801561041557600080fd5b5061041e610ceb565b60405161026c9190612fab565b34801561043757600080fd5b5061031e600d5481565b6102ef61044f366004612e97565b610e43565b34801561046057600080fd5b506102ef61046f366004612e3d565b610fe9565b34801561048057600080fd5b5061026061048f3660046130de565b61100e565b3480156104a057600080fd5b5061031e6104af366004612e3d565b61103e565b3480156104c057600080fd5b506102606104cf366004613112565b601c6020526000908152604090205460ff1681565b3480156104f057600080fd5b50600f546102609060ff1681565b34801561050a57600080fd5b506102b7610519366004612e3d565b6110b2565b34801561052a57600080fd5b5061053e610539366004612e3d565b611112565b60405161026c919061312f565b34801561055757600080fd5b5061031e610566366004613112565b61118f565b34801561057757600080fd5b5061041e611215565b34801561058c57600080fd5b506102ef611343565b3480156105a157600080fd5b50600b546102b7906001600160a01b031681565b3480156105c157600080fd5b5061041e611357565b3480156105d657600080fd5b50600a546001600160a01b03166102b7565b3480156105f457600080fd5b5061028a6114a7565b6102ef61060b36600461313d565b6114b6565b34801561061c57600080fd5b506102ef61062b366004612eff565b6115bd565b6102ef61063e36600461318c565b6115cc565b34801561064f57600080fd5b5061031e600c5481565b34801561066557600080fd5b5061028a610674366004612e3d565b6117d7565b34801561068557600080fd5b506102b7610694366004612e3d565b60208052600090815260409020546001600160a01b031681565b3480156106ba57600080fd5b5061031e6106c936600461320b565b6118e7565b3480156106da57600080fd5b5061041e611a8e565b3480156106ef57600080fd5b506102606106fe36600461330c565b6001600160a01b03918216600090815260056020908152604080832093909416825291909152205460ff1690565b34801561073857600080fd5b506102ef610747366004613112565b611bca565b34801561075857600080fd5b5061031e610767366004613112565b60216020526000908152604090205481565b600061078482611c40565b92915050565b6060600080546107999061333a565b80601f01602080910402602001604051908101604052809291908181526020018280546107c59061333a565b80156108125780601f106107e757610100808354040283529160200191610812565b820191906000526020600020905b8154815290600101906020018083116107f557829003601f168201915b5050505050905090565b600061082782611c65565b506000908152600460205260409020546001600160a01b031690565b600061084e826110b2565b9050806001600160a01b0316836001600160a01b0316036108c05760405162461bcd60e51b815260206004820152602160248201527f4552433732313a20617070726f76616c20746f2063757272656e74206f776e656044820152603960f91b60648201526084015b60405180910390fd5b336001600160a01b03821614806108dc57506108dc81336106fe565b61094e5760405162461bcd60e51b815260206004820152603d60248201527f4552433732313a20617070726f76652063616c6c6572206973206e6f7420746f60448201527f6b656e206f776e6572206f7220617070726f76656420666f7220616c6c00000060648201526084016108b7565b6109588383611cc4565b505050565b6109673382611d32565b6109835760405162461bcd60e51b81526004016108b790613374565b60003415610a97576109958234610bc7565b6001600160a01b0386166000908152601c602052604081205491935060ff909116151590039050610a35576109ca8282611db0565b60006001600160a01b0384166109e083346133db565b604051600081818185875af1925050503d8060008114610a1c576040519150601f19603f3d011682016040523d82523d6000602084013e610a21565b606091505b5050905080610a2f57600080fd5b50610a97565b6000836001600160a01b03163460405160006040518083038185875af1925050503d8060008114610a82576040519150601f19603f3d011682016040523d82523d6000602084013e610a87565b606091505b5050905080610a9557600080fd5b505b600082815260136020526040902060030154600160a81b900460ff161515600103610ae357610ac66011611e27565b6000828152601360205260409020600301805460ff60a81b191690555b600082815260136020526040902060030180546001600160a01b0319166001600160a01b038516179055610b18848484611e7e565b604080518381523460208201526001600160a01b0380861692908716917f681ddc67ea8796d2489979f5fc2ea2eb0f2d44ff3f11f061a191928a1f3d9a06910160405180910390a350505050565b610b6e611fef565b60009283526015602090815260408085206001600160a01b039094168552929052912055565b610b9c611fef565b6001600160a01b03919091166000908152601c60205260409020805460ff1916911515919091179055565b60008281526008602090815260408083208151808301909252546001600160a01b038116808352600160a01b9091046001600160601b0316928201929092528291610c3c5750604080518082019091526007546001600160a01b0381168252600160a01b90046001600160601b031660208201525b602081015160009061271090610c5b906001600160601b0316876133ee565b610c65919061341b565b915196919550909350505050565b6000610c7e8361118f565b8210610cc25760405162461bcd60e51b8152602060048201526013602482015272496e646578206f7574206f6620626f756e647360681b60448201526064016108b7565b506001600160a01b03919091166000908152601660209081526040808320938352929052205490565b60606000610cf860225490565b9050600080610d0660115490565b6001600160401b03811115610d1d57610d1d612ff9565b604051908082528060200260200182016040528015610d5657816020015b610d43612d24565b815260200190600190039081610d3b5790505b50905060005b83811015610e3b576000610d6f8261103e565b6000818152601360205260409020600381015491925090600160a81b900460ff161515600103610e26576040805160c081018252825481526001830154602082015260028301546001600160a01b03908116928201929092526003830154918216606082015260ff600160a01b8304811615156080830152600160a81b909204909116151560a08201528451859087908110610e0d57610e0d61343d565b6020908102919091010152610e23600186613453565b94505b50508080610e3390613466565b915050610d5c565b509392505050565b60003415610f5757610e558234610bc7565b6001600160a01b0386166000908152601c602052604081205491935060ff909116151590039050610ef557610e8a8282611db0565b60006001600160a01b038416610ea083346133db565b604051600081818185875af1925050503d8060008114610edc576040519150601f19603f3d011682016040523d82523d6000602084013e610ee1565b606091505b5050905080610eef57600080fd5b50610f57565b6000836001600160a01b03163460405160006040518083038185875af1925050503d8060008114610f42576040519150601f19603f3d011682016040523d82523d6000602084013e610f47565b606091505b5050905080610f5557600080fd5b505b600082815260136020526040902060030154600160a81b900460ff161515600103610fa357610f866011611e27565b6000828152601360205260409020600301805460ff60a81b191690555b600082815260136020908152604080832060030180546001600160a01b0319166001600160a01b03881617905580519182019052908152610b18908590859085906115cc565b610ff1611fef565b610ffa81612049565b600090815260086020526040812055565b50565b6000601282604051611020919061347f565b9081526040519081900360200190205460ff16151560011492915050565b600061104960225490565b821061108d5760405162461bcd60e51b8152602060048201526013602482015272496e646578206f7574206f6620626f756e647360681b60448201526064016108b7565b602282815481106110a0576110a061343d565b90600052602060002001549050919050565b6000818152600260205260408120546001600160a01b0316806107845760405162461bcd60e51b8152602060048201526018602482015277115490cdcc8c4e881a5b9d985b1a59081d1bdad95b88125160421b60448201526064016108b7565b61111a612d24565b50600090815260136020908152604091829020825160c0810184528154815260018201549281019290925260028101546001600160a01b039081169383019390935260030154918216606082015260ff600160a01b8304811615156080830152600160a81b909204909116151560a082015290565b60006001600160a01b0382166111f95760405162461bcd60e51b815260206004820152602960248201527f4552433732313a2061646472657373207a65726f206973206e6f7420612076616044820152683634b21037bbb732b960b91b60648201526084016108b7565b506001600160a01b031660009081526003602052604090205490565b606060006112223361118f565b90506000816001600160401b0381111561123e5761123e612ff9565b60405190808252806020026020018201604052801561127757816020015b611264612d24565b81526020019060019003908161125c5790505b50905060005b8281101561133c5760006112913383610c73565b600081815260136020908152604091829020825160c0810184528154815260018201549281019290925260028101546001600160a01b03908116938301939093526003810154928316606083015260ff600160a01b8404811615156080840152600160a81b909304909216151560a08201528551929350909185908590811061131c5761131c61343d565b60200260200101819052505050808061133490613466565b91505061127d565b5092915050565b61134b611fef565b6113556000612089565b565b6060600061136460225490565b905060008061137260115490565b6001600160401b0381111561138957611389612ff9565b6040519080825280602002602001820160405280156113c257816020015b6113af612d24565b8152602001906001900390816113a75790505b50905060005b83811015610e3b5760006113db8261103e565b6000818152601360205260409020600381015491925090600160a81b900460ff161515600103611492576040805160c081018252825481526001830154602082015260028301546001600160a01b03908116928201929092526003830154918216606082015260ff600160a01b8304811615156080830152600160a81b909204909116151560a082015284518590879081106114795761147961343d565b602090810291909101015261148f600186613453565b94505b5050808061149f90613466565b9150506113c8565b6060600180546107999061333a565b600083116115065760405162461bcd60e51b815260206004820152601a60248201527f596f752063616e6e6f74206f72646572203020626f74746c657300000000000060448201526064016108b7565b6000611511426120db565b6000848152601760209081526040808320848452825280832054878452601390925290912060020154600d5492935090916001600160a01b039091169081906108fc9061155e90896133ee565b6040518115909202916000818181858888f19350505050158015611586573d6000803e3d6000fd5b506115918683613453565b60008681526017602090815260408083208784529091529020556115b585856120fb565b505050505050565b6115c833838361218e565b5050565b6115d63383611d32565b6115f25760405162461bcd60e51b81526004016108b790613374565b60003415611706576116048334610bc7565b6001600160a01b0387166000908152601c602052604081205491935060ff9091161515900390506116a4576116398382611db0565b60006001600160a01b03851661164f83346133db565b604051600081818185875af1925050503d806000811461168b576040519150601f19603f3d011682016040523d82523d6000602084013e611690565b606091505b505090508061169e57600080fd5b50611706565b6000846001600160a01b03163460405160006040518083038185875af1925050503d80600081146116f1576040519150601f19603f3d011682016040523d82523d6000602084013e6116f6565b606091505b505090508061170457600080fd5b505b600083815260136020526040902060030154600160a81b900460ff161515600103611752576117356011611e27565b6000838152601360205260409020600301805460ff60a81b191690555b600083815260136020526040902060030180546001600160a01b0319166001600160a01b0386161790556117888585858561225c565b604080518481523460208201526001600160a01b0380871692908816917f681ddc67ea8796d2489979f5fc2ea2eb0f2d44ff3f11f061a191928a1f3d9a06910160405180910390a35050505050565b60606117e282611c65565b600082815260066020526040812080546117fb9061333a565b80601f01602080910402602001604051908101604052809291908181526020018280546118279061333a565b80156118745780601f1061184957610100808354040283529160200191611874565b820191906000526020600020905b81548152906001019060200180831161185757829003601f168201915b50505050509050600061189260408051602081019091526000815290565b905080516000036118a4575092915050565b8151156118d65780826040516020016118be92919061349b565b60405160208183030381529060405292505050919050565b6118df8461228f565b949350505050565b60006118f1611fef565b6118fa8461100e565b156119475760405162461bcd60e51b815260206004820152601860248201527f546f6b656e2055524920616c726561647920657869737473000000000000000060448201526064016108b7565b611955601180546001019055565b611963601080546001019055565b600061196e60105490565b9050600061197b426120db565b90506119873383612303565b61199182876120fb565b61199b828661231d565b60016012876040516119ad919061347f565b9081526040805160209281900383019020805460ff1916931515939093179092556000848152601782528281208482529091529081208190555b8451811015611a4757611a3583868381518110611a0657611a0661343d565b602002602001015160000151878481518110611a2457611a2461343d565b602002602001015160200151610b66565b80611a3f81613466565b9150506119e7565b507fcd0e00beb8e6d5ab96ee16e6a1a735ff07cae8702f2e48feb32fefe40f25692c33838789604051611a7d94939291906134ca565b60405180910390a150949350505050565b60606000611a9b60225490565b9050600080611aa960105490565b6001600160401b03811115611ac057611ac0612ff9565b604051908082528060200260200182016040528015611af957816020015b611ae6612d24565b815260200190600190039081611ade5790505b50905060005b83811015610e3b576000611b128261103e565b600081815260136020908152604091829020825160c0810184528154815260018201549281019290925260028101546001600160a01b03908116938301939093526003810154928316606083015260ff600160a01b8404811615156080840152600160a81b909304909216151560a082015285519293509091859087908110611b9d57611b9d61343d565b6020908102919091010152611bb3600186613453565b945050508080611bc290613466565b915050611aff565b611bd2611fef565b6001600160a01b038116611c375760405162461bcd60e51b815260206004820152602660248201527f4f776e61626c653a206e6577206f776e657220697320746865207a65726f206160448201526564647265737360d01b60648201526084016108b7565b61100b81612089565b60006001600160e01b0319821663152a902d60e11b148061078457506107848261246b565b6000818152600260205260409020546001600160a01b031661100b5760405162461bcd60e51b8152602060048201526018602482015277115490cdcc8c4e881a5b9d985b1a59081d1bdad95b88125160421b60448201526064016108b7565b600081815260046020526040902080546001600160a01b0319166001600160a01b0384169081179091558190611cf9826110b2565b6001600160a01b03167f8c5be1e5ebec7d5bd14f71427d1e84f3dd0314c0f7b2291e5b200ac8c7c3b92560405160405180910390a45050565b600080611d3e836110b2565b9050806001600160a01b0316846001600160a01b03161480611d8557506001600160a01b0380821660009081526005602090815260408083209388168352929052205460ff165b806118df5750836001600160a01b0316611d9e8461081c565b6001600160a01b031614949350505050565b6000828152601360205260408082206002015490516001600160a01b039091169190829084908381818185875af1925050503d8060008114611e0e576040519150601f19603f3d011682016040523d82523d6000602084013e611e13565b606091505b5050905080611e2157600080fd5b50505050565b805480611e765760405162461bcd60e51b815260206004820152601b60248201527f436f756e7465723a2064656372656d656e74206f766572666c6f77000000000060448201526064016108b7565b600019019055565b826001600160a01b0316611e91826110b2565b6001600160a01b031614611eb75760405162461bcd60e51b81526004016108b790613501565b6001600160a01b038216611f195760405162461bcd60e51b8152602060048201526024808201527f4552433732313a207472616e7366657220746f20746865207a65726f206164646044820152637265737360e01b60648201526084016108b7565b611f2683838360016124bb565b826001600160a01b0316611f39826110b2565b6001600160a01b031614611f5f5760405162461bcd60e51b81526004016108b790613501565b600081815260046020908152604080832080546001600160a01b03199081169091556001600160a01b0387811680865260038552838620805460001901905590871680865283862080546001019055868652600290945282852080549092168417909155905184937fddf252ad1be2c89b69c2b068fc378daa952ba7f163c4a11628f55a4df523b3ef91a4505050565b600a546001600160a01b031633146113555760405162461bcd60e51b815260206004820181905260248201527f4f776e61626c653a2063616c6c6572206973206e6f7420746865206f776e657260448201526064016108b7565b61205281612584565b6000818152600660205260409020805461206b9061333a565b15905061100b57600081815260066020526040812061100b91612d59565b600a80546001600160a01b038381166001600160a01b0319831681179093556040519116919082907f8be0079c531659141344cd1fd0a4f28419497f9722a3daafe3b4186f6b6457e090600090a35050565b60006120f26120ed620151808461341b565b612627565b50909392505050565b6000828152600260205260409020546001600160a01b03166121765760405162461bcd60e51b815260206004820152602e60248201527f45524337323155524953746f726167653a2055524920736574206f66206e6f6e60448201526d32bc34b9ba32b73a103a37b5b2b760911b60648201526084016108b7565b6000828152600660205260409020610958828261358c565b816001600160a01b0316836001600160a01b0316036121ef5760405162461bcd60e51b815260206004820152601960248201527f4552433732313a20617070726f766520746f2063616c6c65720000000000000060448201526064016108b7565b6001600160a01b03838116600081815260056020908152604080832094871680845294825291829020805460ff191686151590811790915591519182527f17307eab39ab6107e8899845ad3d59bd9653f200f220920489ca2b5937696c31910160405180910390a3505050565b612267848484611e7e565b612273848484846126c3565b611e215760405162461bcd60e51b81526004016108b79061364b565b606061229a82611c65565b60006122b160408051602081019091526000815290565b905060008151116122d157604051806020016040528060008152506122fc565b806122db846127c4565b6040516020016122ec92919061349b565b6040516020818303038152906040525b9392505050565b6115c8828260405180602001604052806000815250612856565b6000811161236d5760405162461bcd60e51b815260206004820152601c60248201527f5072696365206d757374206265206174206c656173742031207765690000000060448201526064016108b7565b6040805160c081018252838152602080820184815233838501818152606080860183815260006080808901828152600160a0808c018281528f865260138c52948d90209b518c5598518b820155955160028b0180546001600160a01b039283166001600160a01b031990911617905593516003909a018054915193511515600160a81b0260ff60a81b19941515600160a01b026001600160a81b03199093169b9095169a909a17179190911691909117909655865189815294850188905295840182905294830152918101929092527f23d5ab71cc0f91445504902f71f3b3c11f8bc3940cc6822c2329c1bd5662a409910160405180910390a15050565b60006001600160e01b031982166380ac58cd60e01b148061249c57506001600160e01b03198216635b5e139f60e01b145b8061078457506301ffc9a760e01b6001600160e01b0319831614610784565b6124c784848484612889565b6001600160a01b0384166125225761251d82602280546000838152601e60205260408120829055600182018355919091527f61035b26e3e9eee00e0d72fd1ee8ddca6894550dca6916ea2ac6baa90d11e5100155565b612545565b826001600160a01b0316846001600160a01b031614612545576125458483612911565b6001600160a01b0383166125615761255c826129ae565b611e21565b836001600160a01b0316836001600160a01b031614611e2157611e218383612a6f565b600061258f826110b2565b905061259f8160008460016124bb565b6125a8826110b2565b600083815260046020908152604080832080546001600160a01b03199081169091556001600160a01b0385168085526003845282852080546000190190558785526002909352818420805490911690555192935084927fddf252ad1be2c89b69c2b068fc378daa952ba7f163c4a11628f55a4df523b3ef908390a45050565b60008080836226496581018262023ab1600483020590506004600362023ab18302010590910390600062164b09610fa0600185010205905060046105b58202058303601f019250600061098f846050028161268457612684613405565b0590506000605061098f83020585039050600b820560301994909401606402929092018301996002600c90940290910392909201975095509350505050565b60006001600160a01b0384163b156127b957604051630a85bd0160e11b81526001600160a01b0385169063150b7a029061270790339089908890889060040161369d565b6020604051808303816000875af1925050508015612742575060408051601f3d908101601f1916820190925261273f918101906136d0565b60015b61279f573d808015612770576040519150601f19603f3d011682016040523d82523d6000602084013e612775565b606091505b5080516000036127975760405162461bcd60e51b81526004016108b79061364b565b805181602001fd5b6001600160e01b031916630a85bd0160e11b1490506118df565b506001949350505050565b606060006127d183612ab3565b60010190506000816001600160401b038111156127f0576127f0612ff9565b6040519080825280601f01601f19166020018201604052801561281a576020820181803683370190505b5090508181016020015b600019016f181899199a1a9b1b9c1cb0b131b232b360811b600a86061a8153600a850494508461282457509392505050565b6128608383612b8b565b61286d60008484846126c3565b6109585760405162461bcd60e51b81526004016108b79061364b565b6001811115611e21576001600160a01b038416156128cf576001600160a01b038416600090815260036020526040812080548392906128c99084906133db565b90915550505b6001600160a01b03831615611e21576001600160a01b03831660009081526003602052604081208054839290612906908490613453565b909155505050505050565b6000600161291e8461118f565b61292891906133db565b6000838152601d602052604090205490915080821461297b576001600160a01b03841660009081526016602090815260408083208584528252808320548484528184208190558352601d90915290208190555b506000918252601d602090815260408084208490556001600160a01b039094168352601681528383209183525290812055565b6022546000906129c0906001906133db565b6000838152601e6020526040812054602280549394509092849081106129e8576129e861343d565b906000526020600020015490508060228381548110612a0957612a0961343d565b6000918252602080832090910192909255828152601e90915260409020829055612a336011611e27565b6000848152601e60205260408120556022805480612a5357612a536136ed565b6001900381819060005260206000200160009055905550505050565b6000612a7a8361118f565b6001600160a01b0390931660009081526016602090815260408083208684528252808320859055938252601d9052919091209190915550565b60008072184f03e93ff9f4daa797ed6e38ed64bf6a1f0160401b8310612af25772184f03e93ff9f4daa797ed6e38ed64bf6a1f0160401b830492506040015b6d04ee2d6d415b85acef81000000008310612b1e576d04ee2d6d415b85acef8100000000830492506020015b662386f26fc100008310612b3c57662386f26fc10000830492506010015b6305f5e1008310612b54576305f5e100830492506008015b6127108310612b6857612710830492506004015b60648310612b7a576064830492506002015b600a83106107845760010192915050565b6001600160a01b038216612be15760405162461bcd60e51b815260206004820181905260248201527f4552433732313a206d696e7420746f20746865207a65726f206164647265737360448201526064016108b7565b6000818152600260205260409020546001600160a01b031615612c465760405162461bcd60e51b815260206004820152601c60248201527f4552433732313a20746f6b656e20616c7265616479206d696e7465640000000060448201526064016108b7565b612c546000838360016124bb565b6000818152600260205260409020546001600160a01b031615612cb95760405162461bcd60e51b815260206004820152601c60248201527f4552433732313a20746f6b656e20616c7265616479206d696e7465640000000060448201526064016108b7565b6001600160a01b038216600081815260036020908152604080832080546001019055848352600290915280822080546001600160a01b0319168417905551839291907fddf252ad1be2c89b69c2b068fc378daa952ba7f163c4a11628f55a4df523b3ef908290a45050565b6040805160c081018252600080825260208201819052918101829052606081018290526080810182905260a081019190915290565b508054612d659061333a565b6000825580601f10612d75575050565b601f01602090049060005260206000209081019061100b91905b80821115612da35760008155600101612d8f565b5090565b6001600160e01b03198116811461100b57600080fd5b600060208284031215612dcf57600080fd5b81356122fc81612da7565b60005b83811015612df5578181015183820152602001612ddd565b50506000910152565b60008151808452612e16816020860160208601612dda565b601f01601f19169290920160200192915050565b6020815260006122fc6020830184612dfe565b600060208284031215612e4f57600080fd5b5035919050565b6001600160a01b038116811461100b57600080fd5b60008060408385031215612e7e57600080fd5b8235612e8981612e56565b946020939093013593505050565b600080600060608486031215612eac57600080fd5b8335612eb781612e56565b92506020840135612ec781612e56565b929592945050506040919091013590565b600080600060608486031215612eed57600080fd5b833592506020840135612ec781612e56565b60008060408385031215612f1257600080fd5b8235612f1d81612e56565b915060208301358015158114612f3257600080fd5b809150509250929050565b60008060408385031215612f5057600080fd5b50508035926020909101359150565b8051825260208101516020830152604081015160018060a01b038082166040850152806060840151166060850152505060808101511515608083015260a0810151151560a08301525050565b6020808252825182820181905260009190848201906040850190845b81811015612fed57612fda838551612f5f565b9284019260c09290920191600101612fc7565b50909695505050505050565b634e487b7160e01b600052604160045260246000fd5b604080519081016001600160401b038111828210171561303157613031612ff9565b60405290565b604051601f8201601f191681016001600160401b038111828210171561305f5761305f612ff9565b604052919050565b60006001600160401b0383111561308057613080612ff9565b613093601f8401601f1916602001613037565b90508281528383830111156130a757600080fd5b828260208301376000602084830101529392505050565b600082601f8301126130cf57600080fd5b6122fc83833560208501613067565b6000602082840312156130f057600080fd5b81356001600160401b0381111561310657600080fd5b6118df848285016130be565b60006020828403121561312457600080fd5b81356122fc81612e56565b60c081016107848284612f5f565b60008060006060848603121561315257600080fd5b833592506020840135915060408401356001600160401b0381111561317657600080fd5b613182868287016130be565b9150509250925092565b600080600080608085870312156131a257600080fd5b84356131ad81612e56565b935060208501356131bd81612e56565b92506040850135915060608501356001600160401b038111156131df57600080fd5b8501601f810187136131f057600080fd5b6131ff87823560208401613067565b91505092959194509250565b60008060006060848603121561322057600080fd5b83356001600160401b038082111561323757600080fd5b613243878388016130be565b9450602091508186013593506040808701358281111561326257600080fd5b8701601f8101891361327357600080fd5b80358381111561328557613285612ff9565b613293858260051b01613037565b818152858101945060069190911b82018501908a8211156132b357600080fd5b918501915b818310156132fc5783838c0312156132d05760008081fd5b6132d861300f565b83356132e381612e56565b81528387013587820152855293850193918301916132b8565b8096505050505050509250925092565b6000806040838503121561331f57600080fd5b823561332a81612e56565b91506020830135612f3281612e56565b600181811c9082168061334e57607f821691505b60208210810361336e57634e487b7160e01b600052602260045260246000fd5b50919050565b60208082526031908201527f4552433732313a207472616e736665722063616c6c6572206973206e6f74206f6040820152701ddb995c881b9bdc88185c1c1c9bdd9959607a1b606082015260800190565b634e487b7160e01b600052601160045260246000fd5b81810381811115610784576107846133c5565b8082028115828204841417610784576107846133c5565b634e487b7160e01b600052601260045260246000fd5b60008261343857634e487b7160e01b600052601260045260246000fd5b500490565b634e487b7160e01b600052603260045260246000fd5b80820180821115610784576107846133c5565b600060018201613478576134786133c5565b5060010190565b60008251613491818460208701612dda565b9190910192915050565b600083516134ad818460208801612dda565b8351908301906134c1818360208801612dda565b01949350505050565b60018060a01b03851681528360208201528260408201526080606082015260006134f76080830184612dfe565b9695505050505050565b60208082526025908201527f4552433732313a207472616e736665722066726f6d20696e636f72726563742060408201526437bbb732b960d91b606082015260800190565b601f82111561095857600081815260208120601f850160051c8101602086101561356d5750805b601f850160051c820191505b818110156115b557828155600101613579565b81516001600160401b038111156135a5576135a5612ff9565b6135b9816135b3845461333a565b84613546565b602080601f8311600181146135ee57600084156135d65750858301515b600019600386901b1c1916600185901b1785556115b5565b600085815260208120601f198616915b8281101561361d578886015182559484019460019091019084016135fe565b508582101561363b5787850151600019600388901b60f8161c191681555b5050505050600190811b01905550565b60208082526032908201527f4552433732313a207472616e7366657220746f206e6f6e20455243373231526560408201527131b2b4bb32b91034b6b83632b6b2b73a32b960711b606082015260800190565b6001600160a01b03858116825284166020820152604081018390526080606082018190526000906134f790830184612dfe565b6000602082840312156136e257600080fd5b81516122fc81612da7565b634e487b7160e01b600052603160045260246000fdfea2646970667358221220305c26ccdec73ad9780a026d4ee55aebd4b614aef72470918bd70c20a6c1913f64736f6c63430008110033",
  "immutableReferences": {},
  "source": "// SPDX-License-Identifier: MIT\npragma solidity >=0.4.22 <0.9.0;\n\nimport '@openzeppelin/contracts/token/common/ERC2981.sol';\nimport '@openzeppelin/contracts/token/ERC721/extensions/ERC721URIStorage.sol';\nimport '@openzeppelin/contracts/access/Ownable.sol';\nimport '@openzeppelin/contracts/utils/Counters.sol';\nimport '@openzeppelin/contracts/token/ERC20/IERC20.sol';\nimport '@openzeppelin/contracts/utils/math/SafeMath.sol';\nimport '@openzeppelin/contracts/token/ERC20/utils/SafeERC20.sol';\nimport '@openzeppelin/contracts/utils/math/SafeMath.sol';\nimport '@openzeppelin/contracts/security/ReentrancyGuard.sol';\nimport '@openzeppelin/contracts/token/ERC20/ERC20.sol';\n\nimport './NftFraction.sol';\n\ncontract NftMarket is ERC721URIStorage, ERC2981, ReentrancyGuard, Ownable {\n  using SafeMath for uint256;\n  using Counters for Counters.Counter;\n\n  struct ERC20Token {\n    address paytoken;\n    uint256 costvalue;\n  }\n\n  struct NftOffer {\n    uint256 date;\n    uint256 offer;\n    address from;\n  }\n\n  struct NftItem {\n    uint256 tokenId;\n    uint256 price;\n    address creator;\n    address owner;\n    bool isLocked;\n    bool isListed;\n  }\n\n  struct Offer {\n    // Current owner of NFT\n    uint256 nftId;\n    address seller;\n    uint lowerBid;\n    uint highestBid;\n    address highestBidder;\n  }\n\n  address public txFeeToken;\n  uint public listingPrice = 0.025 ether;\n  uint public bottlePrice = 0.013 ether;\n  uint public _minimumFee = 0.02 ether;\n  uint256 constant SECONDS_PER_DAY = 24 * 60 * 60;\n  int256 constant OFFSET19700101 = 2440588;\n  bool public paused = false;\n\n  Counters.Counter private _tokenIds;\n  Counters.Counter private _listedItems;\n\n  // TokenURI => Bool (Is used?)\n  mapping(string => bool) private _usedTokenURIs;\n  // NFT ID => NftItem\n  mapping(uint256 => NftItem) private _idToNftItem;\n  // NFT ID => NftOffers[]\n  mapping(uint256 => NftOffer[]) private _idToNftsOffers;\n  // NFT ID => ERC20 Address => Price in ERC20 Token\n  mapping(uint256 => mapping(address => uint256)) private _tokenIDpriceByErc20;\n  // Account address => NFT Id => Index\n  mapping(address => mapping(uint256 => uint256)) private _ownedTokens;\n  // NFT Id => Year => Extractions\n  mapping(uint256 => mapping(uint256 => uint256))\n    private _tokensExtractionsByYear;\n  // Map from token ID to their corresponding auction.\n  mapping(uint256 => Offer) tokenIdToOffer;\n  // NFT Id => Account Address => Bid\n  mapping(uint256 => mapping(address => uint256)) offerBidsFromTokenId;\n  // NFT Id => Account Address => Index\n  mapping(uint256 => mapping(address => uint256)) indexOfofferBidsFromAddress;\n  // NFT Id => Address[]\n  mapping(uint256 => address[]) addressesFromTokenId;\n  // Address => Booelan\n  mapping(address => bool) public excludedList;\n  // NFT id => ERC20 share\n  mapping(uint256 => uint256) private _idToOwnedIndex;\n  // NFT id => Index\n  mapping(uint256 => uint256) private _idToNftIndex;\n\n  // SHARES\n\n  // NFT ID => share value\n  mapping(uint256 => uint256) public idToShareValue;\n  // NFT id => ERC20 share\n  mapping(uint256 => ERC20) public idToShare;\n  // ERC20 ==> uint256\n  mapping(ERC20 => uint256) public fTokenAvailableShares;\n\n  uint256[] private _allNfts;\n\n  event Mint(address owner, uint256 tokenId, uint256 value, string tokenURI);\n  event Sale(\n    address indexed from,\n    address indexed to,\n    uint256 tokenId,\n    uint256 value\n  );\n\n  event Start();\n  event End(address highestBidder, uint highestBid);\n  event Bid(address indexed sender, uint amount);\n  event Withdraw(address indexed bidder, uint amount);\n\n  event NftItemCreated(\n    uint256 tokenId,\n    uint256 price,\n    address creator,\n    address owner,\n    bool isListed\n  );\n\n  constructor() ERC721('CasksNFT', 'CSKNFT') {\n    _setDefaultRoyalty(msg.sender, 1000);\n    excludedList[msg.sender] = true;\n  }\n\n  function burn(uint256 tokenId) public onlyOwner {\n    super._burn(tokenId);\n    _resetTokenRoyalty(tokenId);\n  }\n\n  function mintNFT(\n    string memory tokenURI,\n    uint256 price,\n    ERC20Token[] memory tokens\n  ) public onlyOwner returns (uint256) {\n    require(!tokenURIExists(tokenURI), 'Token URI already exists');\n\n    _listedItems.increment();\n    _tokenIds.increment();\n\n    uint256 newItemId = _tokenIds.current();\n    uint256 year = getYear(block.timestamp);\n\n    _safeMint(msg.sender, newItemId);\n\n    _setTokenURI(newItemId, tokenURI);\n    _createNftItem(newItemId, price);\n    _usedTokenURIs[tokenURI] = true;\n    _tokensExtractionsByYear[newItemId][year] = 0;\n\n    for (uint i = 0; i < tokens.length; i++) {\n      addUpdateNFTERC20Price(\n        newItemId,\n        tokens[i].paytoken,\n        tokens[i].costvalue\n      );\n    }\n\n    // _createNftOffer(newItemId, price, msg.sender);\n\n    emit Mint(msg.sender, newItemId, price, tokenURI);\n\n    return newItemId;\n  }\n\n  // function getBalanceOfUserShares(\n  //   address from,\n  //   uint256 _tokenId\n  // ) public view returns (uint256 shares) {\n  //   ERC20 fToken = idToShare[_tokenId];\n  //   return fToken.balanceOf(from);\n  // }\n\n  // function getAvailableFractionalizedSharesByTokenId(\n  //   uint256 _tokenId\n  // ) public view returns (uint256 shares) {\n  //   ERC20 fToken = idToShare[_tokenId];\n  //   return fTokenAvailableShares[fToken];\n  // }\n\n  // function getFractionalizedSharesByTokenId(\n  //   uint256 _tokenId\n  // ) public view returns (uint256 shares) {\n  //   ERC20 fToken = idToShare[_tokenId];\n  //   return fToken.totalSupply();\n  // }\n\n  // function getERC20FractionalizeAddress(\n  //   uint256 _tokenId\n  // ) public view returns (ERC20 ftoken) {\n  //   return idToShare[_tokenId];\n  // }\n\n  // // lock NFT in fractional contract\n  // function lockNFT(uint256 _tokenID, uint256 _sharesAmount) public {\n  //   // transfer NFT to contract\n  //   transferFrom(msg.sender, address(this), _tokenID);\n\n  //   // mint & transfer ERC20 to contract\n  //   // set name of new token\n  //   string memory tokenID = Strings.toString(_tokenID);\n  //   string memory _tokenName = 'FractionCaskNFT';\n  //   string memory tokenName = string(abi.encodePacked(_tokenName, tokenID));\n\n  //   // set symbol of new token\n  //   string memory _tokenSymbol = 'FCNFT';\n  //   string memory tokenSymbol = string(abi.encodePacked(_tokenSymbol, tokenID));\n\n  //   // create new token\n  //   ERC20 fToken = new NftFraction(tokenName, tokenSymbol, _sharesAmount);\n\n  //   // transfer tokens to this contract address\n  //   fToken.transfer(address(this), _sharesAmount);\n  //   // update mapping\n  //   idToShare[_tokenID] = fToken;\n  //   fTokenAvailableShares[fToken] = _sharesAmount;\n  //   // update share valueusing SafeMath for uint256;\n  //   uint256 _price = _idToNftItem[_tokenID].price;\n  //   _idToNftItem[_tokenID].isLocked = true;\n  //   idToShareValue[_tokenID] = _price.div(_sharesAmount);\n  // }\n\n  // function buyFractionalShares(\n  //   uint256 _tokenID,\n  //   uint256 _totalShares\n  // ) public payable {\n  //   require(msg.value > 0, 'Insufficient funds');\n  //   require(_totalShares > 0, 'Insufficient shares');\n  //   require(\n  //     msg.value >= idToShareValue[_tokenID].mul(_totalShares),\n  //     'Insufficient funds'\n  //   );\n\n  //   require(\n  //     _totalShares <= fTokenAvailableShares[idToShare[_tokenID]],\n  //     'Insuffiecient shares'\n  //   );\n\n  //   // user sends ETH to owner\n  //   address payable nftCreator = payable(_idToNftItem[_tokenID].creator);\n  //   uint256 _amount = idToShareValue[_tokenID].mul(_totalShares);\n  //   nftCreator.transfer(_amount);\n\n  //   ERC20 fToken = idToShare[_tokenID];\n\n  //   fTokenAvailableShares[fToken] =\n  //     fTokenAvailableShares[fToken] -\n  //     _totalShares;\n\n  //   fToken.transfer(msg.sender, _totalShares);\n  // }\n\n  function addUpdateNFTERC20Price(\n    uint256 tokenId,\n    address token,\n    uint256 price\n  ) public onlyOwner {\n    _tokenIDpriceByErc20[tokenId][token] = price;\n  }\n\n  // function buyNFT(uint256 tokenId) public payable {\n  //   address owner = ERC721.ownerOf(tokenId);\n  //   uint256 price = _idToNftItem[tokenId].price;\n  //   address creator = _idToNftItem[tokenId].creator;\n\n  //   require(msg.sender != owner, 'You already own this NFT');\n  //   require(msg.value == price, 'Please submit the asking price');\n\n  //   (, uint256 royaltyAmount) = royaltyInfo(tokenId, price);\n\n  //   if (excludedList[msg.sender] == false && owner != creator) {\n  //     _payTxFee(tokenId, royaltyAmount);\n  //     payable(owner).transfer(msg.value - royaltyAmount);\n  //   } else {\n  //     payable(owner).transfer(msg.value);\n  //   }\n\n  //   _idToNftItem[tokenId].isListed = false;\n  //   _idToNftItem[tokenId].owner = msg.sender;\n\n  //   _listedItems.decrement();\n\n  //   _transfer(owner, msg.sender, tokenId);\n  //   _updateOfferWithNewBuyer(tokenId, msg.sender);\n\n  //   emit Sale(owner, msg.sender, tokenId, msg.value);\n  // }\n\n  // function buyNFTWithERC20(uint256 _tokenId, address _erc20Token) public {\n  //   IERC20 token = IERC20(_erc20Token);\n  //   address owner = ERC721.ownerOf(_tokenId);\n  //   require(\n  //     _idToNftItem[_tokenId].isListed == true,\n  //     'Token must be on sale first'\n  //   );\n  //   uint256 nftPrice = getNFTCost(_tokenId, _erc20Token);\n  //   require(\n  //     token.allowance(msg.sender, address(this)) >= nftPrice,\n  //     'Insufficient allowance.'\n  //   );\n  //   require(token.balanceOf(msg.sender) >= nftPrice, 'Insufficient balance.');\n\n  //   token.transferFrom(msg.sender, owner, nftPrice);\n  //   // transfer the nft to buyer as well... I've not implemented that\n  //   _idToNftItem[_tokenId].isListed = false;\n  //   _idToNftItem[_tokenId].owner = msg.sender;\n  //   _listedItems.decrement();\n\n  //   emit Sale(owner, msg.sender, _tokenId, nftPrice);\n\n  //   _transfer(owner, msg.sender, _tokenId);\n  // }\n\n  // function getTokenExtractionsByYear(\n  //   uint256 tokenId,\n  //   uint256 year\n  // ) public view returns (uint256 extractions) {\n  //   return _tokensExtractionsByYear[tokenId][year];\n  // }\n\n  // function getNFTCost(\n  //   uint256 tokenId,\n  //   address _erc20Token\n  // ) public view virtual returns (uint256) {\n  //   uint256 cost;\n  //   cost = _tokenIDpriceByErc20[tokenId][_erc20Token];\n  //   return cost;\n  // }\n\n  function getAllNFTs() external view returns (NftItem[] memory) {\n    uint allItemsCounts = totalSupply();\n    uint currentIndex = 0;\n    NftItem[] memory items = new NftItem[](_tokenIds.current());\n\n    for (uint i = 0; i < allItemsCounts; i++) {\n      uint tokenId = tokenByIndex(i);\n      NftItem storage item = _idToNftItem[tokenId];\n      items[currentIndex] = item;\n      currentIndex += 1;\n    }\n\n    return items;\n  }\n\n  function getAllLockedNfts() external view returns (NftItem[] memory) {\n    uint allItemsCounts = totalSupply();\n    uint currentIndex = 0;\n    NftItem[] memory items = new NftItem[](_listedItems.current());\n\n    for (uint i = 0; i < allItemsCounts; i++) {\n      uint tokenId = tokenByIndex(i);\n      NftItem storage item = _idToNftItem[tokenId];\n\n      if (item.isListed == true) {\n        items[currentIndex] = item;\n        currentIndex += 1;\n      }\n    }\n\n    return items;\n  }\n\n  function getAllNftsOnSale() external view returns (NftItem[] memory) {\n    uint allItemsCounts = totalSupply();\n    uint currentIndex = 0;\n    NftItem[] memory items = new NftItem[](_listedItems.current());\n\n    for (uint i = 0; i < allItemsCounts; i++) {\n      uint tokenId = tokenByIndex(i);\n      NftItem storage item = _idToNftItem[tokenId];\n\n      if (item.isListed == true) {\n        items[currentIndex] = item;\n        currentIndex += 1;\n      }\n    }\n\n    return items;\n  }\n\n  function getOwnedNfts() public view returns (NftItem[] memory) {\n    uint ownedItemsCount = ERC721.balanceOf(msg.sender);\n    NftItem[] memory items = new NftItem[](ownedItemsCount);\n\n    for (uint i = 0; i < ownedItemsCount; i++) {\n      uint tokenId = tokenOfOwnerByIndex(msg.sender, i);\n      NftItem storage item = _idToNftItem[tokenId];\n      items[i] = item;\n    }\n\n    return items;\n  }\n\n  function getNftItem(uint tokenId) public view returns (NftItem memory) {\n    return _idToNftItem[tokenId];\n  }\n\n  // function getNftListedItemsCount() public view returns (uint) {\n  //   return _listedItems.current();\n  // }\n\n  function orderBottle(\n    uint256 numberOfBottles,\n    uint256 tokenId,\n    string memory tokenURI\n  ) public payable {\n    require(numberOfBottles > 0, 'You cannot order 0 bottles');\n\n    uint256 year = getYear(block.timestamp);\n    uint256 yearExtractedBottles = _tokensExtractionsByYear[tokenId][year];\n    address creator = payable(_idToNftItem[tokenId].creator);\n\n    payable(creator).transfer(numberOfBottles * bottlePrice);\n\n    _tokensExtractionsByYear[tokenId][year] =\n      yearExtractedBottles +\n      numberOfBottles;\n\n    _setTokenURI(tokenId, tokenURI);\n  }\n\n  // function setListingPrice(uint256 newListingPrice) external onlyOwner {\n  //   require(newListingPrice > 0, 'Price must be at least 1 wei');\n  //   listingPrice = newListingPrice;\n  // }\n\n  // function placeNftOnSale(uint256 tokenId, uint256 newPrice) public {\n  //   require(\n  //     ERC721.ownerOf(tokenId) == msg.sender,\n  //     'You are not the owner of this nft'\n  //   );\n  //   require(\n  //     _idToNftItem[tokenId].isListed == false,\n  //     'Items is already on sale'\n  //   );\n\n  //   _idToNftItem[tokenId].isListed = true;\n  //   _idToNftItem[tokenId].price = newPrice;\n  //   _listedItems.increment();\n  // }\n\n  function totalSupply() public view returns (uint256) {\n    return _allNfts.length;\n  }\n\n  function tokenByIndex(uint index) public view returns (uint) {\n    require(index < totalSupply(), 'Index out of bounds');\n    return _allNfts[index];\n  }\n\n  function tokenOfOwnerByIndex(\n    address owner,\n    uint index\n  ) public view returns (uint) {\n    require(index < ERC721.balanceOf(owner), 'Index out of bounds');\n    return _ownedTokens[owner][index];\n  }\n\n  function supportsInterface(\n    bytes4 interfaceId\n  ) public view virtual override(ERC721, ERC2981) returns (bool) {\n    return super.supportsInterface(interfaceId);\n  }\n\n  function tokenURIExists(string memory tokenURI) public view returns (bool) {\n    return _usedTokenURIs[tokenURI] == true;\n  }\n\n  function getYear(uint256 timestamp) internal pure returns (uint256 year) {\n    (year, , ) = _daysToDate(timestamp / SECONDS_PER_DAY);\n  }\n\n  function setExcluded(address excluded, bool status) external onlyOwner {\n    excludedList[excluded] = status;\n  }\n\n  function transferFrom(\n    address from,\n    address to,\n    uint256 tokenId\n  ) public payable override {\n    require(\n      _isApprovedOrOwner(_msgSender(), tokenId),\n      'ERC721: transfer caller is not owner nor approved'\n    );\n\n    uint256 royalty;\n\n    if (msg.value > 0) {\n      (, royalty) = royaltyInfo(tokenId, msg.value);\n\n      if (excludedList[from] == false) {\n        _payTxFee(tokenId, royalty);\n        (bool successPayWithRoyalty, ) = payable(to).call{\n          value: msg.value - royalty\n        }('');\n        require(successPayWithRoyalty);\n      } else {\n        (bool successPayWithoutRoyalty, ) = payable(to).call{value: msg.value}(\n          ''\n        );\n        require(successPayWithoutRoyalty);\n      }\n    }\n\n    if (_idToNftItem[tokenId].isListed == true) {\n      _listedItems.decrement();\n      _idToNftItem[tokenId].isListed = false;\n    }\n\n    _idToNftItem[tokenId].owner = to;\n\n    _transfer(from, to, tokenId);\n\n    emit Sale(from, to, tokenId, msg.value);\n  }\n\n  function safeTransferFrom(\n    address from,\n    address to,\n    uint256 tokenId\n  ) public payable override {\n    uint256 royalty;\n\n    if (msg.value > 0) {\n      (, royalty) = royaltyInfo(tokenId, msg.value);\n\n      if (excludedList[from] == false) {\n        _payTxFee(tokenId, royalty);\n        (bool successPayWithRoyalty, ) = payable(to).call{\n          value: msg.value - royalty\n        }('');\n        require(successPayWithRoyalty);\n      } else {\n        (bool successPayWithoutRoyalty, ) = payable(to).call{value: msg.value}(\n          ''\n        );\n        require(successPayWithoutRoyalty);\n      }\n    }\n\n    if (_idToNftItem[tokenId].isListed == true) {\n      _listedItems.decrement();\n      _idToNftItem[tokenId].isListed = false;\n    }\n\n    _idToNftItem[tokenId].owner = to;\n\n    safeTransferFrom(from, to, tokenId, '');\n\n    emit Sale(from, to, tokenId, msg.value);\n  }\n\n  function safeTransferFrom(\n    address from,\n    address to,\n    uint256 tokenId,\n    bytes memory _data\n  ) public payable override {\n    require(\n      _isApprovedOrOwner(_msgSender(), tokenId),\n      'ERC721: transfer caller is not owner nor approved'\n    );\n\n    uint256 royalty;\n\n    if (msg.value > 0) {\n      (, royalty) = royaltyInfo(tokenId, msg.value);\n\n      if (excludedList[from] == false) {\n        _payTxFee(tokenId, royalty);\n        (bool successPayWithRoyalty, ) = payable(to).call{\n          value: msg.value - royalty\n        }('');\n        require(successPayWithRoyalty);\n      } else {\n        (bool successPayWithoutRoyalty, ) = payable(to).call{value: msg.value}(\n          ''\n        );\n        require(successPayWithoutRoyalty);\n      }\n    }\n\n    if (_idToNftItem[tokenId].isListed == true) {\n      _listedItems.decrement();\n      _idToNftItem[tokenId].isListed = false;\n    }\n\n    _idToNftItem[tokenId].owner = to;\n    _safeTransfer(from, to, tokenId, _data);\n\n    emit Sale(from, to, tokenId, msg.value);\n  }\n\n  // function getNftOffer(uint256 _tokenId) public view returns (Offer memory) {\n  //   Offer memory offer = tokenIdToOffer[_tokenId];\n  //   return offer;\n  // }\n\n  // function makeOffer(uint256 _tokenId) public payable {\n  //   // Ensure that the buyer is making a valid offer\n  //   require(\n  //     _idToNftItem[_tokenId].isListed == false,\n  //     'The nft is listed to buy it'\n  //   );\n  //   require(\n  //     msg.value > tokenIdToOffer[_tokenId].highestBid,\n  //     'Offer price is too low'\n  //   );\n\n  //   Offer memory offer;\n\n  //   offer = getNftOffer(_tokenId);\n\n  //   if (offerBidsFromTokenId[_tokenId][msg.sender] > 0) {\n  //     uint amount = offerBidsFromTokenId[_tokenId][msg.sender];\n  //     payable(msg.sender).transfer(amount);\n  //   }\n\n  //   // Save the offer details\n  //   _setOffer(_tokenId, msg.value);\n  //   tokenIdToOffer[_tokenId].highestBidder = msg.sender;\n  //   tokenIdToOffer[_tokenId].highestBid = msg.value;\n  // }\n\n  // function _updateOfferWithNewBuyer(uint256 _tokenId, address buyer) private {\n  //   require(_owns(buyer, _tokenId));\n  //   tokenIdToOffer[_tokenId].highestBid = tokenIdToOffer[_tokenId].lowerBid;\n  //   tokenIdToOffer[_tokenId].highestBidder = buyer;\n  //   tokenIdToOffer[_tokenId].seller = buyer;\n  // }\n\n  // function _createNftOffer(\n  //   uint256 _tokenId,\n  //   uint256 _nftPrice,\n  //   address _seller\n  // ) private {\n  //   // Sanity check that no inputs overflow how many bits we've allocated\n  //   // to store them in the auction struct.\n  //   require(_owns(msg.sender, _tokenId));\n\n  //   _setOffer(_tokenId, _nftPrice);\n\n  //   Offer memory offer = Offer(\n  //     _tokenId,\n  //     _seller,\n  //     _nftPrice,\n  //     _nftPrice,\n  //     msg.sender\n  //   );\n\n  //   _addAuction(_tokenId, offer);\n  // }\n\n  // function acceptOffer(uint256 _tokenId) public payable {\n  //   require(_owns(msg.sender, _tokenId), 'Only owner can accept the offer');\n  //   address payable seller = payable(tokenIdToOffer[_tokenId].seller);\n  //   uint256 highestBid = tokenIdToOffer[_tokenId].highestBid;\n  //   address highestBidder = tokenIdToOffer[_tokenId].highestBidder;\n  //   uint256 royalty;\n\n  //   (, royalty) = royaltyInfo(_tokenId, highestBid);\n\n  //   if (excludedList[highestBidder] == false) {\n  //     _payTxFee(_tokenId, royalty);\n  //   }\n\n  //   seller.transfer(highestBid - royalty);\n  //   ERC721.transferFrom(msg.sender, highestBidder, _tokenId);\n\n  //   _removeOffer(_tokenId, highestBidder);\n  //   _updateOfferWithNewBuyer(_tokenId, highestBidder);\n\n  //   _idToNftItem[_tokenId].owner = highestBidder;\n  // }\n\n  // function getBidAddressesByTokenId(\n  //   uint256 _tokenId\n  // ) external view returns (address[] memory) {\n  //   return addressesFromTokenId[_tokenId];\n  // }\n\n  // function withdraw(uint256 _tokenId) external payable returns (bool) {\n  //   require(\n  //     offerBidsFromTokenId[_tokenId][msg.sender] > 0,\n  //     'You must have a bid to be able to witdraw'\n  //   );\n\n  //   uint amount = offerBidsFromTokenId[_tokenId][msg.sender];\n  //   payable(msg.sender).transfer(amount);\n\n  //   _removeOffer(_tokenId, msg.sender);\n\n  //   if (tokenIdToOffer[_tokenId].highestBidder == msg.sender) {\n  //     tokenIdToOffer[_tokenId].highestBid = tokenIdToOffer[_tokenId].lowerBid;\n  //     tokenIdToOffer[_tokenId].highestBidder = tokenIdToOffer[_tokenId].seller;\n  //     for (uint i = 0; i < addressesFromTokenId[_tokenId].length; i++) {\n  //       if (\n  //         offerBidsFromTokenId[_tokenId][addressesFromTokenId[_tokenId][i]] >\n  //         tokenIdToOffer[_tokenId].highestBid\n  //       ) {\n  //         tokenIdToOffer[_tokenId].highestBid = offerBidsFromTokenId[_tokenId][\n  //           addressesFromTokenId[_tokenId][i]\n  //         ];\n  //         tokenIdToOffer[_tokenId].highestBidder = addressesFromTokenId[\n  //           _tokenId\n  //         ][i];\n  //       }\n  //     }\n  //   }\n\n  //   return true;\n  // }\n\n  // function _owns(\n  //   address _claimant,\n  //   uint256 _tokenId\n  // ) internal view returns (bool) {\n  //   return (ERC721.ownerOf(_tokenId) == _claimant);\n  // }\n\n  // function _addAuction(uint256 _tokenId, Offer memory _offer) internal {\n  //   tokenIdToOffer[_tokenId] = _offer;\n  // }\n\n  // function _setOffer(uint256 _tokenId, uint256 offer) private {\n  //   offerBidsFromTokenId[_tokenId][msg.sender] = offer;\n  //   indexOfofferBidsFromAddress[_tokenId][msg.sender] = addressesFromTokenId[\n  //     _tokenId\n  //   ].length;\n  //   addressesFromTokenId[_tokenId].push(msg.sender);\n  // }\n\n  // function _removeOffer(uint256 _tokenId, address bidder) public {\n  //   delete offerBidsFromTokenId[_tokenId][bidder];\n\n  //   uint index = indexOfofferBidsFromAddress[_tokenId][bidder];\n  //   uint lastIndex = addressesFromTokenId[_tokenId].length - 1;\n  //   address lastBidder = addressesFromTokenId[_tokenId][lastIndex];\n\n  //   indexOfofferBidsFromAddress[_tokenId][lastBidder] = index;\n  //   delete indexOfofferBidsFromAddress[_tokenId][bidder];\n\n  //   addressesFromTokenId[_tokenId][index] = lastBidder;\n  //   addressesFromTokenId[_tokenId].pop();\n  // }\n\n  function _createNftItem(uint tokenId, uint price) private {\n    require(price > 0, 'Price must be at least 1 wei');\n\n    _idToNftItem[tokenId] = NftItem(\n      tokenId,\n      price,\n      msg.sender,\n      msg.sender,\n      false,\n      true\n    );\n\n    emit NftItemCreated(tokenId, price, msg.sender, msg.sender, true);\n  }\n\n  // function _isOwnerCreator(uint tokenId) private view returns (bool) {\n  //   address owner = ERC721.ownerOf(tokenId);\n  //   return _idToNftItem[tokenId].creator == owner;\n  // }\n\n  function _payTxFeeWithERC20(\n    uint256 tokenId,\n    address _erc20Token,\n    uint256 royalty\n  ) internal {\n    IERC20 token = IERC20(_erc20Token);\n    address creator = _idToNftItem[tokenId].creator;\n    token.transferFrom(msg.sender, creator, royalty);\n  }\n\n  function _payTxFee(uint256 tokenId, uint256 royalty) internal {\n    address creator = payable(_idToNftItem[tokenId].creator);\n    (bool success1, ) = payable(creator).call{value: royalty}('');\n    require(success1);\n  }\n\n  function _beforeTokenTransfer(\n    address from,\n    address to,\n    uint tokenId,\n    uint256 batchSize\n  ) internal virtual override {\n    super._beforeTokenTransfer(from, to, tokenId, batchSize);\n\n    if (from == address(0)) {\n      // MINTING CASE\n      _addTokenToAllTokensEnumeration(tokenId);\n    } else if (from != to) {\n      // TRANSFER CASE\n      _removeTokenFromOwnerEnumeration(from, tokenId);\n    }\n\n    if (to == address(0)) {\n      // BURNING CASE\n      _removeTokenFromAllTokensEnumeration(tokenId);\n    } else if (to != from) {\n      // TRANSFER CASE\n      _addTokenToOwnerEnumeration(to, tokenId);\n    }\n  }\n\n  function _addTokenToAllTokensEnumeration(uint tokenId) private {\n    _idToNftIndex[tokenId] = _allNfts.length;\n    _allNfts.push(tokenId);\n  }\n\n  function _addTokenToOwnerEnumeration(address to, uint tokenId) private {\n    uint length = ERC721.balanceOf(to);\n    _ownedTokens[to][length] = tokenId;\n    _idToOwnedIndex[tokenId] = length;\n  }\n\n  function _removeTokenFromOwnerEnumeration(\n    address from,\n    uint tokenId\n  ) private {\n    uint lastTokenIndex = ERC721.balanceOf(from) - 1;\n    uint tokenIndex = _idToOwnedIndex[tokenId];\n\n    if (tokenIndex != lastTokenIndex) {\n      uint lastTokenId = _ownedTokens[from][lastTokenIndex];\n\n      _ownedTokens[from][tokenIndex] = lastTokenId;\n      _idToOwnedIndex[lastTokenId] = tokenIndex;\n    }\n\n    delete _idToOwnedIndex[tokenId];\n    delete _ownedTokens[from][lastTokenIndex];\n  }\n\n  function _removeTokenFromAllTokensEnumeration(uint tokenId) private {\n    uint lastTokenIndex = _allNfts.length - 1;\n    uint tokenIndex = _idToNftIndex[tokenId];\n    uint lastTokenId = _allNfts[lastTokenIndex];\n\n    _allNfts[tokenIndex] = lastTokenId;\n    _idToNftIndex[lastTokenId] = tokenIndex;\n    _listedItems.decrement();\n\n    delete _idToNftIndex[tokenId];\n    _allNfts.pop();\n  }\n\n  function _daysToDate(\n    uint256 _days\n  ) internal pure returns (uint256 year, uint256 month, uint256 day) {\n    unchecked {\n      int256 __days = int256(_days);\n\n      int256 L = __days + 68569 + OFFSET19700101;\n      int256 N = (4 * L) / 146097;\n      L = L - (146097 * N + 3) / 4;\n      int256 _year = (4000 * (L + 1)) / 1461001;\n      L = L - (1461 * _year) / 4 + 31;\n      int256 _month = (80 * L) / 2447;\n      int256 _day = L - (2447 * _month) / 80;\n      L = _month / 11;\n      _month = _month + 2 - 12 * L;\n      _year = 100 * (N - 49) + _year + L;\n\n      year = uint256(_year);\n      month = uint256(_month);\n      day = uint256(_day);\n    }\n  }\n}\n",
  "sourcePath": "/Users/alberto/Desktop/Enalbis/myCask/nft-marketplace-frontend/contracts/NftMarket.sol",
  "compiler": {
    "name": "solc",
    "version": "0.8.17+commit.8df45f5f.Emscripten.clang"
  },
  "schemaVersion": "3.4.11",
  "updatedAt": "2023-01-19T22:06:48.060Z",
  "networkType": "ethereum",
  "devdoc": {
    "kind": "dev",
    "methods": {
      "approve(address,uint256)": {
        "details": "See {IERC721-approve}."
      },
      "balanceOf(address)": {
        "details": "See {IERC721-balanceOf}."
      },
      "getApproved(uint256)": {
        "details": "See {IERC721-getApproved}."
      },
      "isApprovedForAll(address,address)": {
        "details": "See {IERC721-isApprovedForAll}."
      },
      "name()": {
        "details": "See {IERC721Metadata-name}."
      },
      "owner()": {
        "details": "Returns the address of the current owner."
      },
      "ownerOf(uint256)": {
        "details": "See {IERC721-ownerOf}."
      },
      "renounceOwnership()": {
        "details": "Leaves the contract without owner. It will not be possible to call `onlyOwner` functions anymore. Can only be called by the current owner. NOTE: Renouncing ownership will leave the contract without an owner, thereby removing any functionality that is only available to the owner."
      },
      "royaltyInfo(uint256,uint256)": {
        "details": "Returns how much royalty is owed and to whom, based on a sale price that may be denominated in any unit of exchange. The royalty amount is denominated and should be paid in that same unit of exchange."
      },
      "safeTransferFrom(address,address,uint256)": {
        "details": "See {IERC721-safeTransferFrom}."
      },
      "setApprovalForAll(address,bool)": {
        "details": "See {IERC721-setApprovalForAll}."
      },
      "symbol()": {
        "details": "See {IERC721Metadata-symbol}."
      },
      "tokenURI(uint256)": {
        "details": "See {IERC721Metadata-tokenURI}."
      },
      "transferFrom(address,address,uint256)": {
        "details": "See {IERC721-transferFrom}."
      },
      "transferOwnership(address)": {
        "details": "Transfers ownership of the contract to a new account (`newOwner`). Can only be called by the current owner."
      }
    },
    "version": 1
  },
  "userdoc": {
    "kind": "user",
    "methods": {},
    "version": 1
  }
}