{
  "contractName": "NftOffers",
  "abi": [
    {
      "inputs": [
        {
          "internalType": "contract ERC721",
          "name": "_nonFungibleContract",
          "type": "address"
        }
      ],
      "stateMutability": "nonpayable",
      "type": "constructor"
    },
    {
      "anonymous": false,
      "inputs": [
        {
          "indexed": true,
          "internalType": "address",
          "name": "sender",
          "type": "address"
        },
        {
          "indexed": false,
          "internalType": "uint256",
          "name": "amount",
          "type": "uint256"
        }
      ],
      "name": "Bid",
      "type": "event"
    },
    {
      "anonymous": false,
      "inputs": [
        {
          "indexed": false,
          "internalType": "address",
          "name": "highestBidder",
          "type": "address"
        },
        {
          "indexed": false,
          "internalType": "uint256",
          "name": "highestBid",
          "type": "uint256"
        }
      ],
      "name": "End",
      "type": "event"
    },
    {
      "anonymous": false,
      "inputs": [
        {
          "indexed": true,
          "internalType": "address",
          "name": "previousOwner",
          "type": "address"
        },
        {
          "indexed": true,
          "internalType": "address",
          "name": "newOwner",
          "type": "address"
        }
      ],
      "name": "OwnershipTransferred",
      "type": "event"
    },
    {
      "anonymous": false,
      "inputs": [],
      "name": "Start",
      "type": "event"
    },
    {
      "anonymous": false,
      "inputs": [
        {
          "indexed": true,
          "internalType": "address",
          "name": "bidder",
          "type": "address"
        },
        {
          "indexed": false,
          "internalType": "uint256",
          "name": "amount",
          "type": "uint256"
        }
      ],
      "name": "Withdraw",
      "type": "event"
    },
    {
      "inputs": [
        {
          "internalType": "address",
          "name": "",
          "type": "address"
        }
      ],
      "name": "bids",
      "outputs": [
        {
          "internalType": "uint256",
          "name": "",
          "type": "uint256"
        }
      ],
      "stateMutability": "view",
      "type": "function"
    },
    {
      "inputs": [],
      "name": "nonFungibleContract",
      "outputs": [
        {
          "internalType": "contract ERC721",
          "name": "",
          "type": "address"
        }
      ],
      "stateMutability": "view",
      "type": "function"
    },
    {
      "inputs": [],
      "name": "owner",
      "outputs": [
        {
          "internalType": "address",
          "name": "",
          "type": "address"
        }
      ],
      "stateMutability": "view",
      "type": "function"
    },
    {
      "inputs": [],
      "name": "renounceOwnership",
      "outputs": [],
      "stateMutability": "nonpayable",
      "type": "function"
    },
    {
      "inputs": [
        {
          "internalType": "address",
          "name": "newOwner",
          "type": "address"
        }
      ],
      "name": "transferOwnership",
      "outputs": [],
      "stateMutability": "nonpayable",
      "type": "function"
    },
    {
      "inputs": [
        {
          "internalType": "uint256",
          "name": "_tokenId",
          "type": "uint256"
        },
        {
          "internalType": "uint256",
          "name": "_nftPrice",
          "type": "uint256"
        },
        {
          "internalType": "address",
          "name": "_seller",
          "type": "address"
        }
      ],
      "name": "createNftOffer",
      "outputs": [],
      "stateMutability": "nonpayable",
      "type": "function"
    },
    {
      "inputs": [
        {
          "internalType": "uint256",
          "name": "_tokenId",
          "type": "uint256"
        }
      ],
      "name": "acceptOffer",
      "outputs": [],
      "stateMutability": "payable",
      "type": "function"
    },
    {
      "inputs": [
        {
          "internalType": "uint256",
          "name": "_tokenId",
          "type": "uint256"
        }
      ],
      "name": "getBidAddressesByTokenId",
      "outputs": [
        {
          "internalType": "address[]",
          "name": "",
          "type": "address[]"
        }
      ],
      "stateMutability": "view",
      "type": "function"
    },
    {
      "inputs": [
        {
          "internalType": "uint256",
          "name": "_tokenId",
          "type": "uint256"
        }
      ],
      "name": "makeOffer",
      "outputs": [],
      "stateMutability": "payable",
      "type": "function"
    },
    {
      "inputs": [
        {
          "internalType": "uint256",
          "name": "_tokenId",
          "type": "uint256"
        }
      ],
      "name": "withdraw",
      "outputs": [
        {
          "internalType": "bool",
          "name": "",
          "type": "bool"
        }
      ],
      "stateMutability": "payable",
      "type": "function"
    },
    {
      "inputs": [
        {
          "internalType": "uint256",
          "name": "_tokenId",
          "type": "uint256"
        }
      ],
      "name": "getNftOffer",
      "outputs": [
        {
          "components": [
            {
              "internalType": "uint256",
              "name": "nftId",
              "type": "uint256"
            },
            {
              "internalType": "address",
              "name": "seller",
              "type": "address"
            },
            {
              "internalType": "uint256",
              "name": "lowerBid",
              "type": "uint256"
            },
            {
              "internalType": "uint256",
              "name": "highestBid",
              "type": "uint256"
            },
            {
              "internalType": "address",
              "name": "highestBidder",
              "type": "address"
            }
          ],
          "internalType": "struct NftOffers.Offer",
          "name": "",
          "type": "tuple"
        }
      ],
      "stateMutability": "view",
      "type": "function"
    },
    {
      "inputs": [
        {
          "internalType": "uint256",
          "name": "_tokenId",
          "type": "uint256"
        }
      ],
      "name": "_removeOffer",
      "outputs": [],
      "stateMutability": "nonpayable",
      "type": "function"
    }
  ],
  "bytecode": "0x608060405234801561001057600080fd5b50604051610f5c380380610f5c83398101604081905261002f916100ad565b6100383361005d565b600580546001600160a01b0319166001600160a01b03929092169190911790556100dd565b600080546001600160a01b038381166001600160a01b0319831681178455604051919092169283917f8be0079c531659141344cd1fd0a4f28419497f9722a3daafe3b4186f6b6457e09190a35050565b6000602082840312156100bf57600080fd5b81516001600160a01b03811681146100d657600080fd5b9392505050565b610e70806100ec6000396000f3fe6080604052600436106100a75760003560e01c80639a2f6474116100645780639a2f647414610198578063c815729d146101ab578063dd1b7a0f146101be578063e3e74143146101de578063e9cf32a01461020b578063f2fde38b1461027757600080fd5b80631583bf77146100ac5780632e1a7d4d146100ce578063465c9c49146100f657806362ea82db14610116578063715018a6146101515780638da5cb5b14610166575b600080fd5b3480156100b857600080fd5b506100cc6100c7366004610cec565b610297565b005b6100e16100dc366004610d25565b610340565b60405190151581526020015b60405180910390f35b34801561010257600080fd5b506100cc610111366004610d25565b6105bf565b34801561012257600080fd5b50610143610131366004610d3e565b60066020526000908152604090205481565b6040519081526020016100ed565b34801561015d57600080fd5b506100cc6106fb565b34801561017257600080fd5b506000546001600160a01b03165b6040516001600160a01b0390911681526020016100ed565b6100cc6101a6366004610d25565b61070f565b6100cc6101b9366004610d25565b610805565b3480156101ca57600080fd5b50600554610180906001600160a01b031681565b3480156101ea57600080fd5b506101fe6101f9366004610d25565b6109c1565b6040516100ed9190610d62565b34801561021757600080fd5b5061022b610226366004610d25565b610a2d565b6040516100ed9190815181526020808301516001600160a01b03908116918301919091526040808401519083015260608084015190830152608092830151169181019190915260a00190565b34801561028357600080fd5b506100cc610292366004610d3e565b610acd565b61029f610b46565b6102a93384610ba0565b6102b257600080fd5b6102bc8383610c26565b6040805160a0810182528481526001600160a01b03928316602080830191825282840186815260608401968752336080850190815260009889526001928390529490972092518355905190820180549185166001600160a01b0319928316179055945160028201559251600384015551600490920180549290911691909216179055565b60008181526002602090815260408083203384529091528120546103bd5760405162461bcd60e51b815260206004820152602960248201527f596f75206d757374206861766520612062696420746f2062652061626c6520746044820152686f207769746472617760b81b60648201526084015b60405180910390fd5b6000828152600260209081526040808320338085529252808320549051909283156108fc02918491818181858888f19350505050158015610402573d6000803e3d6000fd5b5061040c836105bf565b600083815260016020526040902060040154336001600160a01b03909116036105b657600083815260016020819052604082206002810154600382015590810154600490910180546001600160a01b0319166001600160a01b039092169190911790555b6000848152600460205260409020548110156105b4576000848152600160209081526040808320600301546002835281842060049093529083208054919391859081106104bf576104bf610daf565b60009182526020808320909101546001600160a01b0316835282019290925260400190205411156105a25760008481526002602090815260408083206004909252822080549192918490811061051757610517610daf565b60009182526020808320909101546001600160a01b0316835282810193909352604091820181205487825260018452828220600301556004909252902080548290811061056657610566610daf565b60009182526020808320909101548683526001909152604090912060040180546001600160a01b0319166001600160a01b039092169190911790555b806105ac81610ddb565b915050610470565b505b50600192915050565b60008181526002602090815260408083203380855290835281842084905584845260038352818420908452825280832054848452600490925282205490919061060a90600190610df4565b6000848152600460205260408120805492935090918390811061062f5761062f610daf565b6000918252602080832091909101548683526003825260408084206001600160a01b0390921680855291835280842087905533845280842084905587845260049092529120805491925082918590811061068b5761068b610daf565b600091825260208083209190910180546001600160a01b0319166001600160a01b0394909416939093179092558581526004909152604090208054806106d3576106d3610e07565b600082815260209020810160001990810180546001600160a01b031916905501905550505050565b610703610b46565b61070d6000610c87565b565b6000818152600160205260409020600301543410156107695760405162461bcd60e51b81526020600482015260166024820152754f6666657220707269636520697320746f6f206c6f7760501b60448201526064016103b4565b6000818152600260209081526040808320338452909152902054156107d0576000818152600260209081526040808320338085529252808320549051909283156108fc02918491818181858888f193505050501580156107cd573d6000803e3d6000fd5b50505b6107da8134610c26565b60009081526001602052604090206004810180546001600160a01b0319163317905534600390910155565b600081815260016020818152604092839020835160a08101855281548152928101546001600160a01b03908116928401839052600282015494840194909452600381015460608401526004015490921660808201529033146108a95760405162461bcd60e51b815260206004820181905260248201527f4f6e6c792073656c6c65722063616e2061636365707420746865206f6666657260448201526064016103b4565b600081602001516001600160a01b0316826060015160405160006040518083038185875af1925050503d80600081146108fe576040519150601f19603f3d011682016040523d82523d6000602084013e610903565b606091505b50506005546080840151604051632142170760e11b81523360048201526001600160a01b0391821660248201526044810187905292935016906342842e0e90606401600060405180830381600087803b15801561095f57600080fd5b505af1158015610973573d6000803e3d6000fd5b50505050806109bc5760405162461bcd60e51b8152602060048201526015602482015274436f756c64206e6f74207061792073656c6c65722160581b60448201526064016103b4565b505050565b600081815260046020908152604091829020805483518184028101840190945280845260609392830182828015610a2157602002820191906000526020600020905b81546001600160a01b03168152600190910190602001808311610a03575b50505050509050919050565b610a716040518060a001604052806000815260200160006001600160a01b03168152602001600081526020016000815260200160006001600160a01b031681525090565b50600090815260016020818152604092839020835160a08101855281548152928101546001600160a01b039081169284019290925260028101549383019390935260038301546060830152600490920154909116608082015290565b610ad5610b46565b6001600160a01b038116610b3a5760405162461bcd60e51b815260206004820152602660248201527f4f776e61626c653a206e6577206f776e657220697320746865207a65726f206160448201526564647265737360d01b60648201526084016103b4565b610b4381610c87565b50565b6000546001600160a01b0316331461070d5760405162461bcd60e51b815260206004820181905260248201527f4f776e61626c653a2063616c6c6572206973206e6f7420746865206f776e657260448201526064016103b4565b6005546040516331a9108f60e11b8152600481018390526000916001600160a01b0385811692911690636352211e90602401602060405180830381865afa158015610bef573d6000803e3d6000fd5b505050506040513d601f19601f82011682018060405250810190610c139190610e1d565b6001600160a01b03161490505b92915050565b60008281526002602090815260408083203380855290835281842094909455938252600480825284832080546003845286852086865284529584208690559082526001850181558252902090910180546001600160a01b0319169091179055565b600080546001600160a01b038381166001600160a01b0319831681178455604051919092169283917f8be0079c531659141344cd1fd0a4f28419497f9722a3daafe3b4186f6b6457e09190a35050565b6001600160a01b0381168114610b4357600080fd5b600080600060608486031215610d0157600080fd5b83359250602084013591506040840135610d1a81610cd7565b809150509250925092565b600060208284031215610d3757600080fd5b5035919050565b600060208284031215610d5057600080fd5b8135610d5b81610cd7565b9392505050565b6020808252825182820181905260009190848201906040850190845b81811015610da35783516001600160a01b031683529284019291840191600101610d7e565b50909695505050505050565b634e487b7160e01b600052603260045260246000fd5b634e487b7160e01b600052601160045260246000fd5b600060018201610ded57610ded610dc5565b5060010190565b81810381811115610c2057610c20610dc5565b634e487b7160e01b600052603160045260246000fd5b600060208284031215610e2f57600080fd5b8151610d5b81610cd756fea26469706673582212206e16a834525bc31dd66db8533a8e02aed89b1d647413e09d5507627e497b090264736f6c63430008110033",
  "immutableReferences": {},
  "source": "// SPDX-License-Identifier: MIT\npragma solidity >=0.4.22 <0.9.0;\n\nimport '@openzeppelin/contracts/token/common/ERC2981.sol';\nimport '@openzeppelin/contracts/token/ERC721/extensions/ERC721URIStorage.sol';\nimport '@openzeppelin/contracts/access/Ownable.sol';\nimport '@openzeppelin/contracts/utils/Counters.sol';\nimport '@openzeppelin/contracts/token/ERC20/IERC20.sol';\nimport '@openzeppelin/contracts/utils/math/SafeMath.sol';\nimport '@openzeppelin/contracts/token/ERC20/utils/SafeERC20.sol';\n\ncontract NftOffers is Ownable {\n  struct Offer {\n    // Current owner of NFT\n    uint256 nftId;\n    address seller;\n    uint lowerBid;\n    uint highestBid;\n    address highestBidder;\n  }\n\n  event Start();\n  event End(address highestBidder, uint highestBid);\n  event Bid(address indexed sender, uint amount);\n  event Withdraw(address indexed bidder, uint amount);\n\n  // Map from token ID to their corresponding auction.\n  mapping(uint256 => Offer) tokenIdToOffer;\n\n  mapping(uint256 => mapping(address => uint256)) offerBidsFromTokenId;\n  mapping(uint256 => mapping(address => uint256)) indexOfofferBidsFromTokenId;\n  mapping(uint256 => address[]) addressesFromTokenId;\n\n  ERC721 public nonFungibleContract;\n\n  mapping(address => uint) public bids;\n\n  constructor(ERC721 _nonFungibleContract) {\n    nonFungibleContract = _nonFungibleContract;\n  }\n\n  function createNftOffer(\n    uint256 _tokenId,\n    uint256 _nftPrice,\n    address _seller\n  ) external onlyOwner {\n    // Sanity check that no inputs overflow how many bits we've allocated\n    // to store them in the auction struct.\n    require(_owns(msg.sender, _tokenId));\n\n    _setOffer(_tokenId, _nftPrice);\n\n    Offer memory offer = Offer(\n      _tokenId,\n      _seller,\n      _nftPrice,\n      _nftPrice,\n      msg.sender\n    );\n\n    _addAuction(_tokenId, offer);\n  }\n\n  function acceptOffer(uint256 _tokenId) public payable {\n    Offer memory offer = tokenIdToOffer[_tokenId];\n    require(msg.sender == offer.seller, 'Only seller can accept the offer');\n    (bool sent, ) = offer.seller.call{value: offer.highestBid}('');\n    nonFungibleContract.safeTransferFrom(\n      msg.sender,\n      offer.highestBidder,\n      _tokenId\n    );\n    require(sent, 'Could not pay seller!');\n  }\n\n  function getBidAddressesByTokenId(\n    uint256 _tokenId\n  ) external view returns (address[] memory) {\n    return addressesFromTokenId[_tokenId];\n  }\n\n  function makeOffer(uint256 _tokenId) public payable {\n    // Ensure that the buyer is making a valid offer\n    require(\n      msg.value >= tokenIdToOffer[_tokenId].highestBid,\n      'Offer price is too low'\n    );\n\n    if (offerBidsFromTokenId[_tokenId][msg.sender] > 0) {\n      uint amount = offerBidsFromTokenId[_tokenId][msg.sender];\n      payable(msg.sender).transfer(amount);\n    }\n\n    // Save the offer details\n    _setOffer(_tokenId, msg.value);\n    tokenIdToOffer[_tokenId].highestBidder = msg.sender;\n    tokenIdToOffer[_tokenId].highestBid = msg.value;\n  }\n\n  function withdraw(uint256 _tokenId) external payable returns (bool) {\n    require(\n      offerBidsFromTokenId[_tokenId][msg.sender] > 0,\n      'You must have a bid to be able to witdraw'\n    );\n\n    uint amount = offerBidsFromTokenId[_tokenId][msg.sender];\n    payable(msg.sender).transfer(amount);\n\n    _removeOffer(_tokenId);\n\n    if (tokenIdToOffer[_tokenId].highestBidder == msg.sender) {\n      tokenIdToOffer[_tokenId].highestBid = tokenIdToOffer[_tokenId].lowerBid;\n      tokenIdToOffer[_tokenId].highestBidder = tokenIdToOffer[_tokenId].seller;\n      for (uint i = 0; i < addressesFromTokenId[_tokenId].length; i++) {\n        if (\n          offerBidsFromTokenId[_tokenId][addressesFromTokenId[_tokenId][i]] >\n          tokenIdToOffer[_tokenId].highestBid\n        ) {\n          tokenIdToOffer[_tokenId].highestBid = offerBidsFromTokenId[_tokenId][\n            addressesFromTokenId[_tokenId][i]\n          ];\n          tokenIdToOffer[_tokenId].highestBidder = addressesFromTokenId[\n            _tokenId\n          ][i];\n        }\n      }\n    }\n\n    return true;\n  }\n\n  function getNftOffer(uint256 _tokenId) external view returns (Offer memory) {\n    Offer memory offer = tokenIdToOffer[_tokenId];\n    return offer;\n  }\n\n  function _owns(\n    address _claimant,\n    uint256 _tokenId\n  ) internal view returns (bool) {\n    return (nonFungibleContract.ownerOf(_tokenId) == _claimant);\n  }\n\n  function _addAuction(uint256 _tokenId, Offer memory _offer) internal {\n    tokenIdToOffer[_tokenId] = _offer;\n  }\n\n  function _setOffer(uint256 _tokenId, uint256 offer) private {\n    offerBidsFromTokenId[_tokenId][msg.sender] = offer;\n    indexOfofferBidsFromTokenId[_tokenId][msg.sender] = addressesFromTokenId[\n      _tokenId\n    ].length;\n    addressesFromTokenId[_tokenId].push(msg.sender);\n  }\n\n  function _removeOffer(uint256 _tokenId) public {\n    delete offerBidsFromTokenId[_tokenId][msg.sender];\n\n    uint index = indexOfofferBidsFromTokenId[_tokenId][msg.sender];\n    uint lastIndex = addressesFromTokenId[_tokenId].length - 1;\n    address lastBidder = addressesFromTokenId[_tokenId][lastIndex];\n\n    indexOfofferBidsFromTokenId[_tokenId][lastBidder] = index;\n    delete indexOfofferBidsFromTokenId[_tokenId][msg.sender];\n\n    addressesFromTokenId[_tokenId][index] = lastBidder;\n    addressesFromTokenId[_tokenId].pop();\n  }\n\n  // function _transfer(address _receiver, uint256 _tokenId) internal {\n  //     // it will throw if transfer fails\n  //     nonFungibleContract.transfer(_receiver, _tokenId);\n  // }\n}\n",
  "sourcePath": "/Users/alberto/Desktop/Enalbis/myCask/nft-marketplace-frontend/contracts/NftOffers.sol",
  "compiler": {
    "name": "solc",
    "version": "0.8.17+commit.8df45f5f.Emscripten.clang"
  },
  "schemaVersion": "3.4.11",
  "updatedAt": "2023-01-16T17:13:51.603Z",
  "networkType": "ethereum",
  "devdoc": {
    "kind": "dev",
    "methods": {
      "owner()": {
        "details": "Returns the address of the current owner."
      },
      "renounceOwnership()": {
        "details": "Leaves the contract without owner. It will not be possible to call `onlyOwner` functions anymore. Can only be called by the current owner. NOTE: Renouncing ownership will leave the contract without an owner, thereby removing any functionality that is only available to the owner."
      },
      "transferOwnership(address)": {
        "details": "Transfers ownership of the contract to a new account (`newOwner`). Can only be called by the current owner."
      }
    },
    "version": 1
  },
  "userdoc": {
    "kind": "user",
    "methods": {},
    "version": 1
  }
}