{
  "contractName": "NftVendor",
  "abi": [
    {
      "inputs": [
        {
          "internalType": "address",
          "name": "_collection",
          "type": "address"
        },
        {
          "internalType": "address",
          "name": "_creator",
          "type": "address"
        }
      ],
      "stateMutability": "nonpayable",
      "type": "constructor"
    },
    {
      "inputs": [
        {
          "internalType": "address",
          "name": "nftAddress",
          "type": "address"
        },
        {
          "internalType": "uint256",
          "name": "tokenId",
          "type": "uint256"
        }
      ],
      "name": "AlreadyListed",
      "type": "error"
    },
    {
      "inputs": [],
      "name": "IsNotOwner",
      "type": "error"
    },
    {
      "inputs": [],
      "name": "NoProceeds",
      "type": "error"
    },
    {
      "inputs": [],
      "name": "NotApprovedForMarketplace",
      "type": "error"
    },
    {
      "inputs": [
        {
          "internalType": "address",
          "name": "nftAddress",
          "type": "address"
        },
        {
          "internalType": "uint256",
          "name": "tokenId",
          "type": "uint256"
        }
      ],
      "name": "NotListed",
      "type": "error"
    },
    {
      "inputs": [],
      "name": "NotOwner",
      "type": "error"
    },
    {
      "inputs": [],
      "name": "PriceMustBeAboveZero",
      "type": "error"
    },
    {
      "inputs": [
        {
          "internalType": "address",
          "name": "nftAddress",
          "type": "address"
        },
        {
          "internalType": "uint256",
          "name": "tokenId",
          "type": "uint256"
        },
        {
          "internalType": "uint256",
          "name": "price",
          "type": "uint256"
        }
      ],
      "name": "PriceNotMet",
      "type": "error"
    },
    {
      "anonymous": false,
      "inputs": [
        {
          "indexed": true,
          "internalType": "address",
          "name": "buyer",
          "type": "address"
        },
        {
          "indexed": true,
          "internalType": "address",
          "name": "nftAddress",
          "type": "address"
        },
        {
          "indexed": true,
          "internalType": "uint256",
          "name": "tokenId",
          "type": "uint256"
        },
        {
          "indexed": false,
          "internalType": "uint256",
          "name": "price",
          "type": "uint256"
        }
      ],
      "name": "ItemBought",
      "type": "event"
    },
    {
      "anonymous": false,
      "inputs": [
        {
          "indexed": true,
          "internalType": "address",
          "name": "seller",
          "type": "address"
        },
        {
          "indexed": true,
          "internalType": "address",
          "name": "nftAddress",
          "type": "address"
        },
        {
          "indexed": true,
          "internalType": "uint256",
          "name": "tokenId",
          "type": "uint256"
        }
      ],
      "name": "ItemCanceled",
      "type": "event"
    },
    {
      "anonymous": false,
      "inputs": [
        {
          "indexed": true,
          "internalType": "address",
          "name": "seller",
          "type": "address"
        },
        {
          "indexed": true,
          "internalType": "address",
          "name": "nftAddress",
          "type": "address"
        },
        {
          "indexed": true,
          "internalType": "uint256",
          "name": "tokenId",
          "type": "uint256"
        },
        {
          "indexed": false,
          "internalType": "uint256",
          "name": "price",
          "type": "uint256"
        }
      ],
      "name": "ItemListed",
      "type": "event"
    },
    {
      "inputs": [],
      "name": "collection",
      "outputs": [
        {
          "internalType": "address",
          "name": "",
          "type": "address"
        }
      ],
      "stateMutability": "view",
      "type": "function",
      "constant": true
    },
    {
      "inputs": [],
      "name": "creator",
      "outputs": [
        {
          "internalType": "address",
          "name": "",
          "type": "address"
        }
      ],
      "stateMutability": "view",
      "type": "function",
      "constant": true
    },
    {
      "inputs": [
        {
          "internalType": "uint256",
          "name": "_tokenId",
          "type": "uint256"
        },
        {
          "internalType": "uint256",
          "name": "_salePrice",
          "type": "uint256"
        }
      ],
      "name": "royaltyInfo",
      "outputs": [
        {
          "internalType": "address",
          "name": "",
          "type": "address"
        },
        {
          "internalType": "uint256",
          "name": "",
          "type": "uint256"
        }
      ],
      "stateMutability": "view",
      "type": "function",
      "constant": true
    },
    {
      "inputs": [
        {
          "internalType": "address",
          "name": "",
          "type": "address"
        }
      ],
      "name": "s_excludedList",
      "outputs": [
        {
          "internalType": "bool",
          "name": "",
          "type": "bool"
        }
      ],
      "stateMutability": "view",
      "type": "function",
      "constant": true
    },
    {
      "inputs": [
        {
          "internalType": "bytes4",
          "name": "interfaceId",
          "type": "bytes4"
        }
      ],
      "name": "supportsInterface",
      "outputs": [
        {
          "internalType": "bool",
          "name": "",
          "type": "bool"
        }
      ],
      "stateMutability": "view",
      "type": "function",
      "constant": true
    },
    {
      "inputs": [
        {
          "internalType": "uint256",
          "name": "tokenId",
          "type": "uint256"
        },
        {
          "internalType": "uint256",
          "name": "price",
          "type": "uint256"
        }
      ],
      "name": "listItem",
      "outputs": [],
      "stateMutability": "nonpayable",
      "type": "function"
    },
    {
      "inputs": [
        {
          "internalType": "uint256",
          "name": "tokenId",
          "type": "uint256"
        }
      ],
      "name": "cancelListing",
      "outputs": [],
      "stateMutability": "nonpayable",
      "type": "function"
    },
    {
      "inputs": [
        {
          "internalType": "uint256",
          "name": "tokenId",
          "type": "uint256"
        }
      ],
      "name": "buyItem",
      "outputs": [],
      "stateMutability": "payable",
      "type": "function",
      "payable": true
    },
    {
      "inputs": [
        {
          "internalType": "uint256",
          "name": "tokenId",
          "type": "uint256"
        },
        {
          "internalType": "uint256",
          "name": "newPrice",
          "type": "uint256"
        }
      ],
      "name": "updateListing",
      "outputs": [],
      "stateMutability": "nonpayable",
      "type": "function"
    },
    {
      "inputs": [],
      "name": "withdrawProceeds",
      "outputs": [],
      "stateMutability": "nonpayable",
      "type": "function"
    },
    {
      "inputs": [],
      "name": "totalSupply",
      "outputs": [
        {
          "internalType": "uint256",
          "name": "",
          "type": "uint256"
        }
      ],
      "stateMutability": "view",
      "type": "function",
      "constant": true
    },
    {
      "inputs": [
        {
          "internalType": "uint256",
          "name": "index",
          "type": "uint256"
        }
      ],
      "name": "tokenByIndex",
      "outputs": [
        {
          "internalType": "uint256",
          "name": "",
          "type": "uint256"
        }
      ],
      "stateMutability": "view",
      "type": "function",
      "constant": true
    },
    {
      "inputs": [
        {
          "internalType": "uint256",
          "name": "tokenId",
          "type": "uint256"
        }
      ],
      "name": "getListing",
      "outputs": [
        {
          "components": [
            {
              "internalType": "uint256",
              "name": "tokenId",
              "type": "uint256"
            },
            {
              "internalType": "uint256",
              "name": "price",
              "type": "uint256"
            },
            {
              "internalType": "address",
              "name": "seller",
              "type": "address"
            }
          ],
          "internalType": "struct NftVendor.Listing",
          "name": "",
          "type": "tuple"
        }
      ],
      "stateMutability": "view",
      "type": "function",
      "constant": true
    },
    {
      "inputs": [],
      "name": "getAllListedNftsId",
      "outputs": [
        {
          "internalType": "uint256[]",
          "name": "",
          "type": "uint256[]"
        }
      ],
      "stateMutability": "view",
      "type": "function",
      "constant": true
    },
    {
      "inputs": [],
      "name": "getAllListedNFTs",
      "outputs": [
        {
          "components": [
            {
              "internalType": "uint256",
              "name": "tokenId",
              "type": "uint256"
            },
            {
              "internalType": "uint256",
              "name": "price",
              "type": "uint256"
            },
            {
              "internalType": "address",
              "name": "seller",
              "type": "address"
            }
          ],
          "internalType": "struct NftVendor.Listing[]",
          "name": "",
          "type": "tuple[]"
        }
      ],
      "stateMutability": "view",
      "type": "function",
      "constant": true
    },
    {
      "inputs": [],
      "name": "isExcluded",
      "outputs": [
        {
          "internalType": "bool",
          "name": "",
          "type": "bool"
        }
      ],
      "stateMutability": "view",
      "type": "function",
      "constant": true
    },
    {
      "inputs": [
        {
          "internalType": "uint256",
          "name": "_tokenId",
          "type": "uint256"
        },
        {
          "internalType": "uint256",
          "name": "_highestBid",
          "type": "uint256"
        }
      ],
      "name": "calculateRoyaltyForAcceptedOffer",
      "outputs": [
        {
          "internalType": "uint256",
          "name": "",
          "type": "uint256"
        }
      ],
      "stateMutability": "view",
      "type": "function",
      "constant": true
    },
    {
      "inputs": [
        {
          "internalType": "uint256",
          "name": "_tokenId",
          "type": "uint256"
        }
      ],
      "name": "getRoyalty",
      "outputs": [
        {
          "internalType": "uint256",
          "name": "",
          "type": "uint256"
        }
      ],
      "stateMutability": "view",
      "type": "function",
      "constant": true
    },
    {
      "inputs": [
        {
          "internalType": "address",
          "name": "seller",
          "type": "address"
        }
      ],
      "name": "getProceeds",
      "outputs": [
        {
          "internalType": "uint256",
          "name": "",
          "type": "uint256"
        }
      ],
      "stateMutability": "view",
      "type": "function",
      "constant": true
    },
    {
      "inputs": [
        {
          "internalType": "uint256",
          "name": "royalty",
          "type": "uint256"
        }
      ],
      "name": "_payTxFee",
      "outputs": [],
      "stateMutability": "nonpayable",
      "type": "function"
    }
  ],
  "bytecode": "0x60806040523480156200001157600080fd5b50604051620018e3380380620018e38339810160408190526200003491620001bb565b6001600255600380546001600160a01b038085166001600160a01b031992831617909255600480549284169290911691909117905562000077336103e862000099565b5050336000908152600a60205260409020805460ff19166001179055620001f3565b6127106001600160601b03821611156200010d5760405162461bcd60e51b815260206004820152602a60248201527f455243323938313a20726f79616c7479206665652077696c6c206578636565646044820152692073616c65507269636560b01b60648201526084015b60405180910390fd5b6001600160a01b038216620001655760405162461bcd60e51b815260206004820152601960248201527f455243323938313a20696e76616c696420726563656976657200000000000000604482015260640162000104565b604080518082019091526001600160a01b039092168083526001600160601b039091166020909201829052600160a01b90910217600055565b80516001600160a01b0381168114620001b657600080fd5b919050565b60008060408385031215620001cf57600080fd5b620001da836200019e565b9150620001ea602084016200019e565b90509250929050565b6116e080620002036000396000f3fe60806040526004361061011f5760003560e01c8063305a67a8116100a05780637de1e536116100645780637de1e53614610393578063883efa67146103b35780639038e693146103d3578063e7fb74c7146103e8578063f52331e8146103fb57600080fd5b8063305a67a8146102db57806330cfeda9146102fb5780634b58ffaa146103315780634f6ccce714610353578063654e60911461037357600080fd5b80631a7a0a7f116100e75780631a7a0a7f146101ff5780631af9cf491461022a5780631c0566051461024a57806329c817b51461026c5780632a55205a1461029c57600080fd5b80630179ea881461012457806301ffc9a71461014657806302d05d3f1461017b578063107a274a146101b357806318160ddd146101e0575b600080fd5b34801561013057600080fd5b5061014461013f36600461144f565b61041b565b005b34801561015257600080fd5b50610166610161366004611471565b6105d5565b60405190151581526020015b60405180910390f35b34801561018757600080fd5b5060045461019b906001600160a01b031681565b6040516001600160a01b039091168152602001610172565b3480156101bf57600080fd5b506101d36101ce3660046114a2565b61060c565b60405161017291906114bb565b3480156101ec57600080fd5b506005545b604051908152602001610172565b34801561020b57600080fd5b50610166336000908152600a602052604090205460ff16151560011490565b34801561023657600080fd5b506101f16102453660046114a2565b61067b565b34801561025657600080fd5b5061025f6106d0565b60405161017291906114e5565b34801561027857600080fd5b50610166610287366004611541565b600a6020526000908152604090205460ff1681565b3480156102a857600080fd5b506102bc6102b736600461144f565b610728565b604080516001600160a01b039093168352602083019190915201610172565b3480156102e757600080fd5b506101446102f63660046114a2565b6107d4565b34801561030757600080fd5b506101f1610316366004611541565b6001600160a01b031660009081526008602052604090205490565b34801561033d57600080fd5b50610346610969565b604051610172919061155e565b34801561035f57600080fd5b506101f161036e3660046114a2565b610a97565b34801561037f57600080fd5b506101f161038e36600461144f565b610b0b565b34801561039f57600080fd5b5060035461019b906001600160a01b031681565b3480156103bf57600080fd5b506101446103ce36600461144f565b610b18565b3480156103df57600080fd5b50610144610da1565b6101446103f63660046114a2565b610e6f565b34801561040757600080fd5b506101446104163660046114a2565b61122b565b60008281526007602090815260409182902082516060810184528154815260018201549281018390526002909101546001600160a01b03169281019290925283919061049557600354604051631a0c522360e21b81526001600160a01b039091166004820152602481018390526044015b60405180910390fd5b61049d61128b565b6003546040516331a9108f60e11b815260048101869052859133916001600160a01b03909116906000908290636352211e90602401602060405180830381865afa1580156104ef573d6000803e3d6000fd5b505050506040513d601f19601f8201168201806040525081019061051391906115bd565b9050806001600160a01b0316836001600160a01b031614610547576040516330cd747160e01b815260040160405180910390fd5b600087116105685760405163e1abbfc560e01b815260040160405180910390fd5b60008881526007602090815260409182902060010189905560035491518981528a926001600160a01b03169133917fd547e933094f12a9159076970143ebe73234e64480317844b0dcb36117116de4910160405180910390a4505050506105cf6001600255565b50505050565b60006001600160e01b0319821663152a902d60e11b148061060657506301ffc9a760e01b6001600160e01b03198316145b92915050565b6106396040518060600160405280600081526020016000815260200160006001600160a01b031681525090565b50600090815260076020908152604091829020825160608101845281548152600182015492810192909252600201546001600160a01b03169181019190915290565b600081815260076020908152604080832081516060810183528154815260018201549381018490526002909101546001600160a01b0316918101919091529082906106c7908590610728565b95945050505050565b6060600580548060200260200160405190810160405280929190818152602001828054801561071e57602002820191906000526020600020905b81548152602001906001019080831161070a575b5050505050905090565b60008281526001602090815260408083208151808301909252546001600160a01b038116808352600160a01b9091046001600160601b031692820192909252829161079d5750604080518082019091526000546001600160a01b0381168252600160a01b90046001600160601b031660208201525b6020810151600090612710906107bc906001600160601b0316876115f0565b6107c69190611607565b915196919550909350505050565b6003546040516331a9108f60e11b815260048101839052829133916001600160a01b03909116906000908290636352211e90602401602060405180830381865afa158015610826573d6000803e3d6000fd5b505050506040513d601f19601f8201168201806040525081019061084a91906115bd565b9050806001600160a01b0316836001600160a01b03161461087e576040516330cd747160e01b815260040160405180910390fd5b60008581526007602090815260409182902082516060810184528154815260018201549281018390526002909101546001600160a01b0316928101929092528691906108f357600354604051631a0c522360e21b81526001600160a01b0390911660048201526024810183905260440161048c565b6000878152600760205260408120818155600181019190915560020180546001600160a01b0319169055610926876112e2565b60035460405188916001600160a01b03169033907f9ba1a3cb55ce8d63d072a886f94d2a744f50cddf82128e897d0661f5ec62315890600090a450505050505050565b60055460609060008061097b60065490565b67ffffffffffffffff81111561099357610993611629565b6040519080825280602002602001820160405280156109f157816020015b6109de6040518060600160405280600081526020016000815260200160006001600160a01b031681525090565b8152602001906001900390816109b15790505b50905060005b83811015610a8f576000610a0a82610a97565b60008181526007602090815260409182902082516060810184528154815260018201549281019290925260028101546001600160a01b03169282019290925285519293509091859087908110610a6257610a6261163f565b6020908102919091010152610a78600186611655565b945050508080610a8790611668565b9150506109f7565b509392505050565b6000610aa260055490565b8210610ae65760405162461bcd60e51b8152602060048201526013602482015272496e646578206f7574206f6620626f756e647360681b604482015260640161048c565b60058281548110610af957610af961163f565b90600052602060002001549050919050565b6000806106c78484610728565b60008281526007602090815260409182902082516060810184528154815260018201549281018390526002909101546001600160a01b03169281019290925283919015610b8e57600354604051634a5568d560e01b81526001600160a01b0390911660048201526024810183905260440161048c565b6003546040516331a9108f60e11b815260048101869052859133916001600160a01b03909116906000908290636352211e90602401602060405180830381865afa158015610be0573d6000803e3d6000fd5b505050506040513d601f19601f82011682018060405250810190610c0491906115bd565b9050806001600160a01b0316836001600160a01b031614610c38576040516330cd747160e01b815260040160405180910390fd5b60008711610c595760405163e1abbfc560e01b815260040160405180910390fd5b60035460405163020604bf60e21b8152600481018a90526001600160a01b03909116903090829063081812fc90602401602060405180830381865afa158015610ca6573d6000803e3d6000fd5b505050506040513d601f19601f82011682018060405250810190610cca91906115bd565b6001600160a01b031614610cf157604051634be3a2c560e01b815260040160405180910390fd5b604080516060810182528a815260208082018b81523383850190815260008e8152600790935293909120915182555160018201559051600290910180546001600160a01b0319166001600160a01b03909216919091179055610d52896113a3565b6003546040518981528a916001600160a01b03169033907fd547e933094f12a9159076970143ebe73234e64480317844b0dcb36117116de49060200160405180910390a4505050505050505050565b3360009081526008602052604090205480610dcf5760405163c4d8fa8760e01b815260040160405180910390fd5b336000818152600860205260408082208290555190919083908381818185875af1925050503d8060008114610e20576040519150601f19603f3d011682016040523d82523d6000602084013e610e25565b606091505b5050905080610e6b5760405162461bcd60e51b81526020600482015260126024820152714661696c656420746f20776974686472617760701b604482015260640161048c565b5050565b60008181526007602090815260409182902082516060810184528154815260018201549281018390526002909101546001600160a01b031692810192909252829190610ee457600354604051631a0c522360e21b81526001600160a01b0390911660048201526024810183905260440161048c565b6003546040516331a9108f60e11b815260048101859052849133916001600160a01b03909116906000908290636352211e90602401602060405180830381865afa158015610f36573d6000803e3d6000fd5b505050506040513d601f19601f82011682018060405250810190610f5a91906115bd565b9050806001600160a01b0316836001600160a01b031603610f8e576040516365b023fd60e01b815260040160405180910390fd5b610f9661128b565b60008781526007602090815260409182902082516060810184528154815260018201549281018390526002909101546001600160a01b031692810192909252341015611015576003546020820151604051637c93456560e01b81526001600160a01b039092166004830152602482018a9052604482015260640161048c565b60006110208961067b565b90506000611042336000908152600a602052604090205460ff16151560011490565b905080156110b457600083604001516001600160a01b03163460405160006040518083038185875af1925050503d806000811461109b576040519150601f19603f3d011682016040523d82523d6000602084013e6110a0565b606091505b50509050806110ae57600080fd5b50611129565b6110bd8261122b565b60408301516000906001600160a01b03166110d88434611681565b604051600081818185875af1925050503d8060008114611114576040519150601f19603f3d011682016040523d82523d6000602084013e611119565b606091505b505090508061112757600080fd5b505b60008a8152600760205260408082208281556001810192909255600290910180546001600160a01b0319169055600354848201519151632142170760e11b81526001600160a01b039283166004820152336024820152604481018d90529116906342842e0e90606401600060405180830381600087803b1580156111ac57600080fd5b505af11580156111c0573d6000803e3d6000fd5b505050506111cd8a6112e2565b6003546020848101516040519081528c926001600160a01b03169133917f263223b1dd81e51054a4e6f791d45a4a1ddb4aadcd93a2dfd892615c3fdac187910160405180910390a45050506112226001600255565b50505050505050565b6004546040516000916001600160a01b03169083908381818185875af1925050503d8060008114611278576040519150601f19603f3d011682016040523d82523d6000602084013e61127d565b606091505b5050905080610e6b57600080fd5b60028054036112dc5760405162461bcd60e51b815260206004820152601f60248201527f5265656e7472616e637947756172643a207265656e7472616e742063616c6c00604482015260640161048c565b60028055565b6005546000906112f490600190611681565b6000838152600960205260408120546005805493945090928490811061131c5761131c61163f565b90600052602060002001549050806005838154811061133d5761133d61163f565b600091825260208083209091019290925582815260099091526040902082905561136760066113f8565b600084815260096020526040812055600580548061138757611387611694565b6001900381819060005260206000200160009055905550505050565b6005546000828152600960205260409020556113c3600680546001019055565b600580546001810182556000919091527f036b6384b5eca791c62761152d0c79bb0604c104a5fb6f4eb0703f3154bb3db00155565b8054806114475760405162461bcd60e51b815260206004820152601b60248201527f436f756e7465723a2064656372656d656e74206f766572666c6f770000000000604482015260640161048c565b600019019055565b6000806040838503121561146257600080fd5b50508035926020909101359150565b60006020828403121561148357600080fd5b81356001600160e01b03198116811461149b57600080fd5b9392505050565b6000602082840312156114b457600080fd5b5035919050565b81518152602080830151908201526040808301516001600160a01b03169082015260608101610606565b6020808252825182820181905260009190848201906040850190845b8181101561151d57835183529284019291840191600101611501565b50909695505050505050565b6001600160a01b038116811461153e57600080fd5b50565b60006020828403121561155357600080fd5b813561149b81611529565b6020808252825182820181905260009190848201906040850190845b8181101561151d576115aa83855180518252602080820151908301526040908101516001600160a01b0316910152565b928401926060929092019160010161157a565b6000602082840312156115cf57600080fd5b815161149b81611529565b634e487b7160e01b600052601160045260246000fd5b8082028115828204841417610606576106066115da565b60008261162457634e487b7160e01b600052601260045260246000fd5b500490565b634e487b7160e01b600052604160045260246000fd5b634e487b7160e01b600052603260045260246000fd5b80820180821115610606576106066115da565b60006001820161167a5761167a6115da565b5060010190565b81810381811115610606576106066115da565b634e487b7160e01b600052603160045260246000fdfea2646970667358221220b26bdf4553a59ec362f46fcb44a6500ebae640d2a61693f82e920526a26f5e5064736f6c63430008110033",
  "immutableReferences": {},
  "source": "// SPDX-License-Identifier: MIT\npragma solidity ^0.8.7;\n\nimport '@openzeppelin/contracts/token/ERC721/IERC721.sol';\nimport '@openzeppelin/contracts/security/ReentrancyGuard.sol';\nimport '@openzeppelin/contracts/token/common/ERC2981.sol';\nimport '@openzeppelin/contracts/utils/Counters.sol';\n\n// Check out https://github.com/Fantom-foundation/Artion-Contracts/blob/5c90d2bc0401af6fb5abf35b860b762b31dfee02/contracts/FantomMarketplace.sol\n// For a full decentralized nft marketplace\n\nerror PriceNotMet(address nftAddress, uint256 tokenId, uint256 price);\nerror NotListed(address nftAddress, uint256 tokenId);\nerror AlreadyListed(address nftAddress, uint256 tokenId);\nerror NoProceeds();\nerror NotOwner();\nerror IsNotOwner();\nerror NotApprovedForMarketplace();\nerror PriceMustBeAboveZero();\n\n// Error thrown for isNotOwner modifier\n// error IsNotOwner()\n\ncontract NftVendor is ERC2981, ReentrancyGuard {\n  using Counters for Counters.Counter;\n\n  struct Listing {\n    uint256 tokenId;\n    uint256 price;\n    address seller;\n  }\n\n  event ItemListed(\n    address indexed seller,\n    address indexed nftAddress,\n    uint256 indexed tokenId,\n    uint256 price\n  );\n\n  event ItemCanceled(\n    address indexed seller,\n    address indexed nftAddress,\n    uint256 indexed tokenId\n  );\n\n  event ItemBought(\n    address indexed buyer,\n    address indexed nftAddress,\n    uint256 indexed tokenId,\n    uint256 price\n  );\n\n  address public collection;\n  address public creator;\n  uint256[] private _allListedNfts;\n\n  Counters.Counter private _listedItems;\n\n  mapping(uint256 => Listing) private s_listings;\n  mapping(address => uint256) private s_proceeds;\n  // NFT id => Index\n  mapping(uint256 => uint256) private _idToNftIndex;\n  // Address => Booelan\n  mapping(address => bool) public s_excludedList;\n\n  modifier notListed(uint256 tokenId) {\n    Listing memory listing = s_listings[tokenId];\n    if (listing.price > 0) {\n      revert AlreadyListed(collection, tokenId);\n    }\n    _;\n  }\n\n  modifier isListed(uint256 tokenId) {\n    Listing memory listing = s_listings[tokenId];\n    if (listing.price <= 0) {\n      revert NotListed(collection, tokenId);\n    }\n    _;\n  }\n\n  modifier isOwner(uint256 tokenId, address spender) {\n    IERC721 nft = IERC721(collection);\n    address owner = nft.ownerOf(tokenId);\n    if (spender != owner) {\n      revert NotOwner();\n    }\n    _;\n  }\n\n  // IsNotOwner Modifier - Nft Owner can't buy his/her NFT\n  // Modifies buyItem function\n  // Owner should only list, cancel listing or update listing\n  modifier isNotOwner(uint256 tokenId, address spender) {\n    IERC721 nft = IERC721(collection);\n    address owner = nft.ownerOf(tokenId);\n    if (spender == owner) {\n      revert IsNotOwner();\n    }\n    _;\n  }\n\n  constructor(address _collection, address _creator) {\n    collection = _collection;\n    creator = _creator;\n    _setDefaultRoyalty(msg.sender, 1000);\n    s_excludedList[msg.sender] = true;\n  }\n\n  /////////////////////\n  // Main Functions //\n  /////////////////////\n  /*\n   * @notice Method for listing NFT\n   * @param nftAddress Address of NFT contract\n   * @param tokenId Token ID of NFT\n   * @param price sale price for each item\n   */\n  function listItem(\n    uint256 tokenId,\n    uint256 price\n  ) external notListed(tokenId) isOwner(tokenId, msg.sender) {\n    if (price <= 0) {\n      revert PriceMustBeAboveZero();\n    }\n    IERC721 nft = IERC721(collection);\n    if (nft.getApproved(tokenId) != address(this)) {\n      revert NotApprovedForMarketplace();\n    }\n    s_listings[tokenId] = Listing(tokenId, price, msg.sender);\n    _addTokenToAllTokensEnumeration(tokenId);\n    emit ItemListed(msg.sender, collection, tokenId, price);\n  }\n\n  /*\n   * @notice Method for cancelling listing\n   * @param collection Address of NFT contract\n   * @param tokenId Token ID of NFT\n   */\n  function cancelListing(\n    uint256 tokenId\n  ) external isOwner(tokenId, msg.sender) isListed(tokenId) {\n    delete (s_listings[tokenId]);\n    _removeTokenFromAllListedTokensEnumeration(tokenId);\n    emit ItemCanceled(msg.sender, collection, tokenId);\n  }\n\n  /*\n   * @notice Method for buying listing\n   * @notice The owner of an NFT could unapprove the marketplace,\n   * which would cause this function to fail\n   * Ideally you'd also have a `createOffer` functionality.\n   * @param collection Address of NFT contract\n   * @param tokenId Token ID of NFT\n   */\n  function buyItem(\n    uint256 tokenId\n  )\n    external\n    payable\n    isListed(tokenId)\n    isNotOwner(tokenId, msg.sender)\n    nonReentrant\n  {\n    Listing memory listedItem = s_listings[tokenId];\n    if (msg.value < listedItem.price) {\n      revert PriceNotMet(collection, tokenId, listedItem.price);\n    }\n\n    uint256 royaltyAmount = getRoyalty(tokenId);\n    bool isEscluded = isExcluded();\n\n    if (isEscluded) {\n      (bool success1, ) = payable(listedItem.seller).call{value: msg.value}('');\n      require(success1);\n    } else {\n      _payTxFee(royaltyAmount);\n      (bool success1, ) = payable(listedItem.seller).call{\n        value: msg.value - royaltyAmount\n      }('');\n      require(success1);\n    }\n\n    delete (s_listings[tokenId]);\n    IERC721(collection).safeTransferFrom(\n      listedItem.seller,\n      msg.sender,\n      tokenId\n    );\n    _removeTokenFromAllListedTokensEnumeration(tokenId);\n    emit ItemBought(msg.sender, collection, tokenId, listedItem.price);\n  }\n\n  /*\n   * @notice Method for updating listing\n   * @param collection Address of NFT contract\n   * @param tokenId Token ID of NFT\n   * @param newPrice Price in Wei of the item\n   */\n  function updateListing(\n    uint256 tokenId,\n    uint256 newPrice\n  ) external isListed(tokenId) nonReentrant isOwner(tokenId, msg.sender) {\n    //We should check the value of `newPrice` and revert if it's below zero (like we also check in `listItem()`)\n    if (newPrice <= 0) {\n      revert PriceMustBeAboveZero();\n    }\n    s_listings[tokenId].price = newPrice;\n    emit ItemListed(msg.sender, collection, tokenId, newPrice);\n  }\n\n  /*\n   * @notice Method for withdrawing proceeds from sales\n   */\n  function withdrawProceeds() external {\n    uint256 proceeds = s_proceeds[msg.sender];\n    if (proceeds <= 0) {\n      revert NoProceeds();\n    }\n    s_proceeds[msg.sender] = 0;\n    (bool sent, ) = msg.sender.call{value: proceeds}('');\n    require(sent, 'Failed to withdraw');\n  }\n\n  function totalSupply() public view returns (uint256) {\n    return _allListedNfts.length;\n  }\n\n  function tokenByIndex(uint index) public view returns (uint) {\n    require(index < totalSupply(), 'Index out of bounds');\n    return _allListedNfts[index];\n  }\n\n  /////////////////////\n  // Getter Functions //\n  /////////////////////\n\n  function getListing(uint256 tokenId) external view returns (Listing memory) {\n    return s_listings[tokenId];\n  }\n\n  function getAllListedNftsId() external view returns (uint256[] memory) {\n    return _allListedNfts;\n  }\n\n  function getAllListedNFTs() external view returns (Listing[] memory) {\n    uint allItemsCounts = _allListedNfts.length;\n    uint currentIndex = 0;\n    Listing[] memory items = new Listing[](_listedItems.current());\n\n    for (uint i = 0; i < allItemsCounts; i++) {\n      uint tokenId = tokenByIndex(i);\n      Listing storage item = s_listings[tokenId];\n      items[currentIndex] = item;\n      currentIndex += 1;\n    }\n\n    return items;\n  }\n\n  function isExcluded() public view returns (bool) {\n    bool isEscluded = s_excludedList[msg.sender] == true;\n    return isEscluded;\n  }\n\n  function calculateRoyaltyForAcceptedOffer(\n    uint256 _tokenId,\n    uint256 _highestBid\n  ) public view returns (uint256) {\n    (, uint256 royalty) = royaltyInfo(_tokenId, _highestBid);\n    return royalty;\n  }\n\n  function getRoyalty(uint256 _tokenId) public view returns (uint256) {\n    Listing memory listedItem = s_listings[_tokenId];\n    (, uint256 royalty) = royaltyInfo(_tokenId, listedItem.price);\n    return royalty;\n  }\n\n  function getProceeds(address seller) external view returns (uint256) {\n    return s_proceeds[seller];\n  }\n\n  function _payTxFee(uint256 royalty) public {\n    (bool success1, ) = payable(creator).call{value: royalty}('');\n    require(success1);\n  }\n\n  function _addTokenToAllTokensEnumeration(uint tokenId) private {\n    _idToNftIndex[tokenId] = _allListedNfts.length;\n    _listedItems.increment();\n    _allListedNfts.push(tokenId);\n  }\n\n  function _removeTokenFromAllListedTokensEnumeration(uint tokenId) private {\n    uint lastTokenIndex = _allListedNfts.length - 1;\n    uint tokenIndex = _idToNftIndex[tokenId];\n    uint lastTokenId = _allListedNfts[lastTokenIndex];\n\n    _allListedNfts[tokenIndex] = lastTokenId;\n    _idToNftIndex[lastTokenId] = tokenIndex;\n    _listedItems.decrement();\n\n    delete _idToNftIndex[tokenId];\n    _allListedNfts.pop();\n  }\n}\n",
  "sourcePath": "/Users/alberto/Desktop/Enalbis/myCask/nft-marketplace-frontend/contracts/NftVendor.sol",
  "compiler": {
    "name": "solc",
    "version": "0.8.17+commit.8df45f5f.Emscripten.clang"
  },
  "schemaVersion": "3.4.11",
  "updatedAt": "2023-02-15T15:56:18.580Z",
  "networkType": "ethereum",
  "devdoc": {
    "kind": "dev",
    "methods": {
      "royaltyInfo(uint256,uint256)": {
        "details": "Returns how much royalty is owed and to whom, based on a sale price that may be denominated in any unit of exchange. The royalty amount is denominated and should be paid in that same unit of exchange."
      },
      "supportsInterface(bytes4)": {
        "details": "See {IERC165-supportsInterface}."
      }
    },
    "version": 1
  },
  "userdoc": {
    "kind": "user",
    "methods": {},
    "version": 1
  }
}