{
  "contractName": "Settings",
  "abi": [
    {
      "inputs": [],
      "stateMutability": "nonpayable",
      "type": "constructor"
    },
    {
      "anonymous": false,
      "inputs": [
        {
          "indexed": true,
          "internalType": "address",
          "name": "previousOwner",
          "type": "address"
        },
        {
          "indexed": true,
          "internalType": "address",
          "name": "newOwner",
          "type": "address"
        }
      ],
      "name": "OwnershipTransferred",
      "type": "event"
    },
    {
      "anonymous": false,
      "inputs": [
        {
          "indexed": false,
          "internalType": "uint256",
          "name": "_old",
          "type": "uint256"
        },
        {
          "indexed": false,
          "internalType": "uint256",
          "name": "_new",
          "type": "uint256"
        }
      ],
      "name": "UpdateCuratorFee",
      "type": "event"
    },
    {
      "anonymous": false,
      "inputs": [
        {
          "indexed": false,
          "internalType": "address",
          "name": "_old",
          "type": "address"
        },
        {
          "indexed": false,
          "internalType": "address",
          "name": "_new",
          "type": "address"
        }
      ],
      "name": "UpdateFeeReceiver",
      "type": "event"
    },
    {
      "anonymous": false,
      "inputs": [
        {
          "indexed": false,
          "internalType": "uint256",
          "name": "_old",
          "type": "uint256"
        },
        {
          "indexed": false,
          "internalType": "uint256",
          "name": "_new",
          "type": "uint256"
        }
      ],
      "name": "UpdateGovernanceFee",
      "type": "event"
    },
    {
      "anonymous": false,
      "inputs": [
        {
          "indexed": false,
          "internalType": "uint256",
          "name": "_old",
          "type": "uint256"
        },
        {
          "indexed": false,
          "internalType": "uint256",
          "name": "_new",
          "type": "uint256"
        }
      ],
      "name": "UpdateMaxAuctionLength",
      "type": "event"
    },
    {
      "anonymous": false,
      "inputs": [
        {
          "indexed": false,
          "internalType": "uint256",
          "name": "_old",
          "type": "uint256"
        },
        {
          "indexed": false,
          "internalType": "uint256",
          "name": "_new",
          "type": "uint256"
        }
      ],
      "name": "UpdateMaxReserveFactor",
      "type": "event"
    },
    {
      "anonymous": false,
      "inputs": [
        {
          "indexed": false,
          "internalType": "uint256",
          "name": "_old",
          "type": "uint256"
        },
        {
          "indexed": false,
          "internalType": "uint256",
          "name": "_new",
          "type": "uint256"
        }
      ],
      "name": "UpdateMinAuctionLength",
      "type": "event"
    },
    {
      "anonymous": false,
      "inputs": [
        {
          "indexed": false,
          "internalType": "uint256",
          "name": "_old",
          "type": "uint256"
        },
        {
          "indexed": false,
          "internalType": "uint256",
          "name": "_new",
          "type": "uint256"
        }
      ],
      "name": "UpdateMinBidIncrease",
      "type": "event"
    },
    {
      "anonymous": false,
      "inputs": [
        {
          "indexed": false,
          "internalType": "uint256",
          "name": "_old",
          "type": "uint256"
        },
        {
          "indexed": false,
          "internalType": "uint256",
          "name": "_new",
          "type": "uint256"
        }
      ],
      "name": "UpdateMinReserveFactor",
      "type": "event"
    },
    {
      "anonymous": false,
      "inputs": [
        {
          "indexed": false,
          "internalType": "uint256",
          "name": "_old",
          "type": "uint256"
        },
        {
          "indexed": false,
          "internalType": "uint256",
          "name": "_new",
          "type": "uint256"
        }
      ],
      "name": "UpdateMinVotePercentage",
      "type": "event"
    },
    {
      "inputs": [],
      "name": "feeReceiver",
      "outputs": [
        {
          "internalType": "address payable",
          "name": "",
          "type": "address"
        }
      ],
      "stateMutability": "view",
      "type": "function",
      "constant": true
    },
    {
      "inputs": [],
      "name": "governanceFee",
      "outputs": [
        {
          "internalType": "uint256",
          "name": "",
          "type": "uint256"
        }
      ],
      "stateMutability": "view",
      "type": "function",
      "constant": true
    },
    {
      "inputs": [],
      "name": "maxAuctionLength",
      "outputs": [
        {
          "internalType": "uint256",
          "name": "",
          "type": "uint256"
        }
      ],
      "stateMutability": "view",
      "type": "function",
      "constant": true
    },
    {
      "inputs": [],
      "name": "maxCuratorFee",
      "outputs": [
        {
          "internalType": "uint256",
          "name": "",
          "type": "uint256"
        }
      ],
      "stateMutability": "view",
      "type": "function",
      "constant": true
    },
    {
      "inputs": [],
      "name": "maxGovFee",
      "outputs": [
        {
          "internalType": "uint256",
          "name": "",
          "type": "uint256"
        }
      ],
      "stateMutability": "view",
      "type": "function",
      "constant": true
    },
    {
      "inputs": [],
      "name": "maxMaxAuctionLength",
      "outputs": [
        {
          "internalType": "uint256",
          "name": "",
          "type": "uint256"
        }
      ],
      "stateMutability": "view",
      "type": "function",
      "constant": true
    },
    {
      "inputs": [],
      "name": "maxMinBidIncrease",
      "outputs": [
        {
          "internalType": "uint256",
          "name": "",
          "type": "uint256"
        }
      ],
      "stateMutability": "view",
      "type": "function",
      "constant": true
    },
    {
      "inputs": [],
      "name": "maxReserveFactor",
      "outputs": [
        {
          "internalType": "uint256",
          "name": "",
          "type": "uint256"
        }
      ],
      "stateMutability": "view",
      "type": "function",
      "constant": true
    },
    {
      "inputs": [],
      "name": "minAuctionLength",
      "outputs": [
        {
          "internalType": "uint256",
          "name": "",
          "type": "uint256"
        }
      ],
      "stateMutability": "view",
      "type": "function",
      "constant": true
    },
    {
      "inputs": [],
      "name": "minBidIncrease",
      "outputs": [
        {
          "internalType": "uint256",
          "name": "",
          "type": "uint256"
        }
      ],
      "stateMutability": "view",
      "type": "function",
      "constant": true
    },
    {
      "inputs": [],
      "name": "minMinAuctionLength",
      "outputs": [
        {
          "internalType": "uint256",
          "name": "",
          "type": "uint256"
        }
      ],
      "stateMutability": "view",
      "type": "function",
      "constant": true
    },
    {
      "inputs": [],
      "name": "minMinBidIncrease",
      "outputs": [
        {
          "internalType": "uint256",
          "name": "",
          "type": "uint256"
        }
      ],
      "stateMutability": "view",
      "type": "function",
      "constant": true
    },
    {
      "inputs": [],
      "name": "minReserveFactor",
      "outputs": [
        {
          "internalType": "uint256",
          "name": "",
          "type": "uint256"
        }
      ],
      "stateMutability": "view",
      "type": "function",
      "constant": true
    },
    {
      "inputs": [],
      "name": "minVotePercentage",
      "outputs": [
        {
          "internalType": "uint256",
          "name": "",
          "type": "uint256"
        }
      ],
      "stateMutability": "view",
      "type": "function",
      "constant": true
    },
    {
      "inputs": [],
      "name": "owner",
      "outputs": [
        {
          "internalType": "address",
          "name": "",
          "type": "address"
        }
      ],
      "stateMutability": "view",
      "type": "function",
      "constant": true
    },
    {
      "inputs": [],
      "name": "renounceOwnership",
      "outputs": [],
      "stateMutability": "nonpayable",
      "type": "function"
    },
    {
      "inputs": [
        {
          "internalType": "address",
          "name": "newOwner",
          "type": "address"
        }
      ],
      "name": "transferOwnership",
      "outputs": [],
      "stateMutability": "nonpayable",
      "type": "function"
    },
    {
      "inputs": [
        {
          "internalType": "uint256",
          "name": "_length",
          "type": "uint256"
        }
      ],
      "name": "setMaxAuctionLength",
      "outputs": [],
      "stateMutability": "nonpayable",
      "type": "function"
    },
    {
      "inputs": [
        {
          "internalType": "uint256",
          "name": "_length",
          "type": "uint256"
        }
      ],
      "name": "setMinAuctionLength",
      "outputs": [],
      "stateMutability": "nonpayable",
      "type": "function"
    },
    {
      "inputs": [
        {
          "internalType": "uint256",
          "name": "_fee",
          "type": "uint256"
        }
      ],
      "name": "setGovernanceFee",
      "outputs": [],
      "stateMutability": "nonpayable",
      "type": "function"
    },
    {
      "inputs": [
        {
          "internalType": "uint256",
          "name": "_fee",
          "type": "uint256"
        }
      ],
      "name": "setMaxCuratorFee",
      "outputs": [],
      "stateMutability": "nonpayable",
      "type": "function"
    },
    {
      "inputs": [
        {
          "internalType": "uint256",
          "name": "_min",
          "type": "uint256"
        }
      ],
      "name": "setMinBidIncrease",
      "outputs": [],
      "stateMutability": "nonpayable",
      "type": "function"
    },
    {
      "inputs": [
        {
          "internalType": "uint256",
          "name": "_min",
          "type": "uint256"
        }
      ],
      "name": "setMinVotePercentage",
      "outputs": [],
      "stateMutability": "nonpayable",
      "type": "function"
    },
    {
      "inputs": [
        {
          "internalType": "uint256",
          "name": "_factor",
          "type": "uint256"
        }
      ],
      "name": "setMaxReserveFactor",
      "outputs": [],
      "stateMutability": "nonpayable",
      "type": "function"
    },
    {
      "inputs": [
        {
          "internalType": "uint256",
          "name": "_factor",
          "type": "uint256"
        }
      ],
      "name": "setMinReserveFactor",
      "outputs": [],
      "stateMutability": "nonpayable",
      "type": "function"
    },
    {
      "inputs": [
        {
          "internalType": "address payable",
          "name": "_receiver",
          "type": "address"
        }
      ],
      "name": "setFeeReceiver",
      "outputs": [],
      "stateMutability": "nonpayable",
      "type": "function"
    }
  ],
  "bytecode": "0x608060405234801561001057600080fd5b5061001a3361005a565b621275006001556203f480600255600980546001600160a01b031916331790556101f460088190556107d0600755603260055560646004556006556100aa565b600080546001600160a01b038381166001600160a01b0319831681178455604051919092169283917f8be0079c531659141344cd1fd0a4f28419497f9722a3daafe3b4186f6b6457e09190a35050565b610b03806100b96000396000f3fe608060405234801561001057600080fd5b506004361061018e5760003560e01c80637c513c0f116100de578063a0b335e311610097578063d213b90011610071578063d213b900146102e2578063efdcd974146102ec578063f2fde38b146102ff578063fcd81e321461025757600080fd5b8063a0b335e3146102b3578063affdafd8146102bc578063b3f00674146102cf57600080fd5b80637c513c0f1461024e578063846a4dd214610257578063848103091461025f5780638a364bc1146102725780638da5cb5b1461027b5780639665eb0f146102a057600080fd5b806332a693301161014b57806357c74c6c1161012557806357c74c6c1461020d5780636109f5b5146102205780636fc83db314610233578063715018a61461024657600080fd5b806332a69330146101e9578063339f87ed146101fc5780635410bfc91461020457600080fd5b806309990a96146101935780630e519ef9146101af5780630ea90a12146101b857806318fee3bf146101c15780631a58364c146101d657806332977c73146101e0575b600080fd5b61019c60085481565b6040519081526020015b60405180910390f35b61019c60015481565b61019c60035481565b6101d46101cf366004610a7b565b610312565b005b61019c6249d40081565b61019c60065481565b6101d46101f7366004610a7b565b6103b1565b61019c600a81565b61019c60075481565b6101d461021b366004610a7b565b61043a565b6101d461022e366004610a7b565b6104d5565b6101d4610241366004610a7b565b61051e565b6101d461060b565b61019c60055481565b61019c606481565b6101d461026d366004610a7b565b61061f565b61019c60045481565b6000546001600160a01b03165b6040516001600160a01b0390911681526020016101a6565b6101d46102ae366004610a7b565b6106b9565b61019c60025481565b6101d46102ca366004610a7b565b6107a4565b600954610288906001600160a01b031681565b61019c6201518081565b6101d46102fa366004610aa9565b610891565b6101d461030d366004610aa9565b610958565b61031a6109d1565b60075481106103705760405162461bcd60e51b815260206004820152601b60248201527f6d696e207265736572766520666163746f7220746f6f2068696768000000000060448201526064015b60405180910390fd5b60085460408051918252602082018390527fa93910a1e82dcd753b639a2ff1def7bf84d6bb1bf6fe79212d0d9ae72afc6cfa910160405180910390a1600855565b6103b96109d1565b60648111156103f95760405162461bcd60e51b815260206004820152600c60248201526b0cccaca40e8dede40d0d2ced60a31b6044820152606401610367565b60035460408051918252602082018390527f11b96af861c45de0c17127383516c92fc2a9d50eff86ea831b69e76a3fa87e2f910160405180910390a1600355565b6104426109d1565b6103e88111156104945760405162461bcd60e51b815260206004820152601c60248201527f6d696e20766f74652070657263656e7461676520746f6f2068696768000000006044820152606401610367565b60065460408051918252602082018390527ff8298d9709c2527c6ec1e2c605c5a163b44b0520bdd80335d5faba17e3f38fb8910160405180910390a1600655565b6104dd6109d1565b60035460408051918252602082018390527f283f7179cc13a8f90c3123b415b98ca8a0ca9619eed3c981db52809ab62700f9910160405180910390a1600455565b6105266109d1565b620151808110156105795760405162461bcd60e51b815260206004820152601a60248201527f6d696e2061756374696f6e206c656e67746820746f6f206c6f770000000000006044820152606401610367565b60015481106105ca5760405162461bcd60e51b815260206004820152601b60248201527f6d696e2061756374696f6e206c656e67746820746f6f206869676800000000006044820152606401610367565b60025460408051918252602082018390527f055017e5b2f20973817c668e2f744e7c1b68a6f20332f25bb7b9bbb2f0c7eca7910160405180910390a1600255565b6106136109d1565b61061d6000610a2b565b565b6106276109d1565b60085481116106785760405162461bcd60e51b815260206004820152601a60248201527f6d6178207265736572766520666163746f7220746f6f206c6f770000000000006044820152606401610367565b60075460408051918252602082018390527febec08ac4f5f91f0463f6e09a9b1729f1cbea09d240d8a1807ed6b9cd171ef19910160405180910390a1600755565b6106c16109d1565b60648111156107125760405162461bcd60e51b815260206004820152601960248201527f6d696e2062696420696e63726561736520746f6f2068696768000000000000006044820152606401610367565b600a8110156107635760405162461bcd60e51b815260206004820152601860248201527f6d696e2062696420696e63726561736520746f6f206c6f7700000000000000006044820152606401610367565b60055460408051918252602082018390527f3995c181714327dbf0232c3b20873e87ca6978b6418eec0f97a1447c5a4c43fc910160405180910390a1600555565b6107ac6109d1565b6249d4008111156107ff5760405162461bcd60e51b815260206004820152601b60248201527f6d61782061756374696f6e206c656e67746820746f6f206869676800000000006044820152606401610367565b60025481116108505760405162461bcd60e51b815260206004820152601a60248201527f6d61782061756374696f6e206c656e67746820746f6f206c6f770000000000006044820152606401610367565b60015460408051918252602082018390527f06684837277f012a4c3a13c8ec0e53d85b843e328a811a8f5f25f5e1456d9f59910160405180910390a1600155565b6108996109d1565b6001600160a01b0381166108ef5760405162461bcd60e51b815260206004820152601b60248201527f666565732063616e6e6f7420676f20746f2030206164647265737300000000006044820152606401610367565b600954604080516001600160a01b03928316815291831660208301527f2861448678f0be67f11bfb5481b3e3b4cfeb3acc6126ad60a05f95bfc6530666910160405180910390a1600980546001600160a01b0319166001600160a01b0392909216919091179055565b6109606109d1565b6001600160a01b0381166109c55760405162461bcd60e51b815260206004820152602660248201527f4f776e61626c653a206e6577206f776e657220697320746865207a65726f206160448201526564647265737360d01b6064820152608401610367565b6109ce81610a2b565b50565b6000546001600160a01b0316331461061d5760405162461bcd60e51b815260206004820181905260248201527f4f776e61626c653a2063616c6c6572206973206e6f7420746865206f776e65726044820152606401610367565b600080546001600160a01b038381166001600160a01b0319831681178455604051919092169283917f8be0079c531659141344cd1fd0a4f28419497f9722a3daafe3b4186f6b6457e09190a35050565b600060208284031215610a8d57600080fd5b5035919050565b6001600160a01b03811681146109ce57600080fd5b600060208284031215610abb57600080fd5b8135610ac681610a94565b939250505056fea2646970667358221220e2dfdc526b2f93f2a471965ab44c00163c55a46ab30ef2bd4c1cbdb155c4d09264736f6c63430008110033",
  "immutableReferences": {},
  "source": "//SPDX-License-Identifier: MIT\npragma solidity ^0.8.0;\n\nimport '@openzeppelin/contracts/access/Ownable.sol';\nimport './Interfaces/ISettings.sol';\n\ncontract Settings is Ownable, ISettings {\n  /// @notice the maximum auction length\n  uint256 public override maxAuctionLength;\n\n  /// @notice the longest an auction can ever be\n  uint256 public constant maxMaxAuctionLength = 8 weeks;\n\n  /// @notice the minimum auction length\n  uint256 public override minAuctionLength;\n\n  /// @notice the shortest an auction can ever be\n  uint256 public constant minMinAuctionLength = 1 days;\n\n  /// @notice governance fee max\n  uint256 public override governanceFee;\n\n  /// @notice 10% fee is max\n  uint256 public constant maxGovFee = 100;\n\n  /// @notice max curator fee\n  uint256 public override maxCuratorFee;\n\n  /// @notice the % bid increase required for a new bid\n  uint256 public override minBidIncrease;\n\n  /// @notice 10% bid increase is max\n  uint256 public constant maxMinBidIncrease = 100;\n\n  /// @notice 1% bid increase is min\n  uint256 public constant minMinBidIncrease = 10;\n\n  /// @notice the % of tokens required to be voting for an auction to start\n  uint256 public override minVotePercentage;\n\n  /// @notice the max % increase over the initial\n  uint256 public override maxReserveFactor;\n\n  /// @notice the max % decrease from the initial\n  uint256 public override minReserveFactor;\n\n  /// @notice the address who receives auction fees\n  address payable public override feeReceiver;\n\n  event UpdateMaxAuctionLength(uint256 _old, uint256 _new);\n\n  event UpdateMinAuctionLength(uint256 _old, uint256 _new);\n\n  event UpdateGovernanceFee(uint256 _old, uint256 _new);\n\n  event UpdateCuratorFee(uint256 _old, uint256 _new);\n\n  event UpdateMinBidIncrease(uint256 _old, uint256 _new);\n\n  event UpdateMinVotePercentage(uint256 _old, uint256 _new);\n\n  event UpdateMaxReserveFactor(uint256 _old, uint256 _new);\n\n  event UpdateMinReserveFactor(uint256 _old, uint256 _new);\n\n  event UpdateFeeReceiver(address _old, address _new);\n\n  constructor() {\n    maxAuctionLength = 2 weeks;\n    minAuctionLength = 3 days;\n    feeReceiver = payable(msg.sender);\n    minReserveFactor = 500; // 50%\n    maxReserveFactor = 2000; // 200%\n    minBidIncrease = 50; // 5%\n    maxCuratorFee = 100;\n    minVotePercentage = 500; // 50%\n  }\n\n  function setMaxAuctionLength(uint256 _length) external onlyOwner {\n    require(_length <= maxMaxAuctionLength, 'max auction length too high');\n    require(_length > minAuctionLength, 'max auction length too low');\n\n    emit UpdateMaxAuctionLength(maxAuctionLength, _length);\n\n    maxAuctionLength = _length;\n  }\n\n  function setMinAuctionLength(uint256 _length) external onlyOwner {\n    require(_length >= minMinAuctionLength, 'min auction length too low');\n    require(_length < maxAuctionLength, 'min auction length too high');\n\n    emit UpdateMinAuctionLength(minAuctionLength, _length);\n\n    minAuctionLength = _length;\n  }\n\n  function setGovernanceFee(uint256 _fee) external onlyOwner {\n    require(_fee <= maxGovFee, 'fee too high');\n\n    emit UpdateGovernanceFee(governanceFee, _fee);\n\n    governanceFee = _fee;\n  }\n\n  function setMaxCuratorFee(uint256 _fee) external onlyOwner {\n    emit UpdateCuratorFee(governanceFee, _fee);\n\n    maxCuratorFee = _fee;\n  }\n\n  function setMinBidIncrease(uint256 _min) external onlyOwner {\n    require(_min <= maxMinBidIncrease, 'min bid increase too high');\n    require(_min >= minMinBidIncrease, 'min bid increase too low');\n\n    emit UpdateMinBidIncrease(minBidIncrease, _min);\n\n    minBidIncrease = _min;\n  }\n\n  function setMinVotePercentage(uint256 _min) external onlyOwner {\n    // 1000 is 100%\n    require(_min <= 1000, 'min vote percentage too high');\n\n    emit UpdateMinVotePercentage(minVotePercentage, _min);\n\n    minVotePercentage = _min;\n  }\n\n  function setMaxReserveFactor(uint256 _factor) external onlyOwner {\n    require(_factor > minReserveFactor, 'max reserve factor too low');\n\n    emit UpdateMaxReserveFactor(maxReserveFactor, _factor);\n\n    maxReserveFactor = _factor;\n  }\n\n  function setMinReserveFactor(uint256 _factor) external onlyOwner {\n    require(_factor < maxReserveFactor, 'min reserve factor too high');\n\n    emit UpdateMinReserveFactor(minReserveFactor, _factor);\n\n    minReserveFactor = _factor;\n  }\n\n  function setFeeReceiver(address payable _receiver) external onlyOwner {\n    require(_receiver != address(0), 'fees cannot go to 0 address');\n\n    emit UpdateFeeReceiver(feeReceiver, _receiver);\n\n    feeReceiver = _receiver;\n  }\n}\n",
  "sourcePath": "/Users/alberto/Desktop/Enalbis/myCask/nft-marketplace-frontend/contracts/Settings.sol",
  "compiler": {
    "name": "solc",
    "version": "0.8.17+commit.8df45f5f.Emscripten.clang"
  },
  "schemaVersion": "3.4.11",
  "updatedAt": "2023-01-18T19:41:57.575Z",
  "networkType": "ethereum",
  "devdoc": {
    "kind": "dev",
    "methods": {
      "owner()": {
        "details": "Returns the address of the current owner."
      },
      "renounceOwnership()": {
        "details": "Leaves the contract without owner. It will not be possible to call `onlyOwner` functions anymore. Can only be called by the current owner. NOTE: Renouncing ownership will leave the contract without an owner, thereby removing any functionality that is only available to the owner."
      },
      "transferOwnership(address)": {
        "details": "Transfers ownership of the contract to a new account (`newOwner`). Can only be called by the current owner."
      }
    },
    "version": 1
  },
  "userdoc": {
    "kind": "user",
    "methods": {
      "feeReceiver()": {
        "notice": "the address who receives auction fees"
      },
      "governanceFee()": {
        "notice": "governance fee max"
      },
      "maxAuctionLength()": {
        "notice": "the maximum auction length"
      },
      "maxCuratorFee()": {
        "notice": "max curator fee"
      },
      "maxGovFee()": {
        "notice": "10% fee is max"
      },
      "maxMaxAuctionLength()": {
        "notice": "the longest an auction can ever be"
      },
      "maxMinBidIncrease()": {
        "notice": "10% bid increase is max"
      },
      "maxReserveFactor()": {
        "notice": "the max % increase over the initial"
      },
      "minAuctionLength()": {
        "notice": "the minimum auction length"
      },
      "minBidIncrease()": {
        "notice": "the % bid increase required for a new bid"
      },
      "minMinAuctionLength()": {
        "notice": "the shortest an auction can ever be"
      },
      "minMinBidIncrease()": {
        "notice": "1% bid increase is min"
      },
      "minReserveFactor()": {
        "notice": "the max % decrease from the initial"
      },
      "minVotePercentage()": {
        "notice": "the % of tokens required to be voting for an auction to start"
      }
    },
    "version": 1
  }
}