{
  "contractName": "VaultVendor",
  "abi": [
    {
      "inputs": [],
      "stateMutability": "nonpayable",
      "type": "constructor"
    },
    {
      "anonymous": false,
      "inputs": [
        {
          "indexed": false,
          "internalType": "address",
          "name": "buyer",
          "type": "address"
        },
        {
          "indexed": false,
          "internalType": "uint256",
          "name": "amountOfMATIC",
          "type": "uint256"
        },
        {
          "indexed": false,
          "internalType": "uint256",
          "name": "amountOfTokens",
          "type": "uint256"
        }
      ],
      "name": "BuyTokens",
      "type": "event"
    },
    {
      "anonymous": false,
      "inputs": [
        {
          "indexed": true,
          "internalType": "address",
          "name": "previousOwner",
          "type": "address"
        },
        {
          "indexed": true,
          "internalType": "address",
          "name": "newOwner",
          "type": "address"
        }
      ],
      "name": "OwnershipTransferred",
      "type": "event"
    },
    {
      "inputs": [],
      "name": "owner",
      "outputs": [
        {
          "internalType": "address",
          "name": "",
          "type": "address"
        }
      ],
      "stateMutability": "view",
      "type": "function",
      "constant": true
    },
    {
      "inputs": [],
      "name": "renounceOwnership",
      "outputs": [],
      "stateMutability": "nonpayable",
      "type": "function"
    },
    {
      "inputs": [
        {
          "internalType": "address",
          "name": "",
          "type": "address"
        }
      ],
      "name": "tokens",
      "outputs": [
        {
          "internalType": "uint256",
          "name": "",
          "type": "uint256"
        }
      ],
      "stateMutability": "view",
      "type": "function",
      "constant": true
    },
    {
      "inputs": [
        {
          "internalType": "address",
          "name": "newOwner",
          "type": "address"
        }
      ],
      "name": "transferOwnership",
      "outputs": [],
      "stateMutability": "nonpayable",
      "type": "function"
    },
    {
      "inputs": [
        {
          "internalType": "address",
          "name": "tokenAddress",
          "type": "address"
        },
        {
          "internalType": "uint256",
          "name": "tokenPerETH",
          "type": "uint256"
        }
      ],
      "name": "updateTokenVendor",
      "outputs": [],
      "stateMutability": "nonpayable",
      "type": "function"
    },
    {
      "inputs": [
        {
          "internalType": "address",
          "name": "tokenAddress",
          "type": "address"
        }
      ],
      "name": "buyTokens",
      "outputs": [
        {
          "internalType": "uint256",
          "name": "tokenAmount",
          "type": "uint256"
        }
      ],
      "stateMutability": "payable",
      "type": "function",
      "payable": true
    },
    {
      "inputs": [
        {
          "internalType": "uint256",
          "name": "tokenAmountToSell",
          "type": "uint256"
        },
        {
          "internalType": "address",
          "name": "tokenAddress",
          "type": "address"
        }
      ],
      "name": "sellTokens",
      "outputs": [],
      "stateMutability": "nonpayable",
      "type": "function"
    },
    {
      "inputs": [],
      "name": "withdraw",
      "outputs": [],
      "stateMutability": "nonpayable",
      "type": "function"
    }
  ],
  "bytecode": "0x608060405234801561001057600080fd5b5061001a3361001f565b61006f565b600080546001600160a01b038381166001600160a01b0319831681178455604051919092169283917f8be0079c531659141344cd1fd0a4f28419497f9722a3daafe3b4186f6b6457e09190a35050565b610aa28061007e6000396000f3fe60806040526004361061007b5760003560e01c80638da5cb5b1161004e5780638da5cb5b146100ec578063e486033914610119578063ec8ac4d814610154578063f2fde38b1461016757600080fd5b80633ccfd60b146100805780635a336a7614610097578063670f7151146100b7578063715018a6146100d7575b600080fd5b34801561008c57600080fd5b50610095610187565b005b3480156100a357600080fd5b506100956100b236600461096c565b610273565b3480156100c357600080fd5b506100956100d2366004610996565b6102f3565b3480156100e357600080fd5b5061009561060a565b3480156100f857600080fd5b506000546040516001600160a01b0390911681526020015b60405180910390f35b34801561012557600080fd5b506101466101343660046109c2565b60016020526000908152604090205481565b604051908152602001610110565b6101466101623660046109c2565b61061e565b34801561017357600080fd5b506100956101823660046109c2565b61082d565b61018f6108a6565b47806101e25760405162461bcd60e51b815260206004820152601860248201527f4e6f204554482070726573656e7420696e2056656e646f72000000000000000060448201526064015b60405180910390fd5b604051600090339047908381818185875af1925050503d8060008114610224576040519150601f19603f3d011682016040523d82523d6000602084013e610229565b606091505b505090508061026f5760405162461bcd60e51b81526020600482015260126024820152714661696c656420746f20776974686472617760701b60448201526064016101d9565b5050565b61027b6108a6565b600081116102d75760405162461bcd60e51b815260206004820152602360248201527f546f6b656e2070657220657468206d757374206265206869676865722074686160448201526206e20360ec1b60648201526084016101d9565b6001600160a01b03909116600090815260016020526040902055565b600082116103585760405162461bcd60e51b815260206004820152602c60248201527f5370656369667920616e20616d6f756e74206f6620746f6b656e20677265617460448201526b6572207468616e207a65726f60a01b60648201526084016101d9565b6040516370a0823160e01b81523360048201526000906001600160a01b038316906370a0823190602401602060405180830381865afa15801561039f573d6000803e3d6000fd5b505050506040513d601f19601f820116820180604052508101906103c391906109e4565b9050828110156104155760405162461bcd60e51b815260206004820152601c60248201527f596f75206861766520696e73756666696369656e7420746f6b656e730000000060448201526064016101d9565b6001600160a01b03821660009081526001602052604081205461043890856109fd565b9050478181101561048b5760405162461bcd60e51b815260206004820152601d60248201527f56656e646f722068617320696e73756666696369656e742066756e647300000060448201526064016101d9565b6040516323b872dd60e01b8152336004820152306024820152604481018690526000906001600160a01b038616906323b872dd906064016020604051808303816000875af11580156104e1573d6000803e3d6000fd5b505050506040513d601f19601f820116820180604052508101906105059190610a1f565b90508061056a5760405162461bcd60e51b815260206004820152602d60248201527f4661696c656420746f207472616e7366657220746f6b656e732066726f6d207560448201526c39b2b9103a37903b32b73237b960991b60648201526084016101d9565b60405133908490600081818185875af1925050503d80600081146105aa576040519150601f19603f3d011682016040523d82523d6000602084013e6105af565b606091505b505080915050806106025760405162461bcd60e51b815260206004820152601e60248201527f4661696c656420746f2073656e642045544820746f207468652075736572000060448201526064016101d9565b505050505050565b6106126108a6565b61061c6000610900565b565b600080341161067e5760405162461bcd60e51b815260206004820152602660248201527f596f75206e65656420746f2073656e6420736f6d65204d4154494320746f20706044820152651c9bd8d9595960d21b60648201526084016101d9565b6001600160a01b0382166000908152600160205260408120546106a19034610a41565b6040516370a0823160e01b81523060048201529091506000906001600160a01b038516906370a0823190602401602060405180830381865afa1580156106eb573d6000803e3d6000fd5b505050506040513d601f19601f8201168201806040525081019061070f91906109e4565b9050818110156107615760405162461bcd60e51b815260206004820152601e60248201527f56656e646f722068617320696e73756666696369656e7420746f6b656e73000060448201526064016101d9565b60405163a9059cbb60e01b8152336004820152602481018390526000906001600160a01b0386169063a9059cbb906044016020604051808303816000875af11580156107b1573d6000803e3d6000fd5b505050506040513d601f19601f820116820180604052508101906107d59190610a1f565b9050806108245760405162461bcd60e51b815260206004820181905260248201527f4661696c656420746f207472616e7366657220746f6b656e20746f207573657260448201526064016101d9565b50909392505050565b6108356108a6565b6001600160a01b03811661089a5760405162461bcd60e51b815260206004820152602660248201527f4f776e61626c653a206e6577206f776e657220697320746865207a65726f206160448201526564647265737360d01b60648201526084016101d9565b6108a381610900565b50565b6000546001600160a01b0316331461061c5760405162461bcd60e51b815260206004820181905260248201527f4f776e61626c653a2063616c6c6572206973206e6f7420746865206f776e657260448201526064016101d9565b600080546001600160a01b038381166001600160a01b0319831681178455604051919092169283917f8be0079c531659141344cd1fd0a4f28419497f9722a3daafe3b4186f6b6457e09190a35050565b80356001600160a01b038116811461096757600080fd5b919050565b6000806040838503121561097f57600080fd5b61098883610950565b946020939093013593505050565b600080604083850312156109a957600080fd5b823591506109b960208401610950565b90509250929050565b6000602082840312156109d457600080fd5b6109dd82610950565b9392505050565b6000602082840312156109f657600080fd5b5051919050565b600082610a1a57634e487b7160e01b600052601260045260246000fd5b500490565b600060208284031215610a3157600080fd5b815180151581146109dd57600080fd5b8082028115828204841417610a6657634e487b7160e01b600052601160045260246000fd5b9291505056fea26469706673582212209b1df4ec3e1fb7e6128c5aba4a131fda85885fc354dc5806a1916763990912cf64736f6c63430008110033",
  "immutableReferences": {},
  "source": "// SPDX-License-Identifier: Unlicense\npragma solidity ^0.8.4;\n\nimport '@openzeppelin/contracts/token/ERC20/ERC20.sol';\nimport '@openzeppelin/contracts/access/Ownable.sol';\n\ncontract VaultVendor is Ownable {\n  mapping(address => uint256) public tokens;\n\n  event BuyTokens(address buyer, uint256 amountOfMATIC, uint256 amountOfTokens);\n\n  constructor() {}\n\n  function updateTokenVendor(\n    address tokenAddress,\n    uint256 tokenPerETH\n  ) public onlyOwner {\n    require(tokenPerETH > 0, 'Token per eth must be higher than 0');\n    tokens[tokenAddress] = tokenPerETH;\n  }\n\n  function buyTokens(\n    address tokenAddress\n  ) public payable returns (uint256 tokenAmount) {\n    require(msg.value > 0, 'You need to send some MATIC to proceed');\n\n    uint256 amountToBuy = msg.value * tokens[tokenAddress];\n\n    uint256 vendorBalance = ERC20(tokenAddress).balanceOf(address(this));\n    require(vendorBalance >= amountToBuy, 'Vendor has insufficient tokens');\n\n    bool sent = ERC20(tokenAddress).transfer(msg.sender, amountToBuy);\n    require(sent, 'Failed to transfer token to user');\n\n    return amountToBuy;\n  }\n\n  function sellTokens(uint256 tokenAmountToSell, address tokenAddress) public {\n    require(\n      tokenAmountToSell > 0,\n      'Specify an amount of token greater than zero'\n    );\n\n    uint256 userBalance = ERC20(tokenAddress).balanceOf(msg.sender);\n    require(userBalance >= tokenAmountToSell, 'You have insufficient tokens');\n\n    uint256 amountOfETHToTransfer = tokenAmountToSell / tokens[tokenAddress];\n    uint256 ownerETHBalance = address(this).balance;\n    require(\n      ownerETHBalance >= amountOfETHToTransfer,\n      'Vendor has insufficient funds'\n    );\n    bool sent = ERC20(tokenAddress).transferFrom(\n      msg.sender,\n      address(this),\n      tokenAmountToSell\n    );\n    require(sent, 'Failed to transfer tokens from user to vendor');\n\n    (sent, ) = msg.sender.call{value: amountOfETHToTransfer}('');\n    require(sent, 'Failed to send ETH to the user');\n  }\n\n  function withdraw() public onlyOwner {\n    uint256 ownerBalance = address(this).balance;\n    require(ownerBalance > 0, 'No ETH present in Vendor');\n    (bool sent, ) = msg.sender.call{value: address(this).balance}('');\n    require(sent, 'Failed to withdraw');\n  }\n}\n",
  "sourcePath": "/Users/alberto/Desktop/Enalbis/myCask/nft-marketplace-frontend/contracts/VaultVendor.sol",
  "compiler": {
    "name": "solc",
    "version": "0.8.17+commit.8df45f5f.Emscripten.clang"
  },
  "schemaVersion": "3.4.11",
  "updatedAt": "2023-01-19T22:06:48.519Z",
  "networkType": "ethereum",
  "devdoc": {
    "kind": "dev",
    "methods": {
      "owner()": {
        "details": "Returns the address of the current owner."
      },
      "renounceOwnership()": {
        "details": "Leaves the contract without owner. It will not be possible to call `onlyOwner` functions anymore. Can only be called by the current owner. NOTE: Renouncing ownership will leave the contract without an owner, thereby removing any functionality that is only available to the owner."
      },
      "transferOwnership(address)": {
        "details": "Transfers ownership of the contract to a new account (`newOwner`). Can only be called by the current owner."
      }
    },
    "version": 1
  },
  "userdoc": {
    "kind": "user",
    "methods": {},
    "version": 1
  }
}