{
  "contractName": "VaultFactory",
  "abi": [
    {
      "inputs": [],
      "stateMutability": "nonpayable",
      "type": "constructor"
    },
    {
      "anonymous": false,
      "inputs": [
        {
          "indexed": true,
          "internalType": "address",
          "name": "token",
          "type": "address"
        },
        {
          "indexed": false,
          "internalType": "uint256",
          "name": "id",
          "type": "uint256"
        },
        {
          "indexed": false,
          "internalType": "uint256",
          "name": "price",
          "type": "uint256"
        },
        {
          "indexed": false,
          "internalType": "address",
          "name": "vault",
          "type": "address"
        },
        {
          "indexed": false,
          "internalType": "uint256",
          "name": "vaultId",
          "type": "uint256"
        }
      ],
      "name": "Mint",
      "type": "event"
    },
    {
      "anonymous": false,
      "inputs": [
        {
          "indexed": true,
          "internalType": "address",
          "name": "previousOwner",
          "type": "address"
        },
        {
          "indexed": true,
          "internalType": "address",
          "name": "newOwner",
          "type": "address"
        }
      ],
      "name": "OwnershipTransferred",
      "type": "event"
    },
    {
      "anonymous": false,
      "inputs": [
        {
          "indexed": false,
          "internalType": "address",
          "name": "account",
          "type": "address"
        }
      ],
      "name": "Paused",
      "type": "event"
    },
    {
      "anonymous": false,
      "inputs": [
        {
          "indexed": false,
          "internalType": "address",
          "name": "account",
          "type": "address"
        }
      ],
      "name": "Unpaused",
      "type": "event"
    },
    {
      "inputs": [],
      "name": "logic",
      "outputs": [
        {
          "internalType": "address",
          "name": "",
          "type": "address"
        }
      ],
      "stateMutability": "view",
      "type": "function",
      "constant": true
    },
    {
      "inputs": [],
      "name": "owner",
      "outputs": [
        {
          "internalType": "address",
          "name": "",
          "type": "address"
        }
      ],
      "stateMutability": "view",
      "type": "function",
      "constant": true
    },
    {
      "inputs": [],
      "name": "paused",
      "outputs": [
        {
          "internalType": "bool",
          "name": "",
          "type": "bool"
        }
      ],
      "stateMutability": "view",
      "type": "function",
      "constant": true
    },
    {
      "inputs": [],
      "name": "renounceOwnership",
      "outputs": [],
      "stateMutability": "nonpayable",
      "type": "function"
    },
    {
      "inputs": [
        {
          "internalType": "address",
          "name": "newOwner",
          "type": "address"
        }
      ],
      "name": "transferOwnership",
      "outputs": [],
      "stateMutability": "nonpayable",
      "type": "function"
    },
    {
      "inputs": [],
      "name": "vaultCount",
      "outputs": [
        {
          "internalType": "uint256",
          "name": "",
          "type": "uint256"
        }
      ],
      "stateMutability": "view",
      "type": "function",
      "constant": true
    },
    {
      "inputs": [
        {
          "internalType": "uint256",
          "name": "",
          "type": "uint256"
        }
      ],
      "name": "vaults",
      "outputs": [
        {
          "internalType": "address",
          "name": "",
          "type": "address"
        }
      ],
      "stateMutability": "view",
      "type": "function",
      "constant": true
    },
    {
      "inputs": [
        {
          "internalType": "string",
          "name": "_name",
          "type": "string"
        },
        {
          "internalType": "string",
          "name": "_symbol",
          "type": "string"
        },
        {
          "internalType": "address",
          "name": "_token",
          "type": "address"
        },
        {
          "internalType": "uint256",
          "name": "_id",
          "type": "uint256"
        },
        {
          "internalType": "uint256",
          "name": "_supply",
          "type": "uint256"
        },
        {
          "internalType": "uint256",
          "name": "_listPrice",
          "type": "uint256"
        }
      ],
      "name": "mint",
      "outputs": [
        {
          "internalType": "uint256",
          "name": "",
          "type": "uint256"
        }
      ],
      "stateMutability": "nonpayable",
      "type": "function"
    },
    {
      "inputs": [],
      "name": "pause",
      "outputs": [],
      "stateMutability": "nonpayable",
      "type": "function"
    },
    {
      "inputs": [],
      "name": "unpause",
      "outputs": [],
      "stateMutability": "nonpayable",
      "type": "function"
    }
  ],
  "bytecode": "0x60a060405234801561001057600080fd5b5061001a33610061565b6000805460ff60a01b19169055604051610033906100b1565b604051809103906000f08015801561004f573d6000803e3d6000fd5b506001600160a01b03166080526100be565b600080546001600160a01b038381166001600160a01b0319831681178455604051919092169283917f8be0079c531659141344cd1fd0a4f28419497f9722a3daafe3b4186f6b6457e09190a35050565b6114c180610cf283390190565b608051610c126100e06000396000818161014d01526102a30152610c126000f3fe608060405234801561001057600080fd5b506004361061009e5760003560e01c80638da5cb5b116100665780638da5cb5b14610120578063a7c6a10014610131578063d7dfa0dd14610148578063f2fde38b1461016f578063fbde27561461018257600080fd5b80633f4ba83a146100a35780635c975abb146100ad578063715018a6146100cf5780638456cb59146100d75780638c64ea4a146100df575b600080fd5b6100ab610195565b005b600054600160a01b900460ff1660405190151581526020015b60405180910390f35b6100ab6101a7565b6100ab6101b9565b6101086100ed36600461060e565b6002602052600090815260409020546001600160a01b031681565b6040516001600160a01b0390911681526020016100c6565b6000546001600160a01b0316610108565b61013a60015481565b6040519081526020016100c6565b6101087f000000000000000000000000000000000000000000000000000000000000000081565b6100ab61017d366004610643565b6101c9565b61013a610190366004610708565b610247565b61019d610421565b6101a561047b565b565b6101af610421565b6101a560006104d0565b6101c1610421565b6101a5610520565b6101d1610421565b6001600160a01b03811661023b5760405162461bcd60e51b815260206004820152602660248201527f4f776e61626c653a206e6577206f776e657220697320746865207a65726f206160448201526564647265737360d01b60648201526084015b60405180910390fd5b610244816104d0565b50565b6000610251610563565b600033868686868c8c60405160240161027097969594939291906107de565b60408051601f198184030181529181526020820180516001600160e01b0316631a7413cf60e31b179052519091506000907f00000000000000000000000000000000000000000000000000000000000000009083906102ce90610600565b6102d992919061083b565b604051809103906000f0801580156102f5573d6000803e3d6000fd5b509050866001600160a01b03167ff9c32fbc56ff04f32a233ebc26e388564223745e28abd8d0781dd906537f563e878684600154604051610358949392919093845260208401929092526001600160a01b03166040830152606082015260800190565b60405180910390a2604051632142170760e11b81523360048201526001600160a01b038281166024830152604482018890528816906342842e0e90606401600060405180830381600087803b1580156103b057600080fd5b505af11580156103c4573d6000803e3d6000fd5b505060018054600090815260026020526040812080546001600160a01b0319166001600160a01b038716179055815493509091506104018361087d565b9190505550600180546104149190610896565b9998505050505050505050565b6000546001600160a01b031633146101a55760405162461bcd60e51b815260206004820181905260248201527f4f776e61626c653a2063616c6c6572206973206e6f7420746865206f776e65726044820152606401610232565b6104836105b0565b6000805460ff60a01b191690557f5db9ee0a495bf2e6ff9c91a7834c1ba4fdd244a5e8aa4e537bd38aeae4b073aa335b6040516001600160a01b03909116815260200160405180910390a1565b600080546001600160a01b038381166001600160a01b0319831681178455604051919092169283917f8be0079c531659141344cd1fd0a4f28419497f9722a3daafe3b4186f6b6457e09190a35050565b610528610563565b6000805460ff60a01b1916600160a01b1790557f62e78cea01bee320cd4e420270b5ea74000d11b0c9f74754ebdbfc544b05a2586104b33390565b600054600160a01b900460ff16156101a55760405162461bcd60e51b815260206004820152601060248201526f14185d5cd8589b194e881c185d5cd95960821b6044820152606401610232565b600054600160a01b900460ff166101a55760405162461bcd60e51b815260206004820152601460248201527314185d5cd8589b194e881b9bdd081c185d5cd95960621b6044820152606401610232565b61032d80620008b083390190565b60006020828403121561062057600080fd5b5035919050565b80356001600160a01b038116811461063e57600080fd5b919050565b60006020828403121561065557600080fd5b61065e82610627565b9392505050565b634e487b7160e01b600052604160045260246000fd5b600082601f83011261068c57600080fd5b813567ffffffffffffffff808211156106a7576106a7610665565b604051601f8301601f19908116603f011681019082821181831017156106cf576106cf610665565b816040528381528660208588010111156106e857600080fd5b836020870160208301376000602085830101528094505050505092915050565b60008060008060008060c0878903121561072157600080fd5b863567ffffffffffffffff8082111561073957600080fd5b6107458a838b0161067b565b9750602089013591508082111561075b57600080fd5b5061076889828a0161067b565b95505061077760408801610627565b9350606087013592506080870135915060a087013590509295509295509295565b6000815180845260005b818110156107be576020818501810151868301820152016107a2565b506000602082860101526020601f19601f83011685010191505092915050565b600060018060a01b03808a16835280891660208401525086604083015285606083015284608083015260e060a083015261081b60e0830185610798565b82810360c084015261082d8185610798565b9a9950505050505050505050565b6001600160a01b038316815260406020820181905260009061085f90830184610798565b949350505050565b634e487b7160e01b600052601160045260246000fd5b60006001820161088f5761088f610867565b5060010190565b818103818111156108a9576108a9610867565b9291505056fe60a060405234801561001057600080fd5b5060405161032d38038061032d83398101604081905261002f91610103565b6001600160a01b038216608081905260405160009182916100519085906101d1565b600060405180830381855af49150503d806000811461008c576040519150601f19603f3d011682016040523d82523d6000602084013e610091565b606091505b50915091508181906100bf5760405162461bcd60e51b81526004016100b691906101ed565b60405180910390fd5b5050505050610220565b634e487b7160e01b600052604160045260246000fd5b60005b838110156100fa5781810151838201526020016100e2565b50506000910152565b6000806040838503121561011657600080fd5b82516001600160a01b038116811461012d57600080fd5b60208401519092506001600160401b038082111561014a57600080fd5b818501915085601f83011261015e57600080fd5b815181811115610170576101706100c9565b604051601f8201601f19908116603f01168101908382118183101715610198576101986100c9565b816040528281528860208487010111156101b157600080fd5b6101c28360208301602088016100df565b80955050505050509250929050565b600082516101e38184602087016100df565b9190910192915050565b602081526000825180602084015261020c8160408501602087016100df565b601f01601f19169190910160400192915050565b60805160ef61023e60003960008181602a0152607b015260ef6000f3fe608060405260043610601f5760003560e01c8063d7dfa0dd14606b576025565b36602557005b6040517f00000000000000000000000000000000000000000000000000000000000000009036600082376000803683855af43d806000843e8180156067578184f35b8184fd5b348015607657600080fd5b50609d7f000000000000000000000000000000000000000000000000000000000000000081565b6040516001600160a01b03909116815260200160405180910390f3fea2646970667358221220721dba0b0f13e8126efca7f6b0e47ff18e162e7d4d64834a4dca4729eee7d6d464736f6c63430008110033a264697066735822122074d0f215f561544cd3e3199e52970fe22b80a4b0dda9fb083c7a82581fa7907d64736f6c63430008110033608060405234801561001057600080fd5b506114a1806100206000396000f3fe60806040526004361061014b5760003560e01c806395d89b41116100b6578063d3a09e781161006f578063d3a09e78146103c8578063db006a75146103e8578063db2e1eed14610408578063dd62ed3e1461041d578063f97ed5091461043d578063fc0c546a1461045c57600080fd5b806395d89b411461031a5780639a4e6d341461032f578063a457c2d714610345578063a9059cbb14610365578063af640d0f14610385578063c91de6491461039b57600080fd5b80633950935111610108578063395093511461024a5780633fc8cef31461026a578063466ccac0146102aa57806364edfbf0146102c457806370a08231146102ce5780637b5581ed1461030457600080fd5b806306fdde0314610150578063095ea7b31461017b578063150b7a02146101ab57806318160ddd146101ef57806323b872dd1461020e578063313ce5671461022e575b600080fd5b34801561015c57600080fd5b5061016561047c565b6040516101729190610f6e565b60405180910390f35b34801561018757600080fd5b5061019b610196366004610fd8565b61050e565b6040519015158152602001610172565b3480156101b757600080fd5b506101d66101c636600461108e565b630a85bd0160e11b949350505050565b6040516001600160e01b03199091168152602001610172565b3480156101fb57600080fd5b506035545b604051908152602001610172565b34801561021a57600080fd5b5061019b61022936600461110a565b610528565b34801561023a57600080fd5b5060405160128152602001610172565b34801561025657600080fd5b5061019b610265366004610fd8565b61054c565b34801561027657600080fd5b5061029273c02aaa39b223fe8d0a0e5c4f27ead9083c756cc281565b6040516001600160a01b039091168152602001610172565b3480156102b657600080fd5b50609c5461019b9060ff1681565b6102cc61056e565b005b3480156102da57600080fd5b506102006102e9366004611146565b6001600160a01b031660009081526033602052604090205490565b34801561031057600080fd5b5061020060995481565b34801561032657600080fd5b50610165610682565b34801561033b57600080fd5b50610200609a5481565b34801561035157600080fd5b5061019b610360366004610fd8565b610691565b34801561037157600080fd5b5061019b610380366004610fd8565b61070c565b34801561039157600080fd5b5061020060985481565b3480156103a757600080fd5b506102006103b6366004611146565b609b6020526000908152604090205481565b3480156103d457600080fd5b506102cc6103e3366004611188565b61071a565b3480156103f457600080fd5b506102cc61040336600461122a565b610892565b34801561041457600080fd5b50610200610948565b34801561042957600080fd5b50610200610438366004611243565b61096f565b34801561044957600080fd5b50609c5461019b90610100900460ff1681565b34801561046857600080fd5b50609754610292906001600160a01b031681565b60606036805461048b90611276565b80601f01602080910402602001604051908101604052809291908181526020018280546104b790611276565b80156105045780601f106104d957610100808354040283529160200191610504565b820191906000526020600020905b8154815290600101906020018083116104e757829003601f168201915b5050505050905090565b60003361051c81858561099a565b60019150505b92915050565b600033610536858285610abf565b610541858585610b33565b506001949350505050565b60003361051c81858561055f838361096f565b61056991906112c6565b61099a565b609c5460ff166105b45760405162461bcd60e51b815260206004820152600c60248201526b4e6f7420666f722073616c6560a01b60448201526064015b60405180910390fd5b6105bc610948565b3410156106035760405162461bcd60e51b8152602060048201526015602482015274139bdd08195b9bdd59da08195d1a195c881cd95b9d605a1b60448201526064016105ab565b6097546098546040516323b872dd60e01b815230600482015233602482015260448101919091526001600160a01b03909116906323b872dd90606401600060405180830381600087803b15801561065957600080fd5b505af115801561066d573d6000803e3d6000fd5b5050609c805461ffff19166101001790555050565b60606037805461048b90611276565b6000338161069f828661096f565b9050838110156106ff5760405162461bcd60e51b815260206004820152602560248201527f45524332303a2064656372656173656420616c6c6f77616e63652062656c6f77604482015264207a65726f60d81b60648201526084016105ab565b610541828686840361099a565b60003361051c818585610b33565b600054610100900460ff161580801561073a5750600054600160ff909116105b806107545750303b158015610754575060005460ff166001145b6107b75760405162461bcd60e51b815260206004820152602e60248201527f496e697469616c697a61626c653a20636f6e747261637420697320616c72656160448201526d191e481a5b9a5d1a585b1a5e995960921b60648201526084016105ab565b6000805460ff1916600117905580156107da576000805461ff0019166101001790555b6107e48383610cde565b6107ec610d13565b609780546001600160a01b0319166001600160a01b0389161790556098869055609c805460ff1916600117905561082385856112d9565b60995583156108325784610835565b60005b609a556108428886610d3c565b8015610888576000805461ff0019169055604051600181527f7f26b83ff96e1f2b6a682f133852f6798a09c465da95921460cefb38474024989060200160405180910390a15b5050505050505050565b609c54610100900460ff166108e95760405162461bcd60e51b815260206004820152601860248201527f526564656d7074696f6e206e6f7420617661696c61626c65000000000000000060448201526064016105ab565b4760006108f560355490565b6108ff83856112d9565b61090991906112f0565b90506109153384610dfd565b604051339082156108fc029083906000818181858888f19350505050158015610942573d6000803e3d6000fd5b50505050565b6000609a5460001461096957609a5460995461096491906112f0565b905090565b50600090565b6001600160a01b03918216600090815260346020908152604080832093909416825291909152205490565b6001600160a01b0383166109fc5760405162461bcd60e51b8152602060048201526024808201527f45524332303a20617070726f76652066726f6d20746865207a65726f206164646044820152637265737360e01b60648201526084016105ab565b6001600160a01b038216610a5d5760405162461bcd60e51b815260206004820152602260248201527f45524332303a20617070726f766520746f20746865207a65726f206164647265604482015261737360f01b60648201526084016105ab565b6001600160a01b0383811660008181526034602090815260408083209487168084529482529182902085905590518481527f8c5be1e5ebec7d5bd14f71427d1e84f3dd0314c0f7b2291e5b200ac8c7c3b92591015b60405180910390a3505050565b6000610acb848461096f565b905060001981146109425781811015610b265760405162461bcd60e51b815260206004820152601d60248201527f45524332303a20696e73756666696369656e7420616c6c6f77616e636500000060448201526064016105ab565b610942848484840361099a565b6001600160a01b038316610b975760405162461bcd60e51b815260206004820152602560248201527f45524332303a207472616e736665722066726f6d20746865207a65726f206164604482015264647265737360d81b60648201526084016105ab565b6001600160a01b038216610bf95760405162461bcd60e51b815260206004820152602360248201527f45524332303a207472616e7366657220746f20746865207a65726f206164647260448201526265737360e81b60648201526084016105ab565b6001600160a01b03831660009081526033602052604090205481811015610c715760405162461bcd60e51b815260206004820152602660248201527f45524332303a207472616e7366657220616d6f756e7420657863656564732062604482015265616c616e636560d01b60648201526084016105ab565b6001600160a01b0380851660008181526033602052604080822086860390559286168082529083902080548601905591517fddf252ad1be2c89b69c2b068fc378daa952ba7f163c4a11628f55a4df523b3ef90610cd19086815260200190565b60405180910390a3610942565b600054610100900460ff16610d055760405162461bcd60e51b81526004016105ab90611312565b610d0f8282610f2e565b5050565b600054610100900460ff16610d3a5760405162461bcd60e51b81526004016105ab90611312565b565b6001600160a01b038216610d925760405162461bcd60e51b815260206004820152601f60248201527f45524332303a206d696e7420746f20746865207a65726f20616464726573730060448201526064016105ab565b8060356000828254610da491906112c6565b90915550506001600160a01b0382166000818152603360209081526040808320805486019055518481527fddf252ad1be2c89b69c2b068fc378daa952ba7f163c4a11628f55a4df523b3ef910160405180910390a35050565b6001600160a01b038216610e5d5760405162461bcd60e51b815260206004820152602160248201527f45524332303a206275726e2066726f6d20746865207a65726f206164647265736044820152607360f81b60648201526084016105ab565b6001600160a01b03821660009081526033602052604090205481811015610ed15760405162461bcd60e51b815260206004820152602260248201527f45524332303a206275726e20616d6f756e7420657863656564732062616c616e604482015261636560f01b60648201526084016105ab565b6001600160a01b03831660008181526033602090815260408083208686039055603580548790039055518581529192917fddf252ad1be2c89b69c2b068fc378daa952ba7f163c4a11628f55a4df523b3ef9101610ab2565b505050565b600054610100900460ff16610f555760405162461bcd60e51b81526004016105ab90611312565b6036610f6183826113ab565b506037610f2982826113ab565b600060208083528351808285015260005b81811015610f9b57858101830151858201604001528201610f7f565b506000604082860101526040601f19601f8301168501019250505092915050565b80356001600160a01b0381168114610fd357600080fd5b919050565b60008060408385031215610feb57600080fd5b610ff483610fbc565b946020939093013593505050565b634e487b7160e01b600052604160045260246000fd5b600067ffffffffffffffff8084111561103357611033611002565b604051601f8501601f19908116603f0116810190828211818310171561105b5761105b611002565b8160405280935085815286868601111561107457600080fd5b858560208301376000602087830101525050509392505050565b600080600080608085870312156110a457600080fd5b6110ad85610fbc565b93506110bb60208601610fbc565b925060408501359150606085013567ffffffffffffffff8111156110de57600080fd5b8501601f810187136110ef57600080fd5b6110fe87823560208401611018565b91505092959194509250565b60008060006060848603121561111f57600080fd5b61112884610fbc565b925061113660208501610fbc565b9150604084013590509250925092565b60006020828403121561115857600080fd5b61116182610fbc565b9392505050565b600082601f83011261117957600080fd5b61116183833560208501611018565b600080600080600080600060e0888a0312156111a357600080fd5b6111ac88610fbc565b96506111ba60208901610fbc565b955060408801359450606088013593506080880135925060a088013567ffffffffffffffff808211156111ec57600080fd5b6111f88b838c01611168565b935060c08a013591508082111561120e57600080fd5b5061121b8a828b01611168565b91505092959891949750929550565b60006020828403121561123c57600080fd5b5035919050565b6000806040838503121561125657600080fd5b61125f83610fbc565b915061126d60208401610fbc565b90509250929050565b600181811c9082168061128a57607f821691505b6020821081036112aa57634e487b7160e01b600052602260045260246000fd5b50919050565b634e487b7160e01b600052601160045260246000fd5b80820180821115610522576105226112b0565b8082028115828204841417610522576105226112b0565b60008261130d57634e487b7160e01b600052601260045260246000fd5b500490565b6020808252602b908201527f496e697469616c697a61626c653a20636f6e7472616374206973206e6f74206960408201526a6e697469616c697a696e6760a81b606082015260800190565b601f821115610f2957600081815260208120601f850160051c810160208610156113845750805b601f850160051c820191505b818110156113a357828155600101611390565b505050505050565b815167ffffffffffffffff8111156113c5576113c5611002565b6113d9816113d38454611276565b8461135d565b602080601f83116001811461140e57600084156113f65750858301515b600019600386901b1c1916600185901b1785556113a3565b600085815260208120601f198616915b8281101561143d5788860151825594840194600190910190840161141e565b508582101561145b5787850151600019600388901b60f8161c191681555b5050505050600190811b0190555056fea26469706673582212207bb249ad0b1f35b87c7799f378f74757f6dd3d9914a3859a08e7d798fa9d6c1f64736f6c63430008110033",
  "immutableReferences": {
    "8900": [
      {
        "length": 32,
        "start": 333
      },
      {
        "length": 32,
        "start": 675
      }
    ]
  },
  "source": "//SPDX-License-Identifier: MIT\npragma solidity ^0.8.0;\n\nimport '@openzeppelin/contracts/access/Ownable.sol';\nimport '@openzeppelin/contracts/security/Pausable.sol';\nimport '@openzeppelin/contracts/token/ERC721/ERC721.sol';\nimport '@openzeppelin/contracts/token/ERC721/utils/ERC721Holder.sol';\n\nimport '@openzeppelin/contracts/token/ERC20/IERC20.sol';\nimport '@openzeppelin/contracts/utils/math/SafeMath.sol';\nimport '@openzeppelin/contracts/token/ERC20/utils/SafeERC20.sol';\nimport '@openzeppelin/contracts/utils/math/SafeMath.sol';\nimport '@openzeppelin/contracts/security/ReentrancyGuard.sol';\n\nimport './InitializedProxy.sol';\nimport './TokenVault.sol';\n\ncontract VaultFactory is Ownable, Pausable {\n  /// @notice the number of ERC721 vaults\n  uint256 public vaultCount;\n\n  /// @notice the mapping of vault number to vault contract\n  mapping(uint256 => address) public vaults;\n\n  /// @notice the TokenVault logic contract\n  address public immutable logic;\n\n  event Mint(\n    address indexed token,\n    uint256 id,\n    uint256 price,\n    address vault,\n    uint256 vaultId\n  );\n\n  constructor() {\n    logic = address(new TokenVault());\n  }\n\n  /// @notice the function to mint a new vault\n  /// @param _name the desired name of the vault\n  /// @param _symbol the desired sumbol of the vault\n  /// @param _token the ERC721 token address fo the NFT\n  /// @param _id the uint256 ID of the token\n  /// @param _supply is the initial total supply of the token\n  /// @param _listPrice the initial price of the NFT\n  /// @return the ID of the vault\n  function mint(\n    string memory _name,\n    string memory _symbol,\n    address _token,\n    uint256 _id,\n    uint256 _supply,\n    uint256 _listPrice\n  ) external whenNotPaused returns (uint256) {\n    bytes memory _initializationCalldata = abi.encodeWithSignature(\n      'initialize(address,address,uint256,uint256,uint256,string,string)',\n      msg.sender,\n      _token,\n      _id,\n      _supply,\n      _listPrice,\n      _name,\n      _symbol\n    );\n\n    address vault = address(\n      new InitializedProxy(logic, _initializationCalldata)\n    );\n\n    emit Mint(_token, _id, _listPrice, vault, vaultCount);\n\n    IERC721(_token).safeTransferFrom(msg.sender, vault, _id);\n\n    vaults[vaultCount] = vault;\n    vaultCount++;\n\n    return vaultCount - 1;\n  }\n\n  function pause() external onlyOwner {\n    _pause();\n  }\n\n  function unpause() external onlyOwner {\n    _unpause();\n  }\n}\n",
  "sourcePath": "/Users/alberto/Desktop/Enalbis/myCask/nft-marketplace-frontend/contracts/VaultFactory.sol",
  "compiler": {
    "name": "solc",
    "version": "0.8.17+commit.8df45f5f.Emscripten.clang"
  },
  "schemaVersion": "3.4.11",
  "updatedAt": "2023-01-19T22:06:48.512Z",
  "networkType": "ethereum",
  "devdoc": {
    "kind": "dev",
    "methods": {
      "mint(string,string,address,uint256,uint256,uint256)": {
        "params": {
          "_id": "the uint256 ID of the token",
          "_listPrice": "the initial price of the NFT",
          "_name": "the desired name of the vault",
          "_supply": "is the initial total supply of the token",
          "_symbol": "the desired sumbol of the vault",
          "_token": "the ERC721 token address fo the NFT"
        },
        "returns": {
          "_0": "the ID of the vault"
        }
      },
      "owner()": {
        "details": "Returns the address of the current owner."
      },
      "paused()": {
        "details": "Returns true if the contract is paused, and false otherwise."
      },
      "renounceOwnership()": {
        "details": "Leaves the contract without owner. It will not be possible to call `onlyOwner` functions anymore. Can only be called by the current owner. NOTE: Renouncing ownership will leave the contract without an owner, thereby removing any functionality that is only available to the owner."
      },
      "transferOwnership(address)": {
        "details": "Transfers ownership of the contract to a new account (`newOwner`). Can only be called by the current owner."
      }
    },
    "version": 1
  },
  "userdoc": {
    "kind": "user",
    "methods": {
      "logic()": {
        "notice": "the TokenVault logic contract"
      },
      "mint(string,string,address,uint256,uint256,uint256)": {
        "notice": "the function to mint a new vault"
      },
      "vaultCount()": {
        "notice": "the number of ERC721 vaults"
      },
      "vaults(uint256)": {
        "notice": "the mapping of vault number to vault contract"
      }
    },
    "version": 1
  }
}